:1000000000800020BD010000792700003D2700008E
:100010003D2700003D2700003D2700003D27000050
:100020003D2700003D2700003D2700007927000004
:10003000792700003D270000792700002D270000C8
:100040007927000079270000792700007927000030
:100050007927000079270000792700007927000020
:100060007927000079270000792700007927000010
:100070007927000079270000792700007927000000
:1000800079270000792700007927000079270000F0
:1000900079270000792700007927000079270000E0
:1000A000511900006119000079270000792700002C
:1000B00079270000792700007927000079270000C0
:1000C00079270000792700007927000079270000B0
:1000D00079270000792700007927000079270000A0
:1000E0007927000079270000792700007927000090
:1000F00079270000B543000079270000AD480000D3
:1001000079270000C94C00007927000079270000FA
:10011000792700007927000079270000792700005F
:10012000792700007927000079270000792700004F
:10013000792700007927000079270000792700003F
:10014000792700007927000079270000792700002F
:10015000393E0000513E0000693E0000813E000033
:100160007927000025320000792700007927000058
:1001700079270000792700007927000079270000FF
:1001800079270000792700007927000079270000EF
:1001900079270000792700007927000079270000DF
:1001A00079270000792700007927000079270000CF
:1001B000792700007927000079270000574B4CF27F
:1001C000205210B51A804DF628121A8000BF00BFC9
:1001D00002F0D6FA524B4FF010621A60514A9A6000
:1001E000514ADA60A3F53043203B1A6812F480725A
:1001F00004D14E490A604FF4A8521A604C4B1A7849
:10020000110703D51A7842F008021A70494B4A4C7C
:100210004A482A221A704A4A00239918A14203D256
:10022000195899500433F8E7464B474900228B424E
:1002300002D243F8042BFAE74448454900235A58B0
:100240001A500433B3F5DE7FF9D1424B424A802184
:1002500003F8011B9342FBD1404B3C4A1A60404BD0
:100260000A221A70A3F5805324225A70A0221A7011
:100270009A799207FCD59A79D406FCD4394A9379B5
:1002800003F00C03082B374BF9D103221A714022DB
:100290005A719A799006FCD5324A9179314B4906C8
:1002A000FBD5314A314911600221516020221A7078
:1002B0009A7902F00C020C2AFAD12D4B2D4A1A60C1
:1002C0002D4B2E4A1A6000225A60072243F8042C54
:1002D0002B4AC3F80C2D62B602F066FE134B1B6866
:1002E000DA0705D5274802F045FC274B274A1A6054
:1002F000274B1B785B0609D5234C244A236893427D
:1003000004D1204802F036FC0023236005F034FDC0
:1003100002F03CFA03F000FEFEE700BF0E200540AD
:1003200030800440823F04000100002B14D00340C1
:1003300002D0074000E007407C95FF1F746A000070
:100340006087FF1F7C95FF1FE09EFF1F0082FF1F3D
:100350000000000000E400E05FE400E008ED00E0E1
:100360000050064000400640448004400000030165
:1003700004800440C010050014E000E0FF76010096
:10038000000020208FE91F561CE00340A5C3945AAB
:1003900000F00740FFFFFFFFFFFFFFFFFFFFFFFF32
:1003A000FFFFFFFFFFFFFFFFFFFFFFFFFFFFFFFF5D
:1003B000FFFFFFFFFFFFFFFFFFFFFFFFFFFFFFFF4D
:1003C000FFFFFFFFFFFFFFFFFFFFFFFFFFFFFFFF3D
:1003D000FFFFFFFFFFFFFFFFFFFFFFFFFFFFFFFF2D
:1003E000FFFFFFFFFFFFFFFFFFFFFFFFFFFFFFFF1D
:1003F000FFFFFFFFFFFFFFFFFFFFFFFFFFFFFFFF0D
:10040000FFFFFFFFFFFFFFFFFFFFFFFFFEFFFFFFFD
:1004100010B5054C237833B9044B13B10448AFF33E
:1004200000800123237010BD7C95FF1F0000000099
:10043000746A000008B5064B1BB106480649AFF3C5
:1004400000800648036813B1054B03B1984708BD07
:1004500000000000746A00008095FF1F7C95FF1F5C
:10046000000000002DE9F84390F8E13080F82031D9
:100470000A2B00F24181DFE813F00B00280037005F
:100480009E00D00005013F013F013F013F012F01C8
:1004900090F8E230003318BF012380F8303290F832
:1004A000E33090F8E42003EB0223A0F8323290F816
:1004B000EA3080F8343290F8EB3080F8213190F84F
:1004C000FE3080F8BC32BDE8F88390F8E230002BB3
:1004D00000F012814079012102F0F2FB0D20012190
:1004E00002F0EEFBBDE8F8830646023000273C46EA
:1004F0003D462346294681464A4600EB030C9CF8BC
:10050000E0804FEAC30C08FA0CFC614489B2013365
:10051000202BF1D1B446A6F84A122346294602EB15
:10052000030898F8E2904FEAC30809FA08F8414432
:1005300089B20133202BF2D1ACF84C1292F8E4309E
:100540008CF84E3292F8E5308CF84F32234629462B
:1005500002EB030898F8E6904FEAC30809FA08F896
:10056000414489B20133202BF2D1ACF8501223461A
:10057000294602EB030898F8E8904FEAC30809FA05
:1005800008F8414489B20133202BF2D1ACF8521261
:1005900092F8EA308CF8563292F8EB308CF85932F7
:1005A00092F8EC308CF85A32243724360E306C2F07
:1005B0009FD1BDE8F88390F8E23080F8543290F88B
:1005C000E33080F8553290F8E43080F8573290F8F4
:1005D000E53080F8583290F8F03080F8783290F8B2
:1005E000F13080F8793290F8F23080F87B3290F870
:1005F000F33080F87C3290F8FE3080F89C3290F82E
:10060000FF3080F89D3290F8003180F89F3290F8EA
:10061000013180F8A032BDE8F8830546841C00262D
:100620003746B4463B466146A1464A46E01890F834
:10063000E080D80008FA00F0014489B20133202B91
:10064000F3D1A846A5F8A6123B466146D01890F80B
:10065000E290D80009FA00F0014489B20133202B5E
:10066000F4D1A8F8A81292F8E43088F8AA3292F8E7
:10067000E53088F8AB32083608350E34182ED1D163
:10068000BDE8F88302460346002192F8E24083F871
:10069000564292F8E34083F8574292F8E44083F8D8
:1006A000584292F8E54083F8544292F8E64083F8C5
:1006B00055420832243124336C29E6D190F8FA30BF
:1006C00080F8AA3290F8FE3080F8B23290F8023109
:1006D00080F8BA32BDE8F88390F8E240092C0BD8D4
:1006E00000EB84140023C21892F8EC10E21882F890
:1006F000C0120133202BF6D1BDE8F883F8B50546CA
:1007000001F06AFB314B2B60002385F830324FF447
:100710007A72A5F8322285F8343205F5177305F59B
:10072000327E00222A48014651F8047B0E888468F4
:100730000320012123F8242C23F8222C23F8202C39
:1007400023F81E2C23F81C2C43F8182C03F8142C27
:1007500003F8132C43F8127C23F80E6C43F80C4C6E
:1007600003F8082C03F8072C03F8060C03F8052CF3
:1007700003F8042C03F8032C03F8021C24337345FC
:10078000D8D105F52B7305F531760022642440F6A7
:10079000B830052123F8082C23F8064C23F8040C64
:1007A00003F8021C03F8012C0833B342F2D10023F2
:1007B00085F8BC3205F5307405F5A866204601F0D1
:1007C00069FD4034B442F9D12846F8BDE066000026
:1007D000CC66000070B50646084B036010F5307516
:1007E00007D000F5A864403C204601F077FDA54203
:1007F000F9D1304601F0DEF9304670BDE066000008
:100800002DE9F843814600F5D07500F50F740026F8
:10081000B046012772B62846414601F099FA24F8FD
:10082000040C62B672B62846394601F091FA24F8F3
:10083000020C62B672B628462146A21C231D01F0A6
:1008400067FC62B6203520362434602EE2D109F5EB
:100850000674002572B6204601F054FCA4F88C0002
:1008600062B608340835182DF4D1BDE8F88300BF0E
:1008700008B50021FFF7C4FF08BD00BF10B504464E
:1008800080F8A01090F88510014481F89F200BB9E2
:10089000FFF7EEFF94F8213184F8A13013B1012B5A
:1008A00048D010BD224623460021B2F8380283F812
:1008B000A200001283F8A300B2F83A0283F8A40061
:1008C000001283F8A500B2F83C0283F8A60040F3BA
:1008D000072083F8A700B2F83E0283F8A80040F38F
:1008E000072083F8A900B2F8400283F8AA0040F379
:1008F000072083F8AB0092F8490283F8AC0024315A
:1009000024320E336C29D0D1B4F8A43284F8CC3020
:100910001B1284F8CD30B4F8AC3284F8D0301B12FE
:1009200084F8D130B4F8B43284F8D4301B1284F88F
:10093000D53010BD04F1E102002312F8011F02F8C6
:10094000401C01333D2BF8D110BD00BF2DE9F84309
:100950008046002600F5D0793546012709EB0604CC
:10096000204629462A4601F0DFF9204639462A4624
:1009700001F0DAF9204629462A4601F0C9F9204655
:1009800039462A4601F0C4F92036602EE6D108F532
:100990000670002101F0A2FB08F50870002101F0AB
:1009A0009DFB08F50A70002101F098FBBDE8F88373
:1009B0002DE9F04F83B08B46044600F5D076002732
:1009C0003D46DFF800A1DFF80091A04694F85632CA
:1009D000A3B994F84932002B3ED1304600210A4693
:1009E00001F096F930460121002201F091F900232F
:1009F00084F84932032384F8563256E094F84922A9
:100A000052BB012B02D0022B06D00BE000232B4A55
:100A1000AB5405F809300BE00123284AAB5405F824
:100A2000093005E00023254AAB54012305F80930BD
:100A3000012388F84932224B1B6847F80A303046B8
:100A40001E4B595DFF2201F063F9304619F805107D
:100A5000FF2201F05DF928E0DBF8002057F80A30AA
:100A6000D31A019398F84E32019A98F84F1219440C
:100A7000642000FB01F1914205D2002388F849323D
:100A800088F8563211E0019A642101FB03F3934286
:100A90000BD2304619F80510002201F039F9304622
:100AA000064A515D002201F033F901352434203625
:100AB0000437032D89D103B0BDE8F08FC095FF1F27
:100AC000AC9BFF1FA895FF1F6887FF1F2DE9F84308
:100AD000074600F5D075002426464FF001094FF077
:100AE00096083B19B3F83832B3F5966F0AD9284601
:100AF0003146424601F018F928464946424601F07F
:100B000013F909E028463146324601F00DF928462E
:100B10004946324601F008F9243420356C2CE0D1E6
:100B2000BDE8F8832DE9F8430446002600F5D079A6
:100B3000B046012709EB06052846414694F85422A1
:100B400001F0E6F82846394694F8552201F0E0F81D
:100B50002846414694F8572201F0E6F828463946DF
:100B600094F8582201F0E0F824342036602EE1D1C8
:100B7000BDE8F8832DE9F8430546002400F5D07957
:100B8000A046012709EB04063046414695F8572256
:100B900001F0CAF83046394695F8582201F0C4F8F9
:100BA00024352034602CEDD1BDE8F88338B500F54C
:100BB00006740025204694F8921001F08FFA08354B
:100BC0000834182DF6D138BD2DE9F04F83B08B468F
:100BD000044600F5D07600273D46DFF8FCA0DFF89C
:100BE000FC90A04694F856328BB994F84932002B09
:100BF0003BD1304600210A4601F08AF830460121F7
:100C0000002201F085F8002384F8493256E094F878
:100C1000492252BB012B02D0022B06D00BE000234D
:100C20002B4AAB5405F809300BE00123284AAB549A
:100C300005F8093005E00023254AAB54012305F8E7
:100C40000930012388F84932224B1B6847F80A30E3
:100C500030461F4B595DFF2201F05AF8304619F813
:100C60000510FF2201F054F828E0DBF8002057F8C7
:100C70000A30D31A019398F84E32019A98F84F121D
:100C80001944642000FB01F1914205D2002388F849
:100C9000493288F8563211E0019A642101FB03F3CE
:100CA00093420BD2304619F80510002201F030F8BB
:100CB0003046074A515D002201F02AF801352434FC
:100CC00020360437032D8CD103B0BDE8F08F00BF70
:100CD000A495FF1FAC9BFF1FB495FF1F6487FF1FE8
:100CE0002DE9F04F83B08B46044600F5D0760027FF
:100CF0003D46DFF8ECA0DFF8EC90DFF8EC80224610
:100D000094F8563253B9304600210A4601F000F8F3
:100D100030460121002200F0FBFF55E094F8491213
:100D200051BB012B02D0022B06D00BE0002305F8AB
:100D3000083005F809300BE0012305F8083005F804
:100D4000093005E0002305F80830012305F80930D3
:100D5000012382F84932214B1B6847F80A3030469C
:100D600018F80510FF2200F0D3FF304619F80510DF
:100D7000FF2200F0CDFF27E0DBF8001057F80A3023
:100D8000CB1A019394F84E32019994F84F0218440B
:100D90004FF0640C0CFB00F0884203D2002384F86F
:100DA000493211E0019A642101FB03F393420BD213
:100DB000304619F80510002200F0AAFF304618F856
:100DC0000510002200F0A4FF01352434203604373A
:100DD000032D94D103B0BDE8F08F00BFAC9BFF1F83
:100DE0009895FF1F6C87FF1FC495FF1F10B5044621
:100DF00003F088F8204610BD08B5044801F02EFA2B
:100E00000E2001F0D5FB03F08FF808BDDC95FF1F25
:100E100010B582B0084B1B6802A941F8043D074C8D
:100E20002046FFF7D1FE2046FFF7A4FE2046FFF73D
:100E3000BDFE02B010BD00BFAC9BFF1FDC95FF1FC5
:100E400010B582B0064B1B6802A941F8043D054C61
:100E50002046FFF7B9FE2046FFF78CFE02B010BD1A
:100E6000AC9BFF1FDC95FF1F10B582B0084B1B68C1
:100E700002A941F8043D074C2046FFF7A5FE204695
:100E8000FFF778FE2046FFF791FE02B010BD00BFCD
:100E9000AC9BFF1FDC95FF1F10B582B0084B1B6891
:100EA00002A941F8043D074C2046FFF78DFE20467D
:100EB000FFF760FE2046FFF779FE02B010BD00BFCD
:100EC000AC9BFF1FDC95FF1F10B5064B1B68064C43
:100ED0002046FFF727FE2046FFF74CFE2046FFF78F
:100EE00065FE10BDAC9BFF1FDC95FF1F30B583B0C6
:100EF0000A4B1B6802AD45F8043D094C2046FFF73C
:100F0000B7FC20462946FFF753FD2046FFF7DEFDDC
:100F10002046FFF74BFE03B030BD00BFAC9BFF1F68
:100F2000DC95FF1F10B582B0084B1B6802A941F881
:100F3000043D074C2046FFF7D3FE2046FFF71AFE7C
:100F40002046FFF733FE02B010BD00BFAC9BFF1F71
:100F5000DC95FF1F08B50248FFF7F8FC08BD00BF8D
:100F6000DC95FF1F38B50A4D2846FFF7C7FB094C33
:100F700028460949224604F0EFFE08480023037082
:100F8000802343730649224604F0E6FE38BD00BFC5
:100F9000DC95FF1F6087FF1FD5070000C895FF1F66
:100FA000ED0D000008B5304800F03EFE28B12E4897
:100FB000FFF758FA00222D4B1A802C4B1A88013269
:100FC00092B21A80284B93F83432092B48D8DFE8C4
:100FD00003F005080B141D20292C353EFFF786FF72
:100FE00008BDFFF715FF08BDB2F5FA6F02D2FFF793
:100FF0003BFF08BDFFF7AEFF08BDB2F5FA6F02D2A6
:10100000FFF74AFF08BDFFF7A5FF08BDFFF718FF70
:1010100008BDB2F5FA6F02D2FFF73EFF08BDFFF739
:1010200099FF08BDFFF77EFF08BDB2F5FA6F02D247
:10103000FFF74AFF08BDFFF78DFF08BDB2F5FA6F55
:1010400002D2FFF741FF08BDFFF784FF08BDB2F5EC
:10105000FA6F02D2FFF738FF08BDFFF77BFF08BD2C
:10106000FFF778FF08BD00BFDC95FF1F1C9BFF1F2B
:101070000369D3F83801D3F83431C01A704700BF80
:10108000704700BF0369D3F84422B2F5817F09D8C5
:10109000D3F84422501CC3F84402134483F83C1193
:1010A00001207047012303710020704730B40369A9
:1010B000D3F84442B4F5817F1ED8D3F84442C4F536
:1010C00081740134D3F844522B4403F59E73944247
:1010D00002D201220271224632B18D1811F8014B61
:1010E00003F8014BA942F9D10369D3F84412114422
:1010F000C3F84412104602E001230371002030BC03
:10110000704700BF10B4002202714FF47A748460FB
:101110000273064C0460027541734FF41874044A5C
:1011200004FB012101615DF8044B7047F06600008B
:101130007087FF1F014B0360704700BFF06600001F
:101140002DE9F0019DF814709DF818C09DF81C5011
:101150009DF820600C4639B96649D1F8008048F006
:101160004008C1F8008008E0012906D16149D1F8A2
:10117000008048F08008C1F8008080F848220021F3
:1011800080F84B123AB9436920221A700268117034
:10119000C269117012E04269002F40F0A18096E010
:1011A0005B00DBB21370C2697B00DBB205E07F003D
:1011B000FFB21770C2695B00DBB21370002D40F202
:1011C000032308BF4FF4197340F2036240F26461D5
:1011D000002D0CBF0D46154694B9BCF1010F07D187
:1011E000012280F84922444A1360043213601BE054
:1011F000002280F84922414A1360043A136013E048
:10120000012C11D1BCF1030F07D1032380F849321F
:101210003B4B1D60043B1D6006E0022280F8492222
:10122000384A1360043213600A2E33D8DFE806F020
:10123000060A0E12161A1E22262A2E00436827229C
:101240001A702AE043681F221A7026E043681D22A4
:101250001A7022E0436885221A701EE04368142247
:101260001A701AE0436845221A7016E043680D228E
:101270001A7012E043680B221A700EE043680922CC
:101280001A700AE0436802221A7006E043680022DE
:101290001A7002E0436827221A70836904221A70C8
:1012A00090F848321BB9836880221A7002E0836884
:1012B000C0221A7024B94FF08072134B1A6016E0E6
:1012C000012C14D14FF000720F4B1A600FE0202157
:1012D000117002685B00DBB21370C26900236CE717
:1012E0002821117002689F423FF65AAF5FE7BDE8C0
:1012F000F00170473480044000A004400CA004407A
:1013000004D0044028B0044000E100E00369490033
:1013100083F83C1103690122C3F8442200230371BE
:10132000026982F84B3270472DE9F843044688463B
:101330001646D0F84432002B38D0C36812221A70F7
:1013400083681A7812F0200F03D0B4221A70002597
:1013500019E001F0F3FD81460025012700E03D463C
:10136000E3681B7813F0200F07D0002EF7D001F0B0
:10137000E5FDC9EB00008642F1D8002384F848322D
:10138000A368B0221A70012384F84B3284F84A8291
:101390000023C4F84032A368F0221A702369D4F8FD
:1013A0004022144494F83C211A7000E0002528469D
:1013B000BDE8F8832DE9F04104460E461F46069D20
:1013C000002A35D0C4F850220022C0F83421C0F8D9
:1013D0003821C36812221A708268137813F0200F24
:1013E00002D0B423137015E001F0A8FD8046E26836
:1013F000127812F0200F07D0002DF8D001F09EFDDA
:10140000C8EB00008542F2D8002384F84832A36874
:10141000B0221A70022384F84B3284F84A72A3680F
:10142000F0221A70760046F00106F6B223691E70AB
:10143000BDE8F081036993F84B32043B032B09D8D4
:10144000DFE803F006020D04022070470420704715
:10145000042070470079003018BF01207047032036
:10146000704700BF90F84B3213F0FF0F11D090F887
:101470004B32DBB2052B0ED090F84B32DBB2062B91
:101480000BD090F84B02C0B2072814BF00200120F7
:10149000704701207047012070470120704700BF4E
:1014A00070B504460D4601F049FD06462046FFF79B
:1014B000D9FF30B9002DF9D001F040FD801B8542E5
:1014C000F4D894F84B32DBB2012B09D094F84B32AC
:1014D000DBB2022B04D094F84B32DBB2032B02D1E7
:1014E000042384F84B324FF4A073013B7FF4FDAF2B
:1014F00094F84B3213F0FF0F14BF0020012070BD91
:1015000038B50446154600693222FFF70DFF2075F5
:1015100020692946FFF7C4FF2046FFF78BFF38BD3F
:1015200030B583B00446154662B1322200922A4695
:10153000FFF740FF20460699FFF7B2FF20B1D4F82D
:10154000380102E0002000E0002003B030BD00BF01
:10155000D0F83421D0F838319A4208D2D0F834315A
:101560005A1CC0F83421184490F8300070474FF0EE
:10157000FF30704708B50069FFF7EAFF08BD00BFFC
:10158000D0F83421D0F838319A423DBFD0F8343108
:10159000C01890F830004FF0FF30704708B5006970
:1015A000FFF7EEFF08BD00BF38B50446C1680D78EF
:1015B000EDB282681378DBB213F0200F00F0D78011
:1015C00013F0100F73D090F84B32DBB2012B2ED1F9
:1015D00015F0010F0CD0D0F840321BB9052380F86C
:1015E0004B3202E0062380F84B32802313701AE05E
:1015F000D0F840320133C0F84032D0F844128B4268
:101600000AD3002380F84B3290F84A32012B0CBFEA
:101610008023B023137006E00369D0F8402202440F
:1016200092F83C211A70E36802221A7038BD90F8D3
:101630004B32DBB2022B24D115F0100F08D0072358
:1016400080F84B3280231370C36812221A7038BDA1
:1016500015F0010F05D0052380F84B32802313705D
:101660000BE0032380F84B32D0F85032012B0CBF33
:10167000E823E023137003691B78E36802221A70E1
:1016800038BD90F84B32DBB2042B0AD190F84A32C5
:10169000012B0CBF8023B0231370C36802221A7081
:1016A00038BD80231370C36802221A7038BDD0F889
:1016B00038110231D0F85032994200F0228190F86E
:1016C0004B32DBB2042B04D190F85532002B00F0E2
:1016D0001881D4F838210132D4F850329A4280F07F
:1016E000138194F84B32DBB2042B40F0178194F84D
:1016F0005532002B40F0088110E1002384F84B3272
:10170000A368B0221A7023691B78DAB2D4F8383192
:10171000B3F5817F07D8D4F83831591CC4F8381193
:10172000234483F8302094F84A32012B06D1202339
:10173000013B7FF4FDAFA36880221A7094F84B320E
:1017400007E0D4F83831591CC4F83811234483F821
:10175000302094F84B32DBB2042B04D194F855328C
:10176000002B00F0E480E36802221A7038BD15F007
:10177000100F08D010230B7015F0400F06D1C3686E
:1017800002221A7038BD15F0400F5FD094F84B322A
:10179000DBB2092B04D1D4F85832002B40F0CB80B7
:1017A00015F0040F1DD0082384F84B320023C4F831
:1017B0004432D4F85C3203B19847D4F844320BB9C0
:1017C00084F83C31A368D0221A7023691A78520831
:1017D00084F84C2294F83C211A700123C4F840325A
:1017E00030E0002384F8543294F849322BB91220A7
:1017F0005549032201F05EF916E0012B05D11120B5
:101800005149032201F056F90EE0022B05D11E20AA
:101810004E49032201F04EF906E0032B04D11F20AC
:101820004A49032201F046F9092384F84B32002388
:10183000C4F83831A368C0221A7023691B785B088A
:1018400084F84C32E36802221A7038BD13F0100F8E
:1018500020D015F0010F15D1D0F84022D0F8443235
:101860009A4208D2D0F840325A1CC0F840220344B1
:1018700093F83C2100E0002223691A70A368D0226B
:101880001A703AE0C023137003691B78002380F8B4
:101890004B3232E0002380F8543290F849322BB9B1
:1018A00012202949032201F005F916E0012B05D188
:1018B00011202549032201F0FDF80EE0022B05D18D
:1018C0001E202249032201F0F5F806E0032B04D183
:1018D0001F201E49032201F0EDF823691B78DAB2BC
:1018E000D4F83831B3F5817F07D8D4F83831591C92
:1018F000C4F83811234483F83020E36802221A70B8
:1019000038BDE8231370E4E6002384F8553294F8D8
:101910004B32DBB2042B7FF4F0AEF1E623691A7888
:10192000D4F83831B3F5817F7FF60BAF11E701238F
:1019300084F8553217E70023C4F83431D4F838015D
:10194000D4F8583298472BE7151A0000251A0000E2
:1019500008B502480021FFF727FE08BD7087FF1F6A
:1019600008B502480121FFF71FFE08BDD089FF1FFF
:1019700010B50446C3681B7813F0200F24D1002350
:1019800080F84B3290F849321BB9122001F0DAF896
:1019900010E0012B03D1112001F0D4F80AE0022B52
:1019A00003D11E2001F0CEF804E0032B02D11F204A
:1019B00001F0C8F8D4F8583253B30022C4F83421E7
:1019C000D4F83801984710BD90F854320133DBB297
:1019D00080F85432012B03D890F84832012B17D0ED
:1019E00094F849321BB9122001F0ACF810BD012B5C
:1019F00003D1112001F0A6F810BD022B03D11E2047
:101A000001F0A0F810BD032B02D11F2001F09AF8BD
:101A100010BD00BF08B502480021FFF7A9FF08BDAF
:101A20007087FF1F08B502480121FFF7A1FF08BD1D
:101A3000D089FF1F38B504460D4604300121FFF759
:101A400061FB2570204638BDF8B505460F461646A1
:101A5000041D20462978FFF759FC6B680237B9004E
:101A60001B68204601F0FC0198476B681B68204604
:101A7000F1B298476B681B682046310A98472046A8
:101A800001216422FFF73CFDF8BD00BF70B582B0B4
:101A900004460E46051D28462178FFF737FC2846E8
:101AA0003146FFF7EFFA284601216422FFF728FDAF
:101AB000606921786423009301221346FFF730FD0B
:101AC0006069FFF745FDC0B202B070BD70B5034656
:101AD0000E461546041D20461978FFF717FC2046D0
:101AE0003146FFF7CFFA20462946FFF7CBFA2046CA
:101AF00001216422FFF704FD70BD00BF08B500217D
:101B00000A46FFF7E3FF08BD10B584B004464069FC
:101B1000617C00230093022201920293032203922C
:101B20001A46FFF70DFB2046FFF7E8FF04B010BD93
:101B3000F8B5064608461D4903F028FF01461C4833
:101B400003F0D8FF4FF07E5103F016FE4FF07C51AA
:101B500003F014FE03F010FD03F01AFB04460D46DB
:101B600030460021FFF792FF074600F06F02304633
:101B7000002142F01002FFF7A9FF2046294603F09A
:101B8000D7FDC2B23046FE21FFF7A0FF304600214C
:101B90003A46FFF79BFF052001F0F2F967F05E027D
:101BA00030460021D2B2FFF791FFF8BD6666663F6E
:101BB00020BCBE4510B504460D4B036010F50672FF
:101BC00004D000F50C73083B9A42FCD104F5007375
:101BD00014F5D07202D0203B9A42FCD104F59470E7
:101BE000FFF7A8FA04F18800FFF7A4FA204610BD19
:101BF0001067000038B50D4672B600F592742046A5
:101C0000FFF782FF284603F069FE01462046FFF7F2
:101C10008FFF62B638BD00BF08B572B6A0300A218A
:101C200001F04CFF62B608BD38B5044672B6E0302C
:101C3000002101F0F5FE62B610F0FF0F11D094F80C
:101C40008630226823445568204694F8E01093F8C3
:101C5000DF2093F8DE30A8472046FFF7DDFF0120A4
:101C600038BD002038BD00BF70B40270022A04D015
:101C7000052A14BF0024012400E001244470C1603F
:101C80005323037427234374002383742C25C574C2
:101C90000D2505752D25457583750825C5752E26D9
:101CA0000676437631268676C576382505774377DE
:101CB0003223837774B101EB8202536E1B78037178
:101CC000536E5B784371536E9B788370536EDB78F1
:101CD000C3700DE001EB820213691B780371136975
:101CE0005B784371536E1B788370536E5B78C3705F
:101CF000C268037802EB83014C6B24788471496BD2
:101D00004978C171134493F87F30037270BC7047F7
:101D100008B572B6C368014403F592708978120160
:101D2000FFF792FE62B608BD08B5437853B172B6AC
:101D3000C368014403F5927009791201FFF784FE2C
:101D400062B608BD08440079114600F0FFFF08BDE7
:101D500008B50144887900F02BFC80B208BD00BFB3
:101D600010B50446C368017A93F87C0001F00101C4
:101D700000F0A6FFE368217A93F87D00C1F34001EB
:101D800000F09EFFE368217A93F87E00C1F38001A2
:101D900000F096FF10BD00BF0270022A17D0052A7E
:101DA00014BF00230123437041602BB101EB820378
:101DB0005B6E1B78837004E0131D51F823301B7891
:101DC000837001EB8202536B1B78C3707047012351
:101DD00043704160EAE700BF2DE9F0478CB004464C
:101DE000BB4B03600D21017107234371B94B861D65
:101DF0001A4632F8040BE08004F1080512882281AB
:101E000004F10A021889608104F10C009F89A781FE
:101E100026616561A261E261206204F10E026262E4
:101E200004F1280C1A8A228504F12A0E9A8A628506
:101E300004F12C071A8BA28504F12E069A8BE285F9
:101E400004F130051A8C228604F132009A8C6286E5
:101E5000C4F834C0C4F838E0E76326646564A0645D
:101E60004FF0000884F84C804FF0010984F84D9041
:101E7000092084F84E000A2084F84F000B2084F8D3
:101E800050000C2084F8510084F8521084F85380DC
:101E900084F8549004F15506198DA4F8551004F1F6
:101EA0005705D96AC4F8571004F15B00A4F85B2009
:101EB00004F15D011A8EA4F85D2004F15F025F6BEE
:101EC000C4F85F7004F153076766A666E56620678D
:101ED0006167A2671A4632F8381F9278A4F87C101E
:101EE00084F87E2053F83C2FC4F87F209B88A4F808
:101EF0008330402584F8855084F8865004F18800AA
:101F00004146FFF7FFF884F8208184F8218184F8A6
:101F1000228104F592702946FFF78CFD04F5A07A22
:101F2000504621464246FFF79FFE04F5B0773846FB
:101F300021464A46FFF798FE04F5C0763046214612
:101F40000222FFF791FE04F5D075D646BEE80F00D9
:101F50000FC59EE80F0085E80F0004F5E0750FCF70
:101F60000FC597E80F0085E80F0004F5F0750FCE58
:101F70000FC596E80F0085E80F0004F50077384696
:101F800021460322FFF708FF04F50276304621467A
:101F90000422FFF701FF04F50475284621460522B7
:101FA000FFF7FAFE04F5067397E8030083E80300E1
:101FB00004F5087396E8030083E8030004F50A7348
:101FC00095E8030083E803002079494600F09CFE71
:101FD0006079494600F098FEC146012710E0336958
:101FE000585D394600F090FE0135042DF7D108F117
:101FF0000408B8F1180F03D14FF00008464610E06E
:102000004D4604EB0806EAE77B6B585D314600F06D
:102010007BFE0135042DF7D108F10408B8F1180F43
:1020200003D0354604EB0807EEE70C2000F066FA13
:10203000202000F08FFA082000F0ACFD264D002093
:10204000294600F0B3FD0120294600F0AFFD022033
:10205000294600F0ABFD05A84021FFF7EBFC9DF8F9
:10206000143084F824319DF81C3084F82C31089BFE
:10207000C4F830319DF8243084F834319DF825308F
:1020800084F835310A9BC4F838319DF82C3084F837
:102090003C3106A8FFF74EF800250126631993F896
:1020A0007C00314600F030FE0135032DF6D1D4F826
:1020B000980094F895100023009301930293032253
:1020C00003921A46FFF73CF820460CB0BDE8F087B3
:1020D00010670000186700000000C84408B50346F8
:1020E0000A46417849B172B6406800F59270997815
:1020F0001201FFF7A9FC62B608BD8078114600F016
:1021000025FE08BD08B5C07800F052FA80B208BDBF
:102110002DE9F04385B00646894690461F4672B6C3
:10212000FFF71EFEF0688830317CFFF7EFF8F068AB
:102130008830B17FFEF7A6FFF068883001214FF4A8
:102140007A72FFF7DDF9F368D3F89800317C4FF429
:102150007A73009306220123FFF7E2F90024029428
:10216000ADF80C40E2B2F568D5F89800D0F83831F7
:10217000D0F83451AB4201D0062C1CD162B69DF888
:1021800009109DF8083043EA0123A9F800309DF8B2
:102190000B109DF80A3043EA0123A8F800309DF89F
:1021A0000D109DF80C3043EA01233B80042A94BFB4
:1021B0000020012005E0FFF7CBF902AB18550134F0
:1021C000D0E705B0BDE8F08370B504460E4615466D
:1021D000FFF7C6FD72B6E0688830217CFFF796F8FD
:1021E000E06888303146FEF74DFFE06888302946C8
:1021F000FEF748FFE068883000214FF47A72FFF75D
:102200007FF962B670BD00BF10B50446417C827C88
:10221000FFF7DAFF2046E17C227DFFF7D5FF20465D
:10222000E17C227DFFF7D0FFE27DA37D2046617D2A
:102230001A43FFF7C9FF2046217E627EFFF7C4FFE5
:102240002046A17EE27EFFF7BFFF2046217F627F0E
:10225000FFF7BAFF052000F093FE10BD38B5054624
:102260004FF47A71FFF7C6FC05F5A070FFF7CCFFBD
:1022700005F5B070FFF7C8FF05F5C070FFF7C4FFA4
:10228000652401E0013C04D02846FFF7CDFC00287E
:10229000F8D138BD70B404460F4E054630687168F9
:1022A000B268F3680FC530697169B269F3690FC527
:1022B00005232384002384F82430A362E362238669
:1022C0006363238784F83A30E36342F210736384D4
:1022D000204670BC704700BF5C670000704700BFBD
:1022E00030B4394A3949136813F0800FFBD10B68B9
:1022F00013F0800FF7D172B6354B1B78002B5FD0EF
:10230000344B1C6804331D6804331868043319689F
:1023100004331A6804331B682C44204401440A44E3
:102320001A44C2F34E0242F400422B4B1A602C3383
:102330001C6804331D6804331868043319680433B7
:102340001A6804331B682C44204401440A441A448C
:10235000C2F34E0242F40042204B1A6003F108130C
:102360001C6804331D680433186804331968043387
:102370001A6804331B682C44204401440A441A445C
:10238000C2F34E0242F40042154B1A602C331C6813
:1023900004331D68043318680433196804331A6859
:1023A00004331B682C44204401440A441A44C2F3F9
:1023B0004E0242F400420B4B1A600022044B1A708A
:1023C00062B630BC704700BF24B0034024B00B405D
:1023D0001F9BFF1F38B003402CB0034030B00340B8
:1023E0002CB00B4030B00B4060223A4B1A70E12207
:1023F00001331A70384B1B78082B10D1012203F1DE
:10240000804303F56C331A60132334490B6001F5E4
:10241000FF2101F2FC710A60314A13601FE00A2BB0
:102420000DD139222F4B1A6013232C490B6001F573
:10243000FF2101F2FC710A60294A13600FE00C2BA6
:102440000CBF35223D22274B1A60122323490B6013
:1024500001F5FF2101F2FC710A60214A1360224B51
:102460001B7833B10123214A136002F50022136067
:1024700005E000231D4A136002F5002213601C4B87
:102480001B78012B06D880231A4A136002F500221C
:1024900013601AE0042B06D88423164A136002F551
:1024A0000022136011E0082B06D88523114A13601F
:1024B00002F50022136008E0102B94BF86238723C7
:1024C0000C4A136002F50022136001220A4B1A70B5
:1024D000704700BF00400740308CFF1F0CB0034026
:1024E0000CB00B4008B00340229BFF1F20B00340FC
:1024F000318CFF1F24B003401F9BFF1F08B50C2821
:1025000004D9102828BF1020102307E00A2804D877
:10251000092834BF08230A2300E00C23DAB2101A7A
:102520000849087008490978994209D0064B1A7081
:10253000064B1B7813B10022054B1A60FFF754FFBE
:1025400008BD00BF1E9BFF1F308CFF1F1F9BFF1F7E
:1025500024B0034010B50446124B1B780BB1FFF7B3
:10256000BFFE012C03D800220F4B1A6017E0042C89
:1025700003D804220C4B1A6011E0082C04D8052261
:10258000094B1A6008220AE0102C04D80622064BD8
:102590001A60102203E00722034B1A602022034B2B
:1025A0001A7010BD1F9BFF1F24B00340318CFF1F0A
:1025B0002DE9F8430D2813D9172802D80E38C0B2D8
:1025C0000EE0A0F11A03DBB2052B02D80938C0B225
:1025D00006E0A0F12203DBB2062B73D81838C0B294
:1025E0003A4B1E5C3A4B1B780BB1FFF779FE16F0A5
:1025F000800F29D172B6374C374D4FF00107266056
:102600002F7062B672B6236813F0800F04D12B7856
:1026100013F0FF0F0FD1F2E7304B186800222E4B5A
:102620001A7062B62E4B1B781841BDE8F8832B78E0
:1026300013F0FF0FE3D062B601F07CFC72B62368A2
:1026400013F0800FF3D0E7E772B606F040095FFAA7
:1026500089F9244F244C06F03F06244D4FF0010821
:10266000B9F1000F04D03B6823F010033B6003E096
:102670003B6843F010033B60266085F8008062B63B
:1026800072B6236813F0800F04D12B7813F0FF0F7C
:102690000FD1E5E7164B18680022144B1A7062B68A
:1026A0000F4B1B781841BDE8F8832B7813F0FF0F10
:1026B000D6D062B601F03EFC72B6236813F0800FEC
:1026C000F3D0E7E70020BDE8F88300BF7C67000097
:1026D0001F9BFF1F00B00340219BFF1F10B0034052
:1026E0001E9BFF1F0CB00B4000B00B40209BFF1F38
:1026F00010B00B40094B1A6842F480521A60084B24
:102700001B781BB18022074B1A7002E0C022054BD8
:102710001A7080F30C00044B188070472C80044022
:10272000229BFF1F21C00C4000C00C40024B1A68C6
:1027300001321A60704700BFAC9BFF1F08B50D4CFB
:10274000236813F4802F01D000F06CFD236813F48C
:10275000806F01D001F02EFE236813F4006F01D0CA
:1027600002F0A4F8236813F4805FE9D002F0ACFA19
:10277000E6E700BF3480044008B5FFF7DFFF00BF85
:102780001022014B1A80704700200540704700BF9F
:10279000024A13681844106018467047348CFF1FB3
:1027A000FEE700BFEFF31383ABB9EFF31083ABB9D0
:1027B000EFF3058323B10F2B05D9094A985C03E099
:1027C0004FF4807000E00020EFF311833BB18342AF
:1027D00038BF184670474FF0FF30704700207047F1
:1027E000F0E300E010B5154B1C681C6014F4805F2A
:1027F00005D0134BDB6813B1114BDB68984714F419
:10280000005F05D00E4B1B6913B10D4B1B69984738
:1028100014F0200F05D00A4B1B6E13B1084B1B6E32
:10282000984714F0100F07D0054BD3F884301BB134
:10283000034BD3F88430984710BD00BFA0900440EC
:10284000249BFF1F10B5274B1C681C6014F4803FAD
:1028500005D0254B1B6813B1234B1B68984714F414
:10286000003F05D0204B5B6813B11F4B5B68984756
:1028700014F0010F05D01C4B1B6C13B11A4B1B6CD1
:10288000984714F0020F05D0174B5B6C13B1164B31
:102890005B6C984714F0080F05D0134B9B6C13B179
:1028A000114B9B6C984714F0040F05D00E4BDB6C5A
:1028B00013B10D4BDB6C984714F4002F05D00A4B75
:1028C0005B6E13B1084B5B6E984714F4802F07D0F2
:1028D000054BD3F880301BB1034BD3F880309847B9
:1028E00010BD00BFA0A00440249BFF1F10B5384BB3
:1028F0001C681C6014F0080F05D0364B5B6A13B1DE
:10290000344B5B6A984714F0100F05D0314B9B6A2B
:1029100013B1304B9B6A984714F0400F05D02D4BF4
:10292000DB6A13B12B4BDB6A984714F0800F05D09C
:10293000284B1B6B13B1274B1B6B984714F0200FD0
:1029400005D0244B5B6B13B1224B5B6B984714F0A3
:10295000010F05D01F4BDB6B13B11E4BDB6B984790
:1029600014F0020F05D01B4B9B6D13B1194B9B6DDF
:10297000984714F0040F05D0164BDB6D13B1154BBF
:10298000DB6D984714F4007F05D0124BDB6E13B15A
:10299000104BDB6E984714F4807F05D00D4B1B6FF6
:1029A00013B10C4B1B6F984714F4806F05D0094B83
:1029B0005B6F13B1074B5B6F984714F4006F05D042
:1029C000044B9B6F13B1034B9B6F984710BD00BF27
:1029D000A0B00440249BFF1F10B5264B1C681C6050
:1029E00014F0010F05D0244B9B6813B1224B9B6858
:1029F000984714F0800F05D01F4B5B6913B11E4B35
:102A00005B69984714F0100F05D01B4B9B6913B1FD
:102A1000194B9B69984714F0040F05D0164BDB69DE
:102A200013B1154BDB69984714F0080F05D0124B12
:102A30001B6A13B1104B1B6A984714F0020F05D0A4
:102A40000D4B9B6B13B10C4B9B6B984714F0200FF5
:102A500005D0094B1B6D13B1074B1B6D984714F044
:102A6000400F05D0044B5B6D13B1034B5B6D984772
:102A700010BD00BFA0C00440249BFF1F10B50B4B2E
:102A80001C681C6014F0020F05D0094B9B6E13B13B
:102A9000074B9B6E984714F0010F05D0044BDB6F7A
:102AA00013B1034BDB6F984710BD00BFA0D00440AB
:102AB000249BFF1F30B4212831D8042A2FD8DFE807
:102AC00002F00709050B03000B2406E00A2404E0CA
:102AD000082402E00C2400E00924124B03EBC0039D
:102AE0005A68114B114DC3F89C51114DC3F8A051B8
:102AF000104DC3F8A451104DC3F8A8510F4DC3F8A1
:102B0000AC5172B6136823F4702313600C4D45F872
:102B1000201043F0807343EA0444146062B630BC72
:102B2000704700BF946700000082FF1FE527000088
:102B300045280000ED280000D92900007D2A00006A
:102B4000249BFF1F094B03EBC0035A6872B613683E
:102B500023F0877323F4803343F0807313600022E3
:102B6000034B43F8202062B6704700BF9467000013
:102B7000249BFF1F044B00221A6004490A60044A88
:102B8000106010221A60704714D0034004D0034034
:102B900000D0034018B1102828BF102000E0012009
:102BA000014B1870704700BF388CFF1F2DE9F041B2
:102BB00080460D460846374903F09AF890B901243B
:102BC000354F4FF05E5647FA04F002F08BFE314667
:102BD00002F0DCFE294603F081F820B90134072C0D
:102BE000F1D100E000242C48204102F07BFE294670
:102BF00002F080FF4FF07C5102F0BEFD03F08CF834
:102C00004FF6FF73984238BF0346A8F10302D2B2D1
:102C1000012A0DD8214A0021116021480160214973
:102C20000B6004F0070444F008041460BDE8F08170
:102C3000A8F10902D2B2012A09D9A8F11402D2B22C
:102C4000032A04D9A8F10502D2B2012A0DD8164AE6
:102C5000002111601548016015490B6004F007045C
:102C600044F008041460BDE8F081B8F1200F02D0F0
:102C7000B8F1190F0BD10F4A002111600E48016005
:102C80000E490B6004F0070343F008031360BDE82E
:102C9000F08100BF001B3744006CDC020090034051
:102CA00004900340089003400080034004800340E8
:102CB0000880034000800B4004800B4008800B40DC
:102CC00021281ED80F4B53F8303093F8802212F091
:102CD000FF0F08D019B1012283F88020704701222C
:102CE00083F800217047074B03EBC000436821B114
:102CF0001A6842F003021A6070471A6822F0020252
:102D00001A6070479467000021281CD80E4B03EB13
:102D1000C0035B68012908D10B4A52F8302082F8C1
:102D200080124FF4A2721A607047074A52F830209E
:102D3000002082F8800219B94FF480721A6070473F
:102D400040F203121A6070479467000010B5044601
:102D500028280FD15D4B1B780B2B03D8C3F10C0334
:102D6000994003E00C2B84BF0C3B19410846FFF748
:102D7000C1FC10BD554B1B78012202FA03F000295B
:102D800008DC20460021FFF79BFF20460121FFF7CA
:102D9000BBFF10BD0A46884208D820460121FFF734
:102DA0008FFF20460121FFF7AFFF10BDE01EC0B22C
:102DB000012806D84648006800FB011222FA03F3F6
:102DC00010E0202C01D0192C06D14248006800FBED
:102DD000022222FA03F305E03F48006800FB0112DB
:102DE00022FA03F3E01E1D2864D8DFE800F0474E06
:102DF000402B63631D2463636363636363636332B4
:102E0000390F16635C63636363636355334A13600E
:102E100040F24442324B1A6010BD324A136040F215
:102E20004442314B1A6010BD304A136040F24442B4
:102E30002F4B1A6010BD2F4A136040F244422E4BB4
:102E40001A6010BD2D4A136040F244422C4B1A60A8
:102E500010BD2C4A136040F244422B4B1A6010BD47
:102E60002A4A136040F24442294B1A6010BD294A95
:102E7000136040F24442284B1A6010BD274A136089
:102E80004FF45172264B1A6010BD264A13604FF45E
:102E90005172254B1A6010BD244A13604FF45172D1
:102EA000234B1A6010BD234A13604FF45172224B1A
:102EB0001A6010BD20467F29D4BF00210121FFF7F1
:102EC000FFFE20460121FFF71FFF10BD388CFF1FBA
:102ED0000890034008800B400880034010800340A6
:102EE00004B004401880034008B004402080034030
:102EF0000CB004402880034010B0044030800340F0
:102F000010C004403880034014C004404080034097
:102F100018C00440488003401CC004401090034087
:102F200030900440189003403490044010800B40CF
:102F300048A0044018800B404CA0044072B60C4BD3
:102F40001B680C4A12680C49096862B611F0806F60
:102F500002D0322B88BF0132C3F5BB33FF330749A0
:102F6000A1FB03039B094FF47A7000FB023070470A
:102F700018E000E0AC9BFF1F04ED00E0ABAAAAAA9A
:102F800038B50546FFF7DAFF044665B1FFF7D6FF0F
:102F9000001BB0F57A7F03D3013D04D004F57A74A9
:102FA00000F0C8FFF2E738BD10B5254B4FF4000222
:102FB0001A604FF080721A604FF000721A604FF082
:102FC00080621A604FF000621A6000201D4B18608A
:102FD0004BF6FF710433196028231B4A1360083233
:102FE000136008321360083213600832136008322D
:102FF000136008321360083213600922134C2260F8
:1030000004F58054043420600434216004342360C7
:1030100008342360143C226004F5FE24043420604C
:103020000B4801600B490B6008310B600A4B1A60BA
:10303000FFF7DAF90420FFF7A3FF00F063FC10BDEF
:1030400008E100E0048003400C800340008003405E
:1030500008800B400C800B4000800B4030B40E4BBE
:103060001B7843F002020D4C04EBC20460600C4874
:10307000007800280CBF8824C82444EA0141074D89
:1030800045F8321080F00100054A107083F001030A
:10309000014A137030BC70472C9CFF1F0080FF1F3B
:1030A000B59CFF1F10B4431E052B11D872B60A4AF7
:1030B00052F8230050B14268074941F82320074ADB
:1030C00032F813400188611A22F8131062B600E04A
:1030D00000205DF8044B7047149CFF1FD09EFF1F1B
:1030E000013805280DD872B6074B53F820302BB1A4
:1030F000002001305B68002BFBD100E0002062B6AD
:1031000070470020704700BF709CFF1F38B572B633
:1031100001231B491B4C5A1812F8012C12F0080FFE
:1031200024D09A0054F832506DB9164B03EBC2010B
:1031300008304860144943F83210144B1A78013AA9
:103140001A7062B638BD42F0010254F832506DB9BF
:103150000C4B03EBC201083048600D4943F83210B4
:103160000A4B1A78013A1A7062B638BD0133072B40
:10317000D1D162B60022054B1A7000F027FC38BD91
:10318000A46800000080FF1F88004000AA9CFF1F69
:10319000C800400010B4431E052B37D8400140F052
:1031A00010001C4A104472B61B4AD25C032A09D88C
:1031B000DFE802F019021B050830022216E0083091
:1031C000042213E0154A52F823201AB9134A42F890
:1031D000231003E0124A52F823205160104A42F8AB
:1031E000231062B612E0032200E005220A4CE254EA
:1031F00001F10803436000F00803002B0CBF882393
:10320000C8230A8843EA0243036062B65DF8044BB0
:10321000704700BF0080FF1FCC9BFF1F709CFF1FEB
:10322000889CFF1F2DE9F84FA84CDFF8F092DFF8DB
:10323000F0A2DFF8F0B22578EDB215F0040F1DD042
:10324000A34B1B7813F0FF0F16D0A24B1B7803F093
:10325000FF022BB1531EDBB29E4A137003B900BEAE
:103260009D4B1B7803F0FF0233B1531EDBB29A4A29
:1032700013700BB900F0C2FD0423237015F0080F82
:1032800000F0D48299F80030DBB21D0940F01582BD
:10329000924D9E0805EBC6035A6855F83630C3F3C5
:1032A0008303013B0C2B00F20482DFE813F0BB0127
:1032B000BB01020202020202020202020202DC015D
:1032C0000202020202020D00854913680B60526877
:1032D0004A60844A45F83620002283490A607F49C3
:1032E0000A618A610121814A11709BB240F28162B8
:1032F000934218D8B3F5D06F29D2B3F5817F00F08F
:10330000178106D8802B00F0C380822B00F0C68086
:1033100056E140F20232934200F01F81B3F5A06FF4
:1033200000F052814CE1B3F5106F16D004D8B3F51C
:10333000086F00F0A78043E140F62112934200F0AD
:103340006D8140F62122934200F03E8138E1684BC6
:103350005D68002D40F016812EE1614B9A785C4B40
:103360001A705E4D05F1C0062B6A13F0800F03D072
:10337000686A083800F02AFB0835B542F4D1DFF856
:10338000A881002637465B4AB05828B1456800F04E
:103390001DFB0DB12846F9E7002356497350564AE4
:1033A000B350564BF05828B1456800F00FFB0DB1F3
:1033B0002846F9E7002351497350514AB35028F881
:1033C000023F504BFB5C023B032B0AD8DFE803F0C3
:1033D0000206020600224B4BDA5502E00122494B5D
:1033E000DA5501370436182ECDD10022464B1A701B
:1033F0000125464EDFF83481384F05EB080313F8FA
:10340000013C06F8043B13F0080F2DD000F0BEFA83
:1034100048B1A90007EB451200F1080353603C4A8C
:1034200047F8312007E0AB00002247F83320364B45
:103430001A7801321A7000F0A9FA58B1AB0043F0C3
:10344000010307EBC30100F108024A60254A47F86F
:10345000332009E0AB0043F00103002247F833209A
:10346000294B1A7801321A70AA0042F00201002397
:1034700047F8313042F0030247F8323001355E45FB
:10348000BBD114E2124B1B78224D2B700127A0E018
:10349000204D00232B706B7002279AE0104B9B8805
:1034A000062B03D90F221C4B1A70B7E0194A0021D2
:1034B00011705170184A12F8233013F0020F00F007
:1034C0008680144D01232B70022782E08020074064
:1034D000B49CFF1F2D9CFF1FC49CFF1F0080FF1F7B
:1034E000A09CFF1FC8004000B09BFF1FB59CFF1FA2
:1034F000AC680000149CFF1FB49BFF1F709CFF1F53
:10350000889CFF1FCC9BFF1FAA9CFF1FC420074065
:1035100088004000AC9CFF1FC0200740902007405F
:1035200094200740DC200740CE9EFF1FA4680000C7
:10353000964B9B8803F07F02062A02DC934A52884E
:103540001AB10F22924B1A7068E0914A12F82310B8
:1035500021F0020102F82310A9E18C4B9B8803F0B3
:103560007F02062A02DC894A52881AB10F22884B50
:103570001A7053E0864A12F8231041F0020102F853
:10358000231094E1814B5E889F88824BA3F10C024B
:10359000114633F80C0CB04209D133F80A0CB8428A
:1035A00005D1360A032E0CBF2F78178911E00D695B
:1035B0000C330C32002DEBD10F22754B1A702DE01D
:1035C0000F22734B1A7029E000273D4601E00227C5
:1035D000714D6E4BDB889F4228BF1F46402F34BF82
:1035E0003E46402628463146FFF738FD3544BF1B8E
:1035F00003D13F2E00F2608110E0402F34BF3E46E1
:10360000402628463146FFF729FD3544BF1B01D12E
:103610003F2E03D9614B1D60614B1F8001238AF847
:10362000003046E0594B19685E4B994217D1574B11
:1036300059685D4B994212D11378A92B0FD1537859
:10364000452B0CD19378C22B09D1D3786B2B06D1A3
:103650000522564B1A7000200146FFF7FFFC544B21
:1036600045F8363025E04D4B1E68BEB14C4FB7F8DB
:103670000080B8F1400F34BF45464025304629460A
:10368000FFF7ECFCC5EB08039BB23B800BB9402D68
:1036900001D1354400E00025404B1D603B4B1B88A9
:1036A000B3F5A06F05D1394B00225A709B78414980
:1036B0000B7001238AF80030B5E03F4E9F0806EBFF
:1036C000C708D8F80420A2F10800013DEDB213F0BC
:1036D000080F47D000F07AF9384B53F825304BB338
:1036E0005A68364941F8252003F10802C8F8042039
:1036F000334A525D032A12D8DFE802F002060A0EAE
:1037000003212F4A51550AE002212D4A515506E066
:1037100005212B4A515502E00421294A515518F040
:10372000080F0CBF8822C8221B8842EA034346F8D0
:10373000373078E0224B5B5D032B0BD8DFE803F0DA
:103740007373020600221E4B5A556CE001221C4B7B
:103750005A5568E018F0080F0CBF02220322184BDC
:103760005A5560E056F837301B0C22F8083C002B05
:1037700051D0002322F8063C42F8043C114B53F888
:1037800025300BBB0F4B43F8250021E0A09CFF1F09
:10379000C0200740B8680000AC9CFF1FB09BFF1F13
:1037A000A89CFF1F21090003010004002D9CFF1F9E
:1037B000C8004000982007400080FF1F709CFF1F3A
:1037C000CC9BFF1F149CFF1F3F4B53F825305860C4
:1037D0003D4B43F825003D4B33F8151032F8082CCB
:1037E0000A4423F8152000F0D1F860B100F1080375
:1037F000C8F8043018F0080F354B364A08BF134696
:1038000046F837300FE0002346F83730324B1A784D
:1038100001321A7007E018F0080F2D4B2D4A08BF2F
:10382000134646F837300823237004E515F0010FDE
:1038300022D02A4902230B700022294B1A70294BEF
:1038400024481860284C5C6098602848D8601A6149
:103850009A610D20264B1870FF2326480370083804
:10386000037018300270244A13709F22234B1A7081
:1038700001230B70BDE8F88F15F0800F05D00D22E5
:103880001B4B1A708022403B1A7015F0020F06D0B5
:10389000184B1A78D2B21A700222083B1A7015F02F
:1038A000100F0ED01022164B1A70BDE8F88F0020B2
:1038B0000146FFF7D3FBB1E628460021FFF7CEFB18
:1038C000ACE6BDE8F88F00BFB49BFF1FD09EFF1F82
:1038D000C800400088004000AA9CFF1F94200740B9
:1038E0002C9CFF1F0080FF1FD49BFF1F309CFF1FDD
:1038F000C0200740882007408C20074084200740D4
:103900008020074008B501F03FFA00231B491A4602
:103910005A50C81842600833C82BF9D1184B1A689E
:1039200042F480221A60154BC3F30721154A117027
:10393000C3F30741143211701B0E04321370FF23BE
:10394000343A137008321370783A137001238432BA
:10395000137000216C3211707C3A137070220A4B84
:103960001A704FF40072A3F241331A60102203F16F
:10397000C04303F5C8231A7008BD00BF0080FF1FB5
:10398000348004409C20074049E400E072B60D4BAF
:103990001A68B2FA82F30B2B02D962B60020704784
:1039A0004FF00041D94022EA010206490A6062B69E
:1039B000054903EBC303DB00C8180022CA5042606C
:1039C000704700BF3C8CFF1F0084FF1F08B50F4BE2
:1039D000C31A0F4AA2FB03131B090B2B14D80D4A61
:1039E00012783AB10C4A127812F0FF0F02D0FFF7AA
:1039F0008DFB08BD72B6094A4FF0004121FA03F36E
:103A000011681943116062B608BD00BF0084FF1F32
:103A1000398EE338AA9CFF1FB49CFF1F3C8CFF1F0C
:103A20002DE9F84381460C46224B1E68224B1B7839
:103A300013F0FF0F30D004251E4FDFF87C8028469E
:103A4000FFF730FB034660B93B689B1BA34227D8B6
:103A50004CB300F06FFA98F8003013F0FF0FEED17E
:103A600024E000F1080200F14801166855689468E6
:103A7000D068C9F80060C9F80450C9F80840C9F80E
:103A80000C00103209F110098A42EED11846FFF7F6
:103A90009DFF4020BDE8F8834FF0FF30BDE8F8837C
:103AA0000020BDE8F8830020BDE8F8834FF0FF3028
:103AB000BDE8F883AC9BFF1FB49CFF1F2DE9F843C2
:103AC00081460E46214B1D68214B1B7813F0FF0FDA
:103AD00031D003241D4FDFF878802046FFF700FB2C
:103AE000032803D8FFF752FF014658B93B685B1B18
:103AF000B34224D800F01EFA98F8003013F0FF0FFC
:103B0000EBD11FE04B4600F1080209F140091E68A5
:103B10005D689C68D868166055609460D06010330A
:103B200010324B45F3D140240C800320FFF732FBC9
:103B30002046BDE8F8834FF0FF30BDE8F883002051
:103B4000BDE8F8834FF0FF30BDE8F883AC9BFF1F62
:103B5000B49CFF1FF8B5194B1B7813F0FF0F24D04E
:103B6000174C0227154E206820B93846FFF79AFAFD
:103B70002060E8B14388C218157A6DB1013302881C
:103B8000934206D3FFF722FF00220D4B1A6028460E
:103B9000F8BD43802846F8BDFFF718FF00232360D7
:103BA000337813F0FF0FDED105E04FF0FF30F8BDA2
:103BB0004FF0FF30F8BD4FF0FF30F8BDB49CFF1F51
:103BC000C09CFF1F70B5134B1B7813F0FF0F16D06E
:103BD000114C02260F4D206820B93046FFF762FADB
:103BE000206078B1438803441B7A73B9FFF7EEFE77
:103BF000002323602B7813F0FF0FECD107E04FF088
:103C0000FF3070BD4FF0FF3070BD184670BD4FF0F3
:103C1000FF3070BDB49CFF1FC09CFF1F38B5194B0F
:103C20001B6853B9184B1B7813F0FF0F24D00220E8
:103C3000FFF738FA134B186000B3124B1868058869
:103C400043889D4212DDC218127A7AB103F108024C
:103C50000244ED1A012303E012F8011F013319B1E8
:103C60001C46AB42F8D100E023464BB9FFF7AEFE4D
:103C70000020044B186038BD002038BD002038BD3E
:103C8000204638BDC09CFF1FB49CFF1F2DE9F047A4
:103C9000044601223B4B1A700F4600296DD0DFF815
:103CA000F090DFF8F0A01E46DFF8DC80D9F8003095
:103CB000A3BB9AF8003013F0FF0F06D10022314B5E
:103CC0001A704FF0FF30BDE8F08744F2D95501205B
:103CD000FFF706FA052806D801233370FFF756FED2
:103CE000C9F80000D0B9013D02D098F800304BB1BE
:103CF0000122254B1A700022224B1A704FF0FF3020
:103D0000BDE8F0870023337000F014F9012333700D
:103D10009AF8003013F0FF0FD9D1CFE7002388F8CD
:103D20000030D9F800104A88C2F14005AF4238BFD0
:103D30003D4602F108030B442A444A807F1B3DB1F3
:103D4000254414F8012B03F8012BAC42F9D100E013
:103D500025464B883F2B03D805220C4B1A7009E0EF
:103D600040230B800024094B1C700120FFF712FA3E
:103D7000C9F800400FB12C4698E70020014B18709D
:103D8000BDE8F087B69CFF1FBC9CFF1FC49CFF1FB3
:103D9000B89CFF1FB49CFF1F00B583B002AB03F8B3
:103DA000010D18460121FFF771FF03B05DF804FB18
:103DB00008B50F4B1B7813F0FF0F17D00D4B196888
:103DC000A1B14A8892B100200B4B187013463F2ACC
:103DD00004DCCA1810720133402BFAD140230B8047
:103DE0000120FFF7D7F90022024B1A6008BD00BF7F
:103DF000B49CFF1FB89CFF1FC49CFF1F08B50C4B51
:103E00001B7813F0FF0F12D10A4B19684B883F2B18
:103E100005DC0020CA1810720133402BFAD1402370
:103E20000B800120FFF7B6F90022024B1A6008BD93
:103E3000B69CFF1FB89CFF1F08B50122024B1A60F9
:103E4000024B1B68984708BD0C710340D09CFF1FB4
:103E500008B50122024B1A60024B5B68984708BD07
:103E60001C710340D09CFF1F08B50122024B1A6051
:103E7000024B9B68984708BD2C710340D09CFF1FE4
:103E800008B50122024B1A60024BDB68984708BD57
:103E90003C710340D09CFF1F0122064B1A6003F5C2
:103EA00088333C331A6822F400021A600022024B65
:103EB0001A70704700700340CC9CFF1F10B58368D8
:103EC00000221A60037B5C1103F01F03012101FA39
:103ED00003F30A4941F82430094B41785A541B78BE
:103EE00053B9074B5B783BB9054B9B7823B9044B1F
:103EF000DB780BB9FFF7D0FF10BD00BF80E100E019
:103F0000C89CFF1F10B5044603780BB1FFF7D6FF1E
:103F10000023237010BD00BF08B5FCF76DFFFDF74F
:103F200041F800F007F8FAE708B1014A106070475D
:103F3000E09CFF1F08B50F4B1B78CBB901220D4B3E
:103F40001A70FFF76BFE08B101F010F900F0CEF91E
:103F500008B100F0D3FF00F045FC08B101F054F8BF
:103F600000F062FE08B101F0D5F80022014B1A7092
:103F700008BD00BFE49CFF1F30B40023B0FBF2F487
:103F800002FB14041D46092C94BF30343734E4B2CC
:103F9000CC54B0FBF2F008B10133EFE70D4400223E
:103FA0006A70934207DD885CCC5C8C54C854013243
:103FB000013B9A42F7DB084630BC7047194B1A6840
:103FC00042F480621A600023174A1370174A137074
:103FD000174A1370174A1370174A137040F21332BE
:103FE000164B1A604FF4517204331A60C0F3443216
:103FF000134B1A70C0F347125A7000F01F009872EA
:1040000004229A700221D9745A7588221A743C22AB
:10401000DA7040220B4B1A704FF40052A3F229338E
:104020001A60704734800440689DFF1FE69CFF1FA4
:10403000709DFF1F699DFF1FE59CFF1F40A004406E
:1040400000A006402DE400E0164B9B7803F0EC0343
:1040500000F00302134310F0040F18BF43F01003E5
:10406000104A937000F00F03042B04D11346927989
:1040700042F040029A710B4B5A7902F0EF0210F0B5
:10408000100F18BF42F01002064B5A719B7903F0D3
:10409000EF0310F0200F18BF43F01003014A937193
:1040A000704700BF00A0064010B5114B1B6813F409
:1040B000806F1CD00F4B1B7813F0FF0F06D00D4CF8
:1040C000FFF738FF237813F0FF0FF9D14FF40052B8
:1040D000094B1A600023094AD37040F203120849C1
:1040E0000A6004310A60074A1370074A137010BD52
:1040F00034800440E59CFF1F84E100E000A00640FE
:1041000040A00440689DFF1FE69CFF1F10B50446B9
:10411000094A137813F0FF0FFBD120460121FEF767
:10412000F3FD20460021FEF7CBFD044B53F834206D
:10413000034B1A6010BD00BFE59CFF1F9467000091
:104140006C9DFF1F2DE9F04107461F4B1B6813F4C0
:10415000806F37D01D4B1B680BB101221A701C4BAE
:104160001C780134402C28BF00241A4D1A4EDFF869
:104170006C8017E0FEF716FB40280FDC337913F054
:10418000800F0FD02B780133402B28BF002318F865
:104190000320D2B2F271DBB22B7003E0FF2801DD05
:1041A000FFF7C8FE2B78DBB29C42E3D0FFB20B4B8B
:1041B0001F5501220A4B1A70E4B2054B1C70BC2239
:1041C000054BDA70BDE8F081348004406C9DFF1F20
:1041D000709DFF1F699DFF1F00A00640E89CFF1F08
:1041E000E59CFF1F2DE9F84F0746284B1B6813F489
:1041F000806F49D0264B1B680BB101221A7007EB68
:10420000010B5F453DD2DFF89890224EDFF88C809D
:10421000DFF890A099F800400134402C28BF00241A
:104220003578EDB2A54220D1BC2388F80330FEF7E3
:10423000B9FA402811DC98F8043013F0800F10D040
:1042400033780133402B28BF00231AF80320D2B261
:1042500088F80720DBB2337003E0FF2801DDFFF7A9
:1042600069FE3378DBB29D42E1D017F8013B0AF8D2
:1042700004300122084B1A70E4B289F800405F450F
:10428000C8D1BC22054BDA70BDE8F88F34800440F9
:104290006C9DFF1F699DFF1FE59CFF1F00A006404E
:1042A000709DFF1FE89CFF1F10B5064B1B7813F095
:1042B000FF0F06D0034CFFF73DFE237813F0FF0FEE
:1042C000F9D110BDE59CFF1F064B1B78DBB2064AF7
:1042D0001278D2B293422CBF3F3202F1FF32D01A91
:1042E000704700BF709DFF1F699DFF1F054B187829
:1042F000C0B2054B1B78DBB2984238BF4030C01AC1
:10430000704700BF689DFF1FE69CFF1F0A4B1A788D
:10431000D2B20A4B1B78DBB29A4209D00133402B50
:1043200028BF0023064AD05CDBB2044A13707047F2
:104330004FF0FF30704700BF689DFF1FE69CFF1FD6
:10434000289DFF1F094B1A78D2B2094B1B78DBB2AC
:104350009A4207D00133402B28BF0023054AD05C86
:10436000C0B270474FF0FF30704700BF689DFF1F1D
:10437000E69CFF1F289DFF1F0A4B1B6813F4806FEC
:104380000FD0094BDA7802F0CB02DA7040225A746F
:10439000DA7842F03402DA70044B1A78D2B2044B65
:1043A0001A7070473480044000A00640E69CFF1F4E
:1043B000689DFF1F70B4364B1B7913F0300F25D06A
:1043C00072B6334B9B7D03F0FF022BB9304BDA7989
:1043D00040225A7462B619E062B62E4B1978C9B2FF
:1043E0002D4B1D78EDB22A4C2C4EE379D8B24B1CE4
:1043F000402B28BF0023AB421CBFF0541946531E6C
:1044000013F0FF02F1D1C9B2224B1970204BDA78B8
:10441000D2B212F0800F27D01B7913F0800F23D077
:104420001F4B1C78E4B21F4B1B78DBB29C4210D0B0
:1044300017491D4D01E0A3420BD00133402B28BF8B
:1044400000230879E85CC0B2C871087DC0B20728B3
:10445000F1D9DBB213490B700D4B1B7913F0800FB0
:1044600002D07C210A4BD97012F0400F0ED0084BBD
:104470001B7913F0400F09D000220C4B1A700C4B23
:104480001B6803B11A703C22014BDA7070BC704794
:1044900000A00640689DFF1FE69CFF1F289DFF1F90
:1044A000709DFF1F699DFF1FE89CFF1FE59CFF1F7C
:1044B0006C9DFF1F194B1A6842F400621A600023BA
:1044C000174A1370174A1370174A1370174A13705C
:1044D000174A137040F21332164B1A604FF45172A0
:1044E00004331A60C0F34432134B1A70C0F34712FE
:1044F0005A7000F01F00987204229A700221D97439
:104500005A7588221A743C22DA7040220B4B1A70BA
:104510004FF40042A3F22B331A60704734800440FA
:10452000DC9DFF1F729DFF1FE49DFF1FDD9DFF1F90
:10453000719DFF1F0CB0044000B006402FE400E066
:10454000164B9B7803F0EC0300F00302134310F0CA
:10455000040F18BF43F01003104A937000F00F03CC
:10456000042B04D11346927942F040029A710B4B0E
:104570005A7902F0EF0210F0100F18BF42F010024B
:10458000064B5A719B7903F0EF0310F0200F18BF10
:1045900043F01003014A9371704700BF00B006401A
:1045A00010B5114B1B6813F4006F1CD00F4B1B7818
:1045B00013F0FF0F06D00D4CFFF7BCFC237813F06F
:1045C000FF0FF9D14FF40042094B1A600023094A4A
:1045D000D37040F2031208490A6004310A60074AA6
:1045E0001370074A137010BD34800440719DFF1F83
:1045F00084E100E000B006400CB00440DC9DFF1FE9
:10460000729DFF1F10B50446094A137813F0FF0F7F
:10461000FBD120460121FEF777FB20460021FEF763
:104620004FFB044B53F83420034B1A6010BD00BFFE
:10463000719DFF1F94670000E09DFF1F2DE9F04171
:1046400007461F4B1B6813F4006F37D01D4B1B68C8
:104650000BB101221A701C4B1C780134282C28BF86
:1046600000241A4D1A4EDFF86C8017E0FEF79AF816
:1046700040280FDC337913F0800F0FD02B780133F3
:10468000282B28BF002318F80320D2B2F271DBB226
:104690002B7003E0FF2801DDFFF74CFC2B78DBB229
:1046A0009C42E3D0FFB20B4B1F5501220A4B1A70FC
:1046B000E4B2054B1C70BC22054BDA70BDE8F081FA
:1046C00034800440E09DFF1FE49DFF1FDD9DFF1F20
:1046D00000B00640749DFF1F719DFF1F2DE9F84F2C
:1046E0000746284B1B6813F4006F49D0264B1B6804
:1046F0000BB101221A7007EB010B5F453DD2DFF8C9
:104700009890224EDFF88C80DFF890A099F8004056
:104710000134282C28BF00243578EDB2A54220D1E1
:10472000BC2388F80330FEF73DF8402811DC98F8E8
:10473000043013F0800F10D033780133282B28BFBA
:1047400000231AF80320D2B288F80720DBB23370B6
:1047500003E0FF2801DDFFF7EDFB3378DBB29D427C
:10476000E1D017F8013B0AF804300122084B1A7017
:10477000E4B289F800405F45C8D1BC22054BDA702D
:10478000BDE8F88F34800440E09DFF1FDD9DFF1FD2
:10479000719DFF1F00B00640E49DFF1F749DFF1F29
:1047A00010B5064B1B7813F0FF0F06D0034CFFF734
:1047B000C1FB237813F0FF0FF9D110BD719DFF1FCE
:1047C000064B1B78DBB2064A1278D2B293422CBF5A
:1047D000273202F1FF32D01A704700BFE49DFF1F5D
:1047E000DD9DFF1F054B1878C0B2054B1B78DBB26F
:1047F000984238BF4030C01A704700BFDC9DFF1F91
:10480000729DFF1F0A4B1A78D2B20A4B1B78DBB29B
:104810009A4209D00133402B28BF0023064AD05CBE
:10482000DBB2044A137070474FF0FF30704700BF8F
:10483000DC9DFF1F729DFF1F9C9DFF1F094B1A7877
:10484000D2B2094B1B78DBB29A4207D00133402B1E
:1048500028BF0023054AD05CC0B270474FF0FF303C
:10486000704700BFDC9DFF1F729DFF1F9C9DFF1FB7
:104870000A4B1B6813F4006F0FD0094BDA7802F073
:10488000CB02DA7040225A74DA7842F03402DA70DD
:10489000044B1A78D2B2044B1A707047348004402B
:1048A00000B00640729DFF1FDC9DFF1F70B4364BA9
:1048B0001B7913F0300F25D072B6334B9B7D03F07C
:1048C000FF022BB9304BDA7940225A7462B619E0F4
:1048D00062B62E4B1978C9B22D4B1D78EDB22A4C19
:1048E0002C4EE379D8B24B1C402B28BF0023AB429F
:1048F0001CBFF0541946531E13F0FF02F1D1C9B288
:10490000224B1970204BDA78D2B212F0800F27D0E8
:104910001B7913F0800F23D01F4B1C78E4B21F4B80
:104920001B78DBB29C4210D017491D4D01E0A34219
:104930000BD00133282B28BF00230879E85CC0B2D4
:10494000C871087DC0B20728F1D9DBB213490B70DA
:104950000D4B1B7913F0800F02D07C210A4BD970CC
:1049600012F0400F0ED0084B1B7913F0400F09D006
:1049700000220C4B1A700C4B1B6803B11A703C22BE
:10498000014BDA7070BC704700B00640DC9DFF1F21
:10499000729DFF1F9C9DFF1FE49DFF1FDD9DFF1F5C
:1049A000749DFF1F719DFF1FE09DFF1F174B1A682D
:1049B00042F480521A600023154A1370154A13708E
:1049C000154A1370154A1370154A137040F21331CB
:1049D000144A11604FF4517104321160C0F3443134
:1049E000114A1170C0F34711517000F01F0090720E
:1049F000937013742C23D37040220C4B1A704FF415
:104A00000032A3F22D331A60704700BF3480044097
:104A1000509EFF1FE69DFF1F589EFF1F519EFF1FC8
:104A2000E59DFF1F08C0044000C0064031E400E0DF
:104A3000164B9B7803F0EC0300F00302134310F0D5
:104A4000040F18BF43F01003104A937000F00F03D7
:104A5000042B04D11346927942F040029A710B4B19
:104A60005A7902F0EF0210F0100F18BF42F0100256
:104A7000064B5A719B7903F0EF0310F0200F18BF1B
:104A800043F01003014A9371704700BF00C0064015
:104A900010B5114B1B6813F4805F1CD00F4B1B78B3
:104AA00013F0FF0F06D00D4CFFF744FA237813F0F4
:104AB000FF0FF9D14FF40032094B1A600023094A65
:104AC000D37040F2031208490A6004310A60074AB1
:104AD0001370074A137010BD34800440E59DFF1F1A
:104AE00084E100E000C0064008C00440509EFF1F63
:104AF000E69DFF1F10B50446094A137813F0FF0F17
:104B0000FBD120460121FEF7FFF820460021FEF7E9
:104B1000D7F8044B53F83420034B1A6010BD00BF84
:104B2000E59DFF1F94670000549EFF1F2DE9F04193
:104B300007461F4B1B6813F4805F37D01D4B1B6863
:104B40000BB101221A701C4B1C780134282C28BF91
:104B500000241A4D1A4EDFF86C8017E0FDF722FE94
:104B600040280FDC337913F0800F0FD02B780133FE
:104B7000282B28BF002318F80320D2B2F271DBB231
:104B80002B7003E0FF2801DDFFF7D4F92B78DBB2AF
:104B90009C42E3D0FFB20B4B1F5501220A4B1A7007
:104BA000E4B2054B1C70AC22054BDA70BDE8F08115
:104BB00034800440549EFF1F589EFF1F519EFF1FCC
:104BC00000C00640E89DFF1FE59DFF1F38B5054664
:104BD0000C4629B115F8010BFFF7A8FF013CF9D1EC
:104BE00038BD00BF10B5064B1B7813F0FF0F06D081
:104BF000034CFFF79FF9237813F0FF0FF9D110BD95
:104C0000E59DFF1F064B1B78DBB2064A1278D2B235
:104C100093422CBF273202F1FF32D01A704700BFF7
:104C2000589EFF1F519EFF1F054B1878C0B2054BC1
:104C30001B78DBB2984238BF4030C01A704700BFC3
:104C4000509EFF1FE69DFF1F0A4B1A78D2B20A4BF7
:104C50001B78DBB29A4209D00133402B28BF0023D6
:104C6000064AD05CDBB2044A137070474FF0FF3045
:104C7000704700BF509EFF1FE69DFF1F109EFF1F45
:104C8000094B1A78D2B2094B1B78DBB29A4207D093
:104C90000133402B28BF0023054AD05CC0B27047C7
:104CA0004FF0FF30704700BF509EFF1FE69DFF1F73
:104CB000109EFF1F024B1A78D2B2024B1A70704737
:104CC000E69DFF1F509EFF1F264B1B7913F0200F00
:104CD00012D0244BDB79D9B2234B1B780133402B04
:104CE00028BF0023214A1278D2B29A4204D0204A27
:104CF000D154DBB21C4A13701A4BDB78DBB213F0D1
:104D0000800F1CD0174A127912F0800F17D0194A61
:104D10001178C9B2184A1278D2B2914203D16C21EB
:104D2000104AD1700BE00132282A28BF0022134913
:104D3000885CC0B20B49C871D2B20F490A7013F037
:104D4000400F0ED0074B1B7913F0400F09D0002203
:104D50000B4B1A700B4B1B6803B11A702C22014BC2
:104D6000DA70704700C00640509EFF1FE69DFF1F8F
:104D7000109EFF1F589EFF1F519EFF1FE89DFF1FA3
:104D8000E59DFF1F549EFF1F00B585B072B61B4BFB
:104D900070221A7041211A4A11700F21013A1170C4
:104DA00080221A701A46137813F0800FFBD0154B2F
:104DB000186862B6144B98429CBF00EB800040001C
:104DC00001A90A22FFF7D8F89DF804307BB908E062
:104DD00001A9595C31B19180023201330A2BF7D11C
:104DE00000E0002301335B00084A137003E0074A28
:104DF00053800123ECE705B05DF804FB000002409E
:104E000007000240080002407F969800248DFF1F93
:104E100008B503681B68C9B2984708BD08B50368A0
:104E20001B68C9B2984708BD08B503681B68C9B2BA
:104E3000984708BD08B503681B68C9B2984708BD04
:104E400008B54B0803F1376000F5D830B0FBF1F03E
:104E5000FFF7B4F808BD00BF10B514464B0803F1C6
:104E6000376000F5D830B0FBF1F0FFF7A7F8204627
:104E7000FFF7EAF810BD00BF08B5FFF715F908BD48
:104E800008B50846FFF742F908BD00BF08B5FFF7AF
:104E90002DFA08BD08B5FFF755FA08BD08B5FFF7AC
:104EA00035FA08BD08B5FFF7FFF908BD08B5FFF7EB
:104EB00063FA08BD08B5FFF707FA08BD08B508464C
:104EC000FFF740F9012008BD08B50846FFF73AF999
:104ED000012008BD10B5144608461146FFF782F9B7
:104EE000204610BD38B50D46084601F027FA0446A5
:104EF00028462146FFF776F9204638BD704700BFA7
:104F0000044B00221A714FF47A7199601A73024AA5
:104F10001A6070475C9EFF1F3869000008B503687F
:104F20001B68C9B2984708BD08B503681B68C9B2B9
:104F3000984708BD08B503681B68C9B2984708BD03
:104F400008B503681B68C9B2984708BD08B54B0887
:104F500003F1376000F5D830B0FBF1F0FFF7AAFAA3
:104F600008BD00BF10B514464B0803F1376000F5CB
:104F7000D830B0FBF1F0FFF79DFA2046FFF7E0FADA
:104F800010BD00BF08B5FFF70BFB08BD08B508460C
:104F9000FFF738FB08BD00BF08B5FFF723FC08BDCD
:104FA00008B5FFF74BFC08BD08B5FFF72BFC08BDA3
:104FB00008B5FFF7F5FB08BD08B5FFF759FC08BDBC
:104FC00008B5FFF7FDFB08BD08B50846FFF736FB3F
:104FD000012008BD08B50846FFF730FB012008BDD9
:104FE00010B5144608461146FFF778FB204610BD61
:104FF00038B50D46084601F0A1F904462846214679
:10500000FFF76CFB204638BD704700BF044B002201
:105010001A714FF47A7199601A73024A1A607047D4
:105020006C9EFF1F8869000008B503681B68C9B241
:10503000984708BD08B503681B68C9B2984708BD02
:1050400008B503681B68C9B2984708BD08B503686E
:105050001B68C9B2984708BD08B54B0803F1B76093
:1050600000F55840B0FBF1F0FFF7A0FC08BD00BF11
:1050700010B514464B0803F1B76000F55840B0FB7B
:10508000F1F0FFF793FC2046FFF7D2FC10BD00BF04
:1050900008B5FFF7FDFC08BD08B50846FFF72AFD77
:1050A00008BD00BF08B5FFF7BFFD08BD08B5FFF795
:1050B000E7FD08BD08B5FFF7C7FD08BD08B5FFF758
:1050C00091FD08BD08B5FFF7F5FD08BD08B5FFF770
:1050D00099FD08BD08B50846FFF728FD012008BD69
:1050E00008B50846FFF722FD012008BD10B514469B
:1050F00008461146FFF76AFD204610BD38B50D463B
:10510000084601F01BF9044628462146FFF75EFDDC
:10511000204638BD704700BF044B00221A714FF47F
:105120007A7199601A73024A1A6070477C9EFF1F59
:10513000D869000008B5FEF771FD08BD08B5FEF797
:1051400009FD08BD08B5FEF73DFD08BD08B5FEF731
:105150002FFE08BD08B50846FEF71EFE08BD00BFBD
:1051600008B508461146FEF791FD08BD704700BF1F
:10517000044B00221A714FF47A7199601A73024A33
:105180001A6070478C9EFF1F286A0000FFFFFFFF18
:105190002DE9F84FC1F30A57A7F2FF36132E024646
:1051A0000B4604460D4689468A4680461CDC002E86
:1051B00040DB3D4F374107EA010C5CEA000C18D098
:1051C00037A3D3E9002300F079F80022002300F090
:1051D000A5FA28B1002D42DB2AEA07094FF00008A2
:1051E00040464946BDE8F88F332E06DDB6F5806FA0
:1051F00031D010461946BDE8F88FA7F2134C4FF096
:10520000FF3B2BFA0CFB1BEA000FF2D024A3D3E9DF
:10521000002300F053F80022002300F07FFA00285A
:10522000DED0002D22DB28EA0B08D1464046494655
:10523000BDE8F88F1AA3D3E9002300F03FF800225D
:10524000002300F06BFA0028CAD0002D1CDB4FF0C1
:105250000008C146C4E700F031F8BDE8F88F4FF40C
:10526000801A4AFA06F606EB050AB5E7142E14D0A2
:10527000C7F586670123033703FA07F717EB04081E
:1052800028BF05EB030ACEE725F00042074B224377
:1052900018BF99464FF00008A2E705F1010AC2E7DE
:1052A0009C7500883CE4377EFFFF0F000000F0BFD4
:1052B00081F0004102E000BF83F0004330B54FEAC7
:1052C00041044FEA430594EA050F08BF90EA020F34
:1052D0001FBF54EA000C55EA020C7FEA645C7FEAC7
:1052E000655C00F0E2804FEA5454D4EB5555B8BFEA
:1052F0006D420CDD2C4480EA020281EA030382EA5B
:10530000000083EA010180EA020281EA0303362DEC
:1053100088BF30BD11F0004F4FEA01314FF4801CBF
:105320004CEA113102D0404261EB410113F0004FD1
:105330004FEA03334CEA133302D0524263EB430388
:1053400094EA050F00F0A780A4F10104D5F1200E26
:105350000DDB02FA0EFC22FA05F2801841F1000181
:1053600003FA0EF2801843FA05F359410EE0A5F155
:1053700020050EF1200E012A03FA0EFC28BF4CF086
:10538000020C43FA05F3C01851EBE37101F000453C
:1053900007D54FF0000EDCF1000C7EEB00006EEB49
:1053A0000101B1F5801F1BD3B1F5001F0CD34908D3
:1053B0005FEA30004FEA3C0C04F101044FEA44522A
:1053C00012F5800F80F09A80BCF1004F08BF5FEAB1
:1053D000500C50F1000041EB045141EA050130BD91
:1053E0005FEA4C0C404141EB010111F4801FA4F134
:1053F0000104E9D191F0000F04BF01460020B1FA89
:1054000081F308BF2033A3F10B03B3F120020CDAC0
:105410000C3208DD02F1140CC2F10C0201FA0CF09E
:1054200021FA02F10CE002F11402D8BFC2F1200C03
:1054300001FA02F120FA0CFCDCBF41EA0C019040B9
:10544000E41AA2BF01EB0451294330BD6FEA040402
:105450001F3C1CDA0C340EDC04F11404C4F12002ED
:1054600020FA04F001FA02F340EA030021FA04F3FF
:1054700045EA030130BDC4F10C04C4F1200220FA56
:1054800002F001FA04F340EA0300294630BD21FA94
:1054900004F0294630BD94F0000F83F4801306BF5A
:1054A00081F480110134013D4EE77FEA645C18BF4E
:1054B0007FEA655C29D094EA050F08BF90EA020FE5
:1054C00005D054EA000C04BF1946104630BD91EADD
:1054D000030F1EBF0021002030BD5FEA545C05D1E0
:1054E0004000494128BF41F0004130BD14F580041F
:1054F0003CBF01F5801130BD01F0004545F0FE4193
:1055000041F470014FF0000030BD7FEA645C1ABFC7
:10551000194610467FEA655C1CBF0B46024650EAFE
:10552000013406BF52EA033591EA030F41F400212A
:1055300030BD00BF90F0000F04BF0021704730B5B0
:105540004FF4806404F132044FF000054FF0000185
:1055500050E700BF90F0000F04BF0021704730B546
:105560004FF4806404F1320410F0004548BF40421B
:105570004FF000013EE700BF42004FEAE2014FEA70
:1055800031014FEA02701FBF12F07F4393F07F4F4B
:1055900081F06051704792F0000F14BF93F07F4F7D
:1055A000704730B54FF4607401F0004521F00041C0
:1055B00020E700BF50EA010208BF704730B54FF046
:1055C00000050AE050EA010208BF704730B511F04B
:1055D000004502D5404261EB41014FF4806404F183
:1055E00032045FEA915C3FF4DCAE4FF003025FEA05
:1055F000DC0C18BF03325FEADC0C18BF033202EB8D
:10560000DC02C2F1200300FA03FC20FA02F001FAE6
:1056100003FE40EA0E0021FA02F11444C1E600BF85
:105620004FF0FF3C06E000BF4FF0010C02E000BF6E
:105630004FF0010C4DF804CD4FEA410C7FEA6C5C51
:105640004FEA430C18BF7FEA6C5C1BD001B050EAF4
:10565000410C0CBF52EA430C91EA030F02BF90EADF
:10566000020F0020704710F1000F91EA030F58BF9E
:10567000994208BF90422CBFD8176FEAE37040F000
:10568000010070474FEA410C7FEA6C5C02D150EA9E
:10569000013C07D14FEA430C7FEA6C5CD6D152EA59
:1056A000033CD3D05DF8040B704700BF844610461E
:1056B00062468C461946634600E000BF01B5FFF71D
:1056C000B7FF002848BF10F1000F01BD4DF808EDED
:1056D000FFF7F4FF0CBF012000205DF808FB00BFBE
:1056E0004DF808EDFFF7EAFF34BF012000205DF818
:1056F00008FB00BF4DF808EDFFF7E0FF94BF012065
:1057000000205DF808FB00BF4DF808EDFFF7CEFF65
:1057100094BF012000205DF808FB00BF4DF808EDA4
:10572000FFF7C4FF34BF012000205DF808FB00BF75
:105730004A0011D212F5001211D20DD56FF4787310
:10574000B3EB62520ED44FEAC12343F0004343EA65
:10575000505323FA02F070474FF00000704750EAB0
:10576000013002D14FF0FF3070474FF0000070471A
:1057700080F0004002E000BF81F0004142001FBF06
:105780005FEA410392EA030F7FEA226C7FEA236C0F
:105790006AD04FEA1262D2EB1363C1BFD218414004
:1057A00048404140B8BF5B42192B88BF704710F09A
:1057B000004F40F4000020F07F4018BF404211F03D
:1057C000004F41F4000121F07F4118BF494292EAA5
:1057D000030F3FD0A2F1010241FA03FC10EB0C00D1
:1057E000C3F1200301FA03F100F0004302D549425E
:1057F00060EB4000B0F5000F13D3B0F1807F06D30B
:1058000040084FEA310102F10102FE2A51D2B1F102
:10581000004F40EBC25008BF20F0010040EA0300F7
:105820007047490040EB000010F4000FA2F10102A4
:10583000EDD1B0FA80FCACF1080CB2EB0C0200FA2E
:105840000CF0AABF00EBC25052421843BCBFD0407C
:105850001843704792F0000F81F4000106BF80F4F6
:1058600000000132013BB5E74FEA41037FEA226CB9
:1058700018BF7FEA236C21D092EA030F04D092F084
:10588000000F08BF0846704790EA010F1CBF0020B8
:10589000704712F07F4F04D1400028BF40F0004015
:1058A000704712F100723CBF00F50000704700F035
:1058B000004343F0FE4040F4000070477FEA22625C
:1058C00016BF08467FEA23630146420206BF5FEA2D
:1058D000412390EA010F40F4800070474FF000032D
:1058E00004E000BF10F0004348BF40425FEA000CF4
:1058F00008BF704743F0964301464FF000001CE09C
:1059000050EA010208BF70474FF000030AE000BFF1
:1059100050EA010208BF704711F0004302D540422F
:1059200061EB41015FEA010C02BF844601460020A1
:1059300043F0B64308BFA3F18053A3F50003BCFABC
:105940008CF2083AA3EBC25310DB01FA02FC634469
:1059500000FA02FCC2F12002BCF1004F20FA02F270
:1059600043EB020008BF20F00100704702F1200263
:1059700001FA02FCC2F1200250EA4C0021FA02F2C4
:1059800043EB020008BF20EADC7070474FF0FF0CC9
:105990001CEAD0521EBF1CEAD15392EA0C0F93EAC4
:1059A0000C0F6FD01A4480EA010C400218BF5FEA66
:1059B00041211ED04FF0006343EA501043EA5111D9
:1059C000A0FB01310CF00040B1F5000F3EBF4900D3
:1059D00041EAD3715B0040EA010062F17F02FD2AD7
:1059E0001DD8B3F1004F40EBC25008BF20F00100BA
:1059F000704790F0000F0CF0004C08BF49024CEAD1
:105A0000502040EA51207F3AC2BFD2F1FF0340EA62
:105A1000C250704740F400004FF00003013A5DDCD3
:105A200012F1190FDCBF00F000407047C2F1000214
:105A3000410021FA02F1C2F1200200FA02FC5FEA01
:105A4000310040F1000053EA4C0308BF20EADC704B
:105A5000704792F0000F00F0004C02BF400010F4BD
:105A6000000F013AF9D040EA0C0093F0000F01F06A
:105A7000004C02BF490011F4000F013BF9D041EA8C
:105A80000C018FE70CEAD15392EA0C0F18BF93EA8E
:105A90000C0F0AD030F0004C18BF31F0004CD8D1B8
:105AA00080EA010000F00040704790F0000F17BF3F
:105AB00090F0004F084691F0000F91F0004F14D085
:105AC00092EA0C0F01D142020FD193EA0C0F03D1DD
:105AD0004B0218BF084608D180EA010000F00040E0
