:1000000000800020BD0100007D2300004923000086
:100010004923000049230000492300004923000030
:100020004923000049230000492300007D230000EC
:100030007D230000492300007D23000039230000B8
:100040007D2300007D2300007D2300007D23000030
:100050007D2300007D2300007D2300007D23000020
:100060007D2300007D2300007D2300007D23000010
:100070007D2300007D2300007D2300007D23000000
:100080007D2300007D2300007D2300007D230000F0
:100090007D2300007D2300007D2300007D230000E0
:1000A000D1160000DD1600007D2300007D23000036
:1000B0007D2300007D2300007D2300007D230000C0
:1000C0007D2300007D2300007D2300007D230000B0
:1000D0007D2300007D2300007D2300007D230000A0
:1000E0007D2300007D2300007D2300007D23000090
:1000F0007D230000D93B00007D23000079400000F3
:100100007D230000454400007D2300007D23000086
:100110007D2300007D2300007D2300007D2300005F
:100120007D2300007D2300007D2300007D2300004F
:100130007D2300007D2300007D2300007D2300003F
:100140007D2300007D2300007D2300007D2300002F
:10015000B1360000C9360000E1360000F936000073
:100160007D230000B12C00007D2300007D230000D2
:100170007D2300007D2300007D2300007D230000FF
:100180007D2300007D2300007D2300007D230000EF
:100190007D2300007D2300007D2300007D230000DF
:1001A0007D2300007D2300007D2300007D230000CF
:1001B0007D2300007D2300007D230000564B4CF280
:1001C000205210B51A804DF628121A8000BF00BFC9
:1001D00002F0D8F8514B4FF010621A60504A9A6002
:1001E000504ADA60A3F53043203B1A6812F480725B
:1001F00004D14D490A604FF4A8521A604B4B1A784B
:10020000110703D51A7842F008021A70484B2A22C7
:100210001A700023474A48499818884204D247492F
:10022000595899500433F5E7454A464B9A424FF0E6
:10023000000302D242F8043BF7E74349434A5958C6
:1002400099500433B3F5DE7FF7D1414B802103F899
:10025000011B40498B42F9D13F4B1A603F4B0A22A8
:100260001A70A3F5805324225A70A0221A709A792A
:100270009207FCD59A79D406FCD4394B9A7902F0CE
:100280000C02082AF9D103221A7140225A719A7974
:100290009006FCD5324B9A795106FBD5314A32494A
:1002A00011600221516020221A702D4B9B7903F0BE
:1002B0000C030C2BF9D12D4B2D4A1A602D4B2E4AD5
:1002C0001A6000225A60072243F8042C2B4AC3F814
:1002D0000C2D62B602F0D4FB134B1B68DA0705D570
:1002E000274802F0F7F9274B274A1A60274B1B785B
:1002F0005B0609D5234C244A2368934204D1204845
:1003000002F0E8F90023236005F098F802F040F8C5
:1003100003F039FAFEE700BF0E20054030800440AC
:10032000823F04000100002B14D0034002D007409C
:1003300000E007406087FF1F288DFF1F1C5800004A
:10034000288DFF1F5096FF1F000000000082FF1F36
:1003500000E400E05FE400E008ED00E0005006404B
:100360000040064044800440000003010480044033
:10037000C010050014E000E0FF760100000020201E
:10038000B89047561CE00340A5C3945A00F00740BC
:10039000FFFFFFFFFFFFFFFFFFFFFFFFFFFFFFFF6D
:1003A000FFFFFFFFFFFFFFFFFFFFFFFFFFFFFFFF5D
:1003B000FFFFFFFFFFFFFFFFFFFFFFFFFFFFFFFF4D
:1003C000FFFFFFFFFFFFFFFFFFFFFFFFFFFFFFFF3D
:1003D000FFFFFFFFFFFFFFFFFFFFFFFFFFFFFFFF2D
:1003E000FFFFFFFFFFFFFFFFFFFFFFFFFFFFFFFF1D
:1003F000FFFFFFFFFFFFFFFFFFFFFFFFFFFFFFFF0D
:10040000FFFFFFFFFFFFFFFFFFFFFFFFFEFFFFFFFD
:1004100010B5054C237833B9044B13B10448AFF33E
:1004200000800123237010BD288DFF1F00000000F5
:100430001C58000008B5064B1BB106480649AFF32F
:1004400000800648036813B1054B03B1984708BD07
:10045000000000001C5800002C8DFF1F288DFF1F7E
:100460000000000070B590F8E13080F820310A2BD0
:1004700000F22E81DFE813F00B0027003600900019
:10048000C100F1002C012C012C012C011C0190F861
:10049000E23090F8E420003318BF012380F83032B6
:1004A00090F8E33003EB0223A0F8323290F8EA3000
:1004B00080F8343290F8EB3080F8213190F8FE303B
:1004C00080F8BC3270BD90F8E230002B00F0008163
:1004D0004079012102F082F90D200121BDE8704030
:1004E00002F07CB9831C0021002214469D1895F867
:1004F000E060D50006FA05F501322C44202AA4B2AA
:10050000F4D10022A0F84A4214469D1895F8E26002
:10051000D50006FA05F501322C44202AA4B2F4D104
:10052000A0F84C4293F8E42080F84E2293F8E5209E
:1005300080F84F22002214469D1895F8E660D500F9
:1005400006FA05F501322C44202AA4B2F4D1002287
:10055000A0F8504214469D1895F8E860D50006FAB8
:1005600005F501322C44202AA4B2F4D1A0F852425D
:1005700093F8EA2080F8562293F8EB2080F859226D
:10058000243193F8EC2080F85A226C2900F12400E1
:1005900003F10E03A8D170BD90F8E23080F8543218
:1005A00090F8E33080F8553290F8E43080F8573214
:1005B00090F8E53080F8583290F8F03080F87832D2
:1005C00090F8F13080F8793290F8F23080F87B3290
:1005D00090F8F33080F87C3290F8FE3080F89C324E
:1005E00090F8FF3080F89D3290F8003180F89F320B
:1005F00090F8013180F8A03270BD831C00210022E8
:1006000014469D1895F8E060D50006FA05F501320C
:100610002C44202AA4B2F4D10022A0F8A642144609
:100620009D1895F8E260D50006FA05F501322C44D4
:10063000202AA4B2F4D1A0F8A84293F8E42080F8CC
:10064000AA22083193F8E52080F8AB22182900F19E
:10065000080003F10E03D2D170BD0246034600210B
:1006600092F8E24083F8564292F8E34083F857420A
:1006700092F8E44083F8584292F8E54083F85442F7
:10068000243192F8E64083F855426C2902F10802C1
:1006900003F12403E4D190F8FA3080F8AA3290F8FC
:1006A000FE3080F8B23290F8023180F8BA3270BD74
:1006B00090F8E230092B0BD800EB83140023C2180A
:1006C00092F8EC10E2180133202B82F8C012F6D118
:1006D00070BDFFFF70B5044601F010FA314B236086
:1006E0004FF47A72002384F8303284F83432A4F85C
:1006F000322204F5177304F532752B4801460022A7
:1007000051F8046B23F8242C098823F80E1CD0F828
:10071000061023F8222C23F8202C23F81E2C23F873
:100720001C2C43F8182C03F8142C03F8132C43F852
:100730000C1C03F8082C03F8072C03F8052C03F80D
:10074000042C03F8032C0321012243F8126C03F854
:10075000061C03F8022C2433AB42CED104F52B73D4
:1007600004F53171642023F8060C40F6B83023F804
:10077000040C0022052023F8082C03F8020C03F8CF
:10078000012C08338B42EDD184F8BC2204F530757E
:1007900004F5A8662846403501F0FEFBB542F9D1C4
:1007A000204670BDB054000098540000094B70B54D
:1007B0000446036000F5307600F5A865B54204D024
:1007C000403D284601F00AFCF8E7204601F0A2F877
:1007D000204670BDB0540000F8B5064600F50F7411
:1007E000002572B606F5D0772F443846002101F077
:1007F00045F924F8040C62B672B60121384601F0BE
:100800003DF924F8020C62B672B638462146A21CA5
:10081000231D01F003FB62B62035602D04F1240492
:10082000DFD106F50674002572B6204601F0F0FA15
:10083000A4F88C0062B60835182D04F10804F3D131
:10084000F8BD0021FFF7C8BF10B580F8A01090F8E0
:1008500085100144044681F89F200BB9FFF7F1FF92
:1008600094F8211184F8A11011B1012949D010BDCB
:1008700022462346B2F8380283F8A200001283F819
:10088000A300B2F83A0283F8A400001283F8A5008E
:10089000B2F83C0283F8A60040F3072083F8A700D3
:1008A000B2F83E0283F8A80040F3072083F8A900BD
:1008B000B2F8400283F8AA0040F3072083F8AB00A7
:1008C000243192F8490283F8AC006C2902F1240229
:1008D00003F10E03CED1B4F8A43284F8CC301B124D
:1008E00084F8CD30B4F8AC3284F8D0301B1284F8E0
:1008F000D130B4F8B43284F8D4301B1284F8D53037
:1009000010BD0023013394F8E22084F8A2203D2B8F
:1009100004F10104F6D110BD70B50446002604F5BB
:10092000D075354400210A46284601F093F8284640
:100930000121002201F08EF800210A46284601F02C
:100940007DF8203628460121002201F077F8602E3C
:10095000E5D104F50670002101F046FA04F50870AF
:10096000002101F041FA04F50A700021BDE8704051
:1009700001F03ABA2DE9F7438946054600F5D077EC
:10098000002495F8562295F8496272B96EB9384636
:100990003146324601F052F838460121324601F024
:1009A0004DF885F84962032337E02B49A0000EBBC0
:1009B000012A2A4BDFF8AC8005D0022A4FF0010251
:1009C00005D11A5504E01E5508F8046002E01E55D2
:1009D00008F80420012285F84922214A12680A50A9
:1009E0003846195DFF2201F029F8384618F804103E
:1009F000FF2224E051F82420D9F8003095F84F1256
:100A00009B1A95F84E22019301981144642359438F
:100A1000884205D9002385F8493285F8563210E01E
:100A2000019912FB03F399420BD90E4B3846195D1D
:100A3000002201F003F8094B195D3846002200F04E
:100A4000FDFF0134032C05F1240507F1200798D19F
:100A500003B0BDE8F08300BF548DFF1F6C8DFF1FF6
:100A60005893FF1F6787FF1F70B5064600F5D074C7
:100A7000002573192046B3F83832B3F5966F4FF05E
:100A8000000106D9962200F0E5FF204601219622BA
:100A900005E00A4600F0DEFF204601210022243551
:100AA00000F0D8FF6C2D04F12004E2D170BDF8B540
:100AB00007460446002607F5D075354494F85422BD
:100AC0002846002100F0BAFF94F85522284601215B
:100AD00000F0B4FF94F857222846002100F0BAFF36
:100AE000203694F858222846012100F0B3FF602EEA
:100AF00004F12404DFD1F8BDF8B50746054600240B
:100B000007F5D076264495F857223046002100F0AC
:100B1000A1FF203495F858223046012100F09AFFB9
:100B2000602C05F12405EBD1F8BD38B500F506744D
:100B30000025204694F89210083501F055F9182D3B
:100B400004F10804F5D138BD2DE9F743894605467F
:100B500000F5D077002495F8562295F849626AB9D5
:100B600066B938463146324600F068FF3846012102
:100B7000324600F063FF85F849624BE02A49A00045
:100B80000EBB012A294BDFF8AC8005D0022A4FF0BA
:100B9000010205D11A5504E01E5508F8046002E070
:100BA0001E5508F80420012285F84922204A1268BF
:100BB0000A503846195DFF2200F040FF384618F809
:100BC0000410FF2224E051F82420D9F8003095F8D1
:100BD0004F129B1A95F84E220193019811446423F9
:100BE0005943884205D9002385F8493285F85632A1
:100BF00010E0019912FB03F399420BD90D4B3846D3
:100C0000195D002200F01AFF084B195D38460022DA
:100C100000F014FF0134032C05F1240507F120072F
:100C200099D103B0BDE8F083608DFF1F508DFF1F89
:100C30005893FF1F6487FF1F2DE9F7438946054638
:100C400000F5D076002495F8567247B930463946FB
:100C50003A4600F0F3FE304601213A464BE095F863
:100C600049222B484FEA840C12BB012F294BDFF895
:100C7000AC8005D0022F4FF0010105D1195504E0D9
:100C80001A5508F8042002E01A5508F80410012249
:100C900085F84922204A195D126840F80C20304638
:100CA000FF2200F0CBFE304618F80410FF2222E0AD
:100CB00050F82420D9F8003095F84F129B1A95F877
:100CC0004E2201930198114464235943884203D969
:100CD000002385F8493210E0019912FB03F3994291
:100CE0000BD90E4B3046195D002200F0A7FE094BD0
:100CF000195D3046002200F0A1FE0134032C05F1FD
:100D0000240506F120069ED103B0BDE8F08300BFA4
:100D1000448DFF1F6F8DFF1F5893FF1F6A87FF1FB2
:100D200010B5044602F026FD204610BD08B5054862
:100D300001F017F90E2001F075FABDE8084002F045
:100D40002BBD00BF888DFF1F13B5084B084C1B68D7
:100D500002A9204641F8043DFFF7F6FE2046FFF7C2
:100D6000CBFE2046FFF7E1FE02B010BD5893FF1FF7
:100D7000888DFF1F13B5074B074C1B6802A920463F
:100D800041F8043DFFF7E0FE2046FFF7B5FE02B054
:100D900010BD00BF5893FF1F888DFF1F13B5084B70
:100DA000084C1B6802A9204641F8043DFFF7CCFE21
:100DB0002046FFF7A1FE2046FFF7B7FE02B010BDA8
:100DC0005893FF1F888DFF1F13B5084B084C1B68F5
:100DD00002A9204641F8043DFFF7B6FE2046FFF782
:100DE0008BFE2046FFF7A1FE02B010BD5893FF1FF7
:100DF000888DFF1F10B5074C074B20461B68FFF777
:100E000056FE2046FFF778FE2046BDE81040FFF76B
:100E10008CBE00BF888DFF1F5893FF1F37B50A4B4C
:100E20000A4C1B6802AD204645F8043DFFF709FD5A
:100E300029462046FFF79EFD2046FFF715FE204677
:100E4000FFF773FE03B030BD5893FF1F888DFF1F5F
:100E500013B5084B084C1B6802A9204641F8043D15
:100E6000FFF7EAFE2046FFF747FE2046FFF75DFE4C
:100E700002B010BD5893FF1F888DFF1F0148FFF778
:100E80004BBD00BF888DFF1F38B50A4D0A4C284660
:100E9000FFF720FC22462846084904F0B9FA084822
:100EA000084900230370802343732246BDE838407D
:100EB00004F0AEBA888DFF1F6087FF1FAD070000EA
:100EC000748DFF1F210D000038B52148204D214CA5
:100ED00000F049FD20B12846FFF7C4FA0023238023
:100EE000238895F8342201339BB22380092A2BD81A
:100EF000DFE802F005090D141B141F232323BDE8AE
:100F00003840FFF78BBFBDE83840FFF71DBFB3F592
:100F1000FA6F19D2BDE83840FFF740BFB3F5FA6F5A
:100F200012D2BDE83840FFF74FBFBDE83840FFF7A9
:100F300021BFBDE83840FFF78BBFB3F5FA6F03D28E
:100F4000BDE83840FFF756BFBDE83840FFF796BF11
:100F5000888DFF1FC892FF1F0369D3F83801D3F8AB
:100F60003431C01A704770470369D3F84422B2F590
:100F7000817F09D8D3F84422501CC3F8440213449B
:100F8000012083F83C117047012303710020704752
:100F900030B50469D4F84432B3F5817F1DD8D4F854
:100FA0004432D4F84452C3F5817301332C449A423D
:100FB00004F59E7402D9012202711A46002393425D
:100FC00003D0CD5CE5540133F9E70269D2F844124D
:100FD0001944C2F84412184630BD012303710020A1
:100FE00030BDFFFF10B500224FF47A7402718460A7
:100FF0000273054C0275054A04604FF4187441737E
:1010000004FB0121016110BDC05400007087FF1F67
:10101000014B0360704700BFC0540000F0B59DF85D
:1010200014409DF818509DF8206029B94C4FD7F80E
:1010300000C04CF0400C06E0012906D1484FD7F81B
:1010400000C04CF0800CC7F800C0002780F84B723D
:1010500080F84822476932B920233B7003681A7030
:10106000C3691A7015E0002C0CBF202228223A70A8
:10107000076801D0A34201D25A0000E06200D2B258
:101080003A70C26924B1A34234BF64005C00E4B288
:1010900014709DF81C3040F20362002B40F264642F
:1010A00040F2032308BF4FF4197308BF224671B9F9
:1010B000012D05D12B4A80F849521360536018E086
:1010C000294A80F84912136042F8043C11E00129D2
:1010D0000FD1032D06D1254B80F849521A6043F8F1
:1010E000042C06E0022280F84922214A13600432CF
:1010F000136043680A2E1BD8DFE806F01A06080AB8
:101100000C0E1012141618001F2212E01D2210E0FF
:1011100085220EE014220CE045220AE00D2208E0B0
:101120000B2206E0092204E0022202E0002200E095
:1011300027221A70836904221A7090F84822836863
:101140000AB9802200E0C0221A7011B94FF08072F3
:1011500003E0012903D14FF00072064B1A60F0BD85
:101160003480044000A004400CA0044004D004409B
:1011700028B0044000E100E00369490083F83C1115
:1011800003690122C3F844220022027183F84B2232
:1011900070472DE9F041D0F8445204460F461646F8
:1011A000002D36D0C36812221A7083681A7802F0B4
:1011B000200202F0FF051AB1B4221A70002513E0D4
:1011C00001F02CFC8046E3681B789B0606D5F6B13F
:1011D00001F024FCC8EB0000B04218D3002384F8CF
:1011E0004832A368B0221A70012384F84B320023DE
:1011F000C4F84032A36884F84A72F0221A70D4F816
:1012000040222369144494F83C211A7001E001251E
:10121000D9E72846BDE8F0812DE9F041069D044656
:101220000E461F46002A34D0C0F85022C368002260
:10123000C0F83421C0F8382112221A70826813785D
:10124000990601D5B42313E001F0E8FB8046E3687A
:101250001B789B0607D5002DF9D001F0DFFBC8EB0A
:101260000000A842F3D30023A26884F84832B023D8
:101270001370022384F84B32A36884F84A72F02278
:101280001A70760046F001062369F6B21E70BDE8BA
:10129000F081BDE8F081036993F84B32043B032BE6
:1012A00007D8DFE803F004020B0402207047042093
:1012B00070470079003018BF012070470320704745
:1012C00090F84B326BB190F84B32052B09D090F867
:1012D0004B32062B05D090F84B02C31F58425841A1
:1012E00070470120704770B504460D4601F096FB2B
:1012F00006462046FFF7E4FF30B9002DF9D001F093
:101300008DFB801BA842F4D394F84B32012B13D0F1
:1013100094F84B32022B0FD094F84B32032B0BD0A6
:101320004FF4A073013B7FF4FDAF94F84B02D0F172
:10133000010038BF002070BD042384F84B32EFE772
:1013400038B50446154600693222FFF722FF2946C8
:1013500020752069FFF7C7FF2046BDE83840FFF73A
:101360009ABF37B504460AB900200BE03225009534
:10137000FFF752FF20460699FFF7B5FF0028F3D08C
:10138000D4F8380103B030BDD0F83421D0F838316A
:101390009A4208D2D0F834315A1CC0F8342118448B
:1013A00090F8300070474FF0FF3070470069FFF74A
:1013B000EBBFD0F83421D0F838319A423DBFD0F895
:1013C0003431C01890F830004FF0FF30704700699A
:1013D000FFF7EFBF38B5C16883680D781A78D2B2CD
:1013E00004469006EDB26ED5D00648D594F84B224F
:1013F000012A1BD115F00105D4F8402205D02AB3EB
:10140000062284F84B228022D8E00132C4F8402220
:10141000D4F844128A4202D384F84B5229E0D4F81B
:1014200040222369224492F83C21C7E094F84B22E1
:10143000022A1AD1E90607D5072284F84B22802216
:101440001A70E3681222EDE0EA0701D50522D8E719
:10145000032284F84B22D4F85022012A0CBFE82240
:10146000E0221A7023691B78DAE094F84B22042AF0
:10147000C9D194F84A22012AC5D0B0229EE0D4F8FE
:101480003811D4F850220231914200F0CD8094F806
:101490004B22042A04D194F85522002A00F0C4807B
:1014A000D4F83821D4F8503201329A4280F0BF800B
:1014B00094F84B32042B40F0E48094F85532002B22
:1014C00040F0B580DDE015F0100F05F0400304D0CA
:1014D00010200870002B00F0A38003F0FF01002B08
:1014E00052D094F84B32092B04D1D4F85832002B47
:1014F00040F0E28005F0040505F0FF03EDB108239C
:1015000084F84B320023C4F84432D4F85C3203B17F
:101510009847D4F844320BB984F83C31A368D02200
:101520001A7023691A78520884F84C2294F83C21E6
:101530001A700123C4F8403272E094F8492284F80A
:1015400054320AB9122002E0012A02D111205E4968
:1015500003E0022A03D15D491E20032203E0032A8F
:1015600003D15A491F2001F057F8092384F84B3260
:101570000023C4F83831A368C0221A7023691B788D
:101580005B0884F84C324BE002F0100202F0FF03DB
:10159000F2B115F0010513D1D4F84022D4F8443249
:1015A0009A4207D2D4F840325A1C2344C4F840224D
:1015B00093F83C5123691D70A368D0221A702FE064
:1015C000A368C0221A7023691B7884F84B1227E0A5
:1015D00094F8492284F854320AB9122002E0012A10
:1015E00002D11120384903E0022A03D137491E20D5
:1015F000032203E0032A03D134491F2001F00CF831
:1016000023691A78D4F83831B3F5817FD2B207D87C
:10161000D4F83831591C2344C4F8381183F83020E9
:10162000E36802221A7038BDE8221A7038E794F88D
:101630004B220023042A84F8553201D084F84B321F
:10164000A368B0221A7023691A78D4F83831B3F538
:10165000817FD2B207D8D4F83831591C2344C4F85A
:10166000381183F8302094F84A32012B06D1202318
:10167000013B7FF4FDAFA36880221A7094F84B32CF
:101680000EE023691A78D4F83831B3F5817F07D892
:10169000D4F83831591C2344C4F8381183F8302069
:1016A00094F84B32042BBBD194F85532002BB7D1B0
:1016B000012384F85532B3E70022C4F83421D4F86A
:1016C0003801984716E700BF7D1700008917000012
:1016D00001480021FFF77EBE7087FF1F01480121EE
:1016E000FFF778BED089FF1F10B5C3681B7803F0E1
:1016F0002003044603F0FF02EBB990F8493280F86A
:101700004B220BB912200AE0012B01D1112006E077
:10171000022B01D11E2002E0032B02D11F2000F07A
:10172000C1FFD4F858323BB30022C4F83421D4F8B6
:101730003801984710BD90F854320133DBB2012BC9
:1017400080F8543204D890F84832012B00D110BDF3
:1017500094F849320BB912200AE0012B08BF11207E
:1017600006D0022B08BF1E2002D0032B04D11F205D
:10177000BDE8104000F096BF10BDFFFF01480021FA
:10178000FFF7B2BF7087FF1F01480121FFF7ACBF11
:10179000D089FF1F08B50368C9B21B68984708BD08
:1017A00038B504460D4604300121FFF71BFC2570B7
:1017B000204638BD034670B5041D0E4620461978F4
:1017C0001546FFF7D9FCB11C20468900FFF7E2FF60
:1017D00029462046FFF7DEFF290A2046FFF7DAFFF9
:1017E000204601216422BDE87040FFF7A9BD73B512
:1017F0000446051D0E4628462178FFF7BDFC3146FC
:101800002846FFF7B1FB284601216422FFF798FD27
:10181000012264232178009360691346FFF7A1FD3C
:101820006069FFF7B1FDC0B202B070BD70B503468C
:10183000041D0D46204619781646FFF79DFC2946E3
:101840002046FFF791FB31462046FFF78DFB2046EF
:1018500001216422BDE87040FFF772BD00210A46F5
:10186000FFF7E4BF1FB500220223417C02928DE8FE
:101870000C0003230393044613464069FFF7CEFB95
:10188000204604B0BDE81040FFF7E8BFF8B50646B3
:1018900008461E4903F0D6FB01461D4803F086FCAE
:1018A0004FF07E5103F0C4FA4FF07C5103F0C2FABE
:1018B00003F0BEF902F0C8FF04460D463046002191
:1018C000FFF795FF00F06F02074642F01002304626
:1018D0000021FFF7ABFF2946204603F085FAFE21E1
:1018E000C2B23046FFF7A2FF3A4630460021FFF76A
:1018F0009DFF052001F0B0F867F05E023046002140
:10190000D2B2BDE8F840FFF791BF00BF6666663F00
:1019100020BCBE4510B5064B0360044600F594702C
:10192000FFF776FB04F18800FFF772FB204610BD3D
:10193000E054000038B50D4672B600F592742046AA
:10194000FFF790FF284603F025FB01462046FFF7EE
:101950009DFF62B638BD08B572B60A21A03001F00D
:1019600045FD62B608BD38B5044672B60021E030C8
:1019700001F00EFD62B610F0FF0010D094F8863032
:10198000226894F8E01055682344204693F8DF203D
:1019900093F8DE30A8472046FFF7DDFF012038BD71
:1019A000022A70B5027003D0531F5D425D4100E012
:1019B00001252C24C4740D24532304752D24037491
:1019C0004475272308242E264374C4750023C47647
:1019D00038248374837506764376312604774377FB
:1019E00014B2322383774570C160867601EB84039D
:1019F0005DB15D6E2D7805715D6E6D7845715D6EC2
:101A0000AD7885705B6EDB780AE01D692D78057115
:101A10001D696D7845715D6E2D7885705B6E5B78A4
:101A200001EB8404C370636B1B788371636B114497
:101A30005B78C37191F87F30037270BD08B572B6E0
:101A4000C3680144120103F592708978FFF7B2FE72
:101A500062B608BD08B5437801444BB172B6C068A0
:101A6000097900F592701201FFF7A4FE62B608BD75
:101A70000879BDE80840114600F0ECBE08B5014405
:101A8000887900F0CFFB80B208BD10B5C368017A39
:101A9000044601F0010193F87C0000F09FFEE3682A
:101AA000217A93F87D00C1F3400100F097FEE368CE
:101AB000217A93F87E00C1F38001BDE8104000F068
:101AC0008DBE022A027006D0B2F1050CDCF10003D3
:101AD00053EB0C0300E00123437041601BB101EBA9
:101AE00082035B6E02E0131D51F823301B78837074
:101AF00001EB8202536B1B78C3707047B74B2DE923
:101B0000F047036007234371B54B1A460D21044685
:101B10000171861D32F8020BDF881288228104F1E0
:101B20000A02A261E26104F10E0262621A89228550
:101B30005A8962859A89A285DA89E080E285988847
:101B40001A8A608104F1280C04F12A0E04F10805B8
:101B500004F10C00A781266104F12C0704F12E0684
:101B600022865A8AC4F834C0C4F838E0656120621D
:101B70006286E7632664A4F85B205A8B84F85210CF
:101B8000A4F85D20998AA4F8551004F15F02D3F8F7
:101B90001610A2671A46C4F8571004F15D0104F14B
:101BA0003200616732F8201FA0640920927884F81F
:101BB0004E000A20DF6984F84F0004F130050B2045
:101BC00084F87E2053F8232F656484F8500004F1D4
:101BD00057050C204FF000089B8884F851004FF007
:101BE000010904F1550604F15B00C4F85F70E56675
:101BF00004F1530740258CB0C4F87F206766A666C1
:101C00002067A4F87C1084F84C80414684F84D90FD
:101C100084F8538084F8549004F18800A4F8833049
:101C200084F8855084F88650FFF7DCF904F5A07A33
:101C3000294684F8208184F8218184F8228104F5E2
:101C40009270FFF7ADFD04F5B0772146424650464D
:101C5000FFF7A6FE04F5C076384621464A46FFF750
:101C60009FFE304621460222FFF79AFED646BEE886
:101C70000F0004F5D0750FC59EE80F0085E80F0032
:101C80000FCF04F5E0750FC597E80F0085E80F004A
:101C90000FCE04F5F0750FC596E80F0004F5007738
:101CA00085E80F0004F50276214603223846FFF747
:101CB00008FF04F50475214604223046FFF701FFB2
:101CC000214605222846FFF7FCFE97E8030004F5AD
:101CD000067383E8030096E8030004F5087383E8BD
:101CE000030095E8030004F50A7383E803004946FE
:101CF000207900F093FD6079494600F08FFD0025C2
:101D000004EB080301211B69585D013500F086FDD5
:101D1000042DF5D108F10408B8F1180FEFD1002611
:101D20000025A31900215B6B585D013500F076FD9D
:101D3000042DF6D10436182EF2D10C2000F01EFA34
:101D4000202000F045FA082000F0D4FC00202549AE
:101D500000F0DCFC0120234900F0D8FC02202149DE
:101D600000F0D4FC402105A8FFF71AFD9DF81430BF
:101D700084F824319DF81C3084F82C31089BC4F879
:101D800030319DF8243084F834319DF8253084F8C2
:101D900035310A9BC4F838319DF82C3084F83C3139
:101DA00006A8FFF735F900256319012193F87C0097
:101DB000013500F033FD032DF6D10022D4F8980050
:101DC00094F8951000920192029203951346FFF742
:101DD00025F920460CB0BDE8F08700BFE0540000B4
:101DE000E85400000000C84408B5034640780A469D
:101DF00048B172B65868997800F592701201FFF7F1
:101E0000D9FC62B608BD9878BDE8084000F022BD54
:101E100008B5C07800F006FA80B208BD2DE9FF4190
:101E200004460E461746984672B6FFF72EFEE06847
:101E3000217C8830FFF7A0F9E068A17F8830FFF7A8
:101E400093F8E06801214FF47A728830FFF778FA4E
:101E5000E368217C4FF47A720092D3F89800002551
:101E600006220123FFF77DFA0295ADF80C50E368D6
:101E7000D3F89800D0F83811D0F834319942EAB24A
:101E80001DD162B69DF809109DF8083043EA012380
:101E900033809DF80B109DF80A3043EA01233B8004
:101EA0009DF80D109DF80C30042A43EA012394BFDD
:101EB00000200120A8F8003004B0BDE8F081062D14
:101EC000DFD0FFF761FA02AB58550135CFE770B5A7
:101ED00004460D461646FFF7D8FD72B6E068217C31
:101EE0008830FFF749F9E06829468830FFF73CF869
:101EF000E06831468830FFF737F8E06800214FF49A
:101F00007A728830FFF71CFA62B670BD10B50446CD
:101F1000417C827CFFF7DBFF2046E17C227DFFF7DE
:101F2000D6FF2046E17C227DFFF7D1FFA37DE27D35
:101F3000617D1A432046FFF7CAFF2046217E627E5C
:101F4000FFF7C5FF2046A17EE27EFFF7C0FF2046D7
:101F5000217F627FFFF7BBFF0520BDE8104000F046
:101F60007BBD38B54FF47A710446FFF7E3FC04F506
:101F7000A070FFF7CBFF04F5B070FFF7C7FF04F5C3
:101F8000C070FFF7C3FF65252046FFF7ECFC08B1E2
:101F9000013DF9D138BDFFFF0F4A70B50346054634
:101FA00002F12006106851682C4603C40832B24280
:101FB0002546F7D105221A84002283F824209A624C
:101FC000DA621A865A631A8783F83A20DA6342F291
:101FD00010725A84184670BD115500007047FFFFFB
:101FE000F0B5304B1B681B06FBD42F4B1B6813F05E
:101FF0008002F6D172B62D4B1978002950D02C49A9
:1020000008684F688E68CD680C69384414313044D4
:102010000968284420440844C0F34E00254940F490
:1020200000400860C86A0F6B4E6B8D6BCC6B3844F8
:10203000403130440968284420440844C0F34E002D
:102040001D4940F40040086001F10811143151F8B5
:10205000140C51F8107C51F80C6C51F8085C51F8D4
:10206000044C096838443044284420440844C0F3F0
:102070004E00124940F400400860C86A0F6B4E6B76
:102080008D6BCC6B3844403130440968284420447F
:102090000844C0F34E000A4940F4004008601A703A
:1020A00062B6F0BD24B0034024B00B40CB92FF1FBA
:1020B00038B003402CB0034030B003402CB00B408C
:1020C00030B00B4010B5204B2048214960221A70D7
:1020D000E1225A701F4B204A1C78204B082C01D15A
:1020E000012402E00A2C03D139240460132005E006
:1020F0000C2C0CBF35243D240460122008601460B1
:102100001860174B17491B78174A03B101230B605E
:102110001360164B164A1978164B012901D88021F5
:102120000BE0042901D8842107E0082901D8852182
:1021300003E0102994BF86218721116019600E4B9E
:1021400001221A7010BD00BF0040074008B00340D4
:102150000CB00340308CFF1F08B00B400CB00B409C
:10216000CE92FF1F20B0034020B00B40318CFF1FE8
:1021700024B0034024B00B40CB92FF1F0C2804D99D
:10218000102828BF1020102307E00A2804D80928A7
:1021900034BF08230A2300E00C23094AD9B2081AE5
:1021A0001070084A1078834208D0074B11701B78D2
:1021B00013B1064B00221A60FFF784BF704700BFBF
:1021C000CA92FF1F308CFF1FCB92FF1F24B0034029
:1021D00010B5114B1B7804460BB1FFF701FF012C22
:1021E0000E4A01D8002302E0042C02D80423136015
:1021F0000EE0082C03D805231360082308E0102CF8
:1022000003D806231360102302E007231360202362
:10221000034A137010BD00BFCB92FF1F24B00340D0
:10222000318CFF1F0D2838B50FD9172801D80E386B
:102230000AE0A0F11A03052B01D8093804E0A0F147
:102240002203062B47D81838C0B2244B1C5C244B01
:102250001B780BB1FFF7C4FE210614D472B6214BD4
:10226000214D1C6001232B7062B672B61D4B1B689A
:102270001A0601D51D4B1FE02B78002BEFD062B65C
:1022800001F090FAF1E772B6194B1A4D1A6814F082
:10229000400F14BF22F0100242F010021A60164BD9
:1022A00004F03F021A6001232B7062B672B6124B23
:1022B0001B681B0608D5114B186800232B7062B6EB
:1022C0000F4B1B78184138BD2B78002BDCD062B641
:1022D00001F068FAEAE7002038BD00BF3155000080
:1022E000CB92FF1F00B00340CD92FF1F10B0034000
:1022F0000CB00B40CC92FF1F00B00B4010B00B4055
:10230000CA92FF1F084B1A6842F480521A60074BAA
:102310001A78074B0AB1802200E0C0221A70054BE0
:1023200080F30C00188070472C800440CE92FF1F71
:1023300021C00C4000C00C40024B1A6801321A60E8
:10234000704700BF5893FF1F08B50B4C2368580314
:1023500001D500F0ADFC2368590501D501F03CFC26
:1023600023681A0501D501F087FE2368DB04ECD54C
:1023700002F068F8E9E700BF3480044008B5FFF7D1
:10238000E3FFFFFF014B10221A8070470020054039
:102390007047FEE7EFF313839BB9EFF3108098B912
:1023A000EFF3058323B10F2B04D9084A985C01E0B1
:1023B0004FF48070EFF311833BB1834238BF18466E
:1023C00070474FF0FF30704718467047F0E300E069
:1023D0001F4B10B51C681C60E00304D51D4B1A6828
:1023E0000AB11B689847A10304D51A4B5A680AB171
:1023F0005B689847E20704D5164B1A6C0AB11B6C50
:102400009847A30704D5134B5A6C0AB15B6C9847E5
:10241000200704D50F4B9A6C0AB19B6C9847610753
:1024200004D50C4BDA6C0AB1DB6C9847220304D557
:10243000084B5A6E0AB15B6E9847630306D5054B8D
:10244000D3F8802012B1D3F88030984710BD00BF78
:10245000A0A00440D092FF1F2C4B10B51C681C603C
:10246000200704D52A4B5A6A0AB15B6A9847E106ED
:1024700004D5274B9A6A0AB19B6A9847620604D52D
:10248000234BDA6A0AB1DB6A9847230604D5204B4E
:102490001A6B0AB11B6B9847A00604D51C4B5A6BEC
:1024A0000AB15B6B9847E10704D5194BDA6B0AB1A7
:1024B000DB6B9847A20704D5154B9A6D0AB19B6D4B
:1024C0009847630704D5124BDA6D0AB1DB6D984764
:1024D000A00504D50E4BDA6E0AB1DB6E9847E10514
:1024E00004D50B4B1A6F0AB11B6F9847620504D5D0
:1024F000074B5A6F0AB15B6F9847230504D5044B0D
:102500009A6F0AB19B6F984710BD00BFA0B00440FE
:10251000D092FF1F1E4B10B51C681C60E00704D54D
:102520001C4B9A680AB19B689847210604D5194B41
:102530005A690AB15B699847E20604D5154B9A6956
:102540000AB19B699847630704D5124BDA690AB14F
:10255000DB699847200704D50E4B1A6A0AB11B6A3B
:102560009847A10704D50B4B9A6B0AB19B6B984710
:10257000A20604D5074B1A6D0AB11B6D9847630676
:1025800004D5044B5A6D0AB15B6D984710BD00BF6E
:10259000A0C00440D092FF1F114B10B51C681C60F6
:1025A000E00404D50F4BDA680AB1DB689847A10450
:1025B00004D50C4B1A690AB11B699847A20604D5C9
:1025C000084B1A6E0AB11B6E9847E30606D5054BF9
:1025D000D3F8842012B1D3F88430984710BD00BFDF
:1025E000A0900440D092FF1F094B10B51C681C60DE
:1025F000A20704D5074B9A6E0AB19B6E9847E30772
:1026000004D5044BDA6F0AB1DB6F984710BD00BFE9
:10261000A0D00440D092FF1F212830B531D8042A21
:102620002FD8DFE802F00709050B03000B2306E0B3
:102630000A2304E0082302E00C2300E00923114AE6
:10264000114D02EBC0025468104AC2F89C51104D63
:10265000C2F8A0510F4DC2F8A4510F4DC2F8A851B5
:102660000E4DC2F8AC5172B622680D4D22F47022A4
:10267000226042F0807242EA034345F82010236052
:1026800062B630BD48550000992500000082FF1F4A
:10269000D12300005924000015250000E925000081
:1026A000D092FF1F094B03EBC0035A6872B6136840
:1026B00023F0877323F4803343F080731360044B5B
:1026C000002243F8202062B6704700BF4855000042
:1026D000D092FF1F044B054900221A600A60044A89
:1026E000106010221A60704714D0034004D00340D9
:1026F00000D0034018B1102828BF102000E00120AE
:10270000014B1870704700BF328CFF1FF8B50546AB
:102710000E460024274F47FA04F002F03FFC4FF02A
:102720005E5102F08FFC0146304602F03DFE10B9CA
:102730000134072CEED147FA04F002F02FFC3146A9
:1027400002F034FD4FF07C5102F072FB02F040FECB
:102750004FF6FF73984228BF1846EB1E012B06D890
:10276000154B164900221A600A60154A1BE0A5F1B4
:102770000903012B06D9A5F11403032B02D96B1F02
:10278000012B06D80F4B104900221A600A600F4A2D
:1027900009E0202D01D0192D0BD10D4B0D49002240
:1027A0001A600A600C4A04F0070444F00804106040
:1027B0001C60F8BD006CDC020090034004900340F4
:1027C00008900340008003400480034008800340D9
:1027D00000800B4004800B4008800B40212810B57E
:1027E00018D80D4A52F8303093F880423CB101229B
:1027F00011B183F8802010BD83F8002110BD02EBD9
:10280000C00043681A6811B142F0030201E022F0EF
:1028100002021A6010BD00BF48550000212816D8DA
:102820000B4A02EBC00301295B6852F8302004D147
:1028300082F880124FF4A27208E0002082F8800231
:1028400011B94FF4807201E040F203121A60704730
:1028500048550000282838B5604A04460B4611D177
:1028600012780B2A04D8C2F10C0201FA02F304E038
:102870000C2A1CBF0C3A41FA02F31846BDE8384056
:10288000FFF740BD11780125002B05FA01F2D8BFF2
:10289000002102DD934205D32946FFF79FFF204622
:1028A000294697E00338C2B2012A01D84C4A06E013
:1028B000202C01D0192C01D14A4A00E04A4A126862
:1028C00002FB0332CA401D287BD8DFE800F0575FC7
:1028D0004E337A7A212A7A7A7A7A7A7A7A7A7A3CB2
:1028E000450F187A707A7A7A7A7A7A673F4B1A604B
:1028F00003F5973340F2444203F5FA735FE03C4B33
:102900001A6003F5973340F2444203F5F87356E03A
:10291000384B1A6003F5973340F2444203F5F673DF
:102920004DE0354B1A6003F5973340F2444203F50E
:10293000F47344E0314B1A6003F59F3340F2444294
:1029400003F5F0733BE02E4B1A6003F59F3340F222
:10295000444203F5EE7332E02A4B1A6003F59F33CD
:1029600040F2444203F5EC7329E0274B1A6003F56B
:102970009F3340F2444203F5EA7320E0234B1A6090
:1029800003F580334FF45172203318E0204B1A6066
:1029900003F580334FF451721C3310E01D4B1A6065
:1029A000A3F5DB234FF45172A3F5F96307E01A4B4B
:1029B0001A60A3F5DB234FF45172A3F2CC731A60B3
:1029C00038BD7F2B2046D4BF00210121FFF706FF31
:1029D00020460121BDE83840FFF720BF328CFF1FA1
:1029E0000890034008800B4008800340108003409B
:1029F000188003402080034028800340308003403B
:102A000038800340408003404880034010900340DA
:102A10001890034010800B4018800B4072B60B4B8F
:102A20000B491A680B4B1B68096862B6490102D54D
:102A3000322A88BF0133C2F5BB326021FF32B2FBBC
:102A4000F1F24FF47A7000FB0320704718E000E0C9
:102A500004ED00E05893FF1F38B50446FFF7DEFF92
:102A6000054664B1FFF7DAFF401BB0F57A7F03D368
:102A7000013C04D005F57A7500F094FEF2E738BD0C
:102A80001F4B4FF4000210B51A604FF080721A60AD
:102A90004FF000721A604FF080621A604FF00062CF
:102AA0001A60184B184A194C00204BF6FF71186039
:102AB00059602823136093601361936113629362DA
:102AC000136393630922226004F580540434206068
:102AD0006160A360236144F8042C04F5FE242060A7
:102AE0000B4801600B490B608B600B4B1A60FFF7C2
:102AF000E9FA0420FFF7B0FFBDE8104000F0C8BBC2
:102B000008E100E0048003400C80034000800340A3
:102B100008800B400C800B4000800B40F0B50C4B44
:102B20000C4C1A7842F0020504EBC50682F0010253
:102B3000706009481A700678002E0CBF8827C827D5
:102B400086F0010647EA0141067044F83510F0BDF1
:102B5000D893FF1F0080FF1F6094FF1F431E052BAB
:102B600010B510D872B6094A52F8230048B141682E
:102B700042F82310064A018832F81340611A22F8FD
:102B8000131062B610BD002010BD00BFC093FF1F20
:102B90004496FF1F013805280AD872B6054B53F832
:102BA0002030002013B101305B68FBE762B670474C
:102BB000002070471C94FF1F10B572B60123174AFE
:102BC0001A4412F8012C12071CD59900144A52F825
:102BD00031402CB902EB431308305860114B09E027
:102BE00041F0010152F8314064B902EBC1030830F1
:102BF00058600D4B42F831300C4B1A78013A1A707C
:102C000062B610BD0133072BD9D162B6074B002243
:102C10001A70BDE8104000F099BB00BF5856000084
:102C20000080FF1F88004000C80040005694FF1F2E
:102C3000431E052B30B532D8194A400140F0100030
:102C4000104472B6174CE25C032A09D8DFE802F0A0
:102C5000160218050830022213E00830042210E0A2
:102C60001148124A50F8234014B940F8231002E0EA
:102C700052F82300416042F823100FE0032200E0E5
:102C80000522E25410F0080F01F108030A8843609E
:102C90000CBF8823C82343EA0243036062B630BDF9
:102CA0000080FF1F7893FF1F1C94FF1F3494FF1FA9
:102CB0002DE9F84FA74F3C78E4B214F0040F3D46DD
:102CC00019D0A54B1B78A3B1A44A117801F0FF03DA
:102CD00021B1013BDBB2137003B900BEA04A1178E9
:102CE00001F0FF0329B1013BDBB213700BB900F017
:102CF000C3FC04233B7004F0080303F0FF02002B25
:102D000000F05C82974B984C1A78D2B215094FEAC2
:102D1000920840F0D98154F8382004EBC803C2F37C
:102D20008302013A5B680C2A00F2CB81DFE812F0E3
:102D300085018501C901C901C901C901C901C901CB
:102D4000A501C901C901C9010D00884D1A685B6858
:102D500087486B60874B44F8383001232A60DFF8DE
:102D60004082037092B240F2816000218242C8F832
:102D700000102161A16117D8B2F5D06F80F01681E3
:102D8000B2F5817F00F0C78006D8802A00F0B280BB
:102D9000822A00F0B38021E140F202339A4200F02F
:102DA000C980B2F5A06F14E0B2F5106F14D008D846
:102DB000B2F5086F40F01281674A6F4C12782270AA
:102DC00014E140F621139A4200F0348140F62123A9
:102DD0009A4200F0078101E15F4B634EAA781A70B6
:102DE00006F1C009336A1B0603D5706A083800F083
:102DF000ADFA08364E45F5D10026B146DFF8A4A15C
:102E000056F80A0028B1D0F804B000F09FFA5846EE
:102E1000F8E74AF80600594BDFF88CA1F05056F855
:102E20000A0028B1D0F804B000F090FA5846F8E74C
:102E3000534B4AF80600F050524B23F81900524BFE
:102E400019F80320023A032A08D8DFE802F0020446
:102E50000204002200E0012203F8092009F101091F
:102E6000B9F1060F06F10406C8D1484B00221A70CA
:102E700001269A46464A474B3244334412F8012C05
:102E80009B0012F0080F1A704FEA860925D000F057
:102E90003FFA38B104EB4613083058603E4B44F813
:102EA000393006E09AF8003044F8390001338AF8E6
:102EB000003000F02DFA49F0010338B104EBC302F1
:102EC000083050602B4A44F8332006E044F83300C1
:102ED0009AF8003001338AF8003049F002020136D6
:102EE00049F003090023072E44F8323044F8393002
:102EF000C0D178E0204C2170617076E0AA88062A63
:102F00006CD81D4C217061709100244A525C960768
:102F10006BD5237069E0AA8802F07F03062B5DDC85
:102F20006B88002B5AD191001C4A0A44117821F079
:102F300002010DE0AA8802F07F03062B4EDC6B88AD
:102F4000002B4BD19100154A0A44117841F002013F
:102F5000117048E0802007405F94FF1FD993FF1F46
:102F60007094FF1F902007400080FF1F4C94FF1FAC
:102F70006094FF1FC80040005794FF1F6093FF1F1D
:102F80003494FF1F4496FF1F7893FF1F5694FF1F32
:102F90005856000030C8011088004000C02007408B
:102FA0005C93FF1FC093FF1F1C94FF1F6A88A988B2
:102FB0009E4B53F8084CA3F10C007CB133F80C6C19
:102FC000964209D133F80A6C8E4205D1120A032ABF
:102FD0000CBF2378038909E00C33EAE7944B0F22F6
:102FE0001A7027E000231C4600E00223EE88B3425B
:102FF00038BF1E46402E34BF354640252046294660
:10300000FFF78CFD761B2C4403D1402D12D13546A1
:1030100003E0402E34BF3546402520462946FFF7C1
:103020007DFD761B2C4401D1402D03D1814AC8F887
:10303000004016800122804B42E0804A804811689F
:10304000814216D151687F4A914212D11A78A92A39
:103050000FD15A78452A0CD19A78C22A09D1DB7847
:103060006B2B06D1784B0020052201461A70FFF722
:1030700055FD764B44F8383023E0754E3568B5B1D0
:10308000DFF8B081B8F80090B9F1400F34BF4C467A
:10309000402428462146FFF741FDC4EB09039BB2BB
:1030A000A8F800300BB9402C00D12B193360634BCA
:1030B0001A88B2F5A06F04D100225A709A78654B35
:1030C0001A7001225C4B6CE004EBC806013D73688A
:1030D00002F00802A3F10800EDB202F0FF01002A9D
:1030E00036D000F033F95C485C4B50F82520EAB14B
:1030F000516840F8251002F108017160595D0329FB
:103100000BD8DFE801F002040608032104E00221E5
:1031100002E0052100E00421595516F0080F12883D
:103120000CBF8823C82343EA024342E05A5D032AC6
:1031300007D8DFE802F040400204002206E0012246
:1031400004E016F0080F0CBF022203225A5532E0A9
:1031500054F83820120C23F8082C22B3DFF82CE1A5
:1031600023F8061C43F8041C5EF825303C4913B9CB
:103170004EF8250002E051F825305860394B41F8EF
:10318000250033F815100A4423F8152000F0C0F884
:1031900010B10830706006E0334B44F838001A78FC
:1031A00001321A7007E0294B304A16F0080F08BFA9
:1031B000134644F8383008233B707BE5E0071FD501
:1031C0001D492A482A4C02230B702A4B1A702A4B9D
:1031D000186098602948D8601A619A615C60144B45
:1031E0000D2018702648FF2303702B700274254AA7
:1031F0001370254B9F221A7001230B70BDE8F88FC6
:10320000210604D50A4B0D221A7080232B70A207C9
:1032100005D51B4B1A78D2B21A7002232B70E30625
:1032200044BF10232B70BDE8F88F00BF6C56000020
:10323000C02007405494FF1F942007404C94FF1F68
:103240002109000301000400D993FF1FC8004000BA
:103250005C93FF1F982007401C94FF1F7893FF1F6B
:103260006093FF1F4496FF1F5694FF1F8800400085
:103270008093FF1FD893FF1F0080FF1FDC93FF1F69
:10328000882007408C20074084200740C093FF1F00
:1032900008B501F02DF900221A4B0021D1509818E1
:1032A0000832C82A4160F7D1174A106840F48020DC
:1032B000106002F528326832C3F307201070C3F3A0
:1032C00007401B0E10751376FF2302F81C3C02F812
:1032D000143C02F88C3C012302F8083C82F864108C
:1032E00002F8183C094B70226FF450711A700B44AD
:1032F0004FF400721A6003F1C04303F5C823102293
:103300001A7008BD0080FF1F3480044049E400E0CB
:1033100072B60C4A1168B1FA81F30B2B02D962B66E
:10332000002070474FF00040D84021EA00011160B2
:1033300062B6054948225343C8180022CA50426069
:10334000704700BF348CFF1F0084FF1F0C4B4822C6
:10335000C31AB3FBF2F30B2B11D80A4A127822B12D
:10336000094A12780AB1FFF727BC72B6074A4FF034
:10337000004121FA03F311681943116062B67047E6
:103380000084FF1F5694FF1F5F94FF1F348CFF1FA4
:10339000F8B5144B1E6805460C461F46124B1B78A9
:1033A000D3B10420FFF7DAFB38B93B689B1BA3427B
:1033B00016D8A4B100F0F6F9F0E700F108032A46A8
:1033C00000F1480153F8044B42F8044B8B42F9D109
:1033D000FFF7BCFF4020F8BD4FF0FF30F8BD20469E
:1033E000F8BD00BF5893FF1F5F94FF1FF8B5184B3F
:1033F0001D6804460E461F46164B1B781BB3032060
:10340000FFF7C8FB032806D93B685B1BB3421DD8F6
:1034100000F0C8F9F0E7FFF77BFF03460028F3D080
:10342000204603F1080204F1400150F8044B42F831
:10343000044B8842F9D140241C8003201946FFF731
:10344000F7FB2046F8BD4FF0FF30F8BD0020F8BD77
:103450005893FF1F5F94FF1F38B5124B1B78EBB1D9
:10346000114C23681BB90220FFF778FB206020680D
:103470000D4D98B14388C218147A5CB102880133AB
:10348000934204D3FFF762FF00232B6000E04380E8
:10349000204638BDFFF75AFF2C60DEE74FF0FF30C3
:1034A00038BD00BF5F94FF1F6C94FF1F10B50D4B1C
:1034B0001B788BB10C4C23681BB90220FFF74EFB25
:1034C0002060206840B1438803441C7A3CB9FFF770
:1034D0003DFF054B1C60EAE74FF0FF3010BD204672
:1034E00010BD00BF5F94FF1F6C94FF1F38B5104DD7
:1034F0002B6823B128680024028843880FE00D4B15
:103500001B781BB10220FFF729FB28602C68002CD8
:10351000F0D10BE0C1182144097A19B10134E11846
:103520009142F7DB14B9FFF711FF2C60204638BD3C
:103530006C94FF1F5F94FF1F2DE9F843324D012368
:1035400007460C462B70002C5AD0304E3368B146DB
:103550005BBB44F2D9582E4B1B7803F0FF020BB92A
:103560002A7018E00120FFF715FB052804D9B8F1EF
:103570000108284A09D10AE001232B70FFF7C8FE91
:10358000C9F800000028F2D00FE013783BB1012306
:10359000137000232B704FF0FF30BDE8F8832B70C1
:1035A00000F000F901232B70D5E73168194A4888EB
:1035B00000231370C0F14002944238BF224600F14C
:1035C000080C10448C444880A41A934204D0F85C40
:1035D0000CF803000133F8E71F444B883F2B0E4BD8
:1035E00002D805221A70AEE740220A804FF0000888
:1035F000012083F80080FFF71BFBC6F80080A2E7DC
:103600002C702046BDE8F8836194FF1F6494FF1F6F
:103610005F94FF1F6894FF1F7094FF1F07B502ABF4
:10362000012103F8010D1846FFF786FF03B05DF88E
:1036300004FBFFFF10B50D4B1B78B3B10C4B1968A1
:103640001C4691B14B8883B10A4A002010703F2B71
:1036500004DCCA18002010720133F8E740230B8005
:103660000120FFF7E5FA0023236010BD5F94FF1FE0
:103670006494FF1F7094FF1F10B50B4B1B788BB920
:103680000A4A11684B8814463F2B04DCCA180020F4
:1036900010720133F8E740230B800120FFF7C8FACE
:1036A0000023236010BD00BF6194FF1F6494FF1FBF
:1036B00008B5034B01221A60024B1B68984708BDEE
:1036C0000C7103407894FF1F08B5034B01221A6068
:1036D000024B5B68984708BD1C7103407894FF1F3C
:1036E00008B5034B01221A60024B9B68984708BD3E
:1036F0002C7103407894FF1F08B5034B01221A6018
:10370000024BDB68984708BD3C7103407894FF1F6B
:10371000064B01221A6003F588333C331A6822F401
:1037200000021A60024B00221A70704700700340BA
:103730007594FF1F8268002310B51360027B01217E
:10374000541102F01F0201FA02F2084941F8242044
:10375000074A41785354D15C31B90133042BFAD173
:10376000BDE81040FFF7D4BF10BD00BF80E100E00E
:103770007194FF1F037810B504460BB1FFF7DAFF11
:103780000023237010BD08B5FDF7D0FAFDF79CFBB0
:1037900000F008F8FAE7FFFF08B1014B1860704726
:1037A0008894FF1F10B50E4C2378BBB901232370FA
:1037B000FFF79CFE08B101F038F800F0ADF908B150
:1037C00000F030FF00F0F8FB08B100F09DFF00F0C2
:1037D000EDFD08B101F00AF80023237010BD00BF11
:1037E0008C94FF1F10B50023B0FBF2F402FB140011
:1037F000092894BF30303730C0B2C85420460CB1CD
:103800000133F1E7CA18547022469A4206DA885CFE
:10381000CC5C8C54C8540132013BF6E7084610BD1D
:10382000194B1A6842F480621A60184A0023137018
:10383000174A1370174A1370174A1370174A1370F8
:10384000174B40F213321A604FF451725A60154B05
:10385000C0F344321A70C0F347125A700221042296
:1038600000F01F0098729A70D9745A7588221A74E1
:103870003C22DA700C4B40226FF44A711A700B44F0
:103880004FF400521A607047348004400F95FF1FB8
:103890008E94FF1F1895FF1F1095FF1F8D94FF1F1B
:1038A00040A0044000A006402DE400E0134A9378B5
:1038B00000F0030103F0EC030B43410748BF43F062
:1038C0001003937000F00F03042B0C4903D18B7984
:1038D00043F040038B715379C20603F0EF03074AAC
:1038E00048BF43F0100353719379810603F0EF034F
:1038F00048BF43F010039371704700BF00A006401B
:1039000008B50E4B1B685B0500D408BD0C4B1A783C
:1039100002F0FF0312B1FFF745FFF7E7094A4FF442
:1039200000511160084A0949D37040F203120A603D
:103930004A60074A1370074A137008BD3480044078
:103940008D94FF1F84E100E000A0064040A00440E9
:103950000F95FF1F8E94FF1F38B50446094B1B7847
:1039600003F0FF05002BF9D120460121FEF756FF99
:1039700020462946FEF732FF034B53F83420034B11
:103980001A6038BD8D94FF1F485500001495FF1F25
:10399000F8B51D4B1B685A05064633D51B4B1B68F3
:1039A0000BB101221A701A4B1C780134402C1F46AF
:1039B00028BF0024174D2B78A34218D1FEF7EAFC4C
:1039C00040280FDC144A13791B06F3D52B781349D2
:1039D0000133402B28BF0023C95CDBB2C9B2D171CF
:1039E0002B70E7E7FF28E5DDFFF7DCFEE2E70B4B96
:1039F000F6B21E550A4B01221A70074BE4B2BC22E4
:103A00003C70DA70F8BD00BF348004401495FF1F8D
:103A10001895FF1F1095FF1F00A006408F94FF1FF1
:103A20008D94FF1F274B1B685A052DE9F047074669
:103A30008A4644D5244B1B680BB101221A703D46BF
:103A400007EB0A039D4237D2DFF890801F4E98F8AB
:103A5000004096F800900134402C28BF00245FFA03
:103A600089F9A1451DD11A4BBC22DA70FEF792FCF0
:103A700040280FDC164A13791B060FD533781549F9
:103A80000133402B28BF0023C95CDBB2C9B2D1711E
:103A9000337003E0FF2801DDFFF784FE33784B45E8
:103AA000E4D00C4B15F8012B1A550B4B0122E4B254
:103AB0001A7088F80040C3E7054BBC22DA70BDE8F5
:103AC000F08700BF348004401495FF1F1095FF1F3E
:103AD00000A006408F94FF1F8D94FF1F1895FF1FB5
:103AE00008B5034B1B7813B1FFF75CFEF9E708BD7F
:103AF0008D94FF1F064A074B1B781078DBB2C0B2CB
:103B000083422CBF3F3000F1FF30C01A704700BF26
:103B10001095FF1F1895FF1F054B1878054B1B7854
:103B2000C0B2DBB2984238BF4030C01A704700BF05
:103B30000F95FF1F8E94FF1F094B0A4A19781378BF
:103B4000DBB2994208D00133402B28BF002306493D
:103B5000C85CDBB2137070474FF0FF30704700BF96
:103B60000F95FF1F8E94FF1FCF94FF1F084B1A78ED
:103B7000084B1B78DBB29A4207D00133402B28BF99
:103B80000023054AD05CC0B270474FF0FF30704749
:103B90000F95FF1F8E94FF1FCF94FF1F0A4B1B68CA
:103BA0005B050FD5094BDA7802F0CB02DA704022C0
:103BB0005A74DA7842F03402DA70054B1A78054B01
:103BC000D2B21A70704700BF3480044000A0064093
:103BD0008E94FF1F0F95FF1F30B5304B1A7912F0EE
:103BE000300F23D072B69A7D02F0FF0122B9DA7944
:103BF00040225A7462B619E062B6294B29481A78F5
:103C00000478D2B2E4B21846244BDD79531C402B21
:103C100028BF0023A342EDB202D0234AD5541A464E
:103C20004B1E13F0FF01EFD1D2B202701B4BD978BB
:103C3000C9B20C0620D51B7918061DD51B4B1C4A92
:103C40001D781378EDB2DBB21046AB420CD0134AAC
:103C50000133402B1479174C28BF0023E45CE4B2F5
:103C6000D471127D072AF0D9DBB203700B4B1A799D
:103C7000120644BF7C22DA704B060ED5074B1A7928
:103C800012F0400F194608D00B4B00221A700B4B54
:103C90001B6803B11A703C23CB7030BD00A00640F6
:103CA0000F95FF1F8E94FF1FCF94FF1F1895FF1FC6
:103CB0001095FF1F8F94FF1F8D94FF1F1495FF1FFA
:103CC000194B1A6842F400621A60184A00231370F4
:103CD000174A1370174A1370174A1370174A137054
:103CE000174B40F213321A604FF451725A60154B61
:103CF000C0F344321A70C0F347125A7000F01F002C
:103D00000422022198729A70D9745A7588221A7402
:103D10003C22DA700C4B40221A70A3F22B334FF482
:103D200000421A60704700BF348004408395FF1F33
:103D30001A95FF1F8C95FF1F8495FF1F1995FF1F74
:103D40000CB0044000B006402FE400E0134A937822
:103D500000F0030103F0EC030B43410748BF43F0BD
:103D60001003937000F00F03042B0C4903D18B79DF
:103D700043F040038B715379C20603F0EF03074A07
:103D800048BF43F0100353719379810603F0EF03AA
:103D900048BF43F010039371704700BF00B0064066
:103DA00008B50E4B1B681B0500D408BD0C4B1A78D8
:103DB00002F0FF0312B1FFF7F5FCF7E7094A4FF4F1
:103DC00000411160084A0949D37040F203120A60A9
:103DD0004A60074A1370074A137008BD34800440D4
:103DE0001995FF1F84E100E000B006400CB00440CC
:103DF0008395FF1F1A95FF1F38B50446094B1B78A2
:103E000003F0FF05002BF9D120460121FEF706FD46
:103E100020462946FEF7E2FC034B53F83420034BBF
:103E20001A6038BD1995FF1F485500008895FF1F7F
:103E3000F8B51D4B1B681A05064633D51B4B1B688E
:103E40000BB101221A701A4B1C780134282C1F4622
:103E500028BF0024174D2B78A34218D1FEF79AFAF9
:103E600040280FDC144A13791B06F3D52B7813492D
:103E70000133282B28BF0023C95CDBB2C9B2D17142
:103E80002B70E7E7FF28E5DDFFF78CFCE2E70B4B43
:103E9000F6B21E550A4B01221A70074BE4B2BC223F
:103EA0003C70DA70F8BD00BF348004408895FF1F75
:103EB0008C95FF1F8495FF1F00B006401B95FF1FC8
:103EC0001995FF1F274B1B681A052DE9F047074678
:103ED0008A4644D5244B1B680BB101221A703D461B
:103EE00007EB0A039D4237D2DFF890801F4E98F807
:103EF000004096F800900134282C28BF00245FFA77
:103F000089F9A1451DD11A4BBC22DA70FEF742FA9D
:103F100040280FDC164A13791B060FD53378154954
:103F20000133282B28BF0023C95CDBB2C9B2D17191
:103F3000337003E0FF2801DDFFF734FC33784B4595
:103F4000E4D00C4B15F8012B1A550B4B0122E4B2AF
:103F50001A7088F80040C3E7054BBC22DA70BDE850
:103F6000F08700BF348004408895FF1F8495FF1FB1
:103F700000B006401B95FF1F1995FF1F8C95FF1F72
:103F800008B5034B1B7813B1FFF70CFCF9E708BD2C
:103F90001995FF1F064A074B1B781078DBB2C0B299
:103FA00083422CBF273000F1FF30C01A704700BF9A
:103FB0008495FF1F8C95FF1F054B1878054B1B78C8
:103FC000C0B2DBB2984238BF4030C01A704700BF61
:103FD0008395FF1F1A95FF1F094B0A4A197813781A
:103FE000DBB2994208D00133402B28BF0023064999
:103FF000C85CDBB2137070474FF0FF30704700BFF2
:104000008395FF1F1A95FF1F4395FF1F084B1A78D2
:10401000084B1B78DBB29A4207D00133402B28BFF4
:104020000023054AD05CC0B270474FF0FF307047A4
:104030008395FF1F1A95FF1F4395FF1F0A4B1B68AF
:104040001B050FD5094BDA7802F0CB02DA7040225B
:104050005A74DA7842F03402DA70054B1A78054B5C
:10406000D2B21A70704700BF3480044000B00640DE
:104070001A95FF1F8395FF1F30B5304B1A7912F048
:10408000300F23D072B69A7D02F0FF0122B9DA799F
:1040900040225A7462B619E062B6294B29481A7850
:1040A0000478D2B2E4B21846244BDD79531C402B7D
:1040B00028BF0023A342EDB202D0234AD5541A46AA
:1040C0004B1E13F0FF01EFD1D2B202701B4BD97817
:1040D000C9B20C0620D51B7918061DD51B4B1C4AEE
:1040E0001D781378EDB2DBB21046AB420CD0134A08
:1040F0000133282B1479174C28BF0023E45CE4B269
:10410000D471127D072AF0D9DBB203700B4B1A79F8
:10411000120644BF7C22DA704B060ED5074B1A7983
:1041200012F0400F194608D00B4B00221A700B4BAF
:104130001B6803B11A703C23CB7030BD00B0064041
:104140008395FF1F1A95FF1F4395FF1F8C95FF1F37
:104150008495FF1F1B95FF1F1995FF1F8895FF1F53
:10416000174B1A6842F480521A60164A00231370E3
:10417000154A1370154A1370154A1370154A1370B7
:10418000154A40F2133111604FF451715160134AD6
:10419000C0F344311170C0F3471100F01F0051709B
:1041A0009072937013742C23D3700D4B40226FF4D4
:1041B0004B711A700B444FF400321A60704700BF05
:1041C00034800440F795FF1F8E95FF1F0096FF1F58
:1041D000F895FF1F8D95FF1F08C0044000C00640E2
:1041E00031E400E0134A937800F0030103F0EC039C
:1041F0000B43410748BF43F01003937000F00F03D7
:10420000042B0C4903D18B7943F040038B71537914
:10421000C20603F0EF03074A48BF43F0100353718F
:104220009379810603F0EF0348BF43F010039371C5
:10423000704700BF00C0064008B50E4B1B68DB048A
:1042400000D408BD0C4B1A7802F0FF0312B1FFF73F
:10425000A9FAF7E7094A4FF400311160084A094901
:10426000D37040F203120A604A60074A1370074A8B
:10427000137008BD348004408D95FF1F84E100E079
:1042800000C0064008C00440F795FF1F8E95FF1F31
:1042900038B50446094B1B7803F0FF05002BF9D114
:1042A00020460121FEF7BAFA20462946FEF796FA83
:1042B000034B53F83420034B1A6038BD8D95FF1F14
:1042C00048550000FC95FF1FF8B51D4B1B68DA042C
:1042D000064633D51B4B1B680BB101221A701A4BD3
:1042E0001C780134282C1F4628BF0024174D2B783A
:1042F000A34218D1FEF74EF840280FDC144A137978
:104300001B06F3D52B7813490133282B28BF002334
:10431000C95CDBB2C9B2D1712B70E7E7FF28E5DDDC
:10432000FFF740FAE2E70B4BF6B21E550A4B0122AB
:104330001A70074BE4B2AC223C70DA70F8BD00BFD3
:1043400034800440FC95FF1F0096FF1FF895FF1F67
:1043500000C006408F95FF1F8D95FF1F38B504469E
:104360004518AC4204D014F8010BFFF7ADFFF8E795
:1043700038BDFFFF08B5034B1B7813B1FFF712FAE6
:10438000F9E708BD8D95FF1F064A074B1B7810788B
:10439000DBB2C0B283422CBF273000F1FF30C01A1D
:1043A000704700BFF895FF1F0096FF1F054B187858
:1043B000054B1B78C0B2DBB2984238BF4030C01A00
:1043C000704700BFF795FF1F8E95FF1F094B0A4AE4
:1043D00019781378DBB2994208D00133402B28BFFB
:1043E00000230649C85CDBB2137070474FF0FF3002
:1043F000704700BFF795FF1F8E95FF1FB795FF1FF2
:10440000084B1A78084B1B78DBB29A4207D001336D
:10441000402B28BF0023054AD05CC0B270474FF044
:10442000FF307047F795FF1F8E95FF1FB795FF1F51
:10443000024B1A78024BD2B21A7070478E95FF1F4A
:10444000F795FF1F10B5214B1A7992060FD5204A18
:10445000D87913781F490133402B097828BF0023EE
:104460008B42C0B203D01C49C854DBB21370174A48
:10447000D178C9B20C0616D51379180613D5174B87
:1044800017481C780378DBB29C4202D16C23D370AE
:1044900009E00133282B28BF0023124CE45CDBB277
:1044A000E4B2D47103704B060ED5084B1A7912F0A2
:1044B000400F194608D00C4B00221A700B4B1B689A
:1044C00003B11A702C23CB7010BD00BF00C0064092
:1044D000F795FF1F8E95FF1FB795FF1F0096FF1FD3
:1044E000F895FF1F8F95FF1F8D95FF1FFC95FF1FF0
:1044F0001FB572B6154B70221A70154A4121117002
:104500000F2102F8011C80221A701A781206FCD5BD
:10451000104B186862B6104B984298BF0A2301AC42
:1045200098BF584321460A22FFF75CF90023E15C5B
:104530000A4A29B102EB430001330A2B4180F6D12C
:1045400001335B00137004B010BD00BF00000240D7
:1045500007000240080002407F969800128DFF1F5E
:1045600008B50368C9B21B68984708BD08B5036859
:10457000C9B21B68984708BD08B50368C9B21B6873
:10458000984708BD08B50368C9B21B68984708BDBD
:104590004B0803F1376000F5D830B0FBF1F0FFF7BE
:1045A0003FB910B54B0803F1376000F5D830144619
:1045B000B0FBF1F0FFF734F92046BDE81040FFF7FB
:1045C00075B9FFF79DB90846FFF7C6B9FFF7A4BA5A
:1045D000FFF7CCBAFFF7B0BAFFF782BAFFF7DEBA3F
:1045E000FFF788BA08B50846FFF7D2F9012008BDE1
:1045F00008B50846FFF7CCF9012008BD10B50846FC
:1046000014461146FFF70EFA204610BD38B508468D
:104610000D4600F039FF044621462846FFF702FA0E
:10462000204638BD7047FFFF044B00221A714FF43B
:104630007A711A73024A99601A6070470496FF1FD4
:10464000F056000008B50368C9B21B68984708BD5A
:1046500008B50368C9B21B68984708BD08B5036868
:10466000C9B21B68984708BD08B50368C9B21B6882
:10467000984708BD4B0803F1376000F5D830B0FB10
:10468000F1F0FFF71DBB10B54B0803F1376000F5E3
:10469000D8301446B0FBF1F0FFF712FB2046BDE81E
:1046A0001040FFF753BBFFF77BBB0846FFF7A4BBE7
:1046B000FFF782BCFFF7AABCFFF78EBCFFF760BC18
:1046C000FFF7BCBCFFF766BC08B50846FFF7B0FBB8
:1046D000012008BD08B50846FFF7AAFB012008BD68
:1046E00010B5084614461146FFF7ECFB204610BDF6
:1046F00038B508460D4600F0C7FE04462146284658
:10470000FFF7E0FB204638BD7047FFFF044B002257
:104710001A714FF47A711A73024A99601A607047DD
:104720001496FF1F4057000008B50368C9B21B6804
:10473000984708BD08B50368C9B21B68984708BD0B
:1047400008B50368C9B21B68984708BD08B5036877
:10475000C9B21B68984708BD4B0803F1B76000F564
:104760005840B0FBF1F0FFF7FBBC10B54B0803F16C
:10477000B76000F558401446B0FBF1F0FFF7F0FCCD
:104780002046BDE81040FFF72DBDFFF755BD084698
:10479000FFF77EBDFFF70ABEFFF732BEFFF716BE7A
:1047A000FFF7E8BDFFF744BEFFF7EEBD08B50846CA
:1047B000FFF78AFD012008BD08B50846FFF784FD14
:1047C000012008BD10B5084614461146FFF7C6FD86
:1047D000204610BD38B508460D4600F055FE04468B
:1047E00021462846FFF7BAFD204638BD7047FFFF37
:1047F000044B00221A714FF47A711A73024A9960BD
:104800001A6070472496FF1F90570000FEF76EBE97
:10481000FEF722BEFEF74ABEFEF70CBF0846FEF7C3
:10482000FDBE08461146FEF787BE7047044B0022C6
:104830001A714FF47A711A73024A99601A607047BC
:104840003496FF1FE05700002DE9F84FC1F30A57D7
:10485000A7F2FF36132E02460B4604460D46894644
:104860008A4680461CDC002E40DB3D4F374107EA7C
:10487000010C5CEA000C18D037A3D3E9002300F048
:1048800079F80022002300F0A5FA28B1002D42DBC0
:104890002AEA07094FF0000840464946BDE8F88F6C
:1048A000332E06DDB6F5806F31D010461946BDE8CF
:1048B000F88FA7F2134C4FF0FF3B2BFA0CFB1BEACF
:1048C000000FF2D024A3D3E9002300F053F8002214
:1048D000002300F07FFA0028DED0002D22DB28EA3A
:1048E0000B08D14640464946BDE8F88F1AA3D3E9E4
:1048F000002300F03FF80022002300F06BFA0028AC
:10490000CAD0002D1CDB4FF00008C146C4E700F000
:1049100031F8BDE8F88F4FF4801A4AFA06F606EB34
:10492000050AB5E7142E14D0C7F5866701230337AF
:1049300003FA07F717EB040828BF05EB030ACEE7D5
:1049400025F00042074B224318BF99464FF000085C
:10495000A2E705F1010AC2E79C7500883CE4377EB6
:10496000FFFF0F000000F0BF81F0004102E000BF38
:1049700083F0004330B54FEA41044FEA430594EA1F
:10498000050F08BF90EA020F1FBF54EA000C55EA5A
:10499000020C7FEA645C7FEA655C00F0E2804FEA2B
:1049A0005454D4EB5555B8BF6D420CDD2C4480EA0D
:1049B000020281EA030382EA000083EA010180EA3D
:1049C000020281EA0303362D88BF30BD11F0004F8B
:1049D0004FEA01314FF4801C4CEA113102D04042C1
:1049E00061EB410113F0004F4FEA03334CEA1333FC
:1049F00002D0524263EB430394EA050F00F0A78014
:104A0000A4F10104D5F1200E0DDB02FA0EFC22FA0E
:104A100005F2801841F1000103FA0EF2801843FA02
:104A200005F359410EE0A5F120050EF1200E012AF3
:104A300003FA0EFC28BF4CF0020C43FA05F3C01831
:104A400051EBE37101F0004507D54FF0000EDCF1AA
:104A5000000C7EEB00006EEB0101B1F5801F1BD353
:104A6000B1F5001F0CD349085FEA30004FEA3C0C57
:104A700004F101044FEA445212F5800F80F09A804D
:104A8000BCF1004F08BF5FEA500C50F1000041EB51
:104A9000045141EA050130BD5FEA4C0C404141EB55
:104AA000010111F4801FA4F10104E9D191F0000F7C
:104AB00004BF01460020B1FA81F308BF2033A3F1FF
:104AC0000B03B3F120020CDA0C3208DD02F1140CF6
:104AD000C2F10C0201FA0CF021FA02F10CE002F131
:104AE0001402D8BFC2F1200C01FA02F120FA0CFC2A
:104AF000DCBF41EA0C019040E41AA2BF01EB045173
:104B0000294330BD6FEA04041F3C1CDA0C340EDC70
:104B100004F11404C4F1200220FA04F001FA02F3B3
:104B200040EA030021FA04F345EA030130BDC4F171
:104B30000C04C4F1200220FA02F001FA04F340EA66
:104B40000300294630BD21FA04F0294630BD94F017
:104B5000000F83F4801306BF81F480110134013DFE
:104B60004EE77FEA645C18BF7FEA655C29D094EA6F
:104B7000050F08BF90EA020F05D054EA000C04BFED
:104B80001946104630BD91EA030F1EBF00210020D8
:104B900030BD5FEA545C05D14000494128BF41F077
:104BA000004130BD14F580043CBF01F5801130BDDB
:104BB00001F0004545F0FE4141F470014FF0000066
:104BC00030BD7FEA645C1ABF194610467FEA655C17
:104BD0001CBF0B46024650EA013406BF52EA0335B9
:104BE00091EA030F41F4002130BD00BF90F0000FA7
:104BF00004BF0021704730B54FF4806404F13204E3
:104C00004FF000054FF0000150E700BF90F0000F9B
:104C100004BF0021704730B54FF4806404F13204C2
:104C200010F0004548BF40424FF000013EE700BF92
:104C300042004FEAE2014FEA31014FEA02701FBF22
:104C400012F07F4393F07F4F81F06051704792F0F4
:104C5000000F14BF93F07F4F704730B54FF460746E
:104C600001F0004521F0004120E700BF50EA0102B9
:104C700008BF704730B54FF000050AE050EA010266
:104C800008BF704730B511F0004502D5404261EBD6
:104C900041014FF4806404F132045FEA915C3FF417
:104CA000DCAE4FF003025FEADC0C18BF03325FEAB0
:104CB000DC0C18BF033202EBDC02C2F1200300FA65
:104CC00003FC20FA02F001FA03FE40EA0E0021FA8A
:104CD00002F11444C1E600BF4FF0FF3C06E000BF04
:104CE0004FF0010C02E000BF4FF0010C4DF804CD75
:104CF0004FEA410C7FEA6C5C4FEA430C18BF7FEA35
:104D00006C5C1BD001B050EA410C0CBF52EA430C62
:104D100091EA030F02BF90EA020F0020704710F1E2
:104D2000000F91EA030F58BF994208BF90422CBF71
:104D3000D8176FEAE37040F0010070474FEA410C6A
:104D40007FEA6C5C02D150EA013C07D14FEA430C88
:104D50007FEA6C5CD6D152EA033CD3D05DF8040BF9
:104D6000704700BF8446104662468C46194663462B
:104D700000E000BF01B5FFF7B7FF002848BF10F102
:104D8000000F01BD4DF808EDFFF7F4FF0CBF012047
:104D900000205DF808FB00BF4DF808EDFFF7EAFFC3
:104DA00034BF012000205DF808FB00BF4DF808ED7E
:104DB000FFF7E0FF94BF012000205DF808FB00BF73
:104DC0004DF808EDFFF7CEFF94BF012000205DF8FD
:104DD00008FB00BF4DF808EDFFF7C4FF34BF01200A
:104DE00000205DF808FB00BF4A0011D212F5001246
:104DF00011D20DD56FF47873B3EB62520ED44FEA33
:104E0000C12343F0004343EA505323FA02F07047B2
:104E10004FF00000704750EA013002D14FF0FF30F0
:104E200070474FF00000704780F0004002E000BF84
:104E300081F0004142001FBF5FEA410392EA030F85
:104E40007FEA226C7FEA236C6AD04FEA1262D2EBCF
:104E50001363C1BFD218414048404140B8BF5B42D4
:104E6000192B88BF704710F0004F40F4000020F06D
:104E70007F4018BF404211F0004F41F4000121F083
:104E80007F4118BF494292EA030F3FD0A2F10102CD
:104E900041FA03FC10EB0C00C3F1200301FA03F10B
:104EA00000F0004302D5494260EB4000B0F5000F2E
:104EB00013D3B0F1807F06D340084FEA310102F1ED
:104EC0000102FE2A51D2B1F1004F40EBC25008BF9F
:104ED00020F0010040EA03007047490040EB000069
:104EE00010F4000FA2F10102EDD1B0FA80FCACF198
:104EF000080CB2EB0C0200FA0CF0AABF00EBC25097
:104F000052421843BCBFD0401843704792F0000F84
:104F100081F4000106BF80F400000132013BB5E7D7
:104F20004FEA41037FEA226C18BF7FEA236C21D04D
:104F300092EA030F04D092F0000F08BF08467047B2
:104F400090EA010F1CBF0020704712F07F4F04D180
:104F5000400028BF40F00040704712F100723CBF93
:104F600000F50000704700F0004343F0FE4040F4BD
:104F7000000070477FEA226216BF08467FEA23637B
:104F80000146420206BF5FEA412390EA010F40F466
:104F9000800070474FF0000304E000BF10F00043B2
:104FA00048BF40425FEA000C08BF704743F0964399
:104FB00001464FF000001CE050EA010208BF7047B4
:104FC0004FF000030AE000BF50EA010208BF70473B
:104FD00011F0004302D5404261EB41015FEA010C50
:104FE00002BF84460146002043F0B64308BFA3F148
:104FF0008053A3F50003BCFA8CF2083AA3EBC2532A
:1050000010DB01FA02FC634400FA02FCC2F1200248
:10501000BCF1004F20FA02F243EB020008BF20F07F
:105020000100704702F1200201FA02FCC2F12002E5
:1050300050EA4C0021FA02F243EB020008BF20EADA
:10504000DC7070474FF0FF0C1CEAD0521EBF1CEA08
:10505000D15392EA0C0F93EA0C0F6FD01A4480EAF6
:10506000010C400218BF5FEA41211ED04FF00063DF
:1050700043EA501043EA5111A0FB01310CF000400B
:10508000B1F5000F3EBF490041EAD3715B0040EA31
:10509000010062F17F02FD2A1DD8B3F1004F40EB01
:1050A000C25008BF20F00100704790F0000F0CF0D4
:1050B000004C08BF49024CEA502040EA51207F3A98
:1050C000C2BFD2F1FF0340EAC250704740F4000073
:1050D0004FF00003013A5DDC12F1190FDCBF00F064
:1050E00000407047C2F10002410021FA02F1C2F112
:1050F000200200FA02FC5FEA310040F1000053EAAE
:105100004C0308BF20EADC70704792F0000F00F0FB
:10511000004C02BF400010F4000F013AF9D040EA01
:105120000C0093F0000F01F0004C02BF490011F495
:10513000000F013BF9D041EA0C018FE70CEAD15393
:1051400092EA0C0F18BF93EA0C0F0AD030F0004C13
:1051500018BF31F0004CD8D180EA010000F00040C7
:10516000704790F0000F17BF90F0004F084691F085
:10517000000F91F0004F14D092EA0C0F01D14202BF
:105180000FD193EA0C0F03D14B0218BF084608D188
:1051900080EA010000F0004040F0FE4040F40000D2
:1051A000704740F0FE4040F4400070474FF0FF0C65
:1051B0001CEAD0521EBF1CEAD15392EA0C0F93EAAC
:1051C0000C0F69D0A2EB030280EA010C49024FEAFE
:1051D000402037D04FF0805343EA111143EA1013B7
:1051E0000CF000408B4238BF5B0042F17D024FF46F
:1051F000000C8B4224BF5B1A40EA0C00B3EB510F4A
:1052000024BFA3EB510340EA5C00B3EB910F24BF32
:10521000A3EB910340EA9C00B3EBD10F24BFA3EBB7
:10522000D10340EADC001B0118BF5FEA1C1CE0D17F
:10523000FD2A3FF650AF8B4240EBC25008BF20F032
:10524000010070470CF0004C4CEA50207F32C2BF86
:10525000D2F1FF0340EAC250704740F400004FF023
:105260000003013A37E792F0000F00F0004C02BF54
:10527000400010F4000F013AF9D040EA0C0093F01E
:10528000000F01F0004C02BF490011F4000F013B78
:10529000F9D041EA0C0195E70CEAD15392EA0C0FE0
:1052A00008D142027FF47DAF93EA0C0F7FF470AF18
:1052B000084676E793EA0C0F04D14B023FF44CAF5B
:1052C00008466EE730F0004C18BF31F0004CCAD1F0
:1052D00030F000427FF45CAF31F000437FF43CAF2C
:1052E0005FE700BF4FF0FF3C06E000BF4FF0010C4E
:1052F00002E000BF4FF0010C4DF804CD4FEA400230
:105300004FEA41037FEA226C18BF7FEA236C11D079
:1053100001B052EA530C18BF90EA010F58BFB2EB2C
:10532000030088BFC81738BF6FEAE17018BF40F0AC
:10533000010070477FEA226C02D15FEA402C05D160
:105340007FEA236CE4D15FEA412CE1D05DF8040BE5
:10535000704700BF844608466146FFE70FB5FFF778
:10536000C9FF002848BF10F1000F0FBD4DF808ED30
:10537000FFF7F4FF0CBF012000205DF808FB00BF21
:105380004DF808EDFFF7EAFF34BF012000205DF87B
:1053900008FB00BF4DF808EDFFF7E0FF94BF0120C8
:1053A00000205DF808FB00BF4DF808EDFFF7D2FFC5
:1053B00094BF012000205DF808FB00BF4DF808ED08
:1053C000FFF7C8FF34BF012000205DF808FB00BFD5
:1053D00042000ED2B2F1FE4F0BD34FF09E03B3EB5F
:1053E000126209D44FEA002343F0004323FA02F08B
:1053F00070474FF00000704712F1610F01D1420277
:1054000002D14FF0FF3070474FF00000704700BFEF
:1054100003460846194600F001B8FFFF70B5064C78
:1054200006460D4613462CB131462A460220AFF3FC
:10543000008070BD204670BD0000000070B50E4BAE
:105440000E4DED1AAD1000241E46AC4204D056F8A5
:10545000242090470134F8E700F0CEF9084D094BBD
:10546000ED1AAD1000241E46AC4204D056F824209C
:1054700090470134F8E770BD04580000045800005C
:105480001C58000004580000034613F8012B002AA2
:10549000FBD1181A01387047780578051464881311
:1054A0006400FFFFFFFFFFFF00000000000000009E
:1054B0006504000049080000000000000000000032
:1054C000690F0000910F0000590F0000AD1300009C
:1054D000CF130000670F0000000000000000000074
:1054E00093230000932300000304060514151920DC
:1054F0002325241A1B1C161710110E0F0203040576
:1055000006070C0D08090A0B021821040607020100
:10551000000002091525384E667F97AFC5D8E8F41C
:10552000FBFEFBF4E8D8C5AF977F664E382515091A
:1055300002050E08090D0C06070F04001303931A49
:105540009217C585848687C44008FE4340A0044066
:105550004408FE4344A004400018FE4300C0044039
:105560003000FE43309004403400FE433490044049
:105570001C18FE431CC004401018FE4310C0044019
:105580000818FE4308C004400C18FE430CC0044039
:105590000C10FE430CB004401010FE4310B0044049
:1055A0001810FE4318B004401C10FE431CB0044009
:1055B0001410FE4314B004400418FE4304C0044019
:1055C0000010FE4300B004400008FE4300A0044069
:1055D0000408FE4304A004400C08FE430CA0044051
:1055E0000808FE4308A004401418FE4314C00440F9
:1055F0001818FE4318C004400410FE4304B00440D1
:105600000810FE4308B004401400FE431490044008
:105610004C08FE434CA004400420FE4304D0044048
:105620002410FE4324B004402010FE4320B0044068
:105630002810FE4328B004402C10FE432CB0044038
:105640000020FE4300D004404808FE4348A0044028
:105650001000FE4310900440151915190000FFFFBB
:1056600000010000388CFF1F120000000002000043
:10567000628CFF1F4900000000220100AB8CFF1F5D
:105680002100000000210100948CFF1F0900000090
:1056900000220000CC8CFF1F1C0000000021000035
:1056A000748CFF1F09000000000300000E8DFF1F17
:1056B00000000000010309044A8CFF1F00000000E5
:1056C00002030904E88CFF1F000000000303090423
:1056D000128DFF1F0000000000000000000000000D
:1056E00000000000FFFFFFFF0000000000000000BE
:1056F000E5450000FD450000CD450000D545000012
:10570000D1450000D945000091450000A3450000A7
:10571000C3450000C7450000DD450000E14500002D
:10572000614500006D450000794500008545000099
:105730000D460000F14500000000000000000000E0
:10574000C9460000E1460000B1460000B94600002D
:10575000B5460000BD4600007546000087460000C3
:10576000A7460000AB460000C1460000C546000049
:1057700045460000514600005D46000069460000B5
:10578000F1460000D54600000000000000000000C7
:10579000AD470000C5470000954700009D47000049
:1057A00099470000A1470000594700006B470000DF
:1057B0008B4700008F470000A5470000A947000065
:1057C0002947000035470000414700004D470000D1
:1057D000D5470000B94700000000000000000000AD
:1057E0001D480000234800000D480000114800003B
:1057F0001548000019480000F8B500BFF8BC08BC07
:105800009E46704735040000890E000029460000BE
:0C5810000D470000F14700002D4800008B
:10581C000000000001010101010101010100000073
:10582C0000600640016006400260064003600640CE
:10583C0004600640056006400660064007600640AE
:10584C0008600640096006400A6006400B6006408E
:10585C00000000000000000000000000000000003C
:10586C00000000000000000000000000000000002C
:10587C00000000000000000000000000000000001C
:10588C00000000000000000000000000000000000C
:105A6C000000000000000000000001000000000029
:105A7C00000000000000000000000000000000001A
:105A8C00007006400170064002700640037006402C
:105A9C00047006400570064006700640077006400C
:105AAC0008700640097006400A7006400B700640EC
:105ABC0000000000000000000000000000000000DA
:105ACC0000000000000000000000000000000000CA
:105ADC0000000000000000000000000000000000BA
:105AEC0000000000000000000000000000000000AA
:105CCC0000000000000000000002010000000000C5
:105CDC0000000000000000000000000000000000B8
:105CEC000A040800FFFFFFFF120100020000004041
:105CFC00C01686040001010203011803540065005C
:105D0C0065006E00730079006400750069006E0018
:105D1C006F0009024900020100C0320904000002B0
:105D2C0003000000092111010001221C000705835A
:105D3C0003400001070504034000010904010002AF
:105D4C000300000009211101000122210007058137
:105D5C00034000010705020320000206C9FF0904E5
:105D6C00A15C7508150026FF009540097581029508
:105D7C00200976910295040976B102C006ABFF0AA0
:105D8C000002A1017508150026FF0095400901814C
:105D9C0002954009029102C026035400650065007B
:105DAC006E00730079006400750069006E006F006E
:105DBC0020005200610077004800490044000403B1
:105DCC0009040C03000000000000000000000000AB
:085DDC000000000000000000BF
:00000001FF
