:1000000000800020BD010000E9230000B5230000AE
:10001000B5230000B5230000B5230000B523000080
:10002000B5230000B5230000B5230000E92300003C
:10003000E9230000B5230000E9230000A523000008
:10004000E9230000E9230000E9230000E923000080
:10005000E9230000E9230000E9230000E923000070
:10006000E9230000E9230000E9230000E923000060
:10007000E9230000E9230000E9230000E923000050
:10008000E9230000E9230000E9230000E923000040
:10009000E9230000E9230000E9230000E923000030
:1000A000911100009D110000E9230000E9230000E8
:1000B000E9230000E9230000E9230000E923000010
:1000C000E9230000E9230000E9230000E923000000
:1000D000E9230000E9230000E9230000E9230000F0
:1000E000E9230000E9230000E9230000E9230000E0
:1000F000E9230000393C0000E9230000D94000005A
:10010000E9230000A5440000E9230000E9230000E2
:10011000E9230000E9230000E9230000E9230000AF
:10012000E9230000E9230000E9230000E92300009F
:10013000E9230000E9230000E9230000E92300008F
:10014000E9230000E9230000E9230000E92300007F
:10015000E9230000E9230000E9230000E92300006F
:10016000E92300001D2D0000E9230000E923000021
:10017000E9230000E9230000E9230000E92300004F
:10018000E9230000E9230000E9230000E92300003F
:10019000E9230000E9230000E9230000E92300002F
:1001A000E9230000E9230000E9230000E92300001F
:1001B000E9230000E9230000E9230000564B4CF23C
:1001C000205210B51A804DF628121A8000BF00BFC9
:1001D00002F00EF9514B4FF010621A60504A9A60CB
:1001E000504ADA60A3F53043203B1A6812F480725B
:1001F00004D14D490A604FF4A8521A604B4B1A784B
:10020000110703D51A7842F008021A70484B2A22C7
:100210001A700023474A48499818884204D247492F
:10022000595899500433F5E7454A464B9A424FF0E6
:10023000000302D242F8043BF7E74349434A5958C6
:1002400099500433B3F5DE7FF7D1414B802103F899
:10025000011B40498B42F9D13F4B1A603F4B0A22A8
:100260001A70A3F5805324225A70A0221A709A792A
:100270009207FCD59A79D406FCD4394B9A7902F0CE
:100280000C02082AF9D103221A7140225A719A7974
:100290009006FCD5324B9A795106FBD5314A32494A
:1002A00011600221516020221A702D4B9B7903F0BE
:1002B0000C030C2BF9D12D4B2D4A1A602D4B2E4AD5
:1002C0001A6000225A60072243F8042C2B4AC3F814
:1002D0000C2D62B602F00AFC134B1B68DA0705D539
:1002E000274802F02DFA274B274A1A60274B1B7824
:1002F0005B0609D5234C244A2368934204D1204845
:1003000002F01EFA0023236005F0ACF802F076F844
:1003100003F004FAFEE700BF0E20054030800440E1
:10032000823F04000100002B14D0034002D007409C
:1003300000E007406087FF1F208DFF1F9C580000D2
:10034000208DFF1F9894FF1F000000000082FF1FF8
:1003500000E400E05FE400E008ED00E0005006404B
:100360000040064044800440000003010480044033
:10037000C010050014E000E0FF760100000020201E
:10038000FB7B72561CE00340A5C3945A00F0074063
:10039000FFFFFFFFFFFFFFFFFFFFFFFFFFFFFFFF6D
:1003A000FFFFFFFFFFFFFFFFFFFFFFFFFFFFFFFF5D
:1003B000FFFFFFFFFFFFFFFFFFFFFFFFFFFFFFFF4D
:1003C000FFFFFFFFFFFFFFFFFFFFFFFFFFFFFFFF3D
:1003D000FFFFFFFFFFFFFFFFFFFFFFFFFFFFFFFF2D
:1003E000FFFFFFFFFFFFFFFFFFFFFFFFFFFFFFFF1D
:1003F000FFFFFFFFFFFFFFFFFFFFFFFFFFFFFFFF0D
:10040000FFFFFFFFFFFFFFFFFFFFFFFFFEFFFFFFFD
:1004100010B5054C237833B9044B13B10448AFF33E
:1004200000800123237010BD208DFF1F00000000FD
:100430009C58000008B5064B1BB106480649AFF3AF
:1004400000800648036813B1054B03B1984708BD07
:10045000000000009C580000248DFF1F208DFF1F0E
:1004600000000000022A70B5027003D0531F5D42E5
:100470005D4100E001252C24C4740D245323047530
:100480002D2403744475272308242E264374C47531
:100490000023C47638248374837506764376312628
:1004A0000477437714B2322383774570C160867630
:1004B00001EB84035DB15D6E2D7885705D6E6D78A6
:1004C000C5705D6EAD7805715B6EDB780AE01D6905
:1004D0002D7885701D696D78C5705D6E2D780571FC
:1004E0005B6E5B7801EB84044371636B1B788371F3
:1004F000636B11445B78C37191F87F30037270BDF8
:100500007047032910B513D8447843183CB9012922
:1005100005D898781146BDE8104002F0D1B972B6FE
:10052000C068997800F59270120100F0A3FE62B6DF
:1005300010BD012908B505D80144887901F0A8FE4D
:1005400080B208BD002008BD10B5C368017A04461A
:1005500001F0010193F87C0002F076F9E368217A5A
:1005600093F87D00C1F3400102F06EF9E368217A4F
:1005700093F87E00C1F38001BDE8104002F064B939
:1005800070B504460D461646FFF7DEFF72B6E0680A
:10059000217C883000F050FBE0682946883000F06C
:1005A00044FAE0683146883000F03FFAE068002104
:1005B0004FF47A72883000F023FC62B670BD10B53B
:1005C0000446417C827CFFF7DBFF2046E17C227DF4
:1005D000FFF7D6FF2046E17C227DFFF7D1FFA37D08
:1005E000E27D617D1A432046FFF7CAFF2046217E47
:1005F000627EFFF7C5FF2046A17EE27EFFF7C0FFC7
:100600002046217F627FFFF7BBFF0520BDE8104039
:1006100002F058BA2DE9F84304460E4615469946AD
:1006200004F5A07800F0D6FE314B23602146324617
:1006300004F5B077404600F0B3F804F5C0762146E3
:100640002A46384600F0ACF821464A46304600F0CB
:10065000A7F8C646BEE80F0004F5D0750FC59EE8A2
:100660000F0085E80F000FCF04F5E0750FC597E880
:100670000F0085E80F000FCE04F5F0750FC596E862
:100680000F0004F5007885E80F0004F5087721468F
:100690009DF820204046FFF7E5FE04F51076214640
:1006A0009DF824203846FFF7DDFE21469DF82820DE
:1006B0003046FFF7D7FEC446BCE80F0004F51875B6
:1006C0000FC59CE80F0085E80F000FCF04F52075DB
:1006D0000FC597E80F0085E80F000FCE04F52875C9
:1006E0000FC596E80F0085E80F002046BDE8F883A7
:1006F000C85400001A4B70B50446036000F5187624
:1007000000F53075B54204D0203D2846FFF7F8FECD
:10071000F8E704F51070FFF7F3FE04F5007504F533
:100720000870FFF7EDFE2846FFF7EAFE04F5D076E5
:10073000B54204D0203D284600F080F8F8E704F5E3
:10074000C07000F07BF804F5B07000F077F804F5A5
:10075000A07000F073F8204600F058FF204670BDEE
:10076000C854000010B5044600F096FF04F5187058
:10077000FFF725FF04F52070FFF721FF04F528702F
:10078000FFF71DFF04F5D07000F01CF904F5E070D0
:1007900000F018F904F5F070BDE8104000F012B94F
:1007A000022A70B5027003D0531F5D425D4100E024
:1007B00001252C24C4740D24532304752D240374A3
:1007C0004475272308242E264374C4750023C47659
:1007D000382483748375067643763126047743770D
:1007E00014B2322383774570C160867601EB8403AF
:1007F0005DB15D6E2D7805715D6E6D7845715D6ED4
:10080000AD7885705B6EDB780AE01D692D78057127
:100810001D696D7845715D6E2D7885705B6E5B78B6
:1008200001EB8404C370636B1B788371636B1144A9
:100830005B78C37191F87F30037270BD70470129F6
:1008400008B509D872B6C3680144120103F5927065
:10085000897800F00FFD62B608BD012908B512D8ED
:10086000437801444BB172B6C068097900F59270C3
:10087000120100F0FFFC62B608BD0879BDE808402F
:10088000114602F01DB808BD012908B505D801447C
:10089000887901F0FDFC80B208BD08BD10B5C368C1
:1008A000017A044601F0010193F87C0001F0CCFFCD
:1008B000E368217A93F87D00C1F3400101F0C4FFA1
:1008C000E368217A93F87E00C1F38001BDE810400F
:1008D00001F0BABF2DE9FF4104460E46174698467F
:1008E00072B6FFF7DBFFE068217C883000F0A4F9E6
:1008F000E068A17F883000F098F8E06801214FF4AB
:100900007A72883000F07CFAE368217C4FF47A72C6
:100910000092D3F8980000250622012300F081FA06
:100920000295ADF80C50E368D3F89800D0F8381170
:10093000D0F834319942EAB21DD162B69DF809105F
:100940009DF8083043EA012333809DF80B109DF891
:100950000A3043EA01233B809DF80D109DF80C30CE
:10096000042A43EA012394BF00200120A8F80030A4
:1009700004B0BDE8F081062DDFD000F065FA02ABCF
:1009800058550135CFE770B504460D461646FFF7BA
:1009900085FF72B6E068217C883000F04DF9E06890
:1009A0002946883000F041F8E0683146883000F090
:1009B0003CF8E06800214FF47A72883000F020FAA9
:1009C00062B670BD10B50446417C827CFFF7DBFF48
:1009D0002046E17C227DFFF7D6FF2046E17C227D88
:1009E000FFF7D1FFA37DE27D617D1A432046FFF72B
:1009F000CAFF2046217E627EFFF7C5FF2046A17E0A
:100A0000E27EFFF7C0FF2046217F627FFFF7BBFF3A
:100A10000520BDE8104002F055B80369D3F838014D
:100A2000D3F83431C01A704770470369D3F84422B1
:100A3000B2F5817F09D8D3F84422501CC3F8440290
:100A40001344012083F83C117047012303710020F7
:100A5000704730B50469D4F84432B3F5817F1DD8AE
:100A6000D4F84432D4F84452C3F5817301332C4492
:100A70009A4204F59E7402D9012202711A4600239B
:100A8000934203D0CD5CE5540133F9E70269D2F813
:100A900044121944C2F84412184630BD01230371B0
:100AA000002030BD10B500224FF47A7402718460CA
:100AB0000273054C0275054A04604FF418744173C3
:100AC00004FB0121016110BDD85400006487FF1FA1
:100AD000014B0360704700BFD8540000F0B59DF88B
:100AE00014409DF818509DF8206029B94C4FD7F854
:100AF00000C04CF0400C06E0012906D1484FD7F861
:100B000000C04CF0800CC7F800C0002780F84B7282
:100B100080F84822476932B920233B7003681A7075
:100B2000C3691A7015E0002C0CBF202228223A70ED
:100B3000076801D0A34201D25A0000E06200D2B29D
:100B40003A70C26924B1A34234BF64005C00E4B2CD
:100B500014709DF81C3040F20362002B40F2646474
:100B600040F2032308BF4FF4197308BF224671B93E
:100B7000012D05D12B4A80F849521360536018E0CB
:100B8000294A80F84912136042F8043C11E0012917
:100B90000FD1032D06D1254B80F849521A6043F836
:100BA000042C06E0022280F84922214A1360043214
:100BB000136043680A2E1BD8DFE806F01A06080AFD
:100BC0000C0E1012141618001F2212E01D2210E045
:100BD00085220EE014220CE045220AE00D2208E0F6
:100BE0000B2206E0092204E0022202E0002200E0DB
:100BF00027221A70836904221A7090F848228368A9
:100C00000AB9802200E0C0221A7011B94FF0807238
:100C100003E0012903D14FF00072064B1A60F0BDCA
:100C20003480044000A004400CA0044004D00440E0
:100C300028B0044000E100E00369490083F83C115A
:100C400003690122C3F844220022027183F84B2277
:100C500070472DE9F041D0F8445204460F4616463D
:100C6000002D36D0C36812221A7083681A7802F0F9
:100C7000200202F0FF051AB1B4221A70002513E019
:100C800001F002FF8046E3681B789B0606D5F6B1AB
:100C900001F0FAFEC8EB0000B04218D3002384F83C
:100CA0004832A368B0221A70012384F84B32002323
:100CB000C4F84032A36884F84A72F0221A70D4F85B
:100CC00040222369144494F83C211A7001E0012564
:100CD000D9E72846BDE8F0812DE9F041069D04469C
:100CE0000E461F46002A34D0C0F85022C3680022A6
:100CF000C0F83421C0F8382112221A7082681378A3
:100D0000990601D5B42313E001F0BEFE8046E368E6
:100D10001B789B0607D5002DF9D001F0B5FEC8EB76
:100D20000000A842F3D30023A26884F84832B0231D
:100D30001370022384F84B32A36884F84A72F022BD
:100D40001A70760046F001062369F6B21E70BDE8FF
:100D5000F081BDE8F081036993F84B32043B032B2B
:100D600007D8DFE803F004020B04022070470420D8
:100D700070470079003018BF01207047032070478A
:100D800090F84B326BB190F84B32052B09D090F8AC
:100D90004B32062B05D090F84B02C31F58425841E6
:100DA00070470120704770B504460D4601F06CFE97
:100DB00006462046FFF7E4FF30B9002DF9D001F0D8
:100DC00063FE801BA842F4D394F84B32012B13D05E
:100DD00094F84B32022B0FD094F84B32032B0BD0EC
:100DE0004FF4A073013B7FF4FDAF94F84B02D0F1B8
:100DF000010038BF002070BD042384F84B32EFE7B8
:100E000038B50446154600693222FFF722FF29460D
:100E100020752069FFF7C7FF2046BDE83840FFF77F
:100E20009ABF37B504460AB900200BE03225009579
:100E3000FFF752FF20460699FFF7B5FF0028F3D0D1
:100E4000D4F8380103B030BDD0F83421D0F83831AF
:100E50009A4208D2D0F834315A1CC0F834211844D0
:100E600090F8300070474FF0FF3070470069FFF78F
:100E7000EBBFD0F83421D0F838319A423DBFD0F8DA
:100E80003431C01890F830004FF0FF3070470069DF
:100E9000FFF7EFBF38B5C16883680D781A78D2B212
:100EA00004469006EDB26ED5D00648D594F84B2294
:100EB000012A1BD115F00105D4F8402205D02AB330
:100EC000062284F84B228022D8E00132C4F8402266
:100ED000D4F844128A4202D384F84B5229E0D4F861
:100EE00040222369224492F83C21C7E094F84B2227
:100EF000022A1AD1E90607D5072284F84B2280225C
:100F00001A70E3681222EDE0EA0701D50522D8E75E
:100F1000032284F84B22D4F85022012A0CBFE82285
:100F2000E0221A7023691B78DAE094F84B22042A35
:100F3000C9D194F84A22012AC5D0B0229EE0D4F843
:100F40003811D4F850220231914200F0CD8094F84B
:100F50004B22042A04D194F85522002A00F0C480C0
:100F6000D4F83821D4F8503201329A4280F0BF8050
:100F700094F84B32042B40F0E48094F85532002B67
:100F800040F0B580DDE015F0100F05F0400304D00F
:100F900010200870002B00F0A38003F0FF01002B4D
:100FA00052D094F84B32092B04D1D4F85832002B8C
:100FB00040F0E28005F0040505F0FF03EDB10823E1
:100FC00084F84B320023C4F84432D4F85C3203B1C5
:100FD0009847D4F844320BB984F83C31A368D02246
:100FE0001A7023691A78520884F84C2294F83C212C
:100FF0001A700123C4F8403272E094F8492284F850
:1010000054320AB9122002E0012A02D111205E49AD
:1010100003E0022A03D15D491E20032203E0032AD4
:1010200003D15A491F2001F02DFB092384F84B32CC
:101030000023C4F83831A368C0221A7023691B78D2
:101040005B0884F84C324BE002F0100202F0FF0320
:10105000F2B115F0010513D1D4F84022D4F844328E
:101060009A4207D2D4F840325A1C2344C4F8402292
:1010700093F83C5123691D70A368D0221A702FE0A9
:10108000A368C0221A7023691B7884F84B1227E0EA
:1010900094F8492284F854320AB9122002E0012A55
:1010A00002D11120384903E0022A03D137491E201A
:1010B000032203E0032A03D134491F2001F0E2FA9E
:1010C00023691A78D4F83831B3F5817FD2B207D8C2
:1010D000D4F83831591C2344C4F8381183F830202F
:1010E000E36802221A7038BDE8221A7038E794F8D3
:1010F0004B220023042A84F8553201D084F84B3265
:10110000A368B0221A7023691A78D4F83831B3F57D
:10111000817FD2B207D8D4F83831591C2344C4F89F
:10112000381183F8302094F84A32012B06D120235D
:10113000013B7FF4FDAFA36880221A7094F84B3214
:101140000EE023691A78D4F83831B3F5817F07D8D7
:10115000D4F83831591C2344C4F8381183F83020AE
:1011600094F84B32042BBBD194F85532002BB7D1F5
:10117000012384F85532B3E70022C4F83421D4F8AF
:101180003801984716E700BF3D12000049120000E1
:1011900001480021FFF77EBE6487FF1F014801213F
:1011A000FFF778BEC489FF1F10B5C3681B7803F032
:1011B0002003044603F0FF02EBB990F8493280F8AF
:1011C0004B220BB912200AE0012B01D1112006E0BD
:1011D000022B01D11E2002E0032B02D11F2001F0BF
:1011E00097FAD4F858323BB30022C4F83421D4F82B
:1011F0003801984710BD90F854320133DBB2012B0F
:1012000080F8543204D890F84832012B00D110BD38
:1012100094F849320BB912200AE0012B08BF1120C3
:1012200006D0022B08BF1E2002D0032B04D11F20A2
:10123000BDE8104001F06CBA10BDFFFF014800216D
:10124000FFF7B2BF6487FF1F01480121FFF7ACBF62
:10125000C489FF1F08B50368C9B21B68984708BD59
:1012600038B504460D4604300121FFF71BFC2570FC
:10127000204638BD034670B5041D0E462046197839
:101280001546FFF7D9FCB11C20468900FFF7E2FFA5
:1012900029462046FFF7DEFF290A2046FFF7DAFF3E
:1012A000204601216422BDE87040FFF7A9BD73B557
:1012B0000446051D0E4628462178FFF7BDFC314641
:1012C0002846FFF7B2FB284601216422FFF798FD6C
:1012D000012264232178009360691346FFF7A1FD82
:1012E0006069FFF7B1FDC0B202B070BD70B50346D2
:1012F000041D0D46204619781646FFF79DFC294629
:101300002046FFF792FB31462046FFF78EFB204632
:1013100001216422BDE87040FFF772BD00210A463A
:10132000FFF7E4BF1FB500220223417C02928DE843
:101330000C0003230393044613464069FFF7CEFBDA
:10134000204604B0BDE81040FFF7E8BFF8B50646F8
:1013500008461E4903F08AFE01461D4803F03AFF85
:101360004FF07E5103F078FD4FF07C5103F076FD95
:1013700003F072FC03F07CFA04460D46304600216F
:10138000FFF795FF00F06F02074642F0100230466B
:101390000021FFF7ABFF2946204603F039FDFE216F
:1013A000C2B23046FFF7A2FF3A4630460021FFF7AF
:1013B0009DFF052001F086FB67F05E0230460021AC
:1013C000D2B2BDE8F840FFF791BF00BF6666663F46
:1013D00020BCBE458A4BF0B5036007234371894B9F
:1013E0001A460D2104460171861D32F8020BDF8872
:1013F0001288228104F10A02A261E26104F10E0264
:1014000062621A8922855A8962859A89A285DA8957
:10141000E080E28598881A8A608104F1080504F169
:101420000C00A781266104F1280C04F12A0E04F1B6
:101430002C0704F12E0622865A8A65612062628694
:10144000C4F834C0C4F838E0E7632664A4F85B202D
:101450005A8B84F85210A4F85D20998AA4F855108C
:1014600004F15F02D3F81610A2671A46C4F85710A9
:1014700004F15D0104F13200616732F8201FA064BD
:101480000920927884F84E000A20D3F81CC084F812
:101490004F0084F87E200B2053F8232F84F850004F
:1014A00004F130050C2004F15707012604F1550E14
:1014B0009B88656484F85100002504F15B00C4F842
:1014C0005FC0E76604F1530C4027C4F864C0C4F859
:1014D00068E0C4F87F208DB02067A4F87C1084F801
:1014E0004C50294684F84D6084F8535084F8546079
:1014F00004F18800A4F8833084F8857084F886703D
:10150000FFF7D0FA394684F8205184F8215184F845
:10151000225104F59270FFF7A3FE2079314601F0C5
:10152000B3F96079314601F0AFF900266319012162
:101530001B69985D013601F0A7F9042EF6D1043538
:10154000182DF2D100260025A31900215B6B585DF0
:10155000013501F099F9042DF6D10436182EF2D197
:101560000C2000F041FE202000F068FE082001F071
:10157000F7F80020244901F0FFF80120224901F08A
:10158000FBF80220204901F0F7F8402105A8FFF7F9
:1015900067FE9DF8143084F824319DF81C3084F8DF
:1015A0002C31089BC4F830319DF8243084F8343154
:1015B0009DF8253084F835310A9BC4F838319DF800
:1015C0002C3084F83C3106A8FFF782FA0025631915
:1015D000012193F87C00013501F056F9032DF6D175
:1015E0000022D4F8980094F895100092019202928B
:1015F00003951346FFF772FA20460DB0F0BD00BF09
:10160000F8540000005500000000C84410B5064B17
:101610000360044600F59470FFF75AFA04F188005D
:10162000FFF756FA204610BDF854000038B50D46B5
:1016300072B600F592742046FFF774FE284603F058
:10164000BDFC01462046FFF781FE62B638BD08B5F5
:1016500072B60A21A03001F0FFFE62B608BD38B5AF
:10166000044672B60021E03001F0C8FE62B610F008
:10167000FF0010D094F88630226894F8E010556886
:101680002344204693F8DF2093F8DE30A847204615
:10169000FFF7DDFF012038BD38B54FF47A710546FC
:1016A000FFF7C4FF0B242846FFF7D9FF08B1013C20
:1016B000F9D138BD10B590F8E14080F82041012CF7
:1016C0001FD002D3022C2AD010BD90F8E23090F83F
:1016D000E420003318BF012380F8C03290F8E330D3
:1016E00003EB0223A0F8C23290F8EA3080F8C4324B
:1016F00090F8EB3080F8213190F8FE3080F8D0334C
:1017000010BD90F8E230002B69D02146407901F0FD
:101710009BF821460D20BDE8104001F095B890F8E7
:10172000E23080F8463390F8E33080F8473390F8A1
:10173000E43080F8493390F8E53080F84A3390F887
:10174000EA3080F8863390F8EB3080F8873390F8F1
:10175000EC3080F8893390F8ED3080F88A3390F8D7
:10176000F23080F8C63390F8F33080F8C73390F841
:10177000F43080F8C93390F8F53080F8CA3390F827
:10178000FA3080F8DC3290F8FB3080F8DD3290F8E7
:10179000FC3080F8DE3290F8FD3080F8DF3290F8CF
:1017A000023180F8F43290F8033180F8F53290F885
:1017B000043180F8F63290F8053180F8F73290F86D
:1017C0000A3180F80C3390F80B3180F80D3390F823
:1017D0000C3180F80E3390F80D3180F80F3310BDC6
:1017E00038B5044608460D4603F062FE23680246FB
:1017F0005B6820462946984738BD08B5FFF7F0FFDB
:1018000008BD38B50446FFF7EBFF0546204601F05A
:101810008DFF284438BDFFFF19490346002230B52B
:10182000028042808280C2800281C260027442745F
:101830008274086809689961124958610C4601254B
:1018400054F8040B186220889884D1F8060049895E
:1018500099860321C3F82600DD61DA621A6383F8F2
:10186000362083F8372083F8381083F8392083F83E
:101870003A2083F83B2083F83C50184630BD00BF27
:10188000B491FF1F2A55000030B585B004469DF87D
:10189000205000959DF8245001959DF82850029500
:1018A000FEF7B8FE174B23604FF47A72002384F8DA
:1018B000C032A4F8C22284F8C43204F54A7204F596
:1018C0003873002523F8185C43F8145C43F8105C67
:1018D00003F80C5C43F8085C43F8045C183393424B
:1018E000EFD104F54470FFF797FF04F55470FFF74C
:1018F00093FF04F56470FFF78FFF204684F8D05300
:1019000005B030BD4055000010B5034B03600446E0
:10191000FEF7F0FE204610BD40550000F8B5054624
:1019200000F54574002672B605F5D0773744384681
:101930000021FEF7A9FF24F8040C62B672B601215B
:101940003846FEF7A1FF24F8020C62B672B638469C
:101950002146A21C231DFEF7BDFF62B62036602E75
:1019600004F14004DFD105F51876002472B6002199
:101970003046FEF7DEFD2B19A3F8C80262B6183414
:10198000482C06F12006F1D1F8BD0021FFF7C6BFB3
:1019900010B580F8A01090F885100144044681F835
:1019A0009F200BB9FFF7F1FF94F8211184F8A110E3
:1019B00011B1012949D010BD22462346B2F81003C7
:1019C00083F8A200001283F8A300B2F8120383F890
:1019D000A400001283F8A500B2F8140383F8A6004F
:1019E00040F3072083F8A700B2F8160383F8A80095
:1019F00040F3072083F8A900B2F8180383F8AA007F
:101A000040F3072083F8AB00403192F8210383F8BC
:101A1000AC00C02902F1400203F10E03CED1B4F8AC
:101A2000C83284F8CC301B1284F8CD30B4F8E032E0
:101A300084F8D0301B1284F8D130B4F8F83284F82E
:101A4000D4301B1284F8D53010BD0023013394F834
:101A5000E22084F8A2203D2B04F10104F6D110BD50
:101A600070B50646002506F5D0742C4400210A46C0
:101A70002046FEF7F2FE204601210022FEF7EDFE91
:101A800000210A462046FEF7DAFE203520460121D5
:101A90000022FEF7D4FE602DE5D10025002406F5D6
:101AA0001870E1B2284400220134FEF72AFD042C0C
:101AB000F5D12035602DF1D170BDFFFF2DE9F04F3C
:101AC00000F5D07689B08046894605460024B246A6
:101AD000B5F8123395F82173B3F5966F13D2B5F8B4
:101AE0001033B3F5966F0ED26FB9304639463A4689
:101AF000FEF7A5FE304601213A46FEF7A0FE85F826
:101B0000217303233BE09D49A0002FBB95F8482398
:101B10009B4BDFF874B2012A05D0022A4FF0010274
:101B200005D11A5504E01F550BF8047002E01F554B
:101B30000BF80420012285F82123924A12680A50EA
:101B40003046195D95F84423FEF779FE30461BF8C0
:101B5000041095F8452324E051F82420D9F80030EA
:101B600095F835139B1A95F8342301930198114485
:101B700064235943884205D9002385F8213385F829
:101B8000483310E0019912FB03F399420BD97E4BC5
:101B90003046195D0022FEF752FE794B195D304642
:101BA0000022FEF74CFE0134032C05F1400506F13E
:101BB00020068DD144460025B4F81033B3F5966F56
:101BC00094F8223312D98BB970487149FFF719FE86
:101BD000012384F822336B4B1A681B68C4F828333E
:101BE0000223C4F82423C4F82C3354E0002B52D031
:101BF000D9F80030D4F824239A1A0292029940F2BC
:101C0000DC52914224D9D4F828239B1A0393039AD7
:101C1000D4F82C339A4212D994F8492312B1013ADC
:101C200084F8492394F84A2312B1013A84F84A23EC
:101C30000133C4F82C33534B1B68C4F8283394F891
:101C40004A3343BB94F849332BBB84F8223322E058
:101C5000029AB2F57A7F1ED8D4F828239B1A0493EF
:101C6000049AD4F82C339A4215D994F84923FF2AC0
:101C70001CBF013284F84923013394F84A23C4F885
:101C80002C33404B952A98BF01321B6898BF84F8CB
:101C90004A23C4F828334035C02D04F140048BD1C9
:101CA000454600240AEB040695F8492330460021F6
:101CB000FEF7D3FD203495F84A2330460121FEF784
:101CC000CCFD602C05F14005ECD108F5387408F521
:101CD0004A7534F8183CB3F5966F14F80C3C11D9DA
:101CE00083B92B492948FFF78CFD0123254A04F8C5
:101CF0000C3C116844F8141C126844F8102C44F889
:101D0000083C91E0002B00F08F8054F8142CD9F897
:101D100000309A1A0592059AB2F57A6F3AD954F8BA
:101D2000102C9B1A0693069A54F8083C9A4211D933
:101D3000231F13F8012B12B1013A03F8012CA3421F
:101D4000F7D154F8083C013344F8083C0D4B1B68AC
:101D500044F8103C00230122E118013311F8041C5F
:101D6000002914BF002202F00102042BF4D1002A42
:101D70005AD0002304F80C3C56E000BF3C8DFF1FF6
:101D8000488DFF1FB491FF1F248CFF1FD092FF1FAF
:101D900048550000059940F6B832914244D854F8AD
:101DA000102C9B1A0793079A54F8083C9A423BD987
:101DB000231F13F8012B952A9CBF013203F8012C35
:101DC000A342F6D114F8043C952B9CBF013304F8D0
:101DD000043C059BB3F5FA7F06D914F8033C952B18
:101DE0009CBF013304F8033C059BB3F57A7F06D909
:101DF00014F8023C952B9CBF013304F8023C059A71
:101E000040F2DC539A4206D914F8013C952B9CBF52
:101E1000013304F8013C54F8083C013344F8083C11
:101E20000F4B1B6844F8103C1834AC427FF451AFA0
:101E300008F518760025002408EB05032344E1B2D9
:101E4000304693F8DC220134FEF75BFB042CF3D11F
:101E50001835482D06F12006EDD109B0BDE8F08F08
:101E6000B491FF1FF8B506460446002794F84433A2
:101E700094F846239A4288BF84F8463394F847235F
:101E800094F8453306F5D0759A423D4488BF84F8EE
:101E9000473394F8462328460021FEF7D0FC94F8F7
:101EA000472328460121FEF7CAFC94F84923284617
:101EB0000021FEF7D2FC203794F84A23284601215E
:101EC000FEF7CBFC602F04F14004CFD106F5187764
:101ED0000025002473192344E1B2384693F8DC222C
:101EE0000134FEF70EFB042CF4D11835482D07F110
:101EF0002007EED1F8BDFFFF72B6024B186862B63C
:101F0000704700BFB491FF1F10B5084C2046FEF784
:101F100029FC00230E2084F8C43200F0B9F901F046
:101F20006BFC03490348FFF768FC10BD508DFF1F91
:101F30008C550000D092FF1F37B5FFF7DDFF02ACD4
:101F4000054D44F8040D2846FFF71FFD284621469D
:101F5000FFF7B4FD03B030BD508DFF1F07B5FFF78D
:101F6000CBFF02A941F8040D0248FFF77BFF03B045
:101F70005DF804FB508DFF1F0148FFF771BD00BFE6
:101F8000508DFF1F1FB50A4C0021022205238DE84A
:101F90000E002046012103220423FFF775FC0549AA
:101FA000054A204604B0BDE8104003F045BA00BF22
:101FB000508DFF1F091900006087FF1FF8B51E48EC
:101FC0001D4D1E4CFFF74BFB20B12846FFF772FB5F
:101FD0000023238023881A4F95F8C422164E01331C
:101FE00023803B889BB29A4210D016491648FFF7CF
:101FF00004FC002396F8C41213480A2201F0A6FB41
:10200000114801F093FB96F8C4323B8095F8C43236
:1020100013B1012B04D00BE0BDE8F840FFF78CBFF3
:102020002388B3F5FA6F03D8BDE8F840FFF796BFF1
:10203000BDE8F840FFF7A0BF508DFF1F2491FF1FA0
:102040004C8DFF1F97550000D092FF1FF0B5304B0D
:102050001B681B06FBD42F4B1B6813F08002F6D1C4
:1020600072B62D4B1978002950D02C4908684F685A
:102070008E68CD680C6938441431304409682844AE
:1020800020440844C0F34E00254940F40040086055
:10209000C86A0F6B4E6B8D6BCC6B3844403130444B
:1020A0000968284420440844C0F34E001D4940F408
:1020B0000040086001F10811143151F8140C51F876
:1020C000107C51F80C6C51F8085C51F8044C09680C
:1020D00038443044284420440844C0F34E00124998
:1020E00040F400400860C86A0F6B4E6B8D6BCC6B80
:1020F0003844403130440968284420440844C0F33F
:102100004E000A4940F4004008601A7062B6F0BD03
:1021100024B0034024B00B402791FF1F38B0034088
:102120002CB0034030B003402CB00B4030B00B401B
:1021300010B5204B2048214960221A70E1225A70C4
:102140001F4B204A1C78204B082C01D1012402E0AF
:102150000A2C03D139240460132005E00C2C0CBF99
:1021600035243D2404601220086014601860174B69
:1021700017491B78174A03B101230B601360164BF4
:10218000164A1978164B012901D880210BE0042941
:1021900001D8842107E0082901D8852103E010290E
:1021A00094BF86218721116019600E4B01221A709D
:1021B00010BD00BF0040074008B003400CB0034012
:1021C000278CFF1F08B00B400CB00B402A91FF1F5B
:1021D00020B0034020B00B40288CFF1F24B00340E8
:1021E00024B00B402791FF1F0C2804D9102828BFCA
:1021F0001020102307E00A2804D8092834BF082338
:102200000A2300E00C23094AD9B2081A1070084AC0
:102210001078834208D0074B11701B7813B1064B1E
:1022200000221A60FFF784BF704700BF2691FF1F8E
:10223000278CFF1F2791FF1F24B0034010B5114BBF
:102240001B7804460BB1FFF701FF012C0E4A01D8A1
:10225000002302E0042C02D8042313600EE0082CB3
:1022600003D805231360082308E0102C03D80623A5
:102270001360102302E0072313602023034A137026
:1022800010BD00BF2791FF1F24B00340288CFF1F03
:102290000D2838B50FD9172801D80E380AE0A0F15B
:1022A0001A03052B01D8093804E0A0F12203062BFC
:1022B00047D81838C0B2244B1C5C244B1B780BB198
:1022C000FFF7C4FE210614D472B6214B214D1C60C9
:1022D00001232B7062B672B61D4B1B681A0601D51E
:1022E0001D4B1FE02B78002BEFD062B601F08AFA6D
:1022F000F1E772B6194B1A4D1A6814F0400F14BF6B
:1023000022F0100242F010021A60164B04F03F0255
:102310001A6001232B7062B672B6124B1B681B0643
:1023200008D5114B186800232B7062B60F4B1B7831
:10233000184138BD2B78002BDCD062B601F062FA70
:10234000EAE7002038BD00BFA85500002791FF1F15
:1023500000B003402991FF1F10B003400CB00B40A8
:102360002891FF1F00B00B4010B00B402691FF1FBB
:10237000084B1A6842F480521A60074B1A78074BD0
:102380000AB1802200E0C0221A70054B80F30C00D5
:10239000188070472C8004402A91FF1F21C00C40F8
:1023A00000C00C40024B1A6801321A60704700BF2F
:1023B000B491FF1F08B50B4C2368580301D500F0FA
:1023C000ADFC2368590501D501F036FC23681A05D8
:1023D00001D501F081FE2368DB04ECD502F062F840
:1023E000E9E700BF3480044008B5FFF7E3FFFFFFD3
:1023F000014B10221A807047002005407047FEE70D
:10240000EFF313839BB9EFF3108098B9EFF30583D3
:1024100023B10F2B04D9084A985C01E04FF4807077
:10242000EFF311833BB1834238BF184670474FF03A
:10243000FF30704718467047F0E300E01F4B10B5BF
:102440001C681C60E00304D51D4B1A680AB11B68A8
:102450009847A10304D51A4B5A680AB15B6898479C
:10246000E20704D5164B1A6C0AB11B6C9847A307F8
:1024700004D5134B5A6C0AB15B6C9847200704D5FE
:102480000F4B9A6C0AB19B6C9847610704D50C4BB3
:10249000DA6C0AB1DB6C9847220304D5084B5A6EFC
:1024A0000AB15B6E9847630306D5054BD3F88020CD
:1024B00012B1D3F88030984710BD00BFA0A00440EF
:1024C0002C91FF1F2C4B10B51C681C60200704D5F5
:1024D0002A4B5A6A0AB15B6A9847E10604D5274B32
:1024E0009A6A0AB19B6A9847620604D5234BDA6A56
:1024F0000AB1DB6A9847230604D5204B1A6B0AB150
:102500001B6B9847A00604D51C4B5A6B0AB15B6B3A
:102510009847E10704D5194BDA6B0AB1DB6B984792
:10252000A20704D5154B9A6D0AB19B6D98476307B6
:1025300004D5124BDA6D0AB1DB6D9847A00504D5BE
:102540000E4BDA6E0AB1DB6E9847E10504D50B4BF2
:102550001A6F0AB11B6F9847620504D5074B5A6F73
:102560000AB15B6F9847230504D5044B9A6F0AB1F3
:102570009B6F984710BD00BFA0B004402C91FF1F77
:102580001E4B10B51C681C60E00704D51C4B9A68F4
:102590000AB19B689847210604D5194B5A690AB1BC
:1025A0005B699847E20604D5154B9A690AB19B69A5
:1025B0009847630704D5124BDA690AB1DB6998477B
:1025C000200704D50E4B1A6A0AB11B6A9847A10767
:1025D00004D50B4B9A6B0AB19B6B9847A20604D5A6
:1025E000074B1A6D0AB11B6D9847630604D5044B5F
:1025F0005A6D0AB15B6D984710BD00BFA0C0044082
:102600002C91FF1F114B10B51C681C60E00404D511
:102610000F4BDA680AB1DB689847A10404D50C4B6C
:102620001A690AB11B699847A20604D5084B1A6EAD
:102630000AB11B6E9847E30606D5054BD3F88420F4
:1026400012B1D3F88430984710BD00BFA090044069
:102650002C91FF1F094B10B51C681C60A20704D504
:10266000074B9A6E0AB19B6E9847E30704D5044B5B
:10267000DA6F0AB1DB6F984710BD00BFA0D00440ED
:102680002C91FF1F212830B531D8042A2FD8DFE83C
:1026900002F00709050B03000B2306E00A2304E000
:1026A000082302E00C2300E00923114A114D02EB3C
:1026B000C0025468104AC2F89C51104DC2F8A05193
:1026C0000F4DC2F8A4510F4DC2F8A8510E4DC2F8DB
:1026D000AC5172B622680D4D22F47022226042F095
:1026E000807242EA034345F82010236062B630BD91
:1026F000C0550000052600000082FF1F3D24000099
:10270000C524000081250000552600002C91FF1FE4
:10271000094B03EBC0035A6872B6136823F0877342
:1027200023F4803343F080731360044B002243F89A
:10273000202062B6704700BFC05500002C91FF1FDB
:10274000044B054900221A600A60044A10601022F6
:102750001A60704714D0034004D0034000D00340F7
:1027600018B1102828BF102000E00120014B18707C
:10277000704700BF298CFF1FF8B505460E460024A0
:10278000274F47FA04F002F01DFC4FF05E5102F0B3
:102790006DFC0146304602F01BFE10B90134072CD7
:1027A000EED147FA04F002F00DFC314602F012FDC2
:1027B0004FF07C5102F050FB02F01EFE4FF6FF730B
:1027C000984228BF1846EB1E012B06D8154B164918
:1027D00000221A600A60154A1BE0A5F10903012BCB
:1027E00006D9A5F11403032B02D96B1F012B06D8C0
:1027F0000F4B104900221A600A600F4A09E0202D91
:1028000001D0192D0BD10D4B0D4900221A600A6021
:102810000C4A04F0070444F0080410601C60F8BD82
:10282000006CDC02009003400490034008900340D9
:1028300000800340048003400880034000800B4078
:1028400004800B4008800B40212810B518D80D4A91
:1028500052F8303093F880423CB1012211B183F834
:10286000802010BD83F8002110BD02EBC00043683A
:102870001A6811B142F0030201E022F002021A606C
:1028800010BD00BFC0550000212816D80B4A02EB2E
:10289000C00301295B6852F8302004D182F880120D
:1028A0004FF4A27208E0002082F8800211B94FF4C0
:1028B000807201E040F203121A607047C0550000B8
:1028C000282838B5604A04460B4611D112780B2AE5
:1028D00004D8C2F10C0201FA02F304E00C2A1CBF76
:1028E0000C3A41FA02F31846BDE83840FFF740BD04
:1028F00011780125002B05FA01F2D8BF002102DD75
:10290000934205D32946FFF79FFF2046294697E0CB
:102910000338C2B2012A01D84C4A06E0202C01D06B
:10292000192C01D14A4A00E04A4A126802FB0332DC
:10293000CA401D287BD8DFE800F0575F4E337A7A13
:10294000212A7A7A7A7A7A7A7A7A7A3C450F187AD0
:10295000707A7A7A7A7A7A673F4B1A6003F59733FE
:1029600040F2444203F5FA735FE03C4B1A6003F512
:10297000973340F2444203F5F87356E0384B1A603F
:1029800003F5973340F2444203F5F6734DE0354BBF
:102990001A6003F5973340F2444203F5F47344E0C0
:1029A000314B1A6003F59F3340F2444203F5F07354
:1029B0003BE02E4B1A6003F59F3340F2444203F58F
:1029C000EE7332E02A4B1A6003F59F3340F2444223
:1029D00003F5EC7329E0274B1A6003F59F3340F2AF
:1029E000444203F5EA7320E0234B1A6003F5803379
:1029F0004FF45172203318E0204B1A6003F58033F6
:102A00004FF451721C3310E01D4B1A60A3F5DB2309
:102A10004FF45172A3F5F96307E01A4B1A60A3F55E
:102A2000DB234FF45172A3F2CC731A6038BD7F2BB5
:102A30002046D4BF00210121FFF706FF20460121D7
:102A4000BDE83840FFF720BF298CFF1F08900340E6
:102A500008800B400880034010800340188003402A
:102A600020800340288003403080034038800340AA
:102A7000408003404880034010900340189003407A
:102A800010800B4018800B4072B60B4B0B491A6834
:102A90000B4B1B68096862B6490102D5322A88BF10
:102AA0000133C2F5BB326021FF32B2FBF1F24FF4C9
:102AB0007A7000FB0320704718E000E004ED00E0AE
:102AC000B491FF1F38B50446FFF7DEFF054664B139
:102AD000FFF7DAFF401BB0F57A7F03D3013C04D047
:102AE00005F57A7500F08EFEF2E738BD1F4B4FF406
:102AF000000210B51A604FF080721A604FF0007239
:102B00001A604FF080621A604FF000621A60184B32
:102B1000184A194C00204BF6FF71186059602823A1
:102B20001360936013619361136293621363936301
:102B30000922226004F58054043420606160A3609F
:102B4000236144F8042C04F5FE2420600B48016046
:102B50000B490B608B600B4B1A60FFF7E9FA0420FE
:102B6000FFF7B0FFBDE8104000F0C8BB08E100E08F
:102B7000048003400C8003400080034008800B4029
:102B80000C800B4000800B40F0B50C4B0C4C1A78BD
:102B900042F0020504EBC50682F0010270600948AC
:102BA0001A700678002E0CBF8827C82786F0010609
:102BB00047EA0141067044F83510F0BD3492FF1F1A
:102BC0000080FF1FBC92FF1F431E052B10B510D8BD
:102BD00072B6094A52F8230048B1416842F82310FE
:102BE000064A018832F81340611A22F8131062B6BF
:102BF00010BD002010BD00BF1C92FF1F8C94FF1F52
:102C0000013805280AD872B6054B53F82030002049
:102C100013B101305B68FBE762B670470020704774
:102C20007892FF1F10B572B60123174A1A4412F8A2
:102C3000012C12071CD59900144A52F831402CB9C6
:102C400002EB431308305860114B09E041F00101D9
:102C500052F8314064B902EBC103083058600D4BA3
:102C600042F831300C4B1A78013A1A7062B610BD36
:102C70000133072BD9D162B6074B00221A70BDE889
:102C8000104000F099BB00BFF85600000080FF1F05
:102C900088004000C8004000B292FF1F431E052B71
:102CA00030B532D8194A400140F01000104472B6D5
:102CB000174CE25C032A09D8DFE802F01602180577
:102CC0000830022213E00830042210E01148124AB2
:102CD00050F8234014B940F8231002E052F82300C2
:102CE000416042F823100FE0032200E00522E25485
:102CF00010F0080F01F108030A8843600CBF882315
:102D0000C82343EA0243036062B630BD0080FF1F60
:102D1000D491FF1F7892FF1F9092FF1F2DE9F84F6B
:102D2000A74F3C78E4B214F0040F3D4619D0A54BF0
:102D30001B78A3B1A44A117801F0FF0321B1013B34
:102D4000DBB2137003B900BEA04A117801F0FF0393
:102D500029B1013BDBB213700BB900F0C3FC0423B3
:102D60003B7004F0080303F0FF02002B00F05C82CC
:102D7000974B984C1A78D2B215094FEA920840F056
:102D8000D98154F8382004EBC803C2F38302013A16
:102D90005B680C2A00F2CB81DFE812F08501850127
:102DA000C901C901C901C901C901C901A501C901F7
:102DB000C901C9010D00884D1A685B6887486B60BE
:102DC000874B44F8383001232A60DFF840820370D3
:102DD00092B240F2816000218242C8F80010216165
:102DE000A16117D8B2F5D06F80F01681B2F5817F5E
:102DF00000F0C78006D8802A00F0B280822A00F056
:102E0000B38021E140F202339A4200F0C980B2F56A
:102E1000A06F14E0B2F5106F14D008D8B2F5086FA7
:102E200040F01281674A6F4C1278227014E140F62C
:102E300021139A4200F0348140F621239A4200F097
:102E4000078101E15F4B634EAA781A7006F1C00951
:102E5000336A1B0603D5706A083800F0ADFA0836ED
:102E60004E45F5D10026B146DFF8A4A156F80A0078
:102E700028B1D0F804B000F09FFA5846F8E74AF8B5
:102E80000600594BDFF88CA1F05056F80A0028B123
:102E9000D0F804B000F090FA5846F8E7534B4AF8DF
:102EA0000600F050524B23F81900524B19F803203A
:102EB000023A032A08D8DFE802F0020402040022E2
:102EC00000E0012203F8092009F10109B9F1060F18
:102ED00006F10406C8D1484B00221A7001269A4612
:102EE000464A474B3244334412F8012C9B0012F0FF
:102EF000080F1A704FEA860925D000F03FFA38B162
:102F000004EB4613083058603E4B44F8393006E075
:102F10009AF8003044F8390001338AF8003000F0A4
:102F20002DFA49F0010338B104EBC30208305060B8
:102F30002B4A44F8332006E044F833009AF8003076
:102F400001338AF8003049F00202013649F00309E2
:102F50000023072E44F8323044F83930C0D178E0ED
:102F6000204C2170617076E0AA88062A6CD81D4C2E
:102F7000217061709100244A525C96076BD52370D2
:102F800069E0AA8802F07F03062B5DDC6B88002BCA
:102F90005AD191001C4A0A44117821F002010DE037
:102FA000AA8802F07F03062B4EDC6B88002B4BD1E6
:102FB0009100154A0A44117841F00201117048E06D
:102FC00080200740BB92FF1F3592FF1FCC92FF1F4E
:102FD000902007400080FF1FA892FF1FBC92FF1F98
:102FE000C8004000B392FF1FBC91FF1F9092FF1FCB
:102FF0008C94FF1FD491FF1FB292FF1FF856000060
:1030000030C8011088004000C0200740B891FF1F61
:103010001C92FF1F7892FF1F6A88A9889E4B53F865
:10302000084CA3F10C007CB133F80C6C964209D12A
:1030300033F80A6C8E4205D1120A032A0CBF23789A
:10304000038909E00C33EAE7944B0F221A7027E05A
:1030500000231C4600E00223EE88B34238BF1E4620
:10306000402E34BF3546402520462946FFF78CFDCB
:10307000761B2C4403D1402D12D1354603E0402E5F
:1030800034BF3546402520462946FFF77DFD761B97
:103090002C4401D1402D03D1814AC8F8004016804C
:1030A0000122804B42E0804A80481168814216D15B
:1030B00051687F4A914212D11A78A92A0FD15A78C1
:1030C000452A0CD19A78C22A09D1DB786B2B06D11C
:1030D000784B0020052201461A70FFF755FD764B0C
:1030E00044F8383023E0754E3568B5B1DFF8B0816B
:1030F000B8F80090B9F1400F34BF4C464024284640
:103100002146FFF741FDC4EB09039BB2A8F800304C
:103110000BB9402C00D12B193360634B1A88B2F5E0
:10312000A06F04D100225A709A78654B1A70012260
:103130005C4B6CE004EBC806013D736802F00802CA
:10314000A3F10800EDB202F0FF01002A36D000F032
:1031500033F95C485C4B50F82520EAB1516840F8DF
:10316000251002F108017160595D03290BD8DFE8D1
:1031700001F002040608032104E0022102E0052117
:1031800000E00421595516F0080F12880CBF88235F
:10319000C82343EA024342E05A5D032A07D8DFE826
:1031A00002F040400204002206E0012204E016F092
:1031B000080F0CBF022203225A5532E054F838207F
:1031C000120C23F8082C22B3DFF82CE123F8061C9C
:1031D00043F8041C5EF825303C4913B94EF825002D
:1031E00002E051F825305860394B41F8250033F89A
:1031F00015100A4423F8152000F0C0F810B108306B
:10320000706006E0334B44F838001A7801321A70C7
:1032100007E0294B304A16F0080F08BF134644F860
:10322000383008233B707BE5E0071FD51D492A484D
:103230002A4C02230B702A4B1A702A4B1860986094
:103240002948D8601A619A615C60144B0D2018708F
:103250002648FF2303702B700274254A1370254BF8
:103260009F221A7001230B70BDE8F88F210604D548
:103270000A4B0D221A7080232B70A20705D51B4B19
:103280001A78D2B21A7002232B70E30644BF1023BF
:103290002B70BDE8F88F00BF0C570000C02007401E
:1032A000B092FF1F94200740A892FF1F210900033E
:1032B000010004003592FF1FC8004000B891FF1FB5
:1032C000982007407892FF1FD491FF1FBC91FF1FE9
:1032D0008C94FF1FB292FF1F88004000DC91FF1FFB
:1032E0003492FF1F0080FF1F3892FF1F8820074085
:1032F0008C200740842007401C92FF1F08B501F076
:1033000027F900221A4B0021D15098180832C82AF8
:103310004160F7D1174A106840F48020106002F530
:1033200028326832C3F307201070C3F307401B0E26
:1033300010751376FF2302F81C3C02F8143C02F8C7
:103340008C3C012302F8083C82F8641002F8183C17
:10335000094B70226FF450711A700B444FF40072D5
:103360001A6003F1C04303F5C82310221A7008BD88
:103370000080FF1F3480044049E400E072B60C4A2C
:103380001168B1FA81F30B2B02D962B600207047A5
:103390004FF00040D84021EA0001116062B60549B3
:1033A00048225343C8180022CA504260704700BFE9
:1033B0002C8CFF1F0084FF1F0C4B4822C31AB3FB49
:1033C000F2F30B2B11D80A4A127822B1094A12786B
:1033D0000AB1FFF727BC72B6074A4FF0004121FA45
:1033E00003F311681943116062B670470084FF1F30
:1033F000B292FF1FBB92FF1F2C8CFF1FF8B5144B1E
:103400001E6805460C461F46124B1B78D3B104209C
:10341000FFF7DAFB38B93B689B1BA34216D8A4B16F
:1034200000F0F0F9F0E700F108032A4600F1480146
:1034300053F8044B42F8044B8B42F9D1FFF7BCFF21
:103440004020F8BD4FF0FF30F8BD2046F8BD00BF6A
:10345000B491FF1FBB92FF1FF8B5184B1D680446BF
:103460000E461F46164B1B781BB30320FFF7C8FB05
:10347000032806D93B685B1BB3421DD800F0C2F994
:10348000F0E7FFF77BFF03460028F3D0204603F167
:10349000080204F1400150F8044B42F8044B884202
:1034A000F9D140241C8003201946FFF7F7FB204682
:1034B000F8BD4FF0FF30F8BD0020F8BDB491FF1FFC
:1034C000BB92FF1F38B5124B1B78EBB1114C236830
:1034D0001BB90220FFF778FB206020680D4D98B1E2
:1034E0004388C218147A5CB102880133934204D332
:1034F000FFF762FF00232B6000E04380204638BDC9
:10350000FFF75AFF2C60DEE74FF0FF3038BD00BFF9
:10351000BB92FF1FC892FF1F10B50D4B1B788BB1DC
:103520000C4C23681BB90220FFF74EFB206020687B
:1035300040B1438803441C7A3CB9FFF73DFF054B7B
:103540001C60EAE74FF0FF3010BD204610BD00BF01
:10355000BB92FF1FC892FF1F38B5104D2B6823B1D7
:1035600028680024028843880FE00D4B1B781BB1AC
:103570000220FFF729FB28602C68002CF0D10BE01B
:10358000C1182144097A19B10134E1189142F7DBDD
:1035900014B9FFF711FF2C60204638BDC892FF1FF9
:1035A000BB92FF1F2DE9F843324D012307460C461D
:1035B0002B70002C5AD0304E3368B1465BBB44F2BE
:1035C000D9582E4B1B7803F0FF020BB92A7018E074
:1035D0000120FFF715FB052804D9B8F10108284A96
:1035E00009D10AE001232B70FFF7C8FEC9F80000DB
:1035F0000028F2D00FE013783BB1012313700023B1
:103600002B704FF0FF30BDE8F8832B7000F0FAF814
:1036100001232B70D5E73168194A488800231370BD
:10362000C0F14002944238BF224600F1080C104419
:103630008C444880A41A934204D0F85C0CF8030030
:103640000133F8E71F444B883F2B0E4B02D805226D
:103650001A70AEE740220A804FF00008012083F87C
:103660000080FFF71BFBC6F80080A2E72C70204605
:10367000BDE8F883BD92FF1FC092FF1FBB92FF1FE2
:10368000C492FF1FCC92FF1F07B502AB012103F8C4
:10369000010D1846FFF786FF03B05DF804FBFFFF3E
:1036A00010B50D4B1B78B3B10C4B19681C4691B18A
:1036B0004B8883B10A4A002010703F2B04DCCA18E3
:1036C000002010720133F8E740230B800120FFF740
:1036D000E5FA0023236010BDBB92FF1FC092FF1FBD
:1036E000CC92FF1F10B50B4B1B788BB90A4A11689F
:1036F0004B8814463F2B04DCCA180020107201339B
:10370000F8E740230B800120FFF7C8FA002323606D
:1037100010BD00BFBD92FF1FC092FF1F08B5FEF78E
:10372000F3FBFEF74BFC00F06DF8FAE707B5064B2C
:103730001B88ADF80430036801A95B680222984732
:1037400003B05DF804FB00BFD056000070B505461D
:103750008AB022B90368C9B21B6898472CE0012AD5
:1037600008BF0A2221B930228DF82520212413E038
:103770002124B1FBF2F002FB1011C9B209290AAEF3
:1037800094BF303137312644C9B206F8241C0146B3
:1037900010B1013CE4B2ECE733B1013CE4B20AAB56
:1037A00023442D2203F8242C2B6801A95B682846AA
:1037B0002144C4F1220298470AB070BDFFF7CCBE85
:1037C000FFF780BEFFF7A8BEFFF76ABF0846FFF706
:1037D0005BBF08461146FFF7E5BE7047044B002269
:1037E0001A714FF47A711A73024A99601A6070471D
:1037F000D092FF1FE056000008B1014B18607047DF
:10380000E092FF1F10B50E4C2378BBB90123237043
:10381000FFF7A2FE08B1FFF7E0FF00F0ADF908B135
:1038200000F030FF00F0F8FB08B100F09DFF00F061
:10383000EDFD08B101F00AF80023237010BD00BFB0
:10384000E492FF1F10B50023B0FBF2F402FB14005A
:10385000092894BF30303730C0B2C85420460CB16C
:103860000133F1E7CA18547022469A4206DA885C9E
:10387000CC5C8C54C8540132013BF6E7084610BDBD
:10388000194B1A6842F480621A60184A00231370B8
:10389000174A1370174A1370174A1370174A137098
:1038A000174B40F213321A604FF451725A60154BA5
:1038B000C0F344321A70C0F347125A700221042236
:1038C00000F01F0098729A70D9745A7588221A7481
:1038D0003C22DA700C4B40226FF44A711A700B4490
:1038E0004FF400521A607047348004406793FF1F02
:1038F000E692FF1F7093FF1F6893FF1FE592FF1F63
:1039000040A0044000A006402DE400E0134A937854
:1039100000F0030103F0EC030B43410748BF43F001
:103920001003937000F00F03042B0C4903D18B7923
:1039300043F040038B715379C20603F0EF03074A4B
:1039400048BF43F0100353719379810603F0EF03EE
:1039500048BF43F010039371704700BF00A00640BA
:1039600008B50E4B1B685B0500D408BD0C4B1A78DC
:1039700002F0FF0312B1FFF745FFF7E7094A4FF4E2
:1039800000511160084A0949D37040F203120A60DD
:103990004A60074A1370074A137008BD3480044018
:1039A000E592FF1F84E100E000A0064040A0044033
:1039B0006793FF1FE692FF1F38B50446094B1B783B
:1039C00003F0FF05002BF9D120460121FEF75CFF33
:1039D00020462946FEF738FF034B53F83420034BAB
:1039E0001A6038BDE592FF1FC05500006C93FF1FA1
:1039F000F8B51D4B1B685A05064633D51B4B1B6893
:103A00000BB101221A701A4B1C780134402C1F464E
:103A100028BF0024174D2B78A34218D1FEF7F0FCE5
:103A200040280FDC144A13791B06F3D52B78134971
:103A30000133402B28BF0023C95CDBB2C9B2D1716E
:103A40002B70E7E7FF28E5DDFFF7DCFEE2E70B4B35
:103A5000F6B21E550A4B01221A70074BE4B2BC2283
:103A60003C70DA70F8BD00BF348004406C93FF1FD7
:103A70007093FF1F6893FF1F00A00640E792FF1F8F
:103A8000E592FF1F274B1B685A052DE9F0470746B3
:103A90008A4644D5244B1B680BB101221A703D465F
:103AA00007EB0A039D4237D2DFF890801F4E98F84B
:103AB000004096F800900134402C28BF00245FFAA3
:103AC00089F9A1451DD11A4BBC22DA70FEF798FC8A
:103AD00040280FDC164A13791B060FD53378154999
:103AE0000133402B28BF0023C95CDBB2C9B2D171BE
:103AF000337003E0FF2801DDFFF784FE33784B4588
:103B0000E4D00C4B15F8012B1A550B4B0122E4B2F3
:103B10001A7088F80040C3E7054BBC22DA70BDE894
:103B2000F08700BF348004406C93FF1F6893FF1F31
:103B300000A00640E792FF1FE592FF1F7093FF1F52
:103B400008B5034B1B7813B1FFF75CFEF9E708BD1E
:103B5000E592FF1F064A074B1B781078DBB2C0B214
:103B600083422CBF3F3000F1FF30C01A704700BFC6
:103B70006893FF1F7093FF1F054B1878054B1B7848
:103B8000C0B2DBB2984238BF4030C01A704700BFA5
:103B90006793FF1FE692FF1F094B0A4A19781378B3
:103BA000DBB2994208D00133402B28BF00230649DD
:103BB000C85CDBB2137070474FF0FF30704700BF36
:103BC0006793FF1FE692FF1F2793FF1F084B1A788A
:103BD000084B1B78DBB29A4207D00133402B28BF39
:103BE0000023054AD05CC0B270474FF0FF307047E9
:103BF0006793FF1FE692FF1F2793FF1F0A4B1B6867
:103C00005B050FD5094BDA7802F0CB02DA7040225F
:103C10005A74DA7842F03402DA70054B1A78054BA0
:103C2000D2B21A70704700BF3480044000A0064032
:103C3000E692FF1F6793FF1F30B5304B1A7912F0E1
:103C4000300F23D072B69A7D02F0FF0122B9DA79E3
:103C500040225A7462B619E062B6294B29481A7894
:103C60000478D2B2E4B21846244BDD79531C402BC1
:103C700028BF0023A342EDB202D0234AD5541A46EE
:103C80004B1E13F0FF01EFD1D2B202701B4BD9785B
:103C9000C9B20C0620D51B7918061DD51B4B1C4A32
:103CA0001D781378EDB2DBB21046AB420CD0134A4C
:103CB0000133402B1479174C28BF0023E45CE4B295
:103CC000D471127D072AF0D9DBB203700B4B1A793D
:103CD000120644BF7C22DA704B060ED5074B1A79C8
:103CE00012F0400F194608D00B4B00221A700B4BF4
:103CF0001B6803B11A703C23CB7030BD00A0064096
:103D00006793FF1FE692FF1F2793FF1F7093FF1F0C
:103D10006893FF1FE792FF1FE592FF1F6C93FF1F41
:103D2000194B1A6842F400621A60184A0023137093
:103D3000174A1370174A1370174A1370174A1370F3
:103D4000174B40F213321A604FF451725A60154B00
:103D5000C0F344321A70C0F347125A7000F01F00CB
:103D60000422022198729A70D9745A7588221A74A2
:103D70003C22DA700C4B40221A70A3F22B334FF422
:103D800000421A60704700BF34800440DB93FF1F7D
:103D90007293FF1FE493FF1FDC93FF1F7193FF1FBC
:103DA0000CB0044000B006402FE400E0134A9378C2
:103DB00000F0030103F0EC030B43410748BF43F05D
:103DC0001003937000F00F03042B0C4903D18B797F
:103DD00043F040038B715379C20603F0EF03074AA7
:103DE00048BF43F0100353719379810603F0EF034A
:103DF00048BF43F010039371704700BF00B0064006
:103E000008B50E4B1B681B0500D408BD0C4B1A7877
:103E100002F0FF0312B1FFF7F5FCF7E7094A4FF490
:103E200000411160084A0949D37040F203120A6048
:103E30004A60074A1370074A137008BD3480044073
:103E40007193FF1F84E100E000B006400CB0044015
:103E5000DB93FF1F7293FF1F38B50446094B1B7895
:103E600003F0FF05002BF9D120460121FEF70CFDE0
:103E700020462946FEF7E8FC034B53F83420034B59
:103E80001A6038BD7193FF1FC0550000E093FF1FFB
:103E9000F8B51D4B1B681A05064633D51B4B1B682E
:103EA0000BB101221A701A4B1C780134282C1F46C2
:103EB00028BF0024174D2B78A34218D1FEF7A0FA93
:103EC00040280FDC144A13791B06F3D52B781349CD
:103ED0000133282B28BF0023C95CDBB2C9B2D171E2
:103EE0002B70E7E7FF28E5DDFFF78CFCE2E70B4BE3
:103EF000F6B21E550A4B01221A70074BE4B2BC22DF
:103F00003C70DA70F8BD00BF34800440E093FF1FBE
:103F1000E493FF1FDC93FF1F00B006407393FF1F65
:103F20007193FF1F274B1B681A052DE9F0470746C1
:103F30008A4644D5244B1B680BB101221A703D46BA
:103F400007EB0A039D4237D2DFF890801F4E98F8A6
:103F5000004096F800900134282C28BF00245FFA16
:103F600089F9A1451DD11A4BBC22DA70FEF748FA37
:103F700040280FDC164A13791B060FD533781549F4
:103F80000133282B28BF0023C95CDBB2C9B2D17131
:103F9000337003E0FF2801DDFFF734FC33784B4535
:103FA000E4D00C4B15F8012B1A550B4B0122E4B24F
:103FB0001A7088F80040C3E7054BBC22DA70BDE8F0
:103FC000F08700BF34800440E093FF1FDC93FF1FA5
:103FD00000B006407393FF1F7193FF1FE493FF1F10
:103FE00008B5034B1B7813B1FFF70CFCF9E708BDCC
:103FF0007193FF1F064A074B1B781078DBB2C0B2E3
:1040000083422CBF273000F1FF30C01A704700BF39
:10401000DC93FF1FE493FF1F054B1878054B1B78BB
:10402000C0B2DBB2984238BF4030C01A704700BF00
:10403000DB93FF1F7293FF1F094B0A4A197813780D
:10404000DBB2994208D00133402B28BF0023064938
:10405000C85CDBB2137070474FF0FF30704700BF91
:10406000DB93FF1F7293FF1F9B93FF1F084B1A7870
:10407000084B1B78DBB29A4207D00133402B28BF94
:104080000023054AD05CC0B270474FF0FF30704744
:10409000DB93FF1F7293FF1F9B93FF1F0A4B1B684D
:1040A0001B050FD5094BDA7802F0CB02DA704022FB
:1040B0005A74DA7842F03402DA70054B1A78054BFC
:1040C000D2B21A70704700BF3480044000B006407E
:1040D0007293FF1FDB93FF1F30B5304B1A7912F03C
:1040E000300F23D072B69A7D02F0FF0122B9DA793F
:1040F00040225A7462B619E062B6294B29481A78F0
:104100000478D2B2E4B21846244BDD79531C402B1C
:1041100028BF0023A342EDB202D0234AD5541A4649
:104120004B1E13F0FF01EFD1D2B202701B4BD978B6
:10413000C9B20C0620D51B7918061DD51B4B1C4A8D
:104140001D781378EDB2DBB21046AB420CD0134AA7
:104150000133282B1479174C28BF0023E45CE4B208
:10416000D471127D072AF0D9DBB203700B4B1A7998
:10417000120644BF7C22DA704B060ED5074B1A7923
:1041800012F0400F194608D00B4B00221A700B4B4F
:104190001B6803B11A703C23CB7030BD00B00640E1
:1041A000DB93FF1F7293FF1F9B93FF1FE493FF1F7F
:1041B000DC93FF1F7393FF1F7193FF1FE093FF1F9B
:1041C000174B1A6842F480521A60164A0023137083
:1041D000154A1370154A1370154A1370154A137057
:1041E000154A40F2133111604FF451715160134A76
:1041F000C0F344311170C0F3471100F01F0051703B
:104200009072937013742C23D3700D4B40226FF473
:104210004B711A700B444FF400321A60704700BFA4
:10422000348004404F94FF1FE693FF1F5894FF1FF4
:104230005094FF1FE593FF1F08C0044000C00640D4
:1042400031E400E0134A937800F0030103F0EC033B
:104250000B43410748BF43F01003937000F00F0376
:10426000042B0C4903D18B7943F040038B715379B4
:10427000C20603F0EF03074A48BF43F0100353712F
:104280009379810603F0EF0348BF43F01003937165
:10429000704700BF00C0064008B50E4B1B68DB042A
:1042A00000D408BD0C4B1A7802F0FF0312B1FFF7DF
:1042B000A9FAF7E7094A4FF400311160084A0949A1
:1042C000D37040F203120A604A60074A1370074A2B
:1042D000137008BD34800440E593FF1F84E100E0C3
:1042E00000C0064008C004404F94FF1FE693FF1F24
:1042F00038B50446094B1B7803F0FF05002BF9D1B4
:1043000020460121FEF7C0FA20462946FEF79CFA16
:10431000034B53F83420034B1A6038BDE593FF1F5D
:10432000C05500005494FF1FF8B51D4B1B68DA04FC
:10433000064633D51B4B1B680BB101221A701A4B72
:104340001C780134282C1F4628BF0024174D2B78D9
:10435000A34218D1FEF754F840280FDC144A137911
:104360001B06F3D52B7813490133282B28BF0023D4
:10437000C95CDBB2C9B2D1712B70E7E7FF28E5DD7C
:10438000FFF740FAE2E70B4BF6B21E550A4B01224B
:104390001A70074BE4B2AC223C70DA70F8BD00BF73
:1043A000348004405494FF1F5894FF1F5094FF1F03
:1043B00000C00640E793FF1FE593FF1F38B5044692
:1043C0004518AC4204D014F8010BFFF7ADFFF8E735
:1043D00038BDFFFF08B5034B1B7813B1FFF712FA86
:1043E000F9E708BDE593FF1F064A074B1B781078D5
:1043F000DBB2C0B283422CBF273000F1FF30C01ABD
:10440000704700BF5094FF1F5894FF1F054B18784A
:10441000054B1B78C0B2DBB2984238BF4030C01A9F
:10442000704700BF4F94FF1FE693FF1F094B0A4AD6
:1044300019781378DBB2994208D00133402B28BF9A
:1044400000230649C85CDBB2137070474FF0FF30A1
:10445000704700BF4F94FF1FE693FF1F0F94FF1F8D
:10446000084B1A78084B1B78DBB29A4207D001330D
:10447000402B28BF0023054AD05CC0B270474FF0E4
:10448000FF3070474F94FF1FE693FF1F0F94FF1FED
:10449000024B1A78024BD2B21A707047E693FF1F94
:1044A0004F94FF1F10B5214B1A7992060FD5204A61
:1044B000D87913781F490133402B097828BF00238E
:1044C0008B42C0B203D01C49C854DBB21370174AE8
:1044D000D178C9B20C0616D51379180613D5174B27
:1044E00017481C780378DBB29C4202D16C23D3704E
:1044F00009E00133282B28BF0023124CE45CDBB217
:10450000E4B2D47103704B060ED5084B1A7912F041
:10451000400F194608D00C4B00221A700B4B1B6839
:1045200003B11A702C23CB7010BD00BF00C0064031
:104530004F94FF1FE693FF1F0F94FF1F5894FF1F18
:104540005094FF1FE793FF1FE593FF1F5494FF1F35
:104550001FB572B6154B70221A70154A41211170A1
:104560000F2102F8011C80221A701A781206FCD55D
:10457000104B186862B6104B984298BF0A2301ACE2
:1045800098BF584321460A22FFF75CF90023E15CFB
:104590000A4A29B102EB430001330A2B4180F6D1CC
:1045A00001335B00137004B010BD00BF0000024077
:1045B00007000240080002407F9698000A8DFF1F06
:1045C00008B50368C9B21B68984708BD08B50368F9
:1045D000C9B21B68984708BD08B50368C9B21B6813
:1045E000984708BD08B50368C9B21B68984708BD5D
:1045F0004B0803F1376000F5D830B0FBF1F0FFF75E
:104600003FB910B54B0803F1376000F5D8301446B8
:10461000B0FBF1F0FFF734F92046BDE81040FFF79A
:1046200075B9FFF79DB90846FFF7C6B9FFF7A4BAF9
:10463000FFF7CCBAFFF7B0BAFFF782BAFFF7DEBADE
:10464000FFF788BA08B50846FFF7D2F9012008BD80
:1046500008B50846FFF7CCF9012008BD10B508469B
:1046600014461146FFF70EFA204610BD38B508462D
:104670000D4600F01DFF044621462846FFF702FACA
:10468000204638BD7047FFFF044B00221A714FF4DB
:104690007A711A73024A99601A6070475C94FF1F1E
:1046A0009057000008B50368C9B21B68984708BD59
:1046B00008B50368C9B21B68984708BD08B5036808
:1046C000C9B21B68984708BD08B50368C9B21B6822
:1046D000984708BD4B0803F1376000F5D830B0FBB0
:1046E000F1F0FFF71DBB10B54B0803F1376000F583
:1046F000D8301446B0FBF1F0FFF712FB2046BDE8BE
:104700001040FFF753BBFFF77BBB0846FFF7A4BB86
:10471000FFF782BCFFF7AABCFFF78EBCFFF760BCB7
:10472000FFF7BCBCFFF766BC08B50846FFF7B0FB57
:10473000012008BD08B50846FFF7AAFB012008BD07
:1047400010B5084614461146FFF7ECFB204610BD95
:1047500038B508460D4600F0ABFE04462146284613
:10476000FFF7E0FB204638BD7047FFFF044B0022F7
:104770001A714FF47A711A73024A99601A6070477D
:104780006C94FF1FE057000008B50368C9B21B68AE
:10479000984708BD08B50368C9B21B68984708BDAB
:1047A00008B50368C9B21B68984708BD08B5036817
:1047B000C9B21B68984708BD4B0803F1B76000F504
:1047C0005840B0FBF1F0FFF7FBBC10B54B0803F10C
:1047D000B76000F558401446B0FBF1F0FFF7F0FC6D
:1047E0002046BDE81040FFF72DBDFFF755BD084638
:1047F000FFF77EBDFFF70ABEFFF732BEFFF716BE1A
:10480000FFF7E8BDFFF744BEFFF7EEBD08B5084669
:10481000FFF78AFD012008BD08B50846FFF784FDB3
:10482000012008BD10B5084614461146FFF7C6FD25
:10483000204610BD38B508460D4600F039FE044646
:1048400021462846FFF7BAFD204638BD7047FFFFD6
:10485000044B00221A714FF47A711A73024A99605C
:104860001A6070477C94FF1F30580000FFFFFFFF65
:104870002DE9F84FC1F30A57A7F2FF36132E02466F
:104880000B4604460D4689468A4680461CDC002EAF
:1048900040DB3D4F374107EA010C5CEA000C18D0C1
:1048A00037A3D3E9002300F079F80022002300F0B9
:1048B000A5FA28B1002D42DB2AEA07094FF00008CB
:1048C00040464946BDE8F88F332E06DDB6F5806FC9
:1048D00031D010461946BDE8F88FA7F2134C4FF0BF
:1048E000FF3B2BFA0CFB1BEA000FF2D024A3D3E909
:1048F000002300F053F80022002300F07FFA002884
:10490000DED0002D22DB28EA0B08D146404649467E
:10491000BDE8F88F1AA3D3E9002300F03FF8002286
:10492000002300F06BFA0028CAD0002D1CDB4FF0EA
:104930000008C146C4E700F031F8BDE8F88F4FF435
:10494000801A4AFA06F606EB050AB5E7142E14D0CB
:10495000C7F586670123033703FA07F717EB040847
:1049600028BF05EB030ACEE725F00042074B2243A0
:1049700018BF99464FF00008A2E705F1010AC2E707
:104980009C7500883CE4377EFFFF0F000000F0BFFD
:1049900081F0004102E000BF83F0004330B54FEAF0
:1049A00041044FEA430594EA050F08BF90EA020F5D
:1049B0001FBF54EA000C55EA020C7FEA645C7FEAF0
:1049C000655C00F0E2804FEA5454D4EB5555B8BF13
:1049D0006D420CDD2C4480EA020281EA030382EA84
:1049E000000083EA010180EA020281EA0303362D16
:1049F00088BF30BD11F0004F4FEA01314FF4801CE9
:104A00004CEA113102D0404261EB410113F0004FFA
:104A10004FEA03334CEA133302D0524263EB4303B1
:104A200094EA050F00F0A780A4F10104D5F1200E4F
:104A30000DDB02FA0EFC22FA05F2801841F10001AA
:104A400003FA0EF2801843FA05F359410EE0A5F17E
:104A500020050EF1200E012A03FA0EFC28BF4CF0AF
:104A6000020C43FA05F3C01851EBE37101F0004565
:104A700007D54FF0000EDCF1000C7EEB00006EEB72
:104A80000101B1F5801F1BD3B1F5001F0CD34908FC
:104A90005FEA30004FEA3C0C04F101044FEA445253
:104AA00012F5800F80F09A80BCF1004F08BF5FEADA
:104AB000500C50F1000041EB045141EA050130BDBA
:104AC0005FEA4C0C404141EB010111F4801FA4F15D
:104AD0000104E9D191F0000F04BF01460020B1FAB2
:104AE00081F308BF2033A3F10B03B3F120020CDAEA
:104AF0000C3208DD02F1140CC2F10C0201FA0CF0C8
:104B000021FA02F10CE002F11402D8BFC2F1200C2C
:104B100001FA02F120FA0CFCDCBF41EA0C019040E2
:104B2000E41AA2BF01EB0451294330BD6FEA04042B
:104B30001F3C1CDA0C340EDC04F11404C4F1200216
:104B400020FA04F001FA02F340EA030021FA04F328
:104B500045EA030130BDC4F10C04C4F1200220FA7F
:104B600002F001FA04F340EA0300294630BD21FABD
:104B700004F0294630BD94F0000F83F4801306BF83
:104B800081F480110134013D4EE77FEA645C18BF77
:104B90007FEA655C29D094EA050F08BF90EA020F0E
:104BA00005D054EA000C04BF1946104630BD91EA06
:104BB000030F1EBF0021002030BD5FEA545C05D109
:104BC0004000494128BF41F0004130BD14F5800448
:104BD0003CBF01F5801130BD01F0004545F0FE41BC
:104BE00041F470014FF0000030BD7FEA645C1ABFF1
:104BF000194610467FEA655C1CBF0B46024650EA28
:104C0000013406BF52EA033591EA030F41F4002153
:104C100030BD00BF90F0000F04BF0021704730B5D9
:104C20004FF4806404F132044FF000054FF00001AE
:104C300050E700BF90F0000F04BF0021704730B56F
:104C40004FF4806404F1320410F0004548BF404244
:104C50004FF000013EE700BF42004FEAE2014FEA99
:104C600031014FEA02701FBF12F07F4393F07F4F74
:104C700081F06051704792F0000F14BF93F07F4FA6
:104C8000704730B54FF4607401F0004521F00041E9
:104C900020E700BF50EA010208BF704730B54FF06F
:104CA00000050AE050EA010208BF704730B511F074
:104CB000004502D5404261EB41014FF4806404F1AC
:104CC00032045FEA915C3FF4DCAE4FF003025FEA2E
:104CD000DC0C18BF03325FEADC0C18BF033202EBB6
:104CE000DC02C2F1200300FA03FC20FA02F001FA10
:104CF00003FE40EA0E0021FA02F11444C1E600BFAF
:104D00004FF0FF3C06E000BF4FF0010C02E000BF97
:104D10004FF0010C4DF804CD4FEA410C7FEA6C5C7A
:104D20004FEA430C18BF7FEA6C5C1BD001B050EA1D
:104D3000410C0CBF52EA430C91EA030F02BF90EA08
:104D4000020F0020704710F1000F91EA030F58BFC7
:104D5000994208BF90422CBFD8176FEAE37040F029
:104D6000010070474FEA410C7FEA6C5C02D150EAC7
:104D7000013C07D14FEA430C7FEA6C5CD6D152EA82
:104D8000033CD3D05DF8040B704700BF8446104647
:104D900062468C461946634600E000BF01B5FFF746
:104DA000B7FF002848BF10F1000F01BD4DF808ED16
:104DB000FFF7F4FF0CBF012000205DF808FB00BFE7
:104DC0004DF808EDFFF7EAFF34BF012000205DF841
:104DD00008FB00BF4DF808EDFFF7E0FF94BF01208E
:104DE00000205DF808FB00BF4DF808EDFFF7CEFF8F
:104DF00094BF012000205DF808FB00BF4DF808EDCE
:104E0000FFF7C4FF34BF012000205DF808FB00BF9E
:104E10004A0011D212F5001211D20DD56FF4787339
:104E2000B3EB62520ED44FEAC12343F0004343EA8E
:104E3000505323FA02F070474FF00000704750EAD9
:104E4000013002D14FF0FF3070474FF00000704743
:104E500080F0004002E000BF81F0004142001FBF2F
:104E60005FEA410392EA030F7FEA226C7FEA236C38
:104E70006AD04FEA1262D2EB1363C1BFD21841402D
:104E800048404140B8BF5B42192B88BF704710F0C3
:104E9000004F40F4000020F07F4018BF404211F066
:104EA000004F41F4000121F07F4118BF494292EACE
:104EB000030F3FD0A2F1010241FA03FC10EB0C00FA
:104EC000C3F1200301FA03F100F0004302D5494287
:104ED00060EB4000B0F5000F13D3B0F1807F06D334
:104EE00040084FEA310102F10102FE2A51D2B1F12C
:104EF000004F40EBC25008BF20F0010040EA030021
:104F00007047490040EB000010F4000FA2F10102CD
:104F1000EDD1B0FA80FCACF1080CB2EB0C0200FA57
:104F20000CF0AABF00EBC25052421843BCBFD040A5
:104F30001843704792F0000F81F4000106BF80F41F
:104F400000000132013BB5E74FEA41037FEA226CE2
:104F500018BF7FEA236C21D092EA030F04D092F0AD
:104F6000000F08BF0846704790EA010F1CBF0020E1
:104F7000704712F07F4F04D1400028BF40F000403E
:104F8000704712F100723CBF00F50000704700F05E
:104F9000004343F0FE4040F4000070477FEA226285
:104FA00016BF08467FEA23630146420206BF5FEA56
:104FB000412390EA010F40F4800070474FF0000356
:104FC00004E000BF10F0004348BF40425FEA000C1D
:104FD00008BF704743F0964301464FF000001CE0C5
:104FE00050EA010208BF70474FF000030AE000BF1B
:104FF00050EA010208BF704711F0004302D5404259
:1050000061EB41015FEA010C02BF844601460020CA
:1050100043F0B64308BFA3F18053A3F50003BCFAE5
:105020008CF2083AA3EBC25310DB01FA02FC634492
:1050300000FA02FCC2F12002BCF1004F20FA02F299
:1050400043EB020008BF20F00100704702F120028C
:1050500001FA02FCC2F1200250EA4C0021FA02F2ED
:1050600043EB020008BF20EADC7070474FF0FF0CF2
:105070001CEAD0521EBF1CEAD15392EA0C0F93EAED
:105080000C0F6FD01A4480EA010C400218BF5FEA8F
:1050900041211ED04FF0006343EA501043EA511102
:1050A000A0FB01310CF00040B1F5000F3EBF4900FC
:1050B00041EAD3715B0040EA010062F17F02FD2A00
:1050C0001DD8B3F1004F40EBC25008BF20F00100E3
:1050D000704790F0000F0CF0004C08BF49024CEAFA
:1050E000502040EA51207F3AC2BFD2F1FF0340EA8C
:1050F000C250704740F400004FF00003013A5DDCFD
:1051000012F1190FDCBF00F000407047C2F100023D
:10511000410021FA02F1C2F1200200FA02FC5FEA2A
:10512000310040F1000053EA4C0308BF20EADC7074
:10513000704792F0000F00F0004C02BF400010F4E6
:10514000000F013AF9D040EA0C0093F0000F01F093
:10515000004C02BF490011F4000F013BF9D041EAB5
:105160000C018FE70CEAD15392EA0C0F18BF93EAB7
:105170000C0F0AD030F0004C18BF31F0004CD8D1E1
:1051800080EA010000F00040704790F0000F17BF68
:1051900090F0004F084691F0000F91F0004F14D0AE
:1051A00092EA0C0F01D142020FD193EA0C0F03D106
:1051B0004B0218BF084608D180EA010000F0004009
:1051C00040F0FE4040F40000704740F0FE4040F4E4
:1051D000400070474FF0FF0C1CEAD0521EBF1CEA83
:1051E000D15392EA0C0F93EA0C0F69D0A2EB0302A1
:1051F00080EA010C49024FEA402037D04FF080533B
:1052000043EA111143EA10130CF000408B4238BFFF
:105210005B0042F17D024FF4000C8B4224BF5B1A0D
:1052200040EA0C00B3EB510F24BFA3EB510340EA5B
:105230005C00B3EB910F24BFA3EB910340EA9C0009
:10524000B3EBD10F24BFA3EBD10340EADC001B0179
:1052500018BF5FEA1C1CE0D1FD2A3FF650AF8B421D
:1052600040EBC25008BF20F0010070470CF0004C2A
:105270004CEA50207F32C2BFD2F1FF0340EAC25055
:10528000704740F400004FF00003013A37E792F016
:10529000000F00F0004C02BF400010F4000F013A74
:1052A000F9D040EA0C0093F0000F01F0004C02BF6F
:1052B000490011F4000F013BF9D041EA0C0195E7D8
:1052C0000CEAD15392EA0C0F08D142027FF47DAF71
:1052D00093EA0C0F7FF470AF084676E793EA0C0F61
:1052E00004D14B023FF44CAF08466EE730F0004C5F
:1052F00018BF31F0004CCAD130F000427FF45CAFEF
:1053000031F000437FF43CAF5FE700BF4FF0FF3C5C
:1053100006E000BF4FF0010C02E000BF4FF0010CAF
:105320004DF804CD4FEA40024FEA41037FEA226C78
:1053300018BF7FEA236C11D001B052EA530C18BF9A
:1053400090EA010F58BFB2EB030088BFC81738BFFF
:105350006FEAE17018BF40F0010070477FEA226CED
:1053600002D15FEA402C05D17FEA236CE4D15FEAE9
:10537000412CE1D05DF8040B704700BF844608461D
:105380006146FFE70FB5FFF7C9FF002848BF10F1DE
:10539000000F0FBD4DF808EDFFF7F4FF0CBF012023
:1053A00000205DF808FB00BF4DF808EDFFF7EAFFAD
:1053B00034BF012000205DF808FB00BF4DF808ED68
:1053C000FFF7E0FF94BF012000205DF808FB00BF5D
:1053D0004DF808EDFFF7D2FF94BF012000205DF8E3
:1053E00008FB00BF4DF808EDFFF7C8FF34BF0120F0
:1053F00000205DF808FB00BF42000ED2B2F1FE4F64
:105400000BD34FF09E03B3EB126209D44FEA002393
:1054100043F0004323FA02F070474FF0000070475A
:1054200012F1610F01D1420202D14FF0FF307047FB
:105430004FF00000704700BF03460846194600F0D1
:1054400001B8FFFF70B5064C06460D4613462CB159
:1054500031462A460220AFF3008070BD204670BD61
:105460000000000070B50E4B0E4DED1AAD1000247B
:105470001E46AC4204D056F8242090470134F8E789
:1054800000F0FAF9084D094BED1AAD1000241E4644
:10549000AC4204D056F8242090470134F8E770BDA0
:1054A00084580000845800009C5800008458000074
:1054B000034613F8012B002AFBD1181A0138704754
:1054C0000000000000000000FF230000FF23000098
:1054D00000000000000000002B0A0000530A00003A
:1054E0001B0A00006D0E00008F0E0000290A00004C
:1054F0000000000000000000FF230000FF23000068
:1055000003040605141519202325241A1B1C16173D
:1055100010110E0F0203040506070C0D08090A0BF3
:10552000021821040607020100FF780578050F64C0
:10553000881364009696FFFF000000000000000042
:10554000B5160000911900007374617274696E677A
:10555000206379636C65003D3D20437269636B6530
:10556000742000203D3D0049523A20280029004D7A
:105570006F746F723A2028002C20003D3D204C694A
:1055800067687420004C45443A20280053657475C0
:105590007020446F6E65004F7065726174696F6E44
:1055A000204D6F64653A2000050E08090D0C0607B2
:1055B0000F04001303931A9217C585848687C4FFCE
:1055C0004008FE4340A004404408FE4344A0044079
:1055D0000018FE4300C004403000FE4330900440F9
:1055E0003400FE43349004401C18FE431CC00440A9
:1055F0001018FE4310C004400818FE4308C00440C1
:105600000C18FE430CC004400C10FE430CB00440C8
:105610001010FE4310B004401810FE4318B00440B0
:105620001C10FE431CB004401410FE4314B0044090
:105630000418FE4304C004400010FE4300B00440C0
:105640000008FE4300A004400408FE4304A00440F8
:105650000C08FE430CA004400808FE4308A00440C8
:105660001418FE4314C004401818FE4318C0044028
:105670000410FE4304B004400810FE4308B0044088
:105680001400FE43149004404C08FE434CA0044018
:105690000420FE4304D004402410FE4324B0044000
:1056A0002010FE4320B004402810FE4328B00440E0
:1056B0002C10FE432CB004400020FE4300D00440D8
:1056C0004808FE4348A004401000FE4310900440E8
:1056D0000D0AFFFFFFFFFFFF0000000000000000B9
:1056E000CD370000D3370000BD370000C1370000C0
:1056F000C5370000C9370000151915190000FFFF54
:1057000000010000308CFF1F1200000000020000AA
:105710005A8CFF1F4900000000220100A38CFF1FCC
:1057200021000000002101008C8CFF1F09000000F7
:1057300000220000C48CFF1F1C000000002100009C
:105740006C8CFF1F0900000000030000068DFF1F86
:105750000000000001030904428CFF1F000000004C
:1057600002030904E08CFF1F00000000030309048A
:105770000A8DFF1F00000000000000000000000074
:1057800000000000FFFFFFFF00000000000000001D
:10579000454600005D4600002D46000035460000ED
:1057A0003146000039460000F14500000346000084
:1057B00023460000274600003D4600004146000009
:1057C000C1450000CD450000D9450000E545000079
:1057D0006D4600005146000000000000000000007F
:1057E0002947000041470000114700001947000009
:1057F000154700001D470000D5460000E7460000A1
:10580000074700000B470000214700002547000024
:10581000A5460000B1460000BD460000C946000094
:105820005147000035470000000000000000000064
:105830000D48000025480000F5470000FD47000026
:10584000F947000001480000B9470000CB470000BD
:10585000EB470000EF470000054800000948000042
:105860008947000095470000A1470000AD470000B0
:105870003548000019480000F8B500BFF8BC08BC66
:105880009E46704735040000851F0000DD3700008C
:0C589000894600006D47000051480000F0
:10589C000000000000600640016006400260064007
:1058AC000360064004600640056006400660064042
:1058BC000760064008600640096006400A60064022
:1058CC000B6006400000000000000000000000001B
:1058DC0000000000000000000000000000000000BC
:1058EC0000000000000000000000000000000000AC
:1058FC00000000000000000000000000000000009C
:10590C00000000000000000000000000000000008B
:10591C00000000000000000000000000000000007B
:10592C00000000000000000000000000000000006B
:10593C00000000000000000000000000000000005B
:10594C00000000000000000000000000000000004B
:10595C00000000000000000000000000000000003B
:10596C00000000000000000000000000000000002B
:10597C00000000000000000000000000000000001B
:10598C00000000000000000000000000000000000B
:10599C0000000000000000000000000000000000FB
:1059AC0000000000000000000000000000000000EB
:1059BC0000000000000000000000000000000000DB
:1059CC0000000000000000000000000000000000CB
:1059DC0000000000000000000000000000000000BB
:1059EC0000000000000000000000000000000000AB
:1059FC00000000000000000000000000000000009B
:105A0C00000000000000000000000000000000008A
:105A1C00000000000000000000000000000000007A
:105A2C00000000000000000000000000000000006A
:105A3C00000000000000000000000000000000005A
:105A4C00000000000000000000000000000000004A
:105A5C00000000000000000000000000000000003A
:105A6C00000000000000000000000000000000002A
:105A7C00000000000000000000000000000000001A
:105A8C00000000000000000000000000000000000A
:105A9C0000000000000000000000000000000000FA
:105AAC0000000000000000000000000000000000EA
:105ABC0000000000000000000000000000000000DA
:105ACC0000000000000000000000000000000000CA
