:1000000000800020BD0100004D3C0000193C0000B4
:10001000193C0000193C0000193C0000193C00008C
:10002000193C0000193C0000193C00004D3C000048
:100030004D3C0000193C00004D3C0000093C000014
:100040004D3C00004D3C00004D3C00004D3C00008C
:100050004D3C00004D3C00004D3C00004D3C00007C
:100060004D3C00004D3C00004D3C00004D3C00006C
:100070004D3C00004D3C00004D3C00004D3C00005C
:100080004D3C00004D3C00004D3C00004D3C00004C
:100090004D3C00004D3C00004D3C00004D3C00003C
:1000A000351E00004D3C00004D3C00004D3C000062
:1000B0004D3C00004D3C00004D3C00004D3C00001C
:1000C0004D3C00004D3C00004D3C00004D3C00000C
:1000D0004D3C00004D3C00004D3C00004D3C0000FC
:1000E0004D3C00004D3C00004D3C00004D3C0000EC
:1000F0004D3C0000815800004D3C0000215D000097
:100100004D3C0000ED6000004D3C00004D3C000007
:100110004D3C00004D3C00004D3C00004D3C0000BB
:100120004D3C00004D3C00004D3C00004D3C0000AB
:100130004D3C00004D3C00004D3C00004D3C00009B
:100140004D3C00004D3C00004D3C00004D3C00008B
:100150004D3C00004D3C00004D3C00004D3C00007B
:100160004D3C0000C54400004D3C00004D3C0000EB
:100170004D3C00004D3C00004D3C00004D3C00005B
:100180004D3C00004D3C00004D3C00004D3C00004B
:100190004D3C00004D3C00004D3C00004D3C00003B
:1001A0004D3C00004D3C00004D3C00004D3C00002B
:1001B0004D3C00004D3C000001500000564B4CF2FD
:1001C000205210B51A804DF628121A8000BF00BFC9
:1001D00003F040FD514B4FF010621A60504A9A6094
:1001E000504ADA60A3F53043203B1A6812F480725B
:1001F00004D14D490A604FF4A8521A604B4B1A784B
:10020000110703D51A7842F008021A70484B2A22C7
:100210001A700023474A48499818884204D247492F
:10022000595899500433F5E7454A464B9A424FF0E6
:10023000000302D242F8043BF7E74349434A5958C6
:1002400099500433B3F5DE7FF7D1414B802103F899
:10025000011B40498B42F9D13F4B1A603F4B0A22A8
:100260001A70A3F5805324225A70A0221A709A792A
:100270009207FCD59A79D406FCD4394B9A7902F0CE
:100280000C02082AF9D103221A7140225A719A7974
:100290009006FCD5324B9A795106FBD5314A32494A
:1002A00011600221516020221A702D4B9B7903F0BE
:1002B0000C030C2BF9D12D4B2D4A1A602D4B2E4AD5
:1002C0001A6000225A60072243F8042C2B4AC3F814
:1002D0000C2D62B603F0DEFF134B1B68DA0705D561
:1002E000274803F069FE274B274A1A60274B1B78E3
:1002F0005B0609D5234C244A2368934204D1204845
:1003000003F05AFE0023236006F0DEFB03F0A8FC96
:1003100004F01EFFFEE700BF0E20054030800440C1
:10032000823F04000100002B14D0034002D007409C
:1003300000E0074060BDFF1FD4BEFF1FC072000079
:10034000D4BEFF1FDCDAFF1F0000000000B8FF1F53
:1003500000E400E05FE400E008ED00E0005006404B
:100360000040064044800440000003010480044033
:10037000C010050014E000E0FF760100000020201E
:1003800088D573561CE00340A5C3945A00F007407B
:10039000FFFFFFFFFFFFFFFFFFFFFFFFFFFFFFFF6D
:1003A000FFFFFFFFFFFFFFFFFFFFFFFFFFFFFFFF5D
:1003B000FFFFFFFFFFFFFFFFFFFFFFFFFFFFFFFF4D
:1003C000FFFFFFFFFFFFFFFFFFFFFFFFFFFFFFFF3D
:1003D000FFFFFFFFFFFFFFFFFFFFFFFFFFFFFFFF2D
:1003E000FFFFFFFFFFFFFFFFFFFFFFFFFFFFFFFF1D
:1003F000FFFFFFFFFFFFFFFFFFFFFFFFFFFFFFFF0D
:10040000FFFFFFFFFFFFFFFFFFFFFFFFFEFFFFFFFD
:1004100010B5054C237833B9044B13B10448AFF33E
:1004200000800123237010BDD4BEFF1F0000000018
:10043000C072000008B5064B1BB106480649AFF371
:1004400000800648036813B1054B03B1984708BD07
:1004500000000000C0720000D8BEFF1FD4BEFF1F06
:100460000000000010B504460846074906F030F9C0
:10047000064906F025F806F0F1FA01462046BDE8E7
:10048000104000F07FBD00BF00000143EE7CFF3E46
:1004900038B5044608460D4606F02BFC2368024694
:1004A0005B6820462946984738BD38B50446FFF7B3
:1004B000EFFF0546204604F065FE284438BDFFFFE7
:1004C0000F4B03600023417202610372C360427AE2
:1004D000934205DA0269002142F823100133F6E75E
:1004E000084A13680BB9106004E05A690AB1134650
:1004F000FBE75861002343618380C380704700BFDE
:10050000906D0000D8D8FF1F10B50421044600F1FB
:100510002802FFF7D5FF054B23604FF48033A3611A
:10052000E36123626362204610BD00BF286E0000B5
:10053000002110B50A460446FFF7C2FF2046054BCE
:1005400040F8183B01F0F2FE204601F065F8204625
:1005500010BD00BF486E00002DE9F74F75490446F5
:100560000B46224633F8050B22F8020B31F8020F36
:100570001B888978608004F1100991704846A4F8BE
:10058000053004F14807FFF7BFFF3846FFF7BCFF0F
:1005900004F18008454604F5246A284605F51C75D3
:1005A000FFF7C6FF5545F8D1564604F5A05530462D
:1005B00006F51C76FFF7BCFFAE42F8D1022106F12A
:1005C00018023046FFF77CFF5B4B3360304600F08B
:1005D00095FF04F5A150002580E8000305724572DF
:1005E000C56004F0E2FC04F5A150103041F2304344
:1005F0004FF0010804F53C72E250C0F80490057217
:1006000080F80980C56004F0D0FC04F5A2500222F5
:1006100004F5AC63427280E808020572C56001927D
:1006200004F0C3FC04F5A250103041F2504304F52D
:10063000FA614FF0030BE150C0F80490057280F8A6
:1006400009B0C56004F0B1FC04F5A350C0F800A0E7
:10065000476005724572C56004F0A7FC04F5A3531A
:1006600041F2704104F54B60605010335F601D72C1
:1006700083F80980DD60184604F097FC04F5A45067
:1006800004F572630572019A427280E88800C560C1
:1006900004F08BFC04F5A450103041F2904104F5B5
:1006A0008C52103262504760057280F809B0C56004
:1006B00004F07BFC04F5A550C0F80090466005727C
:1006C0004572C56004F071FC04F5A550103041F28C
:1006D000B043E7504660057280F80980C56004F0B9
:1006E00064FC04F5A653154A1A602078414603F0CD
:1006F0009FFC6078414603F09BFC631900219878C9
:10070000013503F095FC032DF7D16079002103F04A
:100710008FFC0021A07903F08BFC0C2003F096F9EC
:10072000202003F0BDF9082003F056FC204603B05A
:10073000BDE8F08F986D0000386E0000086E000074
:1007400070B510F5246604460FD000F58D550835B8
:1007500005F516739E4208D00E4B45F8183C284606
:1007600001F0F2FDA5F51C75F2E714F180060ED03C
:1007700004F5FD6505F516739E4208D0054B45F856
:10078000183C284601F0E0FDA5F51C75F2E720466F
:1007900070BD00BF486E000038B5054605F5A6548B
:1007A0003221174804F02AFB204600F07DFB154952
:1007B0002046FFF757FE4FF07E51204600F07DFCAB
:1007C000204600F072FC1D21204600F05CFC4CF637
:1007D000CC43EB626B660C4B0C481A780A2142F052
:1007E00005021A7001F0EDFD40B909490948FFF70B
:1007F0005CFE4FF4FA7003F039FDF6E738BD00BF38
:100800000082FF1FCDCC4C3F02D9FF1FB8D4FF1F81
:100810009F6D000008D9FF1F2DE9F8438846044664
:100820003C493D489DF820701E469146FFF730FE3A
:1008300039484146FFF739FE731E032B88BF012656
:10084000B9F1020F0CD04FF41C73002F4DD1334D72
:100850002A7803FB0240803001F034F978B916E0C1
:1008600001254FF41C73002F49D12D4E327803FB24
:10087000024000F5246001F025F9B8B91CE02B789E
:100880000133DBB2022B01D92F7000E02B70234B18
:100890001B784FF41C7000FB03408030414600F091
:1008A000FDFE0546B9F1010FDBD112E033780133CB
:1008B000DBB2022B17D93770194B1B784FF41C721F
:1008C00002FB034000F52460414600F0E7FE2840AB
:1008D000C5B22DB1052003F0C9FC0120BDE8F883A5
:1008E0002846BDE8F8833370E6E7721E03FB02403A
:1008F000803001F0E7F80028C9D00125D2E7013E99
:1009000003FB064000F5246001F0DCF80028E0D18C
:10091000D2E700BFBC6D000008D9FF1FF0BEFF1F6B
:10092000F1BEFF1F012903D8405C114603F09CBBB8
:100930007047022908B505D80144887803F0DAF831
:1009400080B208BD002008BD044B00221A705A7006
:100950009A70DA701A715A71704700BFE0D3FF1FA6
:1009600010B50121184C0D2003F062FBFFF7ECFFDE
:100970001648FFF711FF20460D2101F043FA6420CD
:1009800003F074FC2046124901F0C6FB20461149D1
:1009900001F0C8FB4FF47A7003F068FC0E4B4CF288
:1009A00020521A804DF628121A802023013B7FF432
:1009B000FDAF0A4B01221A804FF4FA62DA80084A2E
:1009C00000231380538210BD84D4FF1F0CBFFF1F70
:1009D000A10D0000C90D00000E20054000200540BB
:1009E000042005402DE9F04F91B0A54C02AF012045
:1009F000266803F03BFC72B6A24B4AF202621A80F0
:100A00004BF280421A8062B600219F48DFF8B08224
:100A1000DFF8B0A2FFF78DFF012105469A48FFF7E6
:100A200088FFAD218146012004F047FCAD21C8F8C4
:100A30000000012004F041FCDAF80030934AF31A78
:100A4000B3F57A7F1060434610D901206421C7F8BE
:100A5000048004F032FC2268CAF800200A28CCBFC7
:100A60004FF000084FF001087B6801E04FF00008EC
:100A7000874A1268B21AB2F5FA6F03D8B8F1000FBC
:100A800000F08C80B5F57A7F39DD19680A2207F10C
:100A9000180004F07FFC07F1180107F1280004F0AA
:100AA0005EFC7C4907F1280004F09AFC014607F13E
:100AB000080004F054FC07F1280004F008FC07F1DA
:100AC000180004F004FC3A69D31D23F00703EB4639
:100AD000ADEB030D0DF1080A07F108005146013294
:100AE000002304F08BFC012200925146002366484B
:100AF000FFF792FE07F1080004F0E9FBDD46B9F5C7
:100B00007A7F02DCB8F1000F45D0604B0A221968E9
:100B100007F1180004F03EFC07F1180107F1280066
:100B200004F01DFC5B4907F1280004F059FC014664
:100B300007F1080004F013FC07F1280004F0C7FBDC
:100B400007F1180004F0C3FB3A69D31D23F0070333
:100B5000EB46ADEB030D0DF1080A07F10800514615
:100B60000132002304F04AFC012300935146022283
:100B700000234548FFF750FE07F1080004F0A7FBEB
:100B8000B5F57A7FDD4603DD414B22681A6005E04A
:100B9000B9F57A7F01E0B5F57A7FF5DCDFF828A1B9
:100BA000DAF80030F31AB3F57A7F19D93A493B489D
:100BB000FFF77BFC3A493948FFF76AFC294637487A
:100BC00004F028FB37493548FFF762FC49463348B3
:100BD00004F020FB314804F0D5FA2368CAF800304D
:100BE000B5F57A7F304B314D05DCB9F57A7F02DC03
:100BF000B8F1000F12D01A7882B928482C49FFF7B3
:100C000054FC294B01221A702A4B22681A602A4B85
:100C100022681A60294B02221A6079E01A78002AA9
:100C200076D0244A1268B21ABA60B96840F6B8326F
:100C300091424BD9204821490268B61ABE61BE696B
:100C40000A6896420E4611D9297821B101F1FF3E7A
:100C5000164981F800E0697821B101F1FF3E13499E
:100C600081F801E001323260226802606A78002A6D
:100C70004ED10E4A1278002A4AD11A7048E000BFBD
:100C8000BCD7FF1F0C2005400CBFFF1FD8D3FF1F90
:100C9000E8D3FF1FCB6D0000D06D000008D9FF1F07
:100CA000E56D0000EA6D0000F2BEFF1F00BFFF1FF0
:100CB000ED6D0000F4BEFF1FFCBEFF1F64BDFF1FF3
:100CC00008BFFF1FF8BEFF1FDCD3FF1FBB68B3F5D3
:100CD000FA6F1DD81549164A0B68F61ABE62B86A33
:100CE00013689842104613D92A78FF2A02D0114E71
:100CF00001323270BA68B2F5FA7F05D96A78FF2AF4
:100D000002D00C4E023272700133036023680B6014
:100D10002A7809480021FFF705FE07486A78012173
:100D2000FFF700FE3C37BD46BDE8F08FFCBEFF1F5D
:100D300064BDFF1F00BFFF1F0CBFFF1F10B50E4C8F
:100D40002046FFF709FC0D490D4A204605F0A6FE96
:100D50000C4B0D4A196811600C4A196811600C4A55
:100D6000196811600B4A196811600B4A1968116003
:100D70001A680A4B1A6010BD0CBFFF1F4107000024
:100D800060BDFF1FBCD7FF1FF4BEFF1FFCBEFF1FCF
:100D9000DCD3FF1FE8D3FF1F04BFFF1FF8BEFF1FF8
:100DA00038B505460024AC4208DA062C06D00448C3
:100DB00000F07EFF034B18550134F4E738BD00BF47
:100DC00084D4FF1FE0D3FF1F38B50A4BDA79012A1C
:100DD0000FD103F1080403F10E052178064800F055
:100DE0003FFF34F8021B0448090A00F039FFAC4207
:100DF000F3D138BD0CBFFF1F84D4FF1F0020704704
:100E00000020704708B50368C9B21B68984708BD41
:100E1000242938B508BFC2800C460E480A21154661
:100E200001F073F9210A0B48FFF7ECFF214609484E
:100E3000FFF7E8FF290A0748FFF7E4FF29460548BE
:100E4000FFF7E0FF034801F063F9D0F1010038BF7C
:100E5000002038BD84D4FF1F10B5044659B92021A5
:100E60005522FFF7D5FFE8B1E28842F004022046A0
:100E7000242192B212E0012914D12A2140F27312E6
:100E8000FFF7C6FF70B1204620218822FFF7C0FF80
:100E900040B1E288204622F004022421BDE810403F
:100EA000FFF7B6BF002010BD38B501250446057117
:100EB000334800F085FF052003F0D8F920463021A3
:100EC00044F26002FFF7A4FF204626216C22FFF7C0
:100ED0009FFF204628214FF4F972FFF799FF204623
:100EE0002C2140F62272FFF793FF20463C2144F26A
:100EF0004642FFF78DFF2046242140F23712FFF7CC
:100F000087FF2046302144F2FF02FFF781FF0221D4
:100F100073222046FFF77CFF4FF4C87003F0A6F958
:100F200020462E2141F61D52FFF772FF04210A468A
:100F30002046FFF76DFF204606214FF49872FFF719
:100F400067FF20460A211022FFF762FF20460E218C
:100F50000022FFF75DFF2046102143F63C42FFF7D9
:100F600057FF2046222147F67F72FFF751FF2046A8
:100F700024213622FFF74CFF2572284638BD00BFDA
:100F800084D4FF1F38B5044669B90123222147F6EE
:100F90007F720371FFF73CFFE28842F010022046A7
:100FA000242192B212E00379802994BFC1F1800517
:100FB00000253BB1C2880023037122F010022421D6
:100FC000FFF726FF2046222145EA0522BDE83840EA
:100FD000FFF71EBF70B5104615460E4605F020FB04
:100FE00004462146304605F073FB074905F068FAD0
:100FF000064605F033FDC0B2A84298BF34462046ED
:1010000005F02CFDC0B270BDEE7CFF3E10B512485D
:101010000C460A2101F079F8210A0F48FFF7F2FE89
:1010200021460D48FFF7EEFE0B48002100F094FF2B
:1010300008B1002010BD08480A21022201F060F822
:101040000128F6D9044800F033FE0402024800F0FB
:101050002FFE204310BD00BF84D4FF1FF8B51C46EF
:10106000174606460D46FFF7D1FF20EA040040EA86
:101070000704294630462246FFF7CAFE002814BF5F
:1010800020460020F8BD1F2908B50A4603D80C29C0
:1010900098BF0D2200E01F222E2142EA022241F6D3
:1010A0001F73FFF7DBFF80B208BD08B50E210022D9
:1010B0000323FFF7D3FF80B208BD70B50D460E21A4
:1010C0000446FFF7A3FF002100F00C06284605F0B8
:1010D000BBFC50B90C2E0FD02846002105F0B4FC03
:1010E000002814BF00220C2201E02EB1002220466D
:1010F0000E210C23FFF7B2FF29462046C022FFF73E
:1011000069FFC0F1FC021021204642EA02224FF69C
:10111000FF73FFF7A3FF80B270BDFFFF002AF0B599
:101120000CBF4FF064524FF0605200240F4E104F2E
:10113000A65B104D97FBF6F6B14255F8145004D358
:10114000190706D542F0806203E002342E2CEDD15F
:10115000F6E75B0707D525F4704305F4704542F0C8
:10116000007243EA15152A430260F0BD706E00005C
:10117000006CDC02A06E000010B50446FFF7CEFF45
:10118000204610BD10B5044603F0C8FF204610BD30
:1011900002480349034A05F081BC00BFECD3FF1F9E
:1011A0008511000060BDFF1F02480349034A05F096
:1011B00075BC00BFF4D3FF1F8511000060BDFF1F89
:1011C00010B500F58072036831FB03F431FB13F3B3
:1011D00004F30F0403F30F03C4EA034340F8043B92
:1011E0009042F0D110BDB2F5803F70B54FF00003D2
:1011F00010D1C258CC5892FA14F2C250CD18C2186D
:101200006D68546894FA15F40833B3F5807F546020
:10121000EFD170BDCC5832FB04F632FB14F406F368
:101220000F0604F30F04C6EA0444C55894FA15F5F2
:10123000C5500433B3F5807FECD170BD2DE9F0418A
:101240000025064607462C46304629465CB903F081
:101250008AFE0446A0B1B969B1F5803F10D00430D0
:10126000FFF7AEFF0CE003F071FE804640B1201D99
:1012700008F10401BA69FFF7B6FF404603F032FEF9
:101280000135042D07F10407DED14CB1304621466B
:10129000002203F047FE2046BDE8F04103F022BEE5
:1012A000BDE8F08102480349034A05F0F7BB00BFDF
:1012B000FCD3FF1F8511000060BDFF1FF8B52E4B4A
:1012C0002E4D1A68197912682D4BAA42197007D24F
:1012D0002C4B1B783BB12C4B4FF080421A6002E044
:1012E000A5F5807402E02C4605F58075274B18683B
:1012F0001F46C0B1264B1A8800EB4201043131F879
:10130000026B24F8046BAC42F9D340327F2A01D837
:101310001A800DE000261E8003F0E4FD1D4B1A68C4
:101320003A601E6004E0002324F8043BAC42FAD388
:10133000194B1868FE3C1E46C0B1184B1A8800EBCA
:101340004201043131F8027B24F8047BAC42F9D32A
:1013500040327F2A01D81A80F8BD00241C8003F097
:10136000C1FD0F4B1A6832601C60F8BD002324F8E1
:10137000043BAC42FAD3F8BD08D4FF1FC8B5FF1F29
:101380001F80004020D4FF1F08E200E018D4FF1F98
:1013900004D4FF1F24D4FF1F10D4FF1F14D4FF1F39
:1013A0001CD4FF1F70B50021064603F0CFFD034695
:1013B000A8B172B6194C206818B92360184B188070
:1013C00003E018490D6815B90B6062B607E00B60C1
:1013D000134B25600021198062B603F083FD30466F
:1013E000012103F0B3FD0346B8B172B60E49086897
:1013F00018B90B600D4B188003E00D4A146814B93E
:10140000136062B670BD1360084B0C6000221A8036
:1014100062B6BDE8704003F065BD70BD18D4FF1F13
:1014200004D4FF1F24D4FF1F10D4FF1F14D4FF1FA8
:101430001CD4FF1F234B1A6842F4004230B51A60D7
:10144000214A116841F0020111601A6842F002025B
:101450001A601E4B1B68002B33DB1D4B1B68002BD7
:101460002FDB1C4B1C4D4FF086421A60002441F2CA
:1014700010025A6043F8A04CA03B0120174A43F8E1
:101480005C0C4FF4803143F8582C154A43F8541C37
:1014900043F8502C134B2B60C5F8CC40124C206005
:1014A0001248134C0460416012490A60124A1360EA
:1014B00002F5DF3202F5BA724FF4C0631360536075
:1014C000136130BD3C8004404080044000F0024085
:1014D00080F0024000F1024014F0024003000007D7
:1014E0001B0F0100000F0F0F84F0024088F0024034
:1014F0000300004790F0024094F0024070B52F4D79
:101500000121284603F0B6FD2D4B00241C602D4B15
:101510001C60FFF78FFF2C4B4FF4C0621A602B68E2
:101520001A682A4A1A6002221A711A726FF00102AE
:101530005A734FF0FF329A73DA731A69244A1A61A8
:10154000DA8A5C714FF48072DA82D98BDA839A8BF3
:101550005C72012606229A839E71DE719C72DC7297
:101560001C731C755C751C765C769C76DC762B791E
:1015700003F1804303F504338F221C701A7003F0CB
:101580002BFD144B2A791870134B14481A70144A07
:10159000136843F01243334313602A79114B02F16D
:1015A000100143F8210053119B0003F1604303F540
:1015B000614302F01F0296401E6070BD08D4FF1FF9
:1015C00018D4FF1F10D4FF1F04B00440C8B4FF1F7D
:1015D00020F0024020D4FF1F1B800040BD120000FD
:1015E00000F0024000B8FF1F02480349034A05F01B
:1015F00055BA00BF08D4FF1F8511000060BDFF1F52
:1016000002480349034A05F049BA00BF28D4FF1F26
:101610008511000060BDFF1F38B50C23002504466E
:1016200080F86B3280F86C320565C06D10B103F044
:1016300059FCE565206E18B103F054FC00232366C5
:1016400038BDFFFF38B5044672B690F86B320C2BEC
:101650001BD00023C06D256EE36523660C2384F840
:101660006B3262B608B103F03DFC15B1284603F0B9
:1016700039FC04F1180000F091FE074A138833B1D9
:10168000013B9BB2138013B138BD62B638BD5E20FA
:10169000BDE8384000F0B2BD30D4FF1F30B589B08E
:1016A00004460D46FFF7CEFF5E2000F08DFD1F4B78
:1016B0001A8801321A8072B61D492A4601236846EB
:1016C00000F01CFF9DF804302377029B23629DF8F5
:1016D0000C3084F8243004F125020DF10D030DF1D6
:1016E000190153F8040B42F8040B8B42F9D11B7813
:1016F0001370079B6363684600F026FE62B604F130
:10170000180000F057FE70B100230C22A4F86832D4
:10171000A4F8663284F86C2284F86A321422082312
:10172000226584F86B3209B030BD00BF30D4FF1F92
:10173000B8D4FF1F816B8BB2012B29D1C36B4AF642
:101740004442934209D045F22262934208D042F6C5
:10175000113293421CD10F4A03E00F4A002301E0EB
:101760000E4A0423090C012904D0022910D1520881
:1017700043F00103B0F84610082904D0102907D11E
:10178000520843F00203826580F86C3201207047F2
:101790000020704734EE35178D7BCD051AF79A0B74
:1017A0002DE9F041B0F86652054404460E46663510
:1017B000002E00F07F8194F86B320C2B00F27581C3
:1017C000DFE813F078017801CD000D017801780190
:1017D000780178010D004E007B00B4007801276D80
:1017E00094F86A32BE4238BF374604F138001844D4
:1017F00029463A4601F0C2FF94F86A323B4484F825
:101800006A32B4F866323B44A4F86632236DDB1BBF
:101810002365002B40F04E81A26BA8498A4240F01C
:101820004481226CA1F57001A1F2FB718A4240F063
:101830003C8101F15B41626C01F5F11101F60F4150
:101840008A4240F03281A26CA2F11001082900F214
:101850002C8184F86A323D44F61B226509237BE023
:10186000276D94F86A32BE4238BF374604F138001B
:10187000184429463A4601F081FF94F86A323B4405
:1018800084F86A32B4F866323B44A4F86632236DB9
:10189000C7EB0308C4F85080B8F1000F40F00A818C
:1018A0002046FFF747FF002800F0FF8008233D4453
:1018B000F61B236584F86A824DE0276D94F86A323E
:1018C000BE4238BF374604F13800184429463A462C
:1018D00001F054FF94F86A323B4484F86A32B4F859
:1018E00066323B44A4F86632236DDB1B2365002B74
:1018F00040F0E080E26B22657149A26B8A423D4470
:10190000C7EB060610D184F86D3294F86C3284F877
:101910006B32DB0702D4236D636549E703F09CFA61
:1019200020660028F7D1C5E00B2315E0236DB4F83D
:1019300066229E4205D29B1B16442365A4F866626C
:10194000B8E01D44F61A1344A4F866320823236550
:10195000002384F86A320A2384F86B3228E7236D67
:10196000E16D9E4234BF37461F46DE1B26650235B9
:10197000B4F8642015F8020C15F801CC531C9BB286
:1019800001EB420240EA0C207F2BA4F86430A7F15F
:10199000020790801DD92046002203F0C3FA20469A
:1019A000E16D012203F0BEFAE06D03F09BFA002323
:1019B000266DE365206E04F166033E44ED1A26654C
:1019C000A4F8665208B103F08DFA236D002B5FD0A6
:1019D00061E00235002FCBD1002E6BD163E0236D87
:1019E0009E4228BF1E469B1B236594F86D3233B37D
:1019F000E36DB4F8642003EB4202A36B93802B46A3
:101A000008E0E06DAB1CB4F8645000EB450042EA1E
:101A100001228280B4F86420216E5F781D46531C39
:101A200015F8020B9BB201EB42027F2B40EA072123
:101A3000A4F86430A6F1020691800DD876B3023E78
:101A40002A786978DDD1236D6BB342EA0122022343
:101A5000A26384F86D322DE0E16D0022204603F090
:101A600061FA0027E06D03F03DFA2046216EE7653C
:101A7000012203F057FA206E03F034FA236D276633
:101A80001E4404F16603ED1A2665A4F8665216B9E1
:101A90000C2384F86B320120BDE8F081236D13B173
:101AA00084F86D6206E00C2302E00C2384F86C32AB
:101AB00084F86B320020BDE8F08100BF52494646F1
:101AC0006461746190F86B0207288CBF00200120CC
:101AD0007047FFFF38B590F86B320C2B044600F0CE
:101AE000A18003F0B9F9E065002800F09B8094F82C
:101AF0006B32072B0AD8DA0708D503F0ADF9206658
:101B000030B9E06DBDE8384003F0ECB9002323663E
:101B10000023A4F86430B4F86812B4F86632C91A25
:101B2000002906DC94F86B320C2B04F1180506D161
:101B300020E02046FFF734FE0028F3D038BD2846C9
:101B400000F019FCB0B104F1660128464FF40072B0
:101B500000F000FC81B2A4F8681259B10023A4F887
:101B600066322046FFF71CFE94F86B32002852D0F4
:101B70000C2B57D1284600F011FC2B4A1388002B60
:101B80004CD0013B9BB21380002B47D00C2384F830
:101B90006C3284F86B32E16D11B3B4F86430D3B1B8
:101BA000B4F864307F2B07D85A1C01EB4303A4F828
:101BB000642000229A80F3E72046002203F0B2F965
:101BC00094F86B32072B06D8DB0704D42046E16D6E
:101BD000012203F0A7F9E06D03F084F90023E36527
:101BE000216EF9B1B4F864307BB1B4F864307F2B66
:101BF00007D85A1C01EB4303A4F8642000229A8002
:101C0000F3E72046012203F08DF9206E03F06AF914
:101C10000023236638BD0C2BBDD1ABE75E2000F05E
:101C2000EDFAB3E738BD00BF30D4FF1F044BD878BE
:101C3000044B1A68C0B2904218BF1860704700BFCA
:101C40000060064068BDFF1F08B5FFF7EFFF830780
:101C5000FBD5024B0222DA7008BD00BF00600640CF
:101C6000094B1B7813B9094B1B782BB1084A137821
:101C7000202B03D90123037100207047581C1070DA
:101C8000044A0120D154704796D4FF1F59D4FF1F36
:101C900097D4FF1F38D4FF1F7047FFFF024B1878FF
:101CA000024B1B78C01A704795D4FF1F94D4FF1FB6
:101CB000064A074913780978994204D9591C1170CA
:101CC000044AD05C70474FF0FF30704794D4FF1F38
:101CD00095D4FF1F5AD4FF1F054B064A1B78127874
:101CE0009A4286BF044AD05C4FF0FF30704700BF75
:101CF00094D4FF1F95D4FF1F5AD4FF1F70B50E4B0D
:101D00001B78144613B90D4B1B7893B10C4A157808
:101D1000C5F121039C42164602D9012202711C46DC
:101D2000084822462844254401F028FD3570204605
:101D300070BD184670BD00BF96D4FF1F59D4FF1F59
:101D400097D4FF1F38D4FF1F10B5114BDB7803F079
:101D5000200303F0FF045BB9122002F015F90D4BCC
:101D60001B68A3B10C4A14700C4A1078984710BD38
:101D70000B4A13780133DBB2012B137002D8094BE5
:101D80001B7823B91220BDE8104002F0FDB810BD49
:101D90000060064034D4FF1F94D4FF1F95D4FF1F6A
:101DA00080D4FF1F59D4FF1F002202714FF47A71B3
:101DB0000273024A81600260704700BF586E0000E3
:101DC0000C4B00221A700C4B196841F0400119604D
:101DD0000A4B0B499A704FF419720A6041F8042CAF
:101DE00027225A7004229A7120225A7180229A70F6
:101DF000704700BF59D4FF1F348004400060064084
:101E00000CA0044010B50C466400FFF7D9FF064B48
:101E1000064AE4B201211C701170C0229A70044B72
:101E20004FF080721A6010BD0060064059D4FF1F49
:101E300000E100E010B53649CB78DBB213F0100FAB
:101E400003F0400201D12AB92CE01020C870002A0A
:101E5000F9D110BD03F0040303F0FF012D4AC3B113
:101E6000002313702C4A13702C4B1B68144603B1CB
:101E7000984723782A4A1BB9274913700120087014
:101E8000234BD021997012781A71264B01221A70B7
:101E900039E001231370244B19701D4BC0229A7036
:101EA0001B7930E01A4CA27802F0100202F0FF0118
:101EB000AAB113F001030ED11A4917480A78007825
:101EC000904203D9531C0B70154B9B5C2371104B34
:101ED000D0229A7017E0C023A370237913E0134B2C
:101EE000032219701220124902F008F80E4A2179D3
:101EF00013781F2BC9B206D80648007818B1581CB1
:101F000010700C4AD154024B0222DA7010BD00BF8F
:101F10000060064032D4FF1F97D4FF1F7CD4FF1F00
:101F200038D4FF1F98D4FF1F95D4FF1F80D4FF1F04
:101F3000491D00005AD4FF1F044B054A490019707F
:101F400001231370034A1370704700BF38D4FF1F7A
:101F500096D4FF1F97D4FF1FF8B52B4B1222DA70CF
:101F60009A7892060F4601D5B42218E0274B1C68D8
:101F70001D46FFF75BFE00F0200000F0FF0350B1AC
:101F80002B681B1B0F2BF4D91F4B00229A70802249
:101F90009A700420F8BD1E4A13701B4BB0229A7031
:101FA000FFF744FE8306FBD500251A4B1B78ECB2E5
:101FB000A3421FD9184B1A5D134B1A71FFF736FE57
:101FC000860701D48006F9D40F4E0223F370FFF781
:101FD0002DFEC10601D4820603D48023B3700420F1
:101FE00009E0C30705F10105DFD5002C0CBF022075
:101FF000032001E0002017B1034B80229A70074BA9
:1020000000221A70F8BD00BF00600640BCD7FF1F59
:1020100059D4FF1F97D4FF1F38D4FF1F96D4FF1F3A
:102020002DE9F8431446304A1F46002313702F4A07
:1020300013702F4B0D461221D970997811F0200F93
:10204000904601D0B4220BE0FFF7F0FD00F0200035
:1020500000F0FF020028F7D1264B1A70244BB02263
:102060009A706B0043F00103214DDBB22B71FFF737
:10207000EBFDFFF7DBFD10F0110004D08023AB7007
:102080000020BDE8F88334B9002F0CBFA0238023C3
:10209000AB70BDE8F883012C0CBFA823A023AB7064
:1020A0002B79DFF858902646012E114D0BD0013EBA
:1020B000FFF7CAFDF6B2012E04BFA823AB702B793F
:1020C00009F8013FF0E7FFF7BFFD661EB023AB70D4
:1020D000F6B2094B2A799A550FB18023AB7088F874
:1020E00000402046BDE8F88394D4FF1F95D4FF1F1D
:1020F0000060064059D4FF1F5AD4FF1F59D4FF1F58
:10210000C9B2D2B20123FFF78BBFC9B2FFF714BF28
:102110000121FFF721BFFFFF014B1960704700BF8E
:1021200034D4FF1F014B1960704700BF7CD4FF1FE0
:102130000148FFF739BE00BF84D4FF1F164B1A6851
:1021400042F480521A60154B154A1A60154ADA603B
:1021500002F180421A61144A1A60144B1B78DA07A4
:1021600055BF134A134A4FF410714FF4007113F026
:10217000020F11600CBF104910495B074FF4007249
:1021800054BF0F4B0F4B0A6054BF4FF410724FF403
:1021900000721A60704700BF3C80044000C00240DB
:1021A00001401F000110003800001F8002D9FF1FEE
:1021B00018B0044008C004401CB004400CC00440E7
:1021C00014B0044004C004405E2830B510D8094A59
:1021D00043091478012101FA03F52C431470064ACF
:1021E00000F01F0052F8234081400C4342F8234086
:1021F00030BD00BFB4D4FF1F9CD4FF1F5E2810B5B4
:1022000014D843090A4A00F01F0052F82340012164
:1022100001FA00F024EA000042F8230030B9054A30
:10222000107801FA03F320EA0303137010BD00BF16
:102230009CD4FF1FB4D4FF1F13B502AB026803F890
:10224000011D546819460122A04702B010BD38B5DF
:10225000C369044600251BB901220271184638BD26
:102260001D7192B2C06900F0C1FFE269137913B128
:1022700001232371284638BDC06908B100F062BE51
:10228000704707B501220DF1070100F087FD012815
:102290000CBF9DF807004FF6FF7000B203B05DF869
:1022A00004FBC06908B510B1FFF7EBFF08BD4FF0A4
:1022B000FF3008BD38B50546C06950B1FFF7E1FFF2
:1022C000431C044604D0E869C168013900F00AFEE5
:1022D000204638BDF8B504464FF47A730020A36059
:1022E000114B20712073236024200D46174604F003
:1022F00011FCE061A8B12B4603F1200205461868E5
:1023000059682E4603C6083393423546F7D11868FC
:102310003060394604F10D000C2204F0F2FC002379
:1023200063762046F8BD00BF086F00004FF47A7155
:10233000002281600349027102730160C26142732D
:10234000704700BF086F0000014B0360704700BF7B
:10235000086F0000C06908B508B100F01FFD08BD96
:10236000C3690BB1D86870474FF0FF307047C06940
:1023700000B18069704738B5C369044663B1FFF79F
:10238000F6FF05462046FFF7EBFF47F6FF73281AD6
:10239000984228BF184638BD184638BD10B50446C7
:1023A000C06930B100F0FAFDE06904F0BBFB002326
:1023B000E36110BDC06918B18079003018BF0120F9
:1023C000704738B50A460121044600F067FA08B99B
:1023D000002038BD04F1100501222846214601F0F5
:1023E00055F9024640B104F13800294600F0AEFC30
:1023F000003018BF012038BD2846214601F046F9BB
:102400000028E5D0EFE7FFFF0A7902710A4A02606F
:102410004A7942718A7982718A688260CA68C26028
:102420000A6902610A7D02758A698261CA69C261AC
:102430000A6A0262704700BF406F00002DE9F04F4A
:1024400097B005460020DFF8B0808DF814008DF8B5
:1024500016008DF838008DF83A00103104A8914626
:102460009A46CDF81080CDF8348000F06FFC4C46D1
:102470000DAF04AEC34620462F2104F025FC70B3F7
:1024800023782F2B01D10134F5E7C4EB00085FFA64
:1024900088F8B8F10C0F28BF4FF00C0821464246CF
:1024A000684604F02EFC16AB43440022384603F87D
:1024B000582C00F073FD384631466A46012300F07F
:1024C0000DFE20B92871C5F800B0A8710FE03046A4
:1024D00000F064FD334644443E461F46CBE7C9EB5B
:1024E0000404CAF8004028463146FFF78DFF28460D
:1024F00017B0BDE8F08F00BF406F0000F0B59DB091
:1025000004461E4601A86B461746FFF797FF009B3F
:10251000FD18FB5C3BB901A913A8FFF775FF204626
:1025200013A9174A26E000238DF82C308DF82E30A1
:102530009DF80A30134A0A921BB92046FFF7F6FEAF
:102540001AE00AA801A92A46334600F0C7FD002870
:10255000F3D001A800F022FD16F0060F03D00AA860
:10256000109900F0BFFC0AA913A8FFF74DFF204601
:1025700013A92A46FFF7AEFE20461DB0F0BD00BFEE
:10258000206F0000406F0000084B022100221961FB
:1025900007495A719A719A721A7383F8302083F836
:1025A0003C20996383F83E20704700BFB8D4FF1FDA
:1025B000406F0000084B1A6842F480621A604FF0C6
:1025C0000042DA62FF225A63DA6A002AFCDA024B1E
:1025D000986BC0B2704700BF00C00240174B184A4A
:1025E00010B51A60C307044602D5FFF7E3FF013CAC
:1025F000052C94BF6308032300229A4204DA0F4992
:10260000104848630132F8E723EAE372A4EB42047E
:1026100084B10A4AD16A11F0F00FFAD00949516326
:10262000926B023CF4E7054AD16A11F0F00FFAD040
:10263000926B013B002BF6D110BD00BF00C00240E1
:1026400000041F80FFFF0090064B1A6842F480626E
:102650001A604FF00042DA625863DA6A002AFCDA44
:10266000704700BF00C0024013B5114C052813D8B5
:10267000DFE800F0030306090C0F01A80D490DE087
:1026800001A80D490AE001A80C4907E001A80C497E
:1026900004E001A80B4901E00B4901A80122002335
:1026A000FEF76AFD019B2360FFF748FD02B010BDF5
:1026B00018D5FF1F00366E0100127A0000093D0098
:1026C000C0C62D0080841E00801A060010B5184B6D
:1026D0001A7802B372B61B78D90707D5154A16497E
:1026E000146809682140154C216011609A0707D5CC
:1026F000134A1149146849682140104C6160116007
:102700005B0707D50F4B0C4A196892680A400B49C2
:102710008A601A6062B60C4BDA68824207D00B4AB4
:102720001A60D8600A4A40F0804018611A6010BDF3
:10273000B4D4FF1F80E100E09CD4FF1FA8D4FF1F8A
:1027400084E100E088E100E000C0024001401F0099
:1027500000001F800A4B1B788BB1D90703D5094AAB
:102760001168094A11609A0703D5064A5168074A59
:1027700011605B0703D5034B9A68054B1A607047DD
:10278000B4D4FF1FA8D4FF1F00E100E004E100E083
:1027900008E100E008B50121007901F029FC044BB3
:1027A0001A781AB100221A70FFF7D4FF08BD00BFD3
:1027B0001CD5FF1F10B5084B1A7804462AB9012210
:1027C0001A70064B1868FFF781FF20790021BDE8D9
:1027D000104001F00DBC00BF1CD5FF1F18D5FF1F16
:1027E00010B5837904468BB1008940F201239842E9
:1027F00007D8C0F500700230FFF7F0FE40F2022368
:1028000023812046FFF7C6FF0023A37110BDFFFF01
:10281000094B70B51C680E461D46FFF7CBFEFF281E
:1028200007D02B68A2B29BB29B1AB342F5DB002003
:1028300070BD012070BD00BFBCD7FF1FF8B50546B5
:102840000E461746FFF7CCFF2846FFF7B3FF4FF4BD
:1028500096712846FFF7DCFF46F04000FFF7F4FED4
:10286000182427FA04F0C0B2083CFFF7EDFE14F17B
:10287000080FF6D126B1082E0CBF8720FF2000E0FC
:102880009520FFF7E1FE0024FFF794FE0306E872AF
:1028900003D50134B4F5807FF6D1F8BD2DE9F843B6
:1028A000002304464C4F037383728371437102719A
:1028B0008846104601213E6801F09AFB20790121EB
:1028C00001F0B6FB0121207901F092FB434B1A681D
:1028D00042F480521A600620FFF7C6FE404B18688B
:1028E000FFF7F4FEB6B20A25FF20013DFFF7ACFE6C
:1028F00015F0FF05F8D1FFF72DFF2046FFF75AFF2F
:10290000002120460A46FFF799FF01280546E0729C
:1029100007D03B689B1B9BB2B3F5FA6FF0D901233C
:102920003DE0204608214FF4D572FFF787FF4307AB
:1029300001D525730EE04FF00409FFF73BFE09F1C6
:10294000FF3919F0FF09E072F7D1AA284FF002030E
:1029500025D12373237B022B14BF4FF000094FF0C6
:102960008049372100222046FFF768FF4A4620466B
:102970002921FFF763FF0246E07238B13B689B1BD9
:102980009BB2B3F5FA6FECD9082308E0237B022B46
:1029900019D120463A21FFF751FF30B10623637168
:1029A0002046FFF7F7FE002513E0FFF703FE00F0D7
:1029B000C000C02804BF03232373FFF7FBFDFFF70C
:1029C000F9FDFFF7F7FD2046FFF7E4FE4046FFF76D
:1029D0004BFE2846BDE8F883BCD7FF1F3C8004406F
:1029E00018D5FF1F0E4B70B51D6804461E46FFF735
:1029F000E1FDFF28E07208D13368AAB29BB29B1AAE
:102A0000B3F5967FF3DD0F2302E0FE2806D00D23F9
:102A100020466371FFF7BEFE002070BD012070BD2F
:102A2000BCD7FF1F2DE9F041069E04460F46904695
:102A30001D46002B6DD01344B3F5007F6CDC837909
:102A40002BB10368994202D10389934216D9237BA3
:102A50002760032B18BF7F023A4620461121FFF75B
:102A6000EDFE074610B10323637155E02046FFF7E2
:102A7000B9FF002850D001232781A3714046FFF7FA
:102A8000ADFD284A28491160EA072B4605D5FFF716
:102A900091FD771C30706B1E3E46052B94BF5A0883
:102AA00003220021914204DA1E48204F476301317E
:102AB000F8E7A3EB4203F018334683420DD21949DD
:102AC000CE6A16F0F00FFAD0184E4E63896B59702B
:102AD000C1F307261E700233EFE700EB4202934278
:102AE0000BD21049C86A10F0F00FFAD0896B5970F8
:102AF000C1F3072018700233F1E723891D44A37A3C
:102B0000ADB2258113B1B5F5007F02D32046FFF7A2
:102B100067FE0120BDE8F0812046FFF73BFE002064
:102B2000BDE8F08100C0024000041F80FFFF00905C
:102B300007B54FF4007300920022FFF773FF03B054
:102B40005DF804FB224B70B50446186840F48060C1
:102B500018604FF00040D862596300211C4BD86ABE
:102B600000281E46FADA1D68505C45F480651D6039
:102B70004FF00045DD625863F06A154B0028FBDA20
:102B80001D68501845F48065023140781D60B1F52C
:102B9000007F4FF00045DD625863DFD10C4BDB6AEC
:102BA000002BFBDAFF20FFF74FFDFF20FFF74CFD66
:102BB000FFF700FDE07200F01F00052806D011238A
:102BC00020466371FFF7E6FD002070BD012070BD57
:102BD00000C0024070B50B460446164609B91223E0
:102BE00023E0027B032A18BF4B021A461821FFF785
:102BF00025FE054608B1042317E02046FE21324693
:102C0000FFF7A0FF90B120464FF41671FFF700FECA
:102C100008B9152309E020460D212A46FFF70EFECC
:102C200010B9FFF7C7FC30B1142363712046FFF7DA
:102C3000B1FD002070BD2046FFF7ACFD012070BD46
:102C4000014B024A1A60704718D5FF1F0110013866
:102C500010B504460121006A04F1080200F098FC56
:102C600040B1E3692BB9A368E361637963F07F0343
:102C70006371012010BD70B50446FFF7E9FF08B984
:102C8000002070BD236AA268197C1D79961E5A69BE
:102C90008E40164445B1701E284400F0C7FB002842
:102CA000EED0013DEDB2F5E7236A1B7C4FF40072D4
:102CB0009A40A3691344A361012070BD10B5044676
:102CC000006900F08FFB18B1207D024B03EB401030
:102CD00010BD00BF2CD5FF1F70B500232022CA54A1
:102CE00001330B2BFAD1451E0022072415F8013FB2
:102CF00013B32E2B01D0144E06E00A2C21D008224B
:102D00000A24F3E798421CD016F8010F0028F9D1E5
:102D1000A24217D8A3F121065D2E13D8A3F16106B4
:102D2000192E02F1010098BF203B0A44C0B298BF9F
:102D3000DBB213700246D9E70878203818BF0120AB
:102D400070BD002070BD00BF216F000038B58279D2
:102D500004460D460AB1002038BD91F82030102BF2
:102D600006D102238371C2614B8C5B0183610CE04D
:102D7000202BF0D103238371496AC16104F1180249
:102D8000284600F0A1FB0028E5D000230120607157
:102D900023752562A360E360236138BD2DE9F74305
:102DA000837904460E46904613B94FF6FF780DE03E
:102DB0004379DA07F9D58269C368D31A984501D9EE
:102DC0001FFA83F8474637B91FFA88F80FFA88F0D8
:102DD00003B0BDE8F083A279E368206A022AC3F356
:102DE00008094FEA532202D1416A11441AE00579D9
:102DF000013D1540EDB2B9F1000F0BD155B913B932
:102E0000E369A36006E0A16804F1080200F02AFB70
:102E10000028CAD0236AA1681A7C5B6902399140F4
:102E200019442944C9F500756379AF42CCBFADB2EE
:102E30003D465B0602D4B5F5007F17D1154B1B68E4
:102E4000994213D0144B009618684A462B46FFF758
:102E5000E9FD0028A9D02E4402E0C9EB03094E4445
:102E6000E3687F1B2B44E360BFB2ACE70846002158
:102E700000F0B8FA002898D0084B994409EB0501F6
:102E80004B4632468B42E8D013F8010B02F8010B97
:102E9000F8E700BF6CBDFF1F28D5FF1F2CD5FF1F13
:102EA00037B58379012B044601D8002016E0C368AA
:102EB0000DF107010122C3F34315FFF76FFF01284E
:102EC0000CBF9DF807304FF6FF731BB20133ECD0F7
:102ED000E26803481F32E26000EB451003B030BDEA
:102EE0002CD5FF1F70B5044680790D4640B3A36909
:102EF000994201D9002070BD02281ED00DB9A560ED
:102F00001BE0236AE1681B7C4A1E0933681EDA4015
:102F100020FA03F3934200D311B9E269A26000E002
:102F20009B1A1E464EB1206AA16804F1080200F007
:102F300099FA013E0028F5D170BDE560012070BD11
:102F400070BDFFFF38B58379054613B390F905309E
:102F5000002B1ADA0121FFF7B1FE0446C8B1AB79A4
:102F6000012B9CBFAB69C361EB6943831B0C83825C
:102F7000094B1B682BB1183004F116019847238BBD
:102F800063826B7903F07F036B71BDE8384000F01A
:102F900003BA002038BD00BF20D5FF1F10B504467E
:102FA000FFF7D0FF10B10023A371012010BDFFFF78
:102FB000F7B58279012A04460D460FD1467906F00D
:102FC000020606F0FF03002E45D08369994205D81A
:102FD000002B3FD0E668FFF785FF08B900233AE0F1
:102FE000206A35B9E16900F02DFB0028F6D0E561D3
:102FF0001DE0A16801AA00F035FA0028EED0206A91
:10300000164B90F8207001994FF6F872102F08BFF8
:10301000134699420BD200F015FB0028DED0206A3F
:10302000A1686FF0704200F071FA0028D6D0637981
:10303000A56163F07F0363712046FFF783FF0028DB
:10304000CCD02046B54234BF29463146FFF74AFF6F
:10305000034600E01346184603B0F0BDF8FFFF0F2B
:1030600038B51C4B03EB41131546DA7A12F0110FF9
:10307000044604D015F0420F01D0002038BD164A96
:103080002175126822615A8B998A42EA0141E161F5
:10309000DA7A12F0180203D1DB69A361012309E097
:1030A000102AEAD1206A04F1180200F00DFA002873
:1030B000E3D00423A37105F00F03002163716B06B5
:1030C000A160E16004D52046BDE83840FFF770BF3D
:1030D000012038BD2CD5FF1F6CBDFF1F2DE9F0432B
:1030E000857985B006460C469846002D73D110466A
:1030F00001A9FFF7F1FD00286ED0236A33622F4645
:10310000A560E560E368A269934223D22046C3F339
:103110004319FFF7C5FE014600285DD002780AB1C9
:10312000E52A0AD127B92E4A86F81490126832612E
:103130000B780127002BE5D10CE001A80B2203F04E
:10314000F9FC0028DED108F03003302B44D03046A3
:1031500049463BE008F01203122B3DD137B130460F
:103160000121FFF7ABFD044648B935E0A379022BF6
:1031700032D02046FFF77FFD70B31A4C377500211F
:103180002022204601AF03F0E4FC03CF2060616001
:10319000BB783A88A372144B22811B682BB104F1CF
:1031A000100004F10E01984706E021222274A37357
:1031B000282208236274E373238A63822383E389CA
:1031C000E38200F0E9F838B1317D30464246FFF73E
:1031D00047FF054600E00025284605B0BDE8F0831E
:1031E0006CBDFF1F2CD5FF1F20D5FF1F2DE9F74F0A
:1031F0008379012B04460D4692460BD143799907FA
:1032000008D55B070AD5A169E3688B4206D0FFF7B2
:1032100069FE18B9012323710020A1E0564634E06D
:10322000206A90F804B00BF1FF3B0BEA532B1BF024
:10323000FF0BC3F308082CD0236AA268197C5B69D2
:10324000C8F50077BFB2A2F10209BE4238BF3746C7
:1032500009FA01F99944B7F5007FD9443AD1424BB4
:103260001A684A4504BF4FF0FF321A603F4B494687
:1032700018682A46FFF7AEFC0028CBD005F500758C
:10328000E368F61B1F44B6B2E760E368002EC7D1BF
:103290004BE0B8F1000FCFD1A16811B9E369BBB918
:1032A00010E001AA00F0DEF8002859D0226A019B44
:1032B00092F820002E4A4FF6F871102808BF0A46EF
:1032C000934205D32046FFF7C3FC0028B4D1A1E701
:1032D000A360B1E7B8F1000F10D1E268A3699A4288
:1032E0000CD300F059F8002894D01F4BC3F800907D
:1032F000204B1A7842F001021A7005E0484601217D
:1033000000F070F8002885D01B4B984408EB0701AB
:1033100043462A468B4204D012F8010B03F8010BF6
:10332000F8E7C8EB03084544AAE7A269934262792B
:1033300001D9A36105E0114B1B682BB1BAF1000F55
:1033400002D062F07F02627163791A0701D450469D
:1033500006E02046FFF7F6FD00283FF45BAFF6E7F6
:1033600003B0BDE8F08F00BF6CBDFF1F28D5FF1F65
:10337000F8FFFF0F2CD7FF1F2CD5FF1F20D5FF1FF5
:1033800007B502AB012203F8011D1946FFF72EFF16
:1033900003B05DF804FBFFFF70B50D4B1A781E46B5
:1033A0009AB10C4D0C4B286819680C4AFFF712FCB7
:1033B00060B10B4C216831B12868084AFFF70AFC5C
:1033C00020B10023236000233370012070BD00BFB3
:1033D0002CD7FF1F28D5FF1F6CBDFF1F2CD5FF1F4B
:1033E00024D5FF1F70B50D4D2B68834204460E4651
:1033F0000DD0FFF7D1FF08B9002070BD084B094A76
:1034000018682146FFF794FB0028F5D02C60064B86
:103410001A7816431E70012070BD00BF6CBDFF1FDF
:1034200028D5FF1F2CD5FF1F2CD7FF1F10B5044632
:10343000FFF7B2FF78B10023074A00219954013306
:10344000B3F5007FF8D1054B1C60054B1A7842F0AC
:1034500001021A70012010BD2CD5FF1F6CBDFF1F8B
:103460002CD7FF1FC3680133994270B505460C463F
:10347000164601D9002070BD95F82030C069102B88
:103480000CBF0B0ACB0918440D4B1B68984208D19E
:1034900095F82030102B0B4B09D1E4B233F81430DF
:1034A0000BE00021FFF79EFF0028F1D1E2E704F0D6
:1034B0007F0453F8243023F070433360012070BD43
:1034C0006CBDFF1F2CD5FF1F73B505460191164635
:1034D00000242846019901AAFFF7C4FF90B12B7C74
:1034E00095F820104FF4007202FA03F3064A1C44C8
:1034F0004FF6F873102908BF1A46019B9342E8D390
:103500003460012002B070BDF8FFFF0F0129F8B54B
:1035100004460D46174631D9C368013399422DD868
:1035200090F82030C669102B0CBF0B0ACB091E4443
:10353000134B1B689E4208D194F82030102B114B7E
:103540000AD1EDB223F815700AE030460021FFF7EA
:1035500049FF0028F0D1F8BD05F07F0543F825703C
:10356000094B1A7842F001021A70237E012B03D90D
:10357000A3681E44054B1E600120F8BD0020F8BD65
:103580006CBDFF1F2CD5FF1F2CD7FF1F24D5FF1F9D
:103590002DE9F74F156806468A4617461DB10135D5
:1035A0004FF0000905E04B1ED3F10009056859EB07
:1035B0000309F3682C4603F1010B4FF00008F36890
:1035C00098451DD25C4588BF02243046214601AA99
:1035D00088BF2546FFF746FF90B1019A631C0AB1E8
:1035E0001D4602E05A1B524503D008F101081C4653
:1035F000E5E7304621466FF07042FFF787FF58B984
:1036000000201CE004F1FF38304641462246FFF717
:103610007DFF0028F4D04446AC42F3D8396831B974
:103620003D60B9F1000F09D00135356006E0304644
:103630002A46FFF76BFF0028F2D1E1E7012003B033
:10364000BDE8F08F022337B505460C4603602846D7
:10365000214601AAFFF706FF90B128462146002225
:10366000FFF754FF60B195F82010074B019C4FF60F
:10367000F872102908BF13469C42E8D3012000E0ED
:10368000002003B030BD00BFF8FFFF0FF8B5394B85
:10369000044619601546CAB1042A01D90020F8BDB4
:1036A00000200146FFF79EFE0028F7D0324B03EBC7
:1036B000051505F5D475AA795306EFD1D5F8122072
:1036C000632AEBD9D5F80E50002DE7D0284600210B
:1036D000FFF788FE0028E1D0274BB3F80B20B2F5A6
:1036E000007FDBD11A7C002AD8D0D9890029D5D017
:1036F000597B0029D2D02276002221712274227CAB
:1037000001209040814204D0501C072A2074F6D931
:10371000C4E7D98A09B91849496ADE89A1602E44EB
:10372000E661B3F811001F7C6084400107FB016172
:1037300000F2FF10616201EB50216161B3F81300E8
:1037400008B90D48006A691A084420FA02F240F6E6
:10375000F4718A42E26001D80C2307E04FF6F4715D
:103760008A4285BFDB6A63621023202384F82030FD
:103770000120F8BD28D5FF1F2CD5FF1F844641EA44
:10378000000313F003036DD1403A41D351F8043BD9
:1037900040F8043B51F8043B40F8043B51F8043B2B
:1037A00040F8043B51F8043B40F8043B51F8043B1B
:1037B00040F8043B51F8043B40F8043B51F8043B0B
:1037C00040F8043B51F8043B40F8043B51F8043BFB
:1037D00040F8043B51F8043B40F8043B51F8043BEB
:1037E00040F8043B51F8043B40F8043B51F8043BDB
:1037F00040F8043B51F8043B40F8043B51F8043BCB
:1038000040F8043B51F8043B40F8043B403ABDD239
:10381000303211D351F8043B40F8043B51F8043BDB
:1038200040F8043B51F8043B40F8043B51F8043B9A
:1038300040F8043B103AEDD20C3205D351F8043B6A
:1038400040F8043B043AF9D2043208D0D2071CBF36
:1038500011F8013B00F8013B01D30B88038060465F
:10386000704700BF082A13D38B078DD010F00303D5
:103870008AD0C3F10403D21ADB071CBF11F8013B45
:1038800000F8013B80D331F8023B20F8023B7BE794
:10389000043AD9D3013A11F8013B00F8013BF9D2BF
:1038A0000B7803704B7843708B7883706046704759
:1038B000F0B5304B1B681B06FBD42F4B1B6813F075
:1038C0008002F6D172B62D4B1978002950D02C49C0
:1038D00008684F688E68CD680C69384414313044EC
:1038E0000968284420440844C0F34E00254940F4A8
:1038F00000400860C86A0F6B4E6B8D6BCC6B384410
:10390000403130440968284420440844C0F34E0044
:103910001D4940F40040086001F10811143151F8CC
:10392000140C51F8107C51F80C6C51F8085C51F8EB
:10393000044C096838443044284420440844C0F307
:103940004E00124940F400400860C86A0F6B4E6B8D
:103950008D6BCC6B38444031304409682844204496
:103960000844C0F34E000A4940F4004008601A7051
:1039700062B6F0BD24B0034024B00B402ED7FF1F29
:1039800038B003402CB0034030B003402CB00B40A3
:1039900030B00B4010B5204B2048214960221A70EE
:1039A000E1225A701F4B204A1C78204B082C01D171
:1039B000012402E00A2C03D139240460132005E01D
:1039C0000C2C0CBF35243D240460122008601460C8
:1039D0001860174B17491B78174A03B101230B6076
:1039E0001360164B164A1978164B012901D880210D
:1039F0000BE0042901D8842107E0082901D885219A
:103A000003E0102994BF86218721116019600E4BB5
:103A100001221A7010BD00BF0040074008B00340EB
:103A20000CB0034070BDFF1F08B00B400CB00B4042
:103A300031D7FF1F20B0034020B00B4071BDFF1FE6
:103A400024B0034024B00B402ED7FF1F0C2804D90C
:103A5000102828BF1020102307E00A2804D80928BE
:103A600034BF08230A2300E00C23094AD9B2081AFC
:103A70001070084A1078834208D0074B11701B78E9
:103A800013B1064B00221A60FFF784BF704700BFD6
:103A90002DD7FF1F70BDFF1F2ED7FF1F24B003407F
:103AA00010B5114B1B7804460BB1FFF701FF012C39
:103AB0000E4A01D8002302E0042C02D8042313602C
:103AC0000EE0082C03D805231360082308E0102C0F
:103AD00003D806231360102302E00723136020237A
:103AE000034A137010BD00BF2ED7FF1F24B0034040
:103AF00071BDFF1F0D2838B50FD9172801D80E3812
:103B00000AE0A0F11A03052B01D8093804E0A0F15E
:103B10002203062B47D81838C0B2244B1C5C244B18
:103B20001B780BB1FFF7C4FE210614D472B6214BEB
:103B3000214D1C6001232B7062B672B61D4B1B68B1
:103B40001A0601D51D4B1FE02B78002BEFD062B673
:103B500001F06CFCF1E772B6194B1A4D1A6814F0BB
:103B6000400F14BF22F0100242F010021A60164BF0
:103B700004F03F021A6001232B7062B672B6124B3A
:103B80001B681B0608D5114B186800232B7062B602
:103B90000F4B1B78184138BD2B78002BDCD062B658
:103BA00001F044FCEAE7002038BD00BF486F000088
:103BB0002ED7FF1F00B0034030D7FF1F10B00340C7
:103BC0000CB00B402FD7FF1F00B00B4010B00B40C4
:103BD0002DD7FF1F084B1A6842F480521A60074B1A
:103BE0001A78074B0AB1802200E0C0221A70054BF8
:103BF00080F30C00188070472C80044031D7FF1FE1
:103C000021C00C4000C00C40024B1A6801321A60FF
:103C1000704700BFBCD7FF1F08B50B4C2368580383
:103C200001D500F04FFC2368590501D501F028FEAD
:103C300023681A0501D502F073F82368DB04ECD57C
:103C400002F054FAE9E700BF3480044008B5FFF7FA
:103C5000E3FFFFFF014B10221A8070470020054050
:103C60007047FFFF024A13681844106018467047F7
:103C700074BDFF1FFEE7FFFFEFF313839BB9EFF364
:103C8000108098B9EFF3058323B10F2B04D9084AAC
:103C9000985C01E04FF48070EFF311833BB18342F5
:103CA00038BF184670474FF0FF30704718467047CE
:103CB000F0E300E01F4B10B51C681C60E00304D566
:103CC0001D4B1A680AB11B689847A10304D51A4B0B
:103CD0005A680AB15B689847E20704D5164B1A6C1C
:103CE0000AB11B6C9847A30704D5134B5A6C0AB151
:103CF0005B6C9847200704D50F4B9A6C0AB19B6CFC
:103D00009847610704D50C4BDA6C0AB1DB6C984715
:103D1000220304D5084B5A6E0AB15B6E98476303C1
:103D200006D5054BD3F8802012B1D3F880309847E0
:103D300010BD00BFA0A0044034D7FF1F2C4B10B50E
:103D40001C681C60200704D52A4B5A6A0AB15B6ABA
:103D50009847E10604D5274B9A6A0AB19B6A9847AF
:103D6000620604D5234BDA6A0AB1DB6A9847230658
:103D700004D5204B1A6B0AB11B6B9847A00604D5DB
:103D80001C4B5A6B0AB15B6B9847E10704D5194B82
:103D9000DA6B0AB1DB6B9847A20704D5154B9A6D15
:103DA0000AB19B6D9847630704D5124BDA6D0AB1CF
:103DB000DB6D9847A00504D50E4BDA6E0AB1DB6EB9
:103DC0009847E10504D50B4B1A6F0AB11B6F984752
:103DD000620504D5074B5A6F0AB15B6F98472305FC
:103DE00004D5044B9A6F0AB19B6F984710BD00BF72
:103DF000A0B0044034D7FF1F1E4B10B51C681C60D8
:103E0000E00704D51C4B9A680AB19B6898472106C5
:103E100004D5194B5A690AB15B699847E20604D583
:103E2000154B9A690AB19B699847630704D5124BF1
:103E3000DA690AB1DB699847200704D50E4B1A6A84
:103E40000AB11B6A9847A10704D50B4B9A6B0AB1BC
:103E50009B6B9847A20604D5074B1A6D0AB11B6DE0
:103E60009847630604D5044B5A6D0AB15B6D9847B9
:103E700010BD00BFA0C0044034D7FF1F114B10B5C8
:103E80001C681C60E00404D50F4BDA680AB1DB68DB
:103E90009847A10404D50C4B1A690AB11B699847CD
:103EA000A20604D5084B1A6E0AB11B6E9847E306AA
:103EB00006D5054BD3F8842012B1D3F88430984747
:103EC00010BD00BFA090044034D7FF1F094B10B5B0
:103ED0001C681C60A20704D5074B9A6E0AB19B6E42
:103EE0009847E30704D5044BDA6F0AB1DB6F9847B4
:103EF00010BD00BFA0D0044034D7FF1F212830B52B
:103F000031D8042A2FD8DFE802F00709050B030097
:103F10000B2306E00A2304E0082302E00C2300E060
:103F20000923114A114D02EBC0025468104AC2F82D
:103F30009C51104DC2F8A0510F4DC2F8A4510F4D25
:103F4000C2F8A8510E4DC2F8AC5172B622680D4DA0
:103F500022F47022226042F0807242EA034345F864
:103F60002010236062B630BD606F00007D3E00000F
:103F700000B8FF1FB53C00003D3D0000F93D0000CA
:103F8000CD3E000034D7FF1F094B03EBC0035A6836
:103F900072B6136823F0877323F4803343F0807381
:103FA0001360044B002243F8202062B6704700BF24
:103FB000606F000034D7FF1F044B054900221A60D0
:103FC0000A60044A106010221A60704714D003403F
:103FD00004D0034000D0034018B1102828BF10209F
:103FE00000E00120014B1870704700BF78BDFF1F33
:103FF000212810B518D80D4A52F8303093F8804275
:104000003CB1012211B183F8802010BD83F800215A
:1040100010BD02EBC00043681A6811B142F0030200
:1040200001E022F002021A6010BD00BF606F0000C4
:10403000212816D80B4A02EBC00301295B6852F80D
:10404000302004D182F880124FF4A27208E00020E0
:1040500082F8800211B94FF4807201E040F203123D
:104060001A607047606F0000282838B5604A04461F
:104070000B4611D112780B2A04D8C2F10C0201FAB6
:1040800002F304E00C2A1CBF0C3A41FA02F3184672
:10409000BDE83840FFF79EBD11780125002B05FAD9
:1040A00001F2D8BF002102DD934205D32946FFF774
:1040B0009FFF2046294697E00338C2B2012A01D863
:1040C0004C4A06E0202C01D0192C01D14A4A00E0CC
:1040D0004A4A126802FB0332CA401D287BD8DFE837
:1040E00000F0575F4E337A7A212A7A7A7A7A7A7A8E
:1040F0007A7A7A3C450F187A707A7A7A7A7A7A677D
:104100003F4B1A6003F5973340F2444203F5FA73CC
:104110005FE03C4B1A6003F5973340F2444203F5ED
:10412000F87356E0384B1A6003F5973340F2444277
:1041300003F5F6734DE0354B1A6003F5973340F203
:10414000444203F5F47344E0314B1A6003F59F33A6
:1041500040F2444203F5F0733BE02E4B1A6003F546
:104160009F3340F2444203F5EE7332E02A4B1A606B
:1041700003F59F3340F2444203F5EC7329E0274BEB
:104180001A6003F59F3340F2444203F5EA7320E0DE
:10419000234B1A6003F580334FF45172203318E03B
:1041A000204B1A6003F580334FF451721C3310E03A
:1041B0001D4B1A60A3F5DB234FF45172A3F5F9638D
:1041C00007E01A4B1A60A3F5DB234FF45172A3F2F8
:1041D000CC731A6038BD7F2B2046D4BF002101214B
:1041E000FFF706FF20460121BDE83840FFF720BF5A
:1041F00078BDFF1F0890034008800B4008800340F3
:104200001080034018800340208003402880034032
:1042100030800340388003404080034048800340A2
:10422000109003401890034010800B4018800B4002
:1042300072B60B4B0B491A680B4B1B68096862B6C8
:10424000490102D5322A88BF0133C2F5BB32602151
:10425000FF32B2FBF1F24FF47A7000FB032070479B
:1042600018E000E004ED00E0BCD7FF1F38B50446BD
:10427000FFF7DEFF054664B1FFF7DAFF401BB0F53C
:104280007A7F03D3013C04D005F57A7501F0CEF8AE
:10429000F2E738BD1F4B4FF4000210B51A604FF023
:1042A00080721A604FF000721A604FF080621A60DC
:1042B0004FF000621A60184B184A194C00204BF658
:1042C000FF71186059602823136093601361936134
:1042D00013629362136393630922226004F580548E
:1042E000043420606160A360236144F8042C04F569
:1042F000FE2420600B4801600B490B608B600B4B68
:104300001A60FFF747FB0420FFF7B0FFBDE810403D
:1043100000F0C8BB08E100E0048003400C800340CB
:104320000080034008800B400C800B4000800B4055
:10433000F0B50C4B0C4C1A7842F0020504EBC506A4
:1043400082F00102706009481A700678002E0CBFD6
:104350008827C82786F0010647EA0141067044F81D
:104360003510F0BD3CD8FF1F0080FF1FC4D8FF1FD1
:10437000431E052B10B510D872B6094A52F8230017
:1043800048B1416842F82310064A018832F81340C8
:10439000611A22F8131062B610BD002010BD00BFD4
:1043A00024D8FF1FCCDAFF1F013805280AD872B6BF
:1043B000054B53F82030002013B101305B68FBE758
:1043C00062B670470020704780D8FF1F10B572B6E4
:1043D0000123174A1A4412F8012C12071CD5990020
:1043E000144A52F831402CB902EB4313083058609C
:1043F000114B09E041F0010152F8314064B902EB80
:10440000C103083058600D4B42F831300C4B1A781C
:10441000013A1A7062B610BD0133072BD9D162B6CA
:10442000074B00221A70BDE8104000F099BB00BF96
:10443000987000000080FF1F88004000C800400006
:10444000BAD8FF1F431E052B30B532D8194A400198
:1044500040F01000104472B6174CE25C032A09D8F1
:10446000DFE802F0160218050830022213E00830D7
:10447000042210E01148124A50F8234014B940F8C1
:10448000231002E052F82300416042F823100FE0AD
:10449000032200E00522E25410F0080F01F10803A6
:1044A0000A8843600CBF8823C82343EA02430360A1
:1044B00062B630BD0080FF1FDCD7FF1F80D8FF1F12
:1044C00098D8FF1F2DE9F84FA74F3C78E4B214F0BD
:1044D000040F3D4619D0A54B1B78A3B1A44A11780F
:1044E00001F0FF0321B1013BDBB2137003B900BE41
:1044F000A04A117801F0FF0329B1013BDBB2137030
:104500000BB900F05FFC04233B7004F0080303F0D8
:10451000FF02002B00F05C82974B984C1A78D2B2C5
:1045200015094FEA920840F0D98154F8382004EB7D
:10453000C803C2F38302013A5B680C2A00F2CB8104
:10454000DFE812F085018501C901C901C901C9016E
:10455000C901C901A501C901C901C9010D00884DE1
:104560001A685B6887486B60874B44F838300123D2
:104570002A60DFF84082037092B240F2816000212D
:104580008242C8F800102161A16117D8B2F5D06F3E
:1045900080F01681B2F5817F00F0C78006D8802AAE
:1045A00000F0B280822A00F0B38021E140F20233B1
:1045B0009A4200F0C980B2F5A06F14E0B2F5106F16
:1045C00014D008D8B2F5086F40F01281674A6F4CDA
:1045D0001278227014E140F621139A4200F03481DF
:1045E00040F621239A4200F0078101E15F4B634EC0
:1045F000AA781A7006F1C009336A1B0603D5706ADF
:10460000083800F0ADFA08364E45F5D10026B1461F
:10461000DFF8A4A156F80A0028B1D0F804B000F0E1
:104620009FFA5846F8E74AF80600594BDFF88CA184
:10463000F05056F80A0028B1D0F804B000F090FA13
:104640005846F8E7534B4AF80600F050524B23F80F
:104650001900524B19F80320023A032A08D8DFE860
:1046600002F002040204002200E0012203F8092003
:1046700009F10109B9F1060F06F10406C8D1484B4A
:1046800000221A7001269A46464A474B3244334468
:1046900012F8012C9B0012F0080F1A704FEA8609DD
:1046A00025D000F03FFA38B104EB461308305860CB
:1046B0003E4B44F8393006E09AF8003044F83900AF
:1046C00001338AF8003000F02DFA49F0010338B1C7
:1046D00004EBC302083050602B4A44F8332006E054
:1046E00044F833009AF8003001338AF8003049F07A
:1046F0000202013649F003090023072E44F8323044
:1047000044F83930C0D178E0204C2170617076E0F7
:10471000AA88062A6CD81D4C217061709100244A29
:10472000525C96076BD5237069E0AA8802F07F037C
:10473000062B5DDC6B88002B5AD191001C4A0A4481
:10474000117821F002010DE0AA8802F07F03062B08
:104750004EDC6B88002B4BD19100154A0A4411782E
:1047600041F00201117048E080200740C3D8FF1FCC
:104770003DD8FF1FD4D8FF1F902007400080FF1FA7
:10478000B0D8FF1FC4D8FF1FC8004000BBD8FF1F10
:10479000C4D7FF1F98D8FF1FCCDAFF1FDCD7FF1F3D
:1047A000BAD8FF1F9870000030C801108800400080
:1047B000C0200740C0D7FF1F24D8FF1F80D8FF1F8D
:1047C0006A88A9889E4B53F8084CA3F10C007CB171
:1047D00033F80C6C964209D133F80A6C8E4205D13D
:1047E000120A032A0CBF2378038909E00C33EAE795
:1047F000944B0F221A7027E000231C4600E002238E
:10480000EE88B34238BF1E46402E34BF35464025A1
:1048100020462946FFF78CFD761B2C4403D1402D02
:1048200012D1354603E0402E34BF354640252046A0
:104830002946FFF77DFD761B2C4401D1402D03D185
:10484000814AC8F8004016800122804B42E0804A2D
:1048500080481168814216D151687F4A914212D135
:104860001A78A92A0FD15A78452A0CD19A78C22AE7
:1048700009D1DB786B2B06D1784B0020052201464D
:104880001A70FFF755FD764B44F8383023E0754E2B
:104890003568B5B1DFF8B081B8F80090B9F1400FD4
:1048A00034BF4C46402428462146FFF741FDC4EB67
:1048B00009039BB2A8F800300BB9402C00D12B198A
:1048C0003360634B1A88B2F5A06F04D100225A708E
:1048D0009A78654B1A7001225C4B6CE004EBC806B9
:1048E000013D736802F00802A3F10800EDB202F086
:1048F000FF01002A36D000F033F95C485C4B50F8D9
:104900002520EAB1516840F8251002F108017160D4
:10491000595D03290BD8DFE801F0020406080321E2
:1049200004E0022102E0052100E00421595516F0BF
:10493000080F12880CBF8823C82343EA024342E0D1
:104940005A5D032A07D8DFE802F040400204002243
:1049500006E0012204E016F0080F0CBF0222032239
:104960005A5532E054F83820120C23F8082C22B3A0
:10497000DFF82CE123F8061C43F8041C5EF8253010
:104980003C4913B94EF8250002E051F82530586033
:10499000394B41F8250033F815100A4423F8152047
:1049A00000F0C0F810B10830706006E0334B44F8F6
:1049B00038001A7801321A7007E0294B304A16F095
:1049C000080F08BF134644F8383008233B707BE5D6
:1049D000E0071FD51D492A482A4C02230B702A4B99
:1049E0001A702A4B186098602948D8601A619A6139
:1049F0005C60144B0D2018702648FF2303702B7049
:104A00000274254A1370254B9F221A7001230B70E4
:104A1000BDE8F88F210604D50A4B0D221A708023B9
:104A20002B70A20705D51B4B1A78D2B21A7002233D
:104A30002B70E30644BF10232B70BDE8F88F00BF36
:104A4000AC700000C0200740B8D8FF1F942007407A
:104A5000B0D8FF1F21090003010004003DD8FF1F4B
:104A6000C8004000C0D7FF1F9820074080D8FF1F14
:104A7000DCD7FF1FC4D7FF1FCCDAFF1FBAD8FF1F38
:104A800088004000E4D7FF1F3CD8FF1F0080FF1FB5
:104A900040D8FF1F882007408C2007408420074013
:104AA00024D8FF1F08B501F077FB00221A4B002124
:104AB000D15098180832C82A4160F7D1174A1068B7
:104AC00040F48020106002F528326832C3F30720DA
:104AD0001070C3F307401B0E10751376FF2302F806
:104AE0001C3C02F8143C02F88C3C012302F8083C00
:104AF00082F8641002F8183C094B70226FF4507170
:104B00001A700B444FF400721A6003F1C04303F5AE
:104B1000C82310221A7008BD0080FF1F3480044093
:104B200049E400E072B60C4A1168B1FA81F30B2B2C
:104B300002D962B6002070474FF00040D84021EA09
:104B40000001116062B6054948225343C81800228B
:104B5000CA504260704700BF7CBDFF1F00BAFF1FF4
:104B60000C4B4822C31AB3FBF2F30B2B11D80A4AA1
:104B7000127822B1094A12780AB1FFF727BC72B63F
:104B8000074A4FF0004121FA03F3116819431160FD
:104B900062B6704700BAFF1FBAD8FF1FC3D8FF1F05
:104BA0007CBDFF1F38B5124B1B78EBB1114C23684D
:104BB0001BB90220FFF7DCFB206020680D4D98B187
:104BC0004388C218147A5CB102880133934204D33B
:104BD000FFF7C6FF00232B6000E04380204638BD6E
:104BE000FFF7BEFF2C60DEE74FF0FF3038BD00BF9F
:104BF000C3D8FF1FD0D8FF1F10B50D4B1B788BB14A
:104C00000C4C23681BB90220FFF7B2FB2060206820
:104C100040B1438803441C7A3CB9FFF7A1FF054B20
:104C20001C60EAE74FF0FF3010BD204610BD00BF0A
:104C3000C3D8FF1FD0D8FF1F38B5104D2B6823B144
:104C400028680024028843880FE00D4B1B781BB1B5
:104C50000220FFF78DFB28602C68002CF0D10BE0C0
:104C6000C1182144097A19B10134E1189142F7DBE6
:104C700014B9FFF775FF2C60204638BDD0D8FF1F50
:104C8000C3D8FF1F2DE9F843324D012307460C46D8
:104C90002B70002C5AD0304E3368B1465BBB44F2C7
:104CA000D9582E4B1B7803F0FF020BB92A7018E07D
:104CB0000120FFF779FB052804D9B8F10108284A3B
:104CC00009D10AE001232B70FFF72CFFC9F800007F
:104CD0000028F2D00FE013783BB1012313700023BA
:104CE0002B704FF0FF30BDE8F8832B7000F09EFB77
:104CF00001232B70D5E73168194A488800231370C7
:104D0000C0F14002944238BF224600F1080C104422
:104D10008C444880A41A934204D0F85C0CF8030039
:104D20000133F8E71F444B883F2B0E4B02D8052276
:104D30001A70AEE740220A804FF00008012083F885
:104D40000080FFF77FFBC6F80080A2E72C702046AA
:104D5000BDE8F883C5D8FF1FC8D8FF1FC3D8FF1F01
:104D6000CCD8FF1FD4D8FF1F07B502AB012103F831
:104D7000010D1846FFF786FF03B05DF804FBFFFF47
:104D800010B50D4B1B78B3B10C4B19681C4691B193
:104D90004B8883B10A4A002010703F2B04DCCA18EC
:104DA000002010720133F8E740230B800120FFF749
:104DB00049FB0023236010BDC3D8FF1FC8D8FF1FC5
:104DC000D4D8FF1F10B50B4B1B788BB90A4A11685A
:104DD0004B8814463F2B04DCCA18002010720133A4
:104DE000F8E740230B800120FFF72CFB0023236012
:104DF00010BD00BFC5D8FF1FC8D8FF1F70B5C029A0
:104E000028BFC02172B6124B1860124B00221A60E4
:104E10005A609A60DA601A615A618A420BD054096A
:104E200002F01F050126AE4053F82450354343F8E5
:104E300024500132F1E700238B4206D04FF48272F6
:104E400002FB030253700133F6E762B670BD00BF88
:104E5000E0D8FF1FE8D8FF1F10B572B61D4A1068D2
:104E6000134660B9506858B9906858B9D06858B9B5
:104E7000106958B95069143248B962B610BD06E0DD
:104E8000043204E0083202E00C3200E01032B0FAE2
:104E900080F44FF00041E14020EA010010600E482C
:104EA00001780131C9B2017062B6D31A9B10C4EB0C
:104EB00043144FF482736343084A03F5FB531268AB
:104EC0001C330124D454D018054B1A788A4238BFB9
:104ED000197010BDE8D8FF1FE5D8FF1FE0D8FF1FED
:104EE000DCD8FF1F417872B60378012B02D9013B51
:104EF000037011E04A11094BC9434FF0004001F023
:104F00001F0120FA01F153F82200084343F8220060
:104F1000034B1A78013A1A7062B67047E8D8FF1F3F
:104F2000E5D8FF1F30B5C3687BB1187A90420AD12B
:104F300058685C7A006950F8245025B940F824106C
:104F4000087801300870DB68EEE730BD437A99429B
:104F500038BF02694FF000033ABF52F8210042F80F
:104F600021301846704738B5437A994201D3002062
:104F700038BD036953F82140002243F82120002C5A
:104F8000F5D02378012B0ED9FFF766FF054628B12F
:104F90000430211D4FF48072FEF7F0FB2378013BB3
:104FA0002370284638BD204638BD4368427A5B7A74
:104FB0009A420FD872B60268D3680BB9D06004E089
:104FC000D96809B10B46FBE7D86001231372426828
:104FD000137262B67047FFFF074B1A7852B9074A3F
:104FE000D0211170A2F256324FF0804101201160A1
:104FF0001870704700207047E4D8FF1F5EE400E09F
:10500000F8B5164B164D1A6842F080721A60154BAF
:105010001A6842F001021A60134B2E681C688CB1AA
:10502000237A6BB123682F681B68204698472A684B
:10503000E188D21B120993B28A42A38088BFE38021
:105040006469ECE72968094B891B09098AB21A804F
:10505000074B1888814288BF1A80F8BDFCED00E03C
:10506000041000E0001000E0D8D8FF1F00D9FF1F97
:10507000E6D8FF1F30B572B6254C09B9026812B9DF
:10508000218800230FE003790F2BF9D821881941DB
:10509000C907F5D503F1007303F59063B2EB431F25
:1050A000EED162B630BD41FA03F212F0010227D10F
:1050B00001259D402943218062B6164CD9B2017169
:1050C000256845F00205256054F8045C03F100737F
:1050D00045F0020544F8045C03F590630E4C5B0157
:1050E00082252560A176A1772176E17703601A6099
:1050F0005A609A60DA601A615A619A61DA6130BD69
:105100000133102BCFD162B600220260037130BD93
:1051100004D9FF1F408004400080004003790F2B1A
:1051200010D8094A137072B6084B0279012101FAAE
:1051300002F2198821EA02021A8062B61023037172
:1051400000230360704700BF1A80004004D9FF1F8E
:1051500008B5FBF705FCFBF745FC00F067F9FAE73B
:10516000F8B506460C468F180025BC4207D03368B8
:1051700014F8011B1B68304698470544F5E728469C
:10518000F8BDFFFF07B5064B1B88ADF80430036878
:1051900001A95B680222984703B05DF804FB00BFD9
:1051A0007070000070B505468AB022B90368C9B2B4
:1051B0001B6898472CE0012A08BF0A2221B9302237
:1051C0008DF82520212413E02124B1FBF2F002FB0D
:1051D0001011C9B209290AAE94BF303137312644C3
:1051E000C9B206F8241C014610B1013CE4B2ECE758
:1051F00033B1013CE4B20AAB23442D2203F8242C42
:105200002B6801A95B6828462144C4F12202984713
:105210000AB070BD0029BABF49422D2300230A22DB
:10522000FFF7C0BFFFF708BDFFF7BCBCFFF7E4BC4A
:10523000FFF7A6BD0846FFF797BD08461146FFF7E2
:1052400021BD7047044B00221A714FF47A711A7312
:10525000024A99601A60704708D9FF1F80700000E9
:105260000C4A0D48136811460C4A002B08BF134620
:1052700093FBF0F200FB12330948424344F2A710BB
:1052800000FB03200028BCBF00F1004000F1FF300C
:105290000860704718D9FF1F1DF3010024D95B0770
:1052A000ECF4FFFF10B5044630B1FFF7D9FFB0FBB7
:1052B000F4F303FB140010BD10BD884210B5044682
:1052C00004DA081AFFF7EEFF204410BD10BD10B538
:1052D0000446006801F026FC204610BD38B504469F
:1052E0000D460068013101F0D5FC10B184E82100C1
:1052F000012038BD43688B4210B5044606D2FFF743
:10530000EDFF20B1A3680BB922681370012010BD16
:10531000F8B504460F46154622B9036803B11A7062
:1053200000230BE01146FFF7E5FF064640B9206871
:1053300010B101F0F7FB266000236360A36004E076
:10534000A5602068394601F0CCFC2046F8BD8142BA
:105350000B4603D009689A68FFF7DABF704710B5AB
:10536000002304460360436083600373FFF7EFFF8D
:10537000204610BD38B505460C4641B1084601F03F
:10538000B8FC214602462846FFF7C2FF00E0A960AC
:10539000284638BD10B5002386B00446036043603C
:1053A00083600373084601A900F07EF8204601A936
:1053B000FFF7E0FF204606B010BD70B504460E466C
:1053C00085685AB115442946FFF794FF30B120682B
:1053D000A3683146184401F084FCA560204670BDE6
:1053E00038B505460C4639B1084601F082FC214625
:1053F00002462846FFF7E1FF284638BD38B50C467F
:105400009AB191B181688B4202D30023237038BDD9
:10541000C91A551E8D4228BF0D4601682A461944F7
:10542000204601F06EFC0023635538BD10B50E4CCC
:105430002378BBB901232370FFF7FEFB08B1FFF708
:1054400000FF00F0BDF908B100F040FF00F008FCDB
:1054500008B100F0ADFF00F0FDFD08B101F01AF851
:105460000023237010BD00BF1CD9FF1F10B50023FF
:10547000B0FBF2F402FB1400092894BF303037303F
:10548000C0B2C85420460CB10133F1E7CA185470B9
:1054900022469A4206DA885CCC5C8C54C8540132AD
:1054A000013BF6E7084610BD031E10B50C4603DBB2
:1054B000BDE81040FFF7DABF2D2001F8010B58427C
:1054C000FFF7D4FF204610BD194B1A6842F48062E2
:1054D0001A60184A00231370174A1370174A137082
:1054E000174A1370174A1370174B40F213321A60A1
:1054F0004FF451725A60154BC0F344321A70C0F326
:1055000047125A700221042200F01F0098729A700C
:10551000D9745A7588221A743C22DA700C4B4022D6
:105520006FF44A711A700B444FF400521A607047BE
:10553000348004409FD9FF1F1ED9FF1FA8D9FF1F29
:10554000A0D9FF1F1DD9FF1F40A0044000A00640A6
:105550002DE400E0134A937800F0030103F0EC031C
:105560000B43410748BF43F01003937000F00F0353
:10557000042B0C4903D18B7943F040038B71537991
:10558000C20603F0EF03074A48BF43F0100353710C
:105590009379810603F0EF0348BF43F01003937142
:1055A000704700BF00A0064008B50E4B1B685B05A6
:1055B00000D408BD0C4B1A7802F0FF0312B1FFF7BC
:1055C00035FFF7E7094A4FF400511160084A0949CD
:1055D000D37040F203120A604A60074A1370074A08
:1055E000137008BD348004401DD9FF1F84E100E022
:1055F00000A0064040A004409FD9FF1F1ED9FF1FF6
:1056000038B50446094B1B7803F0FF05002BF9D190
:1056100020460121FEF70CFD20462946FEF7E8FC56
:10562000034B53F83420034B1A6038BD1DD9FF1FBC
:10563000606F0000A4D9FF1FF8B51D4B1B685A0509
:10564000064633D51B4B1B680BB101221A701A4B4F
:105650001C780134402C1F4628BF0024174D2B789E
:10566000A34218D1FEF708FB40280FDC144A137937
:105670001B06F3D52B7813490133402B28BF002399
:10568000C95CDBB2C9B2D1712B70E7E7FF28E5DD59
:10569000FFF7CCFEE2E70B4BF6B21E550A4B012298
:1056A0001A70074BE4B2BC223C70DA70F8BD00BF40
:1056B00034800440A4D9FF1FA8D9FF1FA0D9FF1F21
:1056C00000A006401FD9FF1F1DD9FF1F274B1B68D5
:1056D0005A052DE9F04707468A4644D5244B1B68F6
:1056E0000BB101221A703D4607EB0A039D4237D2E7
:1056F000DFF890801F4E98F8004096F80090013433
:10570000402C28BF00245FFA89F9A1451DD11A4B0E
:10571000BC22DA70FEF7B0FA40280FDC164A137983
:105720001B060FD5337815490133402B28BF0023C2
:10573000C95CDBB2C9B2D171337003E0FF2801DD6F
:10574000FFF774FE33784B45E4D00C4B15F8012B72
:105750001A550B4B0122E4B21A7088F80040C3E7D7
:10576000054BBC22DA70BDE8F08700BF34800440EE
:10577000A4D9FF1FA0D9FF1F00A006401FD9FF1FFB
:105780001DD9FF1FA8D9FF1F08B5034B1B7813B104
:10579000FFF74CFEF9E708BD1DD9FF1F064A074B6E
:1057A0001B781078DBB2C0B283422CBF3F3000F1CF
:1057B000FF30C01A704700BFA0D9FF1FA8D9FF1F34
:1057C000054B1878054B1B78C0B2DBB2984238BF46
:1057D0004030C01A704700BF9FD9FF1F1ED9FF1F5E
:1057E000094B0A4A19781378DBB2994208D0013381
:1057F000402B28BF00230649C85CDBB213707047FA
:105800004FF0FF30704700BF9FD9FF1F1ED9FF1F09
:105810005FD9FF1F084B1A78084B1B78DBB29A42FE
:1058200007D00133402B28BF0023054AD05CC0B20B
:1058300070474FF0FF3070479FD9FF1F1ED9FF1FE1
:105840005FD9FF1F0A4B1B685B050FD5094BDA7840
:1058500002F0CB02DA7040225A74DA7842F0340255
:10586000DA70054B1A78054BD2B21A70704700BF38
:105870003480044000A006401ED9FF1F9FD9FF1F9F
:1058800030B5304B1A7912F0300F23D072B69A7DB2
:1058900002F0FF0122B9DA7940225A7462B619E0A7
:1058A00062B6294B29481A780478D2B2E4B2184675
:1058B000244BDD79531C402B28BF0023A342EDB2BB
:1058C00002D0234AD5541A464B1E13F0FF01EFD1E4
:1058D000D2B202701B4BD978C9B20C0620D51B7905
:1058E00018061DD51B4B1C4A1D781378EDB2DBB290
:1058F0001046AB420CD0134A0133402B1479174C9D
:1059000028BF0023E45CE4B2D471127D072AF0D9E9
:10591000DBB203700B4B1A79120644BF7C22DA709B
:105920004B060ED5074B1A7912F0400F194608D0D6
:105930000B4B00221A700B4B1B6803B11A703C23EF
:10594000CB7030BD00A006409FD9FF1F1ED9FF1F9E
:105950005FD9FF1FA8D9FF1FA0D9FF1F1FD9FF1FA5
:105960001DD9FF1FA4D9FF1F194B1A6842F400620A
:105970001A60184A00231370174A1370174A1370DD
:10598000174A1370174A1370174B40F213321A60FC
:105990004FF451725A60154BC0F344321A70C0F381
:1059A00047125A7000F01F000422022198729A7068
:1059B000D9745A7588221A743C22DA700C4B402232
:1059C0001A70A3F22B334FF400421A60704700BFE5
:1059D0003480044013DAFF1FAAD9FF1F1CDAFF1F0F
:1059E00014DAFF1FA9D9FF1F0CB0044000B0064015
:1059F0002FE400E0134A937800F0030103F0EC0376
:105A00000B43410748BF43F01003937000F00F03AE
:105A1000042B0C4903D18B7943F040038B715379EC
:105A2000C20603F0EF03074A48BF43F01003537167
:105A30009379810603F0EF0348BF43F0100393719D
:105A4000704700BF00B0064008B50E4B1B681B0531
:105A500000D408BD0C4B1A7802F0FF0312B1FFF717
:105A6000E5FCF7E7094A4FF400411160084A09498B
:105A7000D37040F203120A604A60074A1370074A63
:105A8000137008BD34800440A9D9FF1F84E100E0F1
:105A900000B006400CB0044013DAFF1FAAD9FF1F64
:105AA00038B50446094B1B7803F0FF05002BF9D1EC
:105AB00020460121FEF7BCFA20462946FEF798FA57
:105AC000034B53F83420034B1A6038BDA9D9FF1F8C
:105AD000606F000018DAFF1FF8B51D4B1B681A0530
