:1000000000800020BD010000051D0000D11C000083
:10001000D11C0000D11C0000D11C0000D11C00002C
:10002000D11C0000D11C0000D11C0000051D0000E7
:10003000051D0000D11C0000051D0000C11C0000B2
:10004000051D0000051D0000051D0000051D000028
:10005000051D0000051D0000051D0000051D000018
:10006000051D0000051D0000051D0000051D000008
:10007000051D0000051D0000051D0000051D0000F8
:10008000051D0000051D0000051D0000051D0000E8
:10009000051D0000051D0000051D0000051D0000D8
:1000A000DD0B0000E90B0000051D0000051D000030
:1000B000051D0000051D0000051D0000051D0000B8
:1000C000051D0000051D0000051D0000051D0000A8
:1000D000051D0000051D0000051D0000051D000098
:1000E000051D0000051D0000051D0000051D000088
:1000F000051D00009D330000051D00003D38000077
:10010000051D0000093C0000051D0000051D000044
:10011000051D0000051D0000051D0000051D000057
:10012000051D0000051D0000051D0000051D000047
:10013000051D0000051D0000051D0000051D000037
:10014000051D0000051D0000051D0000051D000027
:10015000051D0000051D0000051D0000051D000017
:10016000051D000071240000051D0000051D000094
:10017000051D0000051D0000051D0000051D0000F7
:10018000051D0000051D0000051D0000051D0000E7
:10019000051D0000051D0000051D0000051D0000D7
:1001A000051D0000051D0000051D0000051D0000C7
:1001B000051D0000051D0000051D0000564B4CF2FA
:1001C000205210B51A804DF628121A8000BF00BFC9
:1001D00001F09CFD514B4FF010621A60504A9A603A
:1001E000504ADA60A3F53043203B1A6812F480725B
:1001F00004D14D490A604FF4A8521A604B4B1A784B
:10020000110703D51A7842F008021A70484B2A22C7
:100210001A700023474A48499818884204D247492F
:10022000595899500433F5E7454A464B9A424FF0E6
:10023000000302D242F8043BF7E74349434A5958C6
:1002400099500433B3F5DE7FF7D1414B802103F899
:10025000011B40498B42F9D13F4B1A603F4B0A22A8
:100260001A70A3F5805324225A70A0221A709A792A
:100270009207FCD59A79D406FCD4394B9A7902F0CE
:100280000C02082AF9D103221A7140225A719A7974
:100290009006FCD5324B9A795106FBD5314A32494A
:1002A00011600221516020221A702D4B9B7903F0BE
:1002B0000C030C2BF9D12D4B2D4A1A602D4B2E4AD5
:1002C0001A6000225A60072243F8042C2B4AC3F814
:1002D0000C2D62B601F0B4FF134B1B68DA0705D58D
:1002E000274801F0BBFE274B274A1A60274B1B7893
:1002F0005B0609D5234C244A2368934204D1204845
:1003000001F0ACFE0023236004F05CFC01F004FD6E
:1003100002F0AEFDFEE700BF0E2005403080044035
:10032000823F04000100002B14D0034002D007409C
:1003300000E007406087FF1F208DFF1FAC4F0000CB
:10034000208DFF1F1C93FF1F000000000082FF1F75
:1003500000E400E05FE400E008ED00E0005006404B
:100360000040064044800440000003010480044033
:10037000C010050014E000E0FF760100000020201E
:100380004AD473561CE00340A5C3945A00F00740BA
:10039000FFFFFFFFFFFFFFFFFFFFFFFFFFFFFFFF6D
:1003A000FFFFFFFFFFFFFFFFFFFFFFFFFFFFFFFF5D
:1003B000FFFFFFFFFFFFFFFFFFFFFFFFFFFFFFFF4D
:1003C000FFFFFFFFFFFFFFFFFFFFFFFFFFFFFFFF3D
:1003D000FFFFFFFFFFFFFFFFFFFFFFFFFFFFFFFF2D
:1003E000FFFFFFFFFFFFFFFFFFFFFFFFFFFFFFFF1D
:1003F000FFFFFFFFFFFFFFFFFFFFFFFFFFFFFFFF0D
:10040000FFFFFFFFFFFFFFFFFFFFFFFFFEFFFFFFFD
:1004100010B5054C237833B9044B13B10448AFF33E
:1004200000800123237010BD208DFF1F00000000FD
:10043000AC4F000008B5064B1BB106480649AFF3A8
:1004400000800648036813B1054B03B1984708BD07
:1004500000000000AC4F0000248DFF1F208DFF1F07
:10046000000000000369D3F83801D3F83431C01A12
:10047000704770470369D3F84422B2F5817F09D8E9
:10048000D3F84422501CC3F844021344012083F8DB
:100490003C117047012303710020704730B5046997
:1004A000D4F84432B3F5817F1DD8D4F84432D4F85F
:1004B0004452C3F5817301332C449A4204F59E746F
:1004C00002D9012202711A460023934203D0CD5C67
:1004D000E5540133F9E70269D2F844121944C2F82D
:1004E0004412184630BD01230371002030BDFFFFC8
:1004F00010B500224FF47A74027184600273054CC7
:100500000275054A04604FF41874417304FB01211D
:10051000016110BD284C00006487FF1F014B036080
:10052000704700BF284C0000F0B59DF814409DF8BE
:1005300018509DF8206029B94C4FD7F800C04CF0F6
:10054000400C06E0012906D1484FD7F800C04CF016
:10055000800CC7F800C0002780F84B7280F8482252
:10056000476932B920233B7003681A70C3691A7057
:1005700015E0002C0CBF202228223A70076801D019
:10058000A34201D25A0000E06200D2B23A70C269BE
:1005900024B1A34234BF64005C00E4B214709DF83F
:1005A0001C3040F20362002B40F2646440F20323EB
:1005B00008BF4FF4197308BF224671B9012D05D148
:1005C0002B4A80F849521360536018E0294A80F89A
:1005D0004912136042F8043C11E001290FD1032DA8
:1005E00006D1254B80F849521A6043F8042C06E0E6
:1005F000022280F84922214A1360043213604368C2
:100600000A2E1BD8DFE806F01A06080A0C0E101294
:10061000141618001F2212E01D2210E085220EE0A1
:1006200014220CE045220AE00D2208E00B2206E02D
:10063000092204E0022202E0002200E027221A70D0
:10064000836904221A7090F8482283680AB98022CC
:1006500000E0C0221A7011B94FF0807203E0012946
:1006600003D14FF00072064B1A60F0BD3480044095
:1006700000A004400CA0044004D0044028B0044072
:1006800000E100E00369490083F83C11036901229D
:10069000C3F844220022027183F84B2270472DE9EF
:1006A000F041D0F8445204460F461646002D36D08D
:1006B000C36812221A7083681A7802F0200202F0CE
:1006C000FF051AB1B4221A70002513E001F086FD6F
:1006D0008046E3681B789B0606D5F6B101F07EFDE7
:1006E000C8EB0000B04218D3002384F84832A36856
:1006F000B0221A70012384F84B320023C4F8403230
:10070000A36884F84A72F0221A70D4F84022236950
:10071000144494F83C211A7001E00125D9E72846D9
:10072000BDE8F0812DE9F041069D04460E461F46C6
:10073000002A34D0C0F85022C3680022C0F8342107
:10074000C0F8382112221A7082681378990601D5F0
:10075000B42313E001F042FD8046E3681B789B065A
:1007600007D5002DF9D001F039FDC8EB0000A842F3
:10077000F3D30023A26884F84832B0231370022315
:1007800084F84B32A36884F84A72F0221A7076001B
:1007900046F001062369F6B21E70BDE8F081BDE89F
:1007A000F081036993F84B32043B032B07D8DFE851
:1007B00003F004020B040220704704207047007904
:1007C000003018BF012070470320704790F84B326B
:1007D0006BB190F84B32052B09D090F84B32062BB9
:1007E00005D090F84B02C31F584258417047012072
:1007F000704770B504460D4601F0F0FC06462046F1
:10080000FFF7E4FF30B9002DF9D001F0E7FC801BC1
:10081000A842F4D394F84B32012B13D094F84B3206
:10082000022B0FD094F84B32032B0BD04FF4A07354
:10083000013B7FF4FDAF94F84B02D0F1010038BFCB
:10084000002070BD042384F84B32EFE738B504462E
:10085000154600693222FFF722FF294620752069DC
:10086000FFF7C7FF2046BDE83840FFF79ABF37B50E
:1008700004460AB900200BE032250095FFF752FF2D
:1008800020460699FFF7B5FF0028F3D0D4F83801C9
:1008900003B030BDD0F83421D0F838319A4208D2B4
:1008A000D0F834315A1CC0F83421184490F8300084
:1008B00070474FF0FF3070470069FFF7EBBFD0F88B
:1008C0003421D0F838319A423DBFD0F83431C018C5
:1008D00090F830004FF0FF3070470069FFF7EFBF2E
:1008E00038B5C16883680D781A78D2B2044690068C
:1008F000EDB26ED5D00648D594F84B22012A1BD113
:1009000015F00105D4F8402205D02AB3062284F858
:100910004B228022D8E00132C4F84022D4F844129D
:100920008A4202D384F84B5229E0D4F8402223694A
:10093000224492F83C21C7E094F84B22022A1AD1B3
:10094000E90607D5072284F84B2280221A70E36853
:100950001222EDE0EA0701D50522D8E7032284F848
:100960004B22D4F85022012A0CBFE822E0221A7050
:1009700023691B78DAE094F84B22042AC9D194F851
:100980004A22012AC5D0B0229EE0D4F83811D4F80A
:1009900050220231914200F0CD8094F84B22042A7B
:1009A00004D194F85522002A00F0C480D4F83821EC
:1009B000D4F8503201329A4280F0BF8094F84B3222
:1009C000042B40F0E48094F85532002B40F0B580C1
:1009D000DDE015F0100F05F0400304D01020087082
:1009E000002B00F0A38003F0FF01002B52D094F8FD
:1009F0004B32092B04D1D4F85832002B40F0E2805E
:100A000005F0040505F0FF03EDB1082384F84B322F
:100A10000023C4F84432D4F85C3203B19847D4F8C8
:100A200044320BB984F83C31A368D0221A70236990
:100A30001A78520884F84C2294F83C211A70012349
:100A4000C4F8403272E094F8492284F854320AB96A
:100A5000122002E0012A02D111205E4903E0022A9D
:100A600003D15D491E20032203E0032A03D15A4922
:100A70001F2001F095FA092384F84B320023C4F8B3
:100A80003831A368C0221A7023691B785B0884F888
:100A90004C324BE002F0100202F0FF03F2B115F00D
:100AA000010513D1D4F84022D4F844329A4207D237
:100AB000D4F840325A1C2344C4F8402293F83C51E5
:100AC00023691D70A368D0221A702FE0A368C0228A
:100AD0001A7023691B7884F84B1227E094F8492296
:100AE00084F854320AB9122002E0012A02D11120FE
:100AF000384903E0022A03D137491E20032203E0CC
:100B0000032A03D134491F2001F04AFA23691A78D5
:100B1000D4F83831B3F5817FD2B207D8D4F8383160
:100B2000591C2344C4F8381183F83020E3680222AA
:100B30001A7038BDE8221A7038E794F84B22002367
:100B4000042A84F8553201D084F84B32A368B022CD
:100B50001A7023691A78D4F83831B3F5817FD2B28C
:100B600007D8D4F83831591C2344C4F8381183F815
:100B7000302094F84A32012B06D12023013B7FF428
:100B8000FDAFA36880221A7094F84B320EE02369FF
:100B90001A78D4F83831B3F5817F07D8D4F83831D2
:100BA000591C2344C4F8381183F8302094F84B3290
:100BB000042BBBD194F85532002BB7D1012384F814
:100BC0005532B3E70022C4F83421D4F838019847ED
:100BD00016E700BF890C0000950C000001480021B9
:100BE000FFF77EBE6487FF1F01480121FFF778BE33
:100BF000C489FF1F10B5C3681B7803F020030446A7
:100C000003F0FF02EBB990F8493280F84B220BB9A0
:100C100012200AE0012B01D1112006E0022B01D1A4
:100C20001E2002E0032B02D11F2001F0FFF9D4F8AF
:100C300058323BB30022C4F83421D4F83801984725
:100C400010BD90F854320133DBB2012B80F85432DE
:100C500004D890F84832012B00D110BD94F84932E5
:100C60000BB912200AE0012B08BF112006D0022B7D
:100C700008BF1E2002D0032B04D11F20BDE8104066
:100C800001F0D4B910BDFFFF01480021FFF7B2BF4A
:100C90006487FF1F01480121FFF7ACBFC489FF1F14
:100CA00008B50368C9B21B68984708BD38B5044643
:100CB0000D4604300121FFF71BFC2570204638BD8E
:100CC000034670B5041D0E46204619781546FFF7F9
:100CD000D9FCB11C20468900FFF7E2FF29462046D7
:100CE000FFF7DEFF290A2046FFF7DAFF2046012141
:100CF0006422BDE87040FFF7A9BD73B50446051D29
:100D00000E4628462178FFF7BDFC31462846FFF7FE
:100D1000B1FB284601216422FFF798FD01226423DC
:100D20002178009360691346FFF7A1FD6069FFF722
:100D3000B1FDC0B202B070BD70B50346041D0D46D2
:100D4000204619781646FFF79DFC29462046FFF7F6
:100D500091FB31462046FFF78DFB2046012164229E
:100D6000BDE87040FFF772BD00210A46FFF7E4BFFF
:100D70001FB500220223417C02928DE80C00032360
:100D80000393044613464069FFF7CEFB204604B0A8
:100D9000BDE81040FFF7E8BFF8B5064608461E4913
:100DA00003F014FD01461D4803F0C4FD4FF07E51D1
:100DB00003F002FC4FF07C5103F000FC03F0FCFA5E
:100DC00003F006F904460D4630460021FFF795FF73
:100DD00000F06F02074642F0100230460021FFF794
:100DE000ABFF2946204603F0C3FBFE21C2B23046CA
:100DF000FFF7A2FF3A4630460021FFF79DFF05208E
:100E000001F00AFA67F05E0230460021D2B2BDE876
:100E1000F840FFF791BF00BF6666663F20BCBE4545
:100E20002DE9F04704460E4615461F4604F5A07A04
:100E300000F0CAF9294B23602146324604F5A8790F
:100E4000504600F098F804F5B07821462A46484606
:100E500000F091F821463A46404604F5B87700F094
:100E60008AF804F5C07621469DF82020384600F027
:100E700082F804F5C87521469DF82420304600F01C
:100E80007AF821469DF82820284600F074F89AE860
:100E90000F0004F5D07C8CE80F0099E80F0004F5F2
:100EA000D87C8CE80F0098E80F0004F5E07C8CE813
:100EB0000F0097E80F0004F5E87C8CE80F0096E837
:100EC0000F0004F5F07787E80F0095E80F0004F5B0
:100ED000F87686E80F002046BDE8F087484C000011
:100EE000154B70B50446036000F5D07600F500752B
:100EF000B54204D0103D284600F066F8F8E704F546
:100F0000C87000F061F804F5C07000F05DF804F5F9
:100F1000B87000F059F804F5B07000F055F804F519
:100F2000A87000F051F804F5A07000F04DF82046CC
:100F300000F066FA204670BD484C000030B585B020
:100F4000002490F8951000940194029403940546AF
:100F50002246D0F898002346FFF7E6FA284600F02C
:100F600095FA05F5D0702044103400F02EF8602C6E
:100F7000F7D105B030BD022A10B5027003D0541F5E
:100F80006342634100E001230D2404730124447390
:100F9000022484730324C4734370816014B233B198
:100FA00001EB8404636E1B788370636E05E001EBD4
:100FB00084031C69247884701B695B78C3700A44BD
:100FC00092F87F30037110BD7047052001F024B9FD
:100FD000012908B515D84378014463B172B6806819
:100FE0008978C2EB0222120192B200F59270FFF7EB
:100FF00067FE62B608BD8878BDE80840114601F07A
:10100000B1B808BD10B583680179044601F001014B
:1010100093F87C0001F0A6F8A368217993F87D008D
:10102000C1F3400101F09EF8A368217993F87E0096
:10103000C1F38001BDE8104001F094B870B50446DA
:101040000D461646FFF7DEFF72B6A068217B88309A
:10105000FFF718FBA068A17B8830FFF70BFAA068A8
:1010600029468830FFF706FAA06831468830FFF736
:1010700001FAA06801214FF47A728830FFF7E6FB8D
:1010800062B60520BDE8704001F0C6B82DE9F8430E
:1010900004460D46174699469DF820809DF8246029
:1010A000FFF7B0FF72B6A068217B8830FFF7EAFA3D
:1010B000A068E17B8830FFF7DDF9A0682946883019
:1010C000FFF7D8F9A06839468830FFF7D3F9A06850
:1010D00049468830FFF7CEF9A06841468830FFF7CF
:1010E000C9F9A068D0F8883031461B688830984725
:1010F000A06801214FF47A728830FFF7A7FB62B62F
:101100000520BDE8F84301F087B82DE9FF4104460A
:101110000E4617469846FFF775FF72B6A068217B0A
:101120008830FFF7AFFAA068617B8830FFF7A2F93B
:10113000A06801214FF47A728830FFF787FBA3681B
:10114000217B4FF47A720092D3F898000622012393
:10115000FFF78DFB62B60025052001F05DF80295D2
:10116000ADF80C5072B6A368D3F89800D0F83811D7
:10117000D0F834319942EAB21DD162B69DF8091017
:101180009DF8083043EA012333809DF80B109DF849
:101190000A3043EA01233B809DF80D109DF80C3086
:1011A000042A43EA012394BF00200120A8F800305C
:1011B00004B0BDE8F081062DDFD0FFF76BFB02AB7A
:1011C00058550135CFE7FFFF8A4BF0B50360072381
:1011D0004371894B1A460D2104460171861D32F870
:1011E000020BDF881288228104F10A02A261E26107
:1011F00004F10E0262621A8922855A8962859A89EF
:10120000A285DA89E080E28598881A8A608104F1F3
:10121000080504F10C00A781266104F1280C04F1F3
:101220002A0E04F12C0704F12E0622865A8A6561E3
:1012300020626286C4F834C0C4F838E0E7632664EC
:10124000A4F85B205A8B84F85210A4F85D20998A88
:10125000A4F8551004F15F02D3F81610A2671A46DD
:10126000C4F8571004F15D0104F13200616732F8EF
:10127000201FA0640920927884F84E000A20D3F839
:101280001CC084F84F0084F87E200B2053F8232FD5
:1012900084F8500004F130050C2004F157070126B2
:1012A00004F1550E9B88656484F85100002504F113
:1012B0005B00C4F85FC0E76604F1530C4027C4F834
:1012C00064C0C4F868E0C4F87F208DB02067A4F83B
:1012D0007C1084F84C50294684F84D6084F85350B3
:1012E00084F8546004F18800A4F8833084F8857091
:1012F00084F88670FFF7FCF8394684F8205184F8AA
:10130000215184F8225104F59270FFF7CFFC207927
:10131000314600F047FF6079314600F043FF002678
:10132000631901211B69985D013600F03BFF042E13
:10133000F6D10435182DF2D100260025A31900217D
:101340005B6B585D013500F02DFF042DF6D104369E
:10135000182EF2D10C2000F0EFFB202000F016FC3C
:10136000082000F08BFE0020244900F093FE0120AD
:10137000224900F08FFE0220204900F08BFE402120
:1013800005A8FFF793FC9DF8143084F824319DF8EC
:101390001C3084F82C31089BC4F830319DF824307F
:1013A00084F834319DF8253084F835310A9BC4F82F
:1013B00038319DF82C3084F83C3106A8FFF7AEF8A0
:1013C00000256319012193F87C00013500F0EAFE45
:1013D000032DF6D10022D4F8980094F895100092CD
:1013E0000192029203951346FFF79EF820460DB036
:1013F000F0BD00BF584C0000604C00000000C84425
:1014000010B5064B0360044600F59470FFF786F8AC
:1014100004F18800FFF782F8204610BD584C000008
:1014200038B50D4672B600F592742046FFF7A0FC61
:10143000284603F073F901462046FFF7ADFC62B67B
:1014400038BD08B572B60A21A03001F0AFFB62B614
:1014500008BD38B5044672B60021E03001F078FBD3
:1014600062B610F0FF0010D094F88630226894F82D
:10147000E01055682344204693F8DF2093F8DE30CF
:10148000A8472046FFF7DDFF012038BD38B54FF4EF
:101490007A710546FFF7C4FF0B242846FFF7D9FFF2
:1014A00008B1013CF9D138BD10B590F8E14080F8A1
:1014B0002041012C1FD002D3022C29D010BD90F85E
:1014C000E23090F8E420003318BF012380F80032A6
:1014D00090F8E33003EB0223A0F8023290F8EA30F0
:1014E00080F8043290F8EB3080F8213190F8FE302B
:1014F00080F8663210BD90F8E23093B3214640790F
:1015000000F030FE21460D20BDE8104000F02ABE5C
:101510000346002290F8E21083F80E1290F8E310D0
:1015200083F80F1290F8E41083F8101290F8E51089
:1015300083F8111290F8E61083F8121290F8E71071
:1015400083F8131290F8E81083F81412083290F818
:10155000E91083F81512302A00F1080003F1100396
:10156000D8D110BD38B5044608460D4603F050FBEF
:10157000236802465B6820462946984738BD08B56F
:10158000FFF7F0FF08BD38B5044601F0C1FC054681
:10159000204601F075FC284438BDFFFF30B585B00A
:1015A00004469DF8205000959DF8245001959DF823
:1015B00028500295FFF734FC184B23604FF47A72E1
:1015C000002384F8003284F80432A4F8022204F2E2
:1015D000162304F27620002223F8102C23F80E2C78
:1015E00023F80C2C03F80A2C03F8092C03F8082C18
:1015F00003F8072C03F8062C03F8052C03F8042C39
:1016000003F8032C03F8022C03F8012C1033834257
:10161000E1D1204684F8662205B030BD984C000028
:1016200010B5034B03600446FFF75AFC204610BD7B
:10163000984C000038B500F5D0740025204604F120
:10164000660104F1680204F16A031035FFF75DFDDD
:10165000602D04F11004F1D138BD0021FFF7EABF7D
:10166000F8B5164690F885200446024484F8A01088
:101670000D4682F89F601F460BB9FFF7EEFF94F806
:10168000853084F8A050234483F89F6017B9204622
:10169000FFF7E3FF94F8212184F8A12012B1012A79
:1016A0001ED0F8BD2346B4F8061283F8A210091222
:1016B00083F8A310B4F8081283F8A410091283F871
:1016C000A510B4F80A1283F8A61010320912602A85
:1016D00083F8A71004F1100403F10803E3D1F8BD67
:1016E0000023013394F8E22084F8A2203D2B04F17A
:1016F0000104F6D1F8BD70B50646002506F5D07494
:101700002C4400210A462046FFF798FC2046012180
:101710000022FFF793FC00210A462046FFF758FC01
:101720001035204601210022FFF752FC602DE5D143
:1017300070BDFFFF73B500F5D07400262448B4F8DF
:101740006610FFF720FFB4F86630B3F5966F1AD92C
:10175000204D1F482968FFF716FF2046002164220C
:10176000FFF76CFC002001238DE809002978022393
:1017700020460A22FFF78AFC2B680133042BC8BFDE
:1017800001232B6004E0002120460A46FFF756FCA7
:10179000B4F86830B3F5966F20464FF001010CD9CC
:1017A0006422FFF74BFC00230093012301932046A2
:1017B00002210A22FFF76AFC02E00022FFF73EFC4A
:1017C0001036602E04F11004B8D102B070BD00BF15
:1017D0005491FF1F248CFF1FFFF7ACBFF7B50646DF
:1017E00000F5D0740025204694F86E200021FFF704
:1017F00025FC1035204694F86F200121FFF71EFCD0
:10180000602D04F11004EED106F504760627354666
:10181000002415F8011BE3B259B100206A7800904A
:10182000E878003018BF01200190A6F17000FFF7A2
:101830002DFC0134022CECD1013F17F0FF0706F11B
:101840001006E4D103B0F0BD72B6024B186862B660
:10185000704700BF3890FF1F10B5084C2046FFF7B7
:101860006DFB00230E2084F8043200F0B9F901F07A
:1018700075FB03490348FFF782FE10BD408DFF1F33
:10188000A04C00005491FF1F37B5FFF7DDFF02ACFD
:10189000054D44F8040D2846FFF7DFFE2846214693
:1018A000FFF79AFF03B030BD408DFF1F07B5FFF76C
:1018B000CBFF02A941F8040D0248FFF78FFF03B0E8
:1018C0005DF804FB408DFF1F0148FFF714BF00BF08
:1018D000408DFF1F1FB50A4C0321042205238DE80C
:1018E0000E002046002101220223FFF757FE054982
:1018F000054A204604B0BDE8104003F04DB900BFD2
:10190000408DFF1F211600006087FF1FF8B51E489D
:101910001D4D1E4CFFF79DFD20B12846FFF7C4FD6D
:101920000023238023881A4F95F80422164E013392
:1019300023803B889BB29A4210D016491648FFF785
:101940001EFE002396F8041213480A2201F0A8FA9A
:10195000114801F095FA96F804323B8095F804326C
:1019600013B1012B04D00BE0BDE8F840FFF78CBFAA
:101970002388B3F5FA6F03D8BDE8F840FFF796BFA8
:10198000BDE8F840FFF7A0BF408DFF1FA88FFF1FE5
:101990003C8DFF1FAB4C00005491FF1FF0B5304B46
:1019A0001B681B06FBD42F4B1B6813F08002F6D17B
:1019B00072B62D4B1978002950D02C4908684F6811
:1019C0008E68CD680C693844143130440968284465
:1019D00020440844C0F34E00254940F4004008600C
:1019E000C86A0F6B4E6B8D6BCC6B38444031304402
:1019F0000968284420440844C0F34E001D4940F4BF
:101A00000040086001F10811143151F8140C51F82C
:101A1000107C51F80C6C51F8085C51F8044C0968C2
:101A200038443044284420440844C0F34E0012494E
:101A300040F400400860C86A0F6B4E6B8D6BCC6B36
:101A40003844403130440968284420440844C0F3F5
:101A50004E000A4940F4004008601A7062B6F0BDBA
:101A600024B0034024B00B40AB8FFF1F38B00340BD
:101A70002CB0034030B003402CB00B4030B00B40D2
:101A800010B5204B2048214960221A70E1225A707B
:101A90001F4B204A1C78204B082C01D1012402E066
:101AA0000A2C03D139240460132005E00C2C0CBF50
:101AB00035243D2404601220086014601860174B20
:101AC00017491B78174A03B101230B601360164BAB
:101AD000164A1978164B012901D880210BE00429F8
:101AE00001D8842107E0082901D8852103E01029C5
:101AF00094BF86218721116019600E4B01221A7054
:101B000010BD00BF0040074008B003400CB00340C8
:101B1000288CFF1F08B00B400CB00B40AE8FFF1F8E
:101B200020B0034020B00B40298CFF1F24B003409D
:101B300024B00B40AB8FFF1F0C2804D9102828BFFE
:101B40001020102307E00A2804D8092834BF0823EE
:101B50000A2300E00C23094AD9B2081A1070084A77
:101B60001078834208D0074B11701B7813B1064BD5
:101B700000221A60FFF784BF704700BFAA8FFF1FC3
:101B8000288CFF1FAB8FFF1F24B0034010B5114BF3
:101B90001B7804460BB1FFF701FF012C0E4A01D858
:101BA000002302E0042C02D8042313600EE0082C6A
:101BB00003D805231360082308E0102C03D806235C
:101BC0001360102302E0072313602023034A1370DD
:101BD00010BD00BFAB8FFF1F24B00340298CFF1F37
:101BE0000D2838B50FD9172801D80E380AE0A0F112
:101BF0001A03052B01D8093804E0A0F12203062BB3
:101C000047D81838C0B2244B1C5C244B1B780BB14E
:101C1000FFF7C4FE210614D472B6214B214D1C607F
:101C200001232B7062B672B61D4B1B681A0601D5D4
:101C30001D4B1FE02B78002BEFD062B601F094F91A
:101C4000F1E772B6194B1A4D1A6814F0400F14BF21
:101C500022F0100242F010021A60164B04F03F020C
:101C60001A6001232B7062B672B6124B1B681B06FA
:101C700008D5114B186800232B7062B60F4B1B78E8
:101C8000184138BD2B78002BDCD062B601F06CF91E
:101C9000EAE7002038BD00BFBC4C0000AB8FFF1F3F
:101CA00000B00340AD8FFF1F10B003400CB00B40DD
:101CB000AC8FFF1F00B00B4010B00B40AA8FFF1F6E
:101CC000024B1A6801321A60704700BF3890FF1F3C
:101CD00008B50B4C2368580301D500F0C9FB2368F5
:101CE000590501D501F05AFB23681A0501D501F009
:101CF000A5FD2368DB04ECD501F086FFE9E700BF12
:101D00003480044008B5FFF7E3FFFFFF014B1022CA
:101D10001A807047002005407047FEE7EFF31383F9
:101D20009BB9EFF3108098B9EFF3058323B10F2B24
:101D300004D9084A985C01E04FF48070EFF31183F6
:101D40003BB1834238BF184670474FF0FF307047B1
:101D500018467047F0E300E01F4B10B51C681C608C
:101D6000E00304D51D4B1A680AB11B689847A1030C
:101D700004D51A4B5A680AB15B689847E20704D544
:101D8000164B1A6C0AB11B6C9847A30704D5134B6A
:101D90005A6C0AB15B6C9847200704D50F4B9A6CBC
:101DA0000AB19B6C9847610704D50C4BDA6C0AB1F9
:101DB000DB6C9847220304D5084B5A6E0AB15B6E60
:101DC0009847630306D5054BD3F8802012B1D3F8AA
:101DD0008030984710BD00BFA0A00440B08FFF1F07
:101DE0002C4B10B51C681C60200704D52A4B5A6A7E
:101DF0000AB15B6A9847E10604D5274B9A6A0AB193
:101E00009B6A9847620604D5234BDA6A0AB1DB6AFB
:101E10009847230604D5204B1A6B0AB11B6B9847D1
:101E2000A00604D51C4B5A6B0AB15B6B9847E107BF
:101E300004D5194BDA6B0AB1DB6B9847A20704D5BE
:101E4000154B9A6D0AB19B6D9847630704D5124BE9
:101E5000DA6D0AB1DB6D9847A00504D50E4BDA6E3A
:101E60000AB1DB6E9847E10504D50B4B1A6F0AB136
:101E70001B6F9847620504D5074B5A6F0AB15B6F19
:101E80009847230504D5044B9A6F0AB19B6F984776
:101E900010BD00BFA0B00440B08FFF1F1E4B10B597
:101EA0001C681C60E00704D51C4B9A680AB19B684B
:101EB0009847210604D5194B5A690AB15B699847BE
:101EC000E20604D5154B9A690AB19B6998476307E6
:101ED00004D5124BDA690AB1DB699847200704D5AB
:101EE0000E4B1A6A0AB11B6A9847A10704D50B4B1F
:101EF0009A6B0AB19B6B9847A20604D5074B1A6DE3
:101F00000AB11B6D9847630604D5044B5A6D0AB19C
:101F10005B6D984710BD00BFA0C00440B08FFF1F8D
:101F2000114B10B51C681C60E00404D50F4BDA6837
:101F30000AB1DB689847A10404D50C4B1A690AB1B1
:101F40001B699847A20604D5084B1A6E0AB11B6E8E
:101F50009847E30606D5054BD3F8842012B1D3F891
:101F60008430984710BD00BFA0900440B08FFF1F81
:101F7000094B10B51C681C60A20704D5074B9A6E6C
:101F80000AB19B6E9847E30704D5044BDA6F0AB198
:101F9000DB6F984710BD00BFA0D00440B08FFF1F7B
:101FA000212830B531D8042A2FD8DFE802F00709FC
:101FB000050B03000B2306E00A2304E0082302E0DC
:101FC0000C2300E00923114A114D02EBC0025468B2
:101FD000104AC2F89C51104DC2F8A0510F4DC2F8E2
:101FE000A4510F4DC2F8A8510E4DC2F8AC5172B6B3
:101FF00022680D4D22F47022226042F0807242EA83
:10200000034345F82010236062B630BDD44C000075
:10201000211F00000082FF1F591D0000E11D00006C
:102020009D1E0000711F0000B08FFF1F094B03EBC6
:10203000C0035A6872B6136823F0877323F48033A1
:1020400043F080731360044B002243F8202062B6F3
:10205000704700BFD44C0000B08FFF1F044B0549F0
:1020600000221A600A60044A106010221A60704749
:1020700014D0034004D0034000D0034018B110280E
:1020800028BF102000E00120014B1870704700BFEE
:102090002A8CFF1FF8B505460E460024274F47FA45
:1020A00004F002F03FFB4FF05E5102F08FFB01465F
:1020B000304602F03DFD10B90134072CEED147FA4D
:1020C00004F002F02FFB314602F034FC4FF07C515B
:1020D00002F072FA02F040FD4FF6FF73984228BFFB
:1020E0001846EB1E012B06D8154B164900221A6024
:1020F0000A60154A1BE0A5F10903012B06D9A5F1D9
:102100001403032B02D96B1F012B06D80F4B104968
:1021100000221A600A600F4A09E0202D01D0192D13
:102120000BD10D4B0D4900221A600A600C4A04F0D5
:10213000070444F0080410601C60F8BD006CDC0269
:102140000090034004900340089003400080034047
:10215000048003400880034000800B4004800B4053
:1021600008800B40212810B518D80D4A52F830309D
:1021700093F880423CB1012211B183F8802010BD58
:1021800083F8002110BD02EBC00043681A6811B14A
:1021900042F0030201E022F002021A6010BD00BF0B
:1021A000D44C0000212816D80B4A02EBC0030129A9
:1021B0005B6852F8302004D182F880124FF4A2728A
:1021C00008E0002082F8800211B94FF4807201E02B
:1021D00040F203121A607047D44C000072B60B4BE9
:1021E0000B491A680B4B1B68096862B6490102D596
:1021F000322A88BF0133C2F5BB326021FF32B2FB05
:10220000F1F24FF47A7000FB0320704718E000E011
:1022100004ED00E03890FF1F38B50446FFF7DEFFFD
:10222000054664B1FFF7DAFF401BB0F57A7F03D3B0
:10223000013C04D005F57A7500F096FEF2E738BD52
:102240001F4B4FF4000210B51A604FF080721A60F5
:102250004FF000721A604FF080621A604FF0006217
:102260001A60184B184A194C00204BF6FF71186081
:102270005960282313609360136193611362936222
:10228000136393630922226004F5805404342060B0
:102290006160A360236144F8042C04F5FE242060EF
:1022A0000B4801600B490B608B600B4B1A60FFF70A
:1022B000E7FB0420FFF7B0FFBDE8104000F0C8BB0B
:1022C00008E100E0048003400C80034000800340EC
:1022D00008800B400C800B4000800B40F0B50C4B8D
:1022E0000C4C1A7842F0020504EBC50682F001029C
:1022F000706009481A700678002E0CBF8827C8271E
:1023000086F0010647EA0141067044F83510F0BD39
:10231000B890FF1F0080FF1F4091FF1F431E052B39
:1023200010B510D872B6094A52F8230048B1416876
:1023300042F82310064A018832F81340611A22F845
:10234000131062B610BD002010BD00BFA090FF1F8B
:102350001093FF1F013805280AD872B6054B53F8B1
:102360002030002013B101305B68FBE762B6704794
:1023700000207047FC90FF1F10B572B60123174A6A
:102380001A4412F8012C12071CD59900144A52F86D
:1023900031402CB902EB431308305860114B09E06F
:1023A00041F0010152F8314064B902EBC103083039
:1023B00058600D4B42F831300C4B1A78013A1A70C4
:1023C00062B610BD0133072BD9D162B6074B00228C
:1023D0001A70BDE8104000F099BB00BF084E000025
:1023E0000080FF1F88004000C80040003691FF1F9A
:1023F000431E052B30B532D8194A400140F0100079
:10240000104472B6174CE25C032A09D8DFE802F0E8
:10241000160218050830022213E00830042210E0EA
:102420001148124A50F8234014B940F8231002E032
:1024300052F82300416042F823100FE0032200E02D
:102440000522E25410F0080F01F108030A884360E6
:102450000CBF8823C82343EA0243036062B630BD41
:102460000080FF1F5890FF1FFC90FF1F1491FF1F5B
:102470002DE9F84FA74F3C78E4B214F0040F3D4625
:1024800019D0A54B1B78A3B1A44A117801F0FF0322
:1024900021B1013BDBB2137003B900BEA04A117831
:1024A00001F0FF0329B1013BDBB213700BB900F05F
:1024B000C3FC04233B7004F0080303F0FF02002B6D
:1024C00000F05C82974B984C1A78D2B215094FEA0B
:1024D000920840F0D98154F8382004EBC803C2F3C5
:1024E0008302013A5B680C2A00F2CB81DFE812F02C
:1024F00085018501C901C901C901C901C901C90114
:10250000A501C901C901C9010D00884D1A685B68A0
:1025100087486B60874B44F8383001232A60DFF826
:102520004082037092B240F2816000218242C8F87A
:1025300000102161A16117D8B2F5D06F80F016812B
:10254000B2F5817F00F0C78006D8802A00F0B28003
:10255000822A00F0B38021E140F202339A4200F077
:10256000C980B2F5A06F14E0B2F5106F14D008D88E
:10257000B2F5086F40F01281674A6F4C12782270F2
:1025800014E140F621139A4200F0348140F62123F1
:102590009A4200F0078101E15F4B634EAA781A70FE
:1025A00006F1C009336A1B0603D5706A083800F0CB
:1025B000ADFA08364E45F5D10026B146DFF8A4A1A4
:1025C00056F80A0028B1D0F804B000F09FFA584637
:1025D000F8E74AF80600594BDFF88CA1F05056F89E
:1025E0000A0028B1D0F804B000F090FA5846F8E795
:1025F000534B4AF80600F050524B23F81900524B47
:1026000019F80320023A032A08D8DFE802F002048E
:102610000204002200E0012203F8092009F1010967
:10262000B9F1060F06F10406C8D1484B00221A7012
:1026300001269A46464A474B3244334412F8012C4D
:102640009B0012F0080F1A704FEA860925D000F09F
:102650003FFA38B104EB4613083058603E4B44F85B
:10266000393006E09AF8003044F8390001338AF82E
:10267000003000F02DFA49F0010338B104EBC30239
:10268000083050602B4A44F8332006E044F8330009
:102690009AF8003001338AF8003049F0020201361E
:1026A00049F003090023072E44F8323044F839304A
:1026B000C0D178E0204C2170617076E0AA88062AAB
:1026C0006CD81D4C217061709100244A525C9607B1
:1026D0006BD5237069E0AA8802F07F03062B5DDCCE
:1026E0006B88002B5AD191001C4A0A44117821F0C2
:1026F00002010DE0AA8802F07F03062B4EDC6B88F6
:10270000002B4BD19100154A0A44117841F0020187
:10271000117048E0802007403F91FF1FB990FF1FD4
:102720005091FF1F902007400080FF1F2C91FF1F3A
:102730004091FF1FC80040003791FF1F4090FF1FCE
:102740001491FF1F1093FF1F5890FF1F3691FF1F1A
:10275000084E000030C8011088004000C02007402B
:102760003C90FF1FA090FF1FFC90FF1F6A88A98864
:102770009E4B53F8084CA3F10C007CB133F80C6C61
:10278000964209D133F80A6C8E4205D1120A032A07
:102790000CBF2378038909E00C33EAE7944B0F223E
:1027A0001A7027E000231C4600E00223EE88B342A3
:1027B00038BF1E46402E34BF3546402520462946A8
:1027C000FFF78CFD761B2C4403D1402D12D13546EA
:1027D00003E0402E34BF3546402520462946FFF70A
:1027E0007DFD761B2C4401D1402D03D1814AC8F8D0
:1027F000004016800122804B42E0804A80481168E8
:10280000814216D151687F4A914212D11A78A92A81
:102810000FD15A78452A0CD19A78C22A09D1DB788F
:102820006B2B06D1784B0020052201461A70FFF76A
:1028300055FD764B44F8383023E0754E3568B5B118
:10284000DFF8B081B8F80090B9F1400F34BF4C46C2
:10285000402428462146FFF741FDC4EB09039BB203
:10286000A8F800300BB9402C00D12B193360634B12
:102870001A88B2F5A06F04D100225A709A78654B7D
:102880001A7001225C4B6CE004EBC806013D7368D2
:1028900002F00802A3F10800EDB202F0FF01002AE5
:1028A00036D000F033F95C485C4B50F82520EAB193
:1028B000516840F8251002F108017160595D032943
:1028C0000BD8DFE801F002040608032104E002212E
:1028D00002E0052100E00421595516F0080F128886
:1028E0000CBF8823C82343EA024342E05A5D032A0F
:1028F00007D8DFE802F040400204002206E001228F
:1029000004E016F0080F0CBF022203225A5532E0F1
:1029100054F83820120C23F8082C22B3DFF82CE1ED
:1029200023F8061C43F8041C5EF825303C4913B913
:102930004EF8250002E051F825305860394B41F837
:10294000250033F815100A4423F8152000F0C0F8CC
:1029500010B10830706006E0334B44F838001A7844
:1029600001321A7007E0294B304A16F0080F08BFF1
:10297000134644F8383008233B707BE5E0071FD549
:102980001D492A482A4C02230B702A4B1A702A4BE5
:10299000186098602948D8601A619A615C60144B8D
:1029A0000D2018702648FF2303702B700274254AEF
:1029B0001370254B9F221A7001230B70BDE8F88F0E
:1029C000210604D50A4B0D221A7080232B70A20712
:1029D00005D51B4B1A78D2B21A7002232B70E3066E
:1029E00044BF10232B70BDE8F88F00BF1C4E0000C1
:1029F000C02007403491FF1F942007402C91FF1FF7
:102A00002109000301000400B990FF1FC800400025
:102A10003C90FF1F98200740FC90FF1F5890FF1F1D
:102A20004090FF1F1093FF1F3691FF1F880040004A
:102A30006090FF1FB890FF1F0080FF1FBC90FF1F1A
:102A4000882007408C20074084200740A090FF1F6B
:102A500008B501F02FF900221A4B0021D150981827
:102A60000832C82A4160F7D1174A106840F4802024
:102A7000106002F528326832C3F307201070C3F3E8
:102A800007401B0E10751376FF2302F81C3C02F85A
:102A9000143C02F88C3C012302F8083C82F86410D4
:102AA00002F8183C094B70226FF450711A700B44F5
:102AB0004FF400721A6003F1C04303F5C8231022DB
:102AC0001A7008BD0080FF1F3480044049E400E014
:102AD00072B60C4A1168B1FA81F30B2B02D962B6B7
:102AE000002070474FF00040D84021EA00011160FB
:102AF00062B6054948225343C8180022CA504260B2
:102B0000704700BF2C8CFF1F0084FF1F0C4B482216
:102B1000C31AB3FBF2F30B2B11D80A4A127822B175
:102B2000094A12780AB1FFF727BC72B6074A4FF07C
:102B3000004121FA03F311681943116062B670472E
:102B40000084FF1F3691FF1F3F91FF1F2C8CFF1F3A
:102B5000F8B5144B1E6805460C461F46124B1B78F1
:102B6000D3B10420FFF7DAFB38B93B689B1BA342C3
:102B700016D8A4B100F0F8F9F0E700F108032A46EE
:102B800000F1480153F8044B42F8044B8B42F9D151
:102B9000FFF7BCFF4020F8BD4FF0FF30F8BD2046E6
:102BA000F8BD00BF3890FF1F3F91FF1FF8B5184BCD
:102BB0001D6804460E461F46164B1B781BB30320A8
:102BC000FFF7C8FB032806D93B685B1BB3421DD83F
:102BD00000F0CAF9F0E7FFF77BFF03460028F3D0C7
:102BE000204603F1080204F1400150F8044B42F87A
:102BF000044B8842F9D140241C8003201946FFF77A
:102C0000F7FB2046F8BD4FF0FF30F8BD0020F8BDBF
:102C10003890FF1F3F91FF1F38B5124B1B78EBB167
:102C2000114C23681BB90220FFF778FB2060206855
:102C30000D4D98B14388C218147A5CB102880133F3
:102C4000934204D3FFF762FF00232B6000E0438030
:102C5000204638BDFFF75AFF2C60DEE74FF0FF300B
:102C600038BD00BF3F91FF1F4C91FF1F10B50D4BAA
:102C70001B788BB10C4C23681BB90220FFF74EFB6D
:102C80002060206840B1438803441C7A3CB9FFF7B8
:102C90003DFF054B1C60EAE74FF0FF3010BD2046BA
:102CA00010BD00BF3F91FF1F4C91FF1F38B5104D65
:102CB0002B6823B128680024028843880FE00D4B5D
:102CC0001B781BB10220FFF729FB28602C68002C21
:102CD000F0D10BE0C1182144097A19B10134E1188F
:102CE0009142F7DB14B9FFF711FF2C60204638BD85
:102CF0004C91FF1F3F91FF1F2DE9F843324D0123F7
:102D000007460C462B70002C5AD0304E3368B14623
:102D10005BBB44F2D9582E4B1B7803F0FF020BB972
:102D20002A7018E00120FFF715FB052804D9B8F137
:102D30000108284A09D10AE001232B70FFF7C8FED9
:102D4000C9F800000028F2D00FE013783BB101234E
:102D5000137000232B704FF0FF30BDE8F8832B7009
:102D600000F002F901232B70D5E73168194A488831
:102D700000231370C0F14002944238BF224600F194
:102D8000080C10448C444880A41A934204D0F85C88
:102D90000CF803000133F8E71F444B883F2B0E4B20
:102DA00002D805221A70AEE740220A804FF00008D0
:102DB000012083F80080FFF71BFBC6F80080A2E724
:102DC0002C702046BDE8F8834191FF1F4491FF1FFE
:102DD0003F91FF1F4891FF1F5091FF1F07B502ABA6
:102DE000012103F8010D1846FFF786FF03B05DF8D7
:102DF00004FBFFFF10B50D4B1B78B3B10C4B1968EA
:102E00001C4691B14B8883B10A4A002010703F2BB9
:102E100004DCCA18002010720133F8E740230B804D
:102E20000120FFF7E5FA0023236010BD3F91FF1F4B
:102E30004491FF1F5091FF1F10B50B4B1B788BB9AE
:102E40000A4A11684B8814463F2B04DCCA1800203C
:102E500010720133F8E740230B800120FFF7C8FA16
:102E60000023236010BD00BF4191FF1F4491FF1F4D
:102E700008B5FEF7F1FCFEF749FD00F075F8FAE73A
:102E800007B5064B1B88ADF80430036801A95B68E1
:102E90000222984703B05DF804FB00BFE44D000038
:102EA00070B505468AB022B90368C9B21B68984755
:102EB0002CE0012A08BF0A2221B930228DF82520F2
:102EC000212413E02124B1FBF2F002FB1011C9B25E
:102ED00009290AAE94BF303137312644C9B206F809
:102EE000241C014610B1013CE4B2ECE733B1013CD3
:102EF000E4B20AAB23442D2203F8242C2B6801A949
:102F00005B6828462144C4F1220298470AB070BD8C
:102F10000029BABF49422D2300230A22FFF7C0BF70
:102F2000FFF7C4BEFFF778BEFFF7A0BEFFF762BF92
:102F30000846FFF753BF08461146FFF7DDBE70474E
:102F4000044B00221A714FF47A711A73024A996085
:102F50001A6070475491FF1FF04D000008B1014BFB
:102F6000186070476491FF1F10B50E4C2378BBB9F1
:102F700001232370FFF79AFE08B1FFF7E0FF00F08E
:102F8000ADF908B100F030FF00F0F8FB08B100F037
:102F90009DFF00F0EDFD08B101F00AF80023237059
:102FA00010BD00BF6891FF1F10B50023B0FBF2F405
:102FB00002FB1400092894BF30303730C0B2C85427
:102FC00020460CB10133F1E7CA18547022469A42E8
:102FD00006DA885CCC5C8C54C8540132013BF6E7BD
:102FE000084610BD194B1A6842F480621A60184AEC
:102FF00000231370174A1370174A1370174A13707F
:10300000174A1370174B40F213321A604FF4517283
:103010005A60154BC0F344321A70C0F347125A700D
:103020000221042200F01F0098729A70D9745A7518
:1030300088221A743C22DA700C4B40226FF44A71D9
:103040001A700B444FF400521A60704734800440E9
:10305000EB91FF1F6A91FF1FF491FF1FEC91FF1F7F
:103060006991FF1F40A0044000A006402DE400E04D
:10307000134A937800F0030103F0EC030B4341077C
:1030800048BF43F01003937000F00F03042B0C496A
:1030900003D18B7943F040038B715379C20603F05F
:1030A000EF03074A48BF43F0100353719379810639
:1030B00003F0EF0348BF43F010039371704700BF64
:1030C00000A0064008B50E4B1B685B0500D408BD88
:1030D0000C4B1A7802F0FF0312B1FFF745FFF7E738
:1030E000094A4FF400511160084A0949D37040F26F
:1030F00003120A604A60074A1370074A137008BD3A
:10310000348004406991FF1F84E100E000A0064084
:1031100040A00440EB91FF1F6A91FF1F38B50446A1
:10312000094B1B7803F0FF05002BF9D12046012144
:10313000FFF738F820462946FFF714F8034B53F8F9
:103140003420034B1A6038BD6991FF1FD44C000036
:10315000F091FF1FF8B51D4B1B685A05064633D585
:103160001B4B1B680BB101221A701A4B1C780134DF
:10317000402C1F4628BF0024174D2B78A34218D19E
:10318000FEF7CCFD40280FDC144A13791B06F3D55B
:103190002B7813490133402B28BF0023C95CDBB2D5
:1031A000C9B2D1712B70E7E7FF28E5DDFFF7DCFE40
:1031B000E2E70B4BF6B21E550A4B01221A70074B81
:1031C000E4B2BC223C70DA70F8BD00BF3480044029
:1031D000F091FF1FF491FF1FEC91FF1F00A006402C
:1031E0006B91FF1F6991FF1F274B1B685A052DE943
:1031F000F04707468A4644D5244B1B680BB1012291
:103200001A703D4607EB0A039D4237D2DFF89080E3
:103210001F4E98F8004096F800900134402C28BFCB
:1032200000245FFA89F9A1451DD11A4BBC22DA703E
:10323000FEF774FD40280FDC164A13791B060FD5E4
:10324000337815490133402B28BF0023C95CDBB21A
:10325000C9B2D171337003E0FF2801DDFFF784FEAE
:1032600033784B45E4D00C4B15F8012B1A550B4B1A
:103270000122E4B21A7088F80040C3E7054BBC2273
:10328000DA70BDE8F08700BF34800440F091FF1F82
:10329000EC91FF1F00A006406B91FF1F6991FF1F7B
:1032A000F491FF1F08B5034B1B7813B1FFF75CFEC9
:1032B000F9E708BD6991FF1F064A074B1B78107894
:1032C000DBB2C0B283422CBF3F3000F1FF30C01AE6
:1032D000704700BFEC91FF1FF491FF1F054B18785A
:1032E000054B1B78C0B2DBB2984238BF4030C01AE1
:1032F000704700BFEB91FF1F6A91FF1F094B0A4AFD
:1033000019781378DBB2994208D00133402B28BFDB
:1033100000230649C85CDBB2137070474FF0FF30E2
:10332000704700BFEB91FF1F6A91FF1FAB91FF1F1A
:10333000084B1A78084B1B78DBB29A4207D001334E
:10334000402B28BF0023054AD05CC0B270474FF025
:10335000FF307047EB91FF1F6A91FF1FAB91FF1F7A
:103360000A4B1B685B050FD5094BDA7802F0CB02DC
:10337000DA7040225A74DA7842F03402DA70054B7F
:103380001A78054BD2B21A70704700BF34800440DF
:1033900000A006406A91FF1FEB91FF1F30B5304B34
:1033A0001A7912F0300F23D072B69A7D02F0FF0125
:1033B00022B9DA7940225A7462B619E062B6294B12
:1033C00029481A780478D2B2E4B21846244BDD7941
:1033D000531C402B28BF0023A342EDB202D0234A46
:1033E000D5541A464B1E13F0FF01EFD1D2B2027032
:1033F0001B4BD978C9B20C0620D51B7918061DD5F0
:103400001B4B1C4A1D781378EDB2DBB21046AB4261
:103410000CD0134A0133402B1479174C28BF0023DA
:10342000E45CE4B2D471127D072AF0D9DBB20370F8
:103430000B4B1A79120644BF7C22DA704B060ED56C
:10344000074B1A7912F0400F194608D00B4B002297
:103450001A700B4B1B6803B11A703C23CB7030BD44
:1034600000A00640EB91FF1F6A91FF1FAB91FF1F69
:10347000F491FF1FEC91FF1F6B91FF1F6991FF1FDC
:10348000F091FF1F194B1A6842F400621A60184A43
:1034900000231370174A1370174A1370174A1370DA
:1034A000174A1370174B40F213321A604FF45172DF
:1034B0005A60154BC0F344321A70C0F347125A7069
:1034C00000F01F000422022198729A70D9745A7574
:1034D00088221A743C22DA700C4B40221A70A3F234
:1034E0002B334FF400421A60704700BF3480044011
:1034F0005F92FF1FF691FF1F6892FF1F6092FF1FF0
:10350000F591FF1F0CB0044000B006402FE400E02E
:10351000134A937800F0030103F0EC030B434107D7
:1035200048BF43F01003937000F00F03042B0C49C5
:1035300003D18B7943F040038B715379C20603F0BA
:10354000EF03074A48BF43F0100353719379810694
:1035500003F0EF0348BF43F010039371704700BFBF
:1035600000B0064008B50E4B1B681B0500D408BD13
:103570000C4B1A7802F0FF0312B1FFF7F5FCF7E7E6
:10358000094A4FF400411160084A0949D37040F2DA
:1035900003120A604A60074A1370074A137008BD95
:1035A00034800440F591FF1F84E100E000B0064044
:1035B0000CB004405F92FF1FF691FF1F38B5044620
:1035C000094B1B7803F0FF05002BF9D120460121A0
:1035D000FEF7E8FD20462946FEF7C4FD034B53F8ED
:1035E0003420034B1A6038BDF591FF1FD44C000006
:1035F0006492FF1FF8B51D4B1B681A05064633D5AC
:103600001B4B1B680BB101221A701A4B1C7801343A
:10361000282C1F4628BF0024174D2B78A34218D111
:10362000FEF77CFB40280FDC144A13791B06F3D508
:103630002B7813490133282B28BF0023C95CDBB248
:10364000C9B2D1712B70E7E7FF28E5DDFFF78CFCED
:10365000E2E70B4BF6B21E550A4B01221A70074BDC
:10366000E4B2BC223C70DA70F8BD00BF3480044084
:103670006492FF1F6892FF1F6092FF1F00B0064018
:10368000F791FF1FF591FF1F274B1B681A052DE9C6
:10369000F04707468A4644D5244B1B680BB10122EC
:1036A0001A703D4607EB0A039D4237D2DFF890803F
:1036B0001F4E98F8004096F800900134282C28BF3F
:1036C00000245FFA89F9A1451DD11A4BBC22DA709A
:1036D000FEF724FB40280FDC164A13791B060FD592
:1036E000337815490133282B28BF0023C95CDBB28E
:1036F000C9B2D171337003E0FF2801DDFFF734FC5C
:1037000033784B45E4D00C4B15F8012B1A550B4B75
:103710000122E4B21A7088F80040C3E7054BBC22CE
:10372000DA70BDE8F08700BF348004406492FF1F68
:103730006092FF1F00B00640F791FF1FF591FF1F39
:103740006892FF1F08B5034B1B7813B1FFF70CFC01
:10375000F9E708BDF591FF1F064A074B1B78107863
:10376000DBB2C0B283422CBF273000F1FF30C01A59
:10377000704700BF6092FF1F6892FF1F054B1878CB
:10378000054B1B78C0B2DBB2984238BF4030C01A3C
:10379000704700BF5F92FF1FF691FF1F094B0A4A57
:1037A00019781378DBB2994208D00133402B28BF37
:1037B00000230649C85CDBB2137070474FF0FF303E
:1037C000704700BF5F92FF1FF691FF1F1F92FF1F00
:1037D000084B1A78084B1B78DBB29A4207D00133AA
:1037E000402B28BF0023054AD05CC0B270474FF081
:1037F000FF3070475F92FF1FF691FF1F1F92FF1F60
:103800000A4B1B681B050FD5094BDA7802F0CB0277
:10381000DA7040225A74DA7842F03402DA70054BDA
:103820001A78054BD2B21A70704700BF348004403A
:1038300000B00640F691FF1F5F92FF1F30B5304B7E
:103840001A7912F0300F23D072B69A7D02F0FF0180
:1038500022B9DA7940225A7462B619E062B6294B6D
:1038600029481A780478D2B2E4B21846244BDD799C
:10387000531C402B28BF0023A342EDB202D0234AA1
:10388000D5541A464B1E13F0FF01EFD1D2B202708D
:103890001B4BD978C9B20C0620D51B7918061DD54B
:1038A0001B4B1C4A1D781378EDB2DBB21046AB42BD
:1038B0000CD0134A0133282B1479174C28BF00234E
:1038C000E45CE4B2D471127D072AF0D9DBB2037054
:1038D0000B4B1A79120644BF7C22DA704B060ED5C8
:1038E000074B1A7912F0400F194608D00B4B0022F3
:1038F0001A700B4B1B6803B11A703C23CB7030BDA0
:1039000000B006405F92FF1FF691FF1F1F92FF1F3E
:103910006892FF1F6092FF1FF791FF1FF591FF1F35
:103920006492FF1F174B1A6842F480521A60164ABD
:1039300000231370154A1370154A1370154A13703B
:10394000154A1370154A40F2133111604FF451714A
:103950005160134AC0F344311170C0F3471100F0B5
:103960001F0051709072937013742C23D3700D4B01
:1039700040226FF44B711A700B444FF400321A60FE
:10398000704700BF34800440D392FF1F6A92FF1F2C
:10399000DC92FF1FD492FF1F6992FF1F08C00440F2
:1039A00000C0064031E400E0134A937800F00301C0
:1039B00003F0EC030B43410748BF43F0100393703F
:1039C00000F00F03042B0C4903D18B7943F0400323
:1039D0008B715379C20603F0EF03074A48BF43F0E7
:1039E000100353719379810603F0EF0348BF43F04E
:1039F00010039371704700BF00C0064008B50E4B1E
:103A00001B68DB0400D408BD0C4B1A7802F0FF03DE
:103A100012B1FFF7A9FAF7E7094A4FF40031116034
:103A2000084A0949D37040F203120A604A60074A03
:103A30001370074A137008BD348004406992FF1F59
:103A400084E100E000C0064008C00440D392FF1F9C
:103A50006A92FF1F38B50446094B1B7803F0FF0537
:103A6000002BF9D120460121FEF79CFB2046294678
:103A7000FEF778FB034B53F83420034B1A6038BD34
:103A80006992FF1FD44C0000D892FF1FF8B51D4B60
:103A90001B68DA04064633D51B4B1B680BB10122A9
:103AA0001A701A4B1C780134282C1F4628BF00249A
:103AB000174D2B78A34218D1FEF730F940280FDCC0
:103AC000144A13791B06F3D52B7813490133282B9D
:103AD00028BF0023C95CDBB2C9B2D1712B70E7E704
:103AE000FF28E5DDFFF740FAE2E70B4BF6B21E5583
:103AF0000A4B01221A70074BE4B2AC223C70DA7018
:103B0000F8BD00BF34800440D892FF1FDC92FF1F35
:103B1000D492FF1F00C006406B92FF1F6992FF1FE7
:103B200038B504464518AC4204D014F8010BFFF731
:103B3000ADFFF8E738BDFFFF08B5034B1B7813B1A5
:103B4000FFF712FAF9E708BD6992FF1F064A074B13
:103B50001B781078DBB2C0B283422CBF273000F153
:103B6000FF30C01A704700BFD492FF1FDC92FF1FC6
:103B7000054B1878054B1B78C0B2DBB2984238BFB2
:103B80004030C01A704700BFD392FF1F6A92FF1FD8
:103B9000094B0A4A19781378DBB2994208D00133ED
:103BA000402B28BF00230649C85CDBB21370704766
:103BB0004FF0FF30704700BFD392FF1F6A92FF1F84
:103BC0009392FF1F084B1A78084B1B78DBB29A427E
:103BD00007D00133402B28BF0023054AD05CC0B278
:103BE00070474FF0FF307047D392FF1F6A92FF1F5C
:103BF0009392FF1F024B1A78024BD2B21A70704791
:103C00006A92FF1FD392FF1F10B5214B1A799206BB
:103C10000FD5204AD87913781F490133402B0978F2
:103C200028BF00238B42C0B203D01C49C854DBB26A
:103C30001370174AD178C9B20C0616D51379180635
:103C400013D5174B17481C780378DBB29C4202D17E
:103C50006C23D37009E00133282B28BF0023124CBA
:103C6000E45CDBB2E4B2D47103704B060ED5084BB2
:103C70001A7912F0400F194608D00C4B00221A7026
:103C80000B4B1B6803B11A702C23CB7010BD00BF07
:103C900000C00640D392FF1F6A92FF1F9392FF1F3E
:103CA000DC92FF1FD492FF1F6B92FF1F6992FF1FD0
:103CB000D892FF1F1FB572B6154B70221A70154AA5
:103CC000412111700F2102F8011C80221A701A780C
:103CD0001206FCD5104B186862B6104B984298BF7C
:103CE0000A2301AC98BF584321460A22FFF75CF92A
:103CF0000023E15C0A4A29B102EB430001330A2B9D
:103D00004180F6D101335B00137004B010BD00BFD9
:103D10000000024007000240080002407F96980021
:103D20000A8DFF1F08B50368C9B21B68984708BD14
:103D300008B50368C9B21B68984708BD08B5036891
:103D4000C9B21B68984708BD08B50368C9B21B68AB
:103D5000984708BD4B0803F1376000F5D830B0FB39
:103D6000F1F0FFF73FB910B54B0803F1376000F5EC
:103D7000D8301446B0FBF1F0FFF734F92046BDE827
:103D80001040FFF775B9FFF79DB90846FFF7C6B9B0
:103D9000FFF7A4BAFFF7CCBAFFF7B0BAFFF782BAC1
:103DA000FFF7DEBAFFF788BA08B50846FFF7D2F981
:103DB000012008BD08B50846FFF7CCF9012008BD71
:103DC00010B5084614461146FFF70EFA204610BDFE
:103DD00038B508460D4600F01BFF0446214628462C
:103DE000FFF702FA204638BD7047FFFF044B002260
:103DF0001A714FF47A711A73024A99601A60704707
:103E0000E092FF1FA04E000008B50368C9B21B680E
:103E1000984708BD08B50368C9B21B68984708BD34
:103E200008B50368C9B21B68984708BD08B50368A0
:103E3000C9B21B68984708BD4B0803F1376000F50D
:103E4000D830B0FBF1F0FFF71DBB10B54B0803F104
:103E5000376000F5D8301446B0FBF1F0FFF712FBE5
:103E60002046BDE81040FFF753BBFFF77BBB084679
:103E7000FFF7A4BBFFF782BCFFF7AABCFFF78EBC1D
:103E8000FFF760BCFFF7BCBCFFF766BC08B508468F
:103E9000FFF7B0FB012008BD08B50846FFF7AAFBF5
:103EA000012008BD10B5084614461146FFF7ECFB8B
:103EB000204610BD38B508460D4600F0A9FE044660
:103EC00021462846FFF7E0FB204638BD7047FFFF3C
:103ED000044B00221A714FF47A711A73024A9960E6
:103EE0001A607047F092FF1FF04E000008B503689B
:103EF000C9B21B68984708BD08B50368C9B21B68FA
:103F0000984708BD08B50368C9B21B68984708BD43
:103F100008B50368C9B21B68984708BD4B0803F190
:103F2000B76000F55840B0FBF1F0FFF7FBBC10B5EF
:103F30004B0803F1B76000F558401446B0FBF1F0B0
:103F4000FFF7F0FC2046BDE81040FFF72DBDFFF75E
:103F500055BD0846FFF77EBDFFF70ABEFFF732BE2C
:103F6000FFF716BEFFF7E8BDFFF744BEFFF7EEBD53
:103F700008B50846FFF78AFD012008BD08B50846C8
:103F8000FFF784FD012008BD10B508461446114610
:103F9000FFF7C6FD204610BD38B508460D4600F0B7
:103FA00037FE044621462846FFF7BAFD204638BDB5
:103FB0007047FFFF044B00221A714FF47A711A7395
:103FC000024A99601A6070470093FF1F404F00003B
:103FD0002DE9F84FC1F30A57A7F2FF36132E024618
:103FE0000B4604460D4689468A4680461CDC002E58
:103FF00040DB3D4F374107EA010C5CEA000C18D06A
:1040000037A3D3E9002300F079F80022002300F061
:10401000A5FA28B1002D42DB2AEA07094FF0000873
:1040200040464946BDE8F88F332E06DDB6F5806F71
:1040300031D010461946BDE8F88FA7F2134C4FF067
:10404000FF3B2BFA0CFB1BEA000FF2D024A3D3E9B1
:10405000002300F053F80022002300F07FFA00282C
:10406000DED0002D22DB28EA0B08D1464046494627
:10407000BDE8F88F1AA3D3E9002300F03FF800222F
:10408000002300F06BFA0028CAD0002D1CDB4FF093
:104090000008C146C4E700F031F8BDE8F88F4FF4DE
:1040A000801A4AFA06F606EB050AB5E7142E14D074
:1040B000C7F586670123033703FA07F717EB0408F0
:1040C00028BF05EB030ACEE725F00042074B224349
:1040D00018BF99464FF00008A2E705F1010AC2E7B0
:1040E0009C7500883CE4377EFFFF0F000000F0BFA6
:1040F00081F0004102E000BF83F0004330B54FEA99
:1041000041044FEA430594EA050F08BF90EA020F05
:104110001FBF54EA000C55EA020C7FEA645C7FEA98
:10412000655C00F0E2804FEA5454D4EB5555B8BFBB
:104130006D420CDD2C4480EA020281EA030382EA2C
:10414000000083EA010180EA020281EA0303362DBE
:1041500088BF30BD11F0004F4FEA01314FF4801C91
:104160004CEA113102D0404261EB410113F0004FA3
:104170004FEA03334CEA133302D0524263EB43035A
:1041800094EA050F00F0A780A4F10104D5F1200EF8
:104190000DDB02FA0EFC22FA05F2801841F1000153
:1041A00003FA0EF2801843FA05F359410EE0A5F127
:1041B00020050EF1200E012A03FA0EFC28BF4CF058
:1041C000020C43FA05F3C01851EBE37101F000450E
:1041D00007D54FF0000EDCF1000C7EEB00006EEB1B
:1041E0000101B1F5801F1BD3B1F5001F0CD34908A5
:1041F0005FEA30004FEA3C0C04F101044FEA4452FC
:1042000012F5800F80F09A80BCF1004F08BF5FEA82
:10421000500C50F1000041EB045141EA050130BD62
:104220005FEA4C0C404141EB010111F4801FA4F105
:104230000104E9D191F0000F04BF01460020B1FA5A
:1042400081F308BF2033A3F10B03B3F120020CDA92
:104250000C3208DD02F1140CC2F10C0201FA0CF070
:1042600021FA02F10CE002F11402D8BFC2F1200CD5
:1042700001FA02F120FA0CFCDCBF41EA0C0190408B
:10428000E41AA2BF01EB0451294330BD6FEA0404D4
:104290001F3C1CDA0C340EDC04F11404C4F12002BF
:1042A00020FA04F001FA02F340EA030021FA04F3D1
:1042B00045EA030130BDC4F10C04C4F1200220FA28
:1042C00002F001FA04F340EA0300294630BD21FA66
:1042D00004F0294630BD94F0000F83F4801306BF2C
:1042E00081F480110134013D4EE77FEA645C18BF20
:1042F0007FEA655C29D094EA050F08BF90EA020FB7
:1043000005D054EA000C04BF1946104630BD91EAAE
:10431000030F1EBF0021002030BD5FEA545C05D1B1
:104320004000494128BF41F0004130BD14F58004F0
:104330003CBF01F5801130BD01F0004545F0FE4164
:1043400041F470014FF0000030BD7FEA645C1ABF99
:10435000194610467FEA655C1CBF0B46024650EAD0
:10436000013406BF52EA033591EA030F41F40021FC
:1043700030BD00BF90F0000F04BF0021704730B582
:104380004FF4806404F132044FF000054FF0000157
:1043900050E700BF90F0000F04BF0021704730B518
:1043A0004FF4806404F1320410F0004548BF4042ED
:1043B0004FF000013EE700BF42004FEAE2014FEA42
:1043C00031014FEA02701FBF12F07F4393F07F4F1D
:1043D00081F06051704792F0000F14BF93F07F4F4F
:1043E000704730B54FF4607401F0004521F0004192
:1043F00020E700BF50EA010208BF704730B54FF018
:1044000000050AE050EA010208BF704730B511F01C
:10441000004502D5404261EB41014FF4806404F154
:1044200032045FEA915C3FF4DCAE4FF003025FEAD6
:10443000DC0C18BF03325FEADC0C18BF033202EB5E
:10444000DC02C2F1200300FA03FC20FA02F001FAB8
:1044500003FE40EA0E0021FA02F11444C1E600BF57
:104460004FF0FF3C06E000BF4FF0010C02E000BF40
:104470004FF0010C4DF804CD4FEA410C7FEA6C5C23
:104480004FEA430C18BF7FEA6C5C1BD001B050EAC6
:10449000410C0CBF52EA430C91EA030F02BF90EAB1
:1044A000020F0020704710F1000F91EA030F58BF70
:1044B000994208BF90422CBFD8176FEAE37040F0D2
:1044C000010070474FEA410C7FEA6C5C02D150EA70
:1044D000013C07D14FEA430C7FEA6C5CD6D152EA2B
:1044E000033CD3D05DF8040B704700BF84461046F0
:1044F00062468C461946634600E000BF01B5FFF7EF
:10450000B7FF002848BF10F1000F01BD4DF808EDBE
:10451000FFF7F4FF0CBF012000205DF808FB00BF8F
:104520004DF808EDFFF7EAFF34BF012000205DF8E9
:1045300008FB00BF4DF808EDFFF7E0FF94BF012036
:1045400000205DF808FB00BF4DF808EDFFF7CEFF37
:1045500094BF012000205DF808FB00BF4DF808ED76
:10456000FFF7C4FF34BF012000205DF808FB00BF47
:104570004A0011D212F5001211D20DD56FF47873E2
:10458000B3EB62520ED44FEAC12343F0004343EA37
:10459000505323FA02F070474FF00000704750EA82
:1045A000013002D14FF0FF3070474FF000007047EC
:1045B00080F0004002E000BF81F0004142001FBFD8
:1045C0005FEA410392EA030F7FEA226C7FEA236CE1
:1045D0006AD04FEA1262D2EB1363C1BFD2184140D6
:1045E00048404140B8BF5B42192B88BF704710F06C
:1045F000004F40F4000020F07F4018BF404211F00F
:10460000004F41F4000121F07F4118BF494292EA76
:10461000030F3FD0A2F1010241FA03FC10EB0C00A2
:10462000C3F1200301FA03F100F0004302D549422F
:1046300060EB4000B0F5000F13D3B0F1807F06D3DC
:1046400040084FEA310102F10102FE2A51D2B1F1D4
:10465000004F40EBC25008BF20F0010040EA0300C9
:104660007047490040EB000010F4000FA2F1010276
:10467000EDD1B0FA80FCACF1080CB2EB0C0200FA00
:104680000CF0AABF00EBC25052421843BCBFD0404E
:104690001843704792F0000F81F4000106BF80F4C8
:1046A00000000132013BB5E74FEA41037FEA226C8B
:1046B00018BF7FEA236C21D092EA030F04D092F056
:1046C000000F08BF0846704790EA010F1CBF00208A
:1046D000704712F07F4F04D1400028BF40F00040E7
:1046E000704712F100723CBF00F50000704700F007
:1046F000004343F0FE4040F4000070477FEA22622E
:1047000016BF08467FEA23630146420206BF5FEAFE
:10471000412390EA010F40F4800070474FF00003FE
:1047200004E000BF10F0004348BF40425FEA000CC5
:1047300008BF704743F0964301464FF000001CE06D
:1047400050EA010208BF70474FF000030AE000BFC3
:1047500050EA010208BF704711F0004302D5404201
:1047600061EB41015FEA010C02BF84460146002073
:1047700043F0B64308BFA3F18053A3F50003BCFA8E
:104780008CF2083AA3EBC25310DB01FA02FC63443B
:1047900000FA02FCC2F12002BCF1004F20FA02F242
:1047A00043EB020008BF20F00100704702F1200235
:1047B00001FA02FCC2F1200250EA4C0021FA02F296
:1047C00043EB020008BF20EADC7070474FF0FF0C9B
:1047D0001CEAD0521EBF1CEAD15392EA0C0F93EA96
:1047E0000C0F6FD01A4480EA010C400218BF5FEA38
:1047F00041211ED04FF0006343EA501043EA5111AB
:10480000A0FB01310CF00040B1F5000F3EBF4900A4
:1048100041EAD3715B0040EA010062F17F02FD2AA8
:104820001DD8B3F1004F40EBC25008BF20F001008B
:10483000704790F0000F0CF0004C08BF49024CEAA2
:10484000502040EA51207F3AC2BFD2F1FF0340EA34
:10485000C250704740F400004FF00003013A5DDCA5
:1048600012F1190FDCBF00F000407047C2F10002E6
:10487000410021FA02F1C2F1200200FA02FC5FEAD3
:10488000310040F1000053EA4C0308BF20EADC701D
:10489000704792F0000F00F0004C02BF400010F48F
:1048A000000F013AF9D040EA0C0093F0000F01F03C
:1048B000004C02BF490011F4000F013BF9D041EA5E
:1048C0000C018FE70CEAD15392EA0C0F18BF93EA60
:1048D0000C0F0AD030F0004C18BF31F0004CD8D18A
:1048E00080EA010000F00040704790F0000F17BF11
:1048F00090F0004F084691F0000F91F0004F14D057
:1049000092EA0C0F01D142020FD193EA0C0F03D1AE
:104910004B0218BF084608D180EA010000F00040B1
:1049200040F0FE4040F40000704740F0FE4040F48C
:10493000400070474FF0FF0C1CEAD0521EBF1CEA2B
:10494000D15392EA0C0F93EA0C0F69D0A2EB030249
:1049500080EA010C49024FEA402037D04FF08053E3
:1049600043EA111143EA10130CF000408B4238BFA8
:104970005B0042F17D024FF4000C8B4224BF5B1AB6
:1049800040EA0C00B3EB510F24BFA3EB510340EA04
:104990005C00B3EB910F24BFA3EB910340EA9C00B2
:1049A000B3EBD10F24BFA3EBD10340EADC001B0122
:1049B00018BF5FEA1C1CE0D1FD2A3FF650AF8B42C6
:1049C00040EBC25008BF20F0010070470CF0004CD3
:1049D0004CEA50207F32C2BFD2F1FF0340EAC250FE
:1049E000704740F400004FF00003013A37E792F0BF
:1049F000000F00F0004C02BF400010F4000F013A1D
:104A0000F9D040EA0C0093F0000F01F0004C02BF17
:104A1000490011F4000F013BF9D041EA0C0195E780
:104A20000CEAD15392EA0C0F08D142027FF47DAF19
:104A300093EA0C0F7FF470AF084676E793EA0C0F09
:104A400004D14B023FF44CAF08466EE730F0004C07
:104A500018BF31F0004CCAD130F000427FF45CAF97
:104A600031F000437FF43CAF5FE700BF4FF0FF3C05
:104A700006E000BF4FF0010C02E000BF4FF0010C58
:104A80004DF804CD4FEA40024FEA41037FEA226C21
:104A900018BF7FEA236C11D001B052EA530C18BF43
:104AA00090EA010F58BFB2EB030088BFC81738BFA8
:104AB0006FEAE17018BF40F0010070477FEA226C96
:104AC00002D15FEA402C05D17FEA236CE4D15FEA92
:104AD000412CE1D05DF8040B704700BF84460846C6
:104AE0006146FFE70FB5FFF7C9FF002848BF10F187
:104AF000000F0FBD4DF808EDFFF7F4FF0CBF0120CC
:104B000000205DF808FB00BF4DF808EDFFF7EAFF55
:104B100034BF012000205DF808FB00BF4DF808ED10
:104B2000FFF7E0FF94BF012000205DF808FB00BF05
:104B30004DF808EDFFF7D2FF94BF012000205DF88B
:104B400008FB00BF4DF808EDFFF7C8FF34BF012098
:104B500000205DF808FB00BF42000ED2B2F1FE4F0C
:104B60000BD34FF09E03B3EB126209D44FEA00233C
:104B700043F0004323FA02F070474FF00000704703
:104B800012F1610F01D1420202D14FF0FF307047A4
:104B90004FF00000704700BF03460846194600F07A
:104BA00001B8FFFF70B5064C06460D4613462CB102
:104BB00031462A460220AFF3008070BD204670BD0A
:104BC0000000000070B50E4B0E4DED1AAD10002424
:104BD0001E46AC4204D056F8242090470134F8E732
:104BE00000F0D2F9084D094BED1AAD1000241E4615
:104BF000AC4204D056F8242090470134F8E770BD49
:104C0000944F0000944F0000AC4F0000944F000000
:104C1000034613F8012B002AFBD1181A01387047FC
:104C20000000000000000000750400009D0400006A
:104C300065040000B9080000DB08000073040000F0
:104C400000000000000000001B1D00001B1D0000F4
:104C500000000000000000001B1D00001B1D0000E4
:104C600003040605141519202325241A1B1C1617E6
:104C700010110E0F0203040506070C0D08090A0B9C
:104C8000021821040607020100FFFFFFFFFFFFFFDC
:104C90000000000000000000A914000061160000E0
:104CA000536574757020446F6E65004F7065726156
:104CB00074696F6E204D6F64653A2000050E080917
:104CC0000D0C06070F04001303931A9217C5858471
:104CD0008687C4FF4008FE4340A004404408FE43CA
:104CE00044A004400018FE4300C004403000FE43CE
:104CF000309004403400FE43349004401C18FE43BE
:104D00001CC004401018FE4310C004400818FE43A5
:104D100008C004400C18FE430CC004400C10FE43B5
:104D20000CB004401010FE4310B004401810FE43B5
:104D300018B004401C10FE431CB004401410FE4385
:104D400014B004400418FE4304C004400010FE43A5
:104D500000B004400008FE4300A004400408FE43E5
:104D600004A004400C08FE430CA004400808FE43C5
:104D700008A004401418FE4314C004401818FE4351
:104D800018C004400410FE4304B004400810FE4361
:104D900008B004401400FE43149004404C08FE4345
:104DA0004CA004400420FE4304D004402410FE43E1
:104DB00024B004402010FE4320B004402810FE43DD
:104DC00028B004402C10FE432CB004400020FE43C9
:104DD00000D004404808FE4348A004401000FE43B1
:104DE000109004400D0AFFFF0000000000000000CA
:104DF000312F0000372F0000212F0000252F000049
:104E0000292F00002D2F0000151915190000FFFF94
:104E100000010000308CFF1F1200000000020000A3
:104E20005A8CFF1F4900000000220100A38CFF1FC5
:104E300021000000002101008C8CFF1F09000000F0
:104E400000220000C48CFF1F1C0000000021000095
:104E50006C8CFF1F0900000000030000068DFF1F7F
:104E60000000000001030904428CFF1F0000000045
:104E700002030904E08CFF1F000000000303090483
:104E80000A8DFF1F0000000000000000000000006D
:104E900000000000FFFFFFFF000000000000000016
:104EA000A93D0000C13D0000913D0000993D00007A
:104EB000953D00009D3D0000553D0000673D000010
:104EC000873D00008B3D0000A13D0000A53D000096
:104ED000253D0000313D00003D3D0000493D000002
:104EE000D13D0000B53D00000000000000000000C2
:104EF0008D3E0000A53E0000753E00007D3E000096
:104F0000793E0000813E0000393E00004B3E00002B
:104F10006B3E00006F3E0000853E0000893E0000B1
:104F2000093E0000153E0000213E00002D3E00001D
:104F3000B53E0000993E00000000000000000000A7
:104F4000713F0000893F0000593F0000613F0000B1
:104F50005D3F0000653F00001D3F00002F3F000047
:104F60004F3F0000533F0000693F00006D3F0000CD
:104F7000ED3E0000F93E0000053F0000113F00003B
:104F8000993F00007D3F0000F8B500BFF8BC08BCA9
:104F90009E46704735040000D5180000412F0000E0
:0C4FA000ED3D0000D13E0000B53F0000D8
:104FAC000000000000600640016006400260064000
:104FBC00036006400460064005600640066006403B
:104FCC000760064008600640096006400A6006401B
:104FDC000B60064000000000000000000000000014
:104FEC0000000000000000000000000000000000B5
:104FFC0000000000000000000000000000000000A5
:10500C000000000000000000000000000000000094
:10501C000000000000000000000000000000000084
:10502C000000000000000000000000000000000074
:10503C000000000000000000000000000000000064
:10504C000000000000000000000000000000000054
:10505C000000000000000000000000000000000044
:10506C000000000000000000000000000000000034
:10507C000000000000000000000000000000000024
:10508C000000000000000000000000000000000014
:10509C000000000000000000000000000000000004
:1050AC0000000000000000000000000000000000F4
:1050BC0000000000000000000000000000000000E4
:1050CC0000000000000000000000000000000000D4
:1050DC0000000000000000000000000000000000C4
:1050EC0000000000000000000000000000000000B4
:1050FC0000000000000000000000000000000000A4
:10510C000000000000000000000000000000000093
:10511C000000000000000000000000000000000083
:10512C000000000000000000000000000000000073
:10513C000000000000000000000000000000000063
:10514C000000000000000000000000000000000053
:10515C000000000000000000000000000000000043
:10516C000000000000000000000000000000000033
:10517C000000000000000000000000000000000023
:10518C000000000000000000000000000000000013
:10519C000000000000000000000000000000000003
:1051AC0000000000000000000000000000000000F3
:1051BC0000000000000000000000000000000000E3
:1051CC0000000000000000000000000000000000D3
:1051DC0000000000000000000000000000000000C3
:1051EC0000000000000000000000000000000100B2
:1051FC0000000000000000000000000000000000A3
:10520C00000000000070064001700640027006406D
:10521C000370064004700640057006400670064098
:10522C000770064008700640097006400A70064078
:10523C000B700640000000000000000000000000A1
:10524C000000000000000000000000000000000052
:10525C000000000000000000000000000000000042
:10526C000000000000000000000000000000000032
:10527C000000000000000000000000000000000022
:10528C000000000000000000000000000000000012
:10529C000000000000000000000000000000000002
:1052AC0000000000000000000000000000000000F2
:1052BC0000000000000000000000000000000000E2
:1052CC0000000000000000000000000000000000D2
:1052DC0000000000000000000000000000000000C2
:1052EC0000000000000000000000000000000000B2
:1052FC0000000000000000000000000000000000A2
:10530C000000000000000000000000000000000091
:10531C000000000000000000000000000000000081
:10532C000000000000000000000000000000000071
:10533C000000000000000000000000000000000061
:10534C000000000000000000000000000000000051
:10535C000000000000000000000000000000000041
:10536C000000000000000000000000000000000031
:10537C000000000000000000000000000000000021
:10538C000000000000000000000000000000000011
:10539C000000000000000000000000000000000001
:1053AC0000000000000000000000000000000000F1
:1053BC0000000000000000000000000000000000E1
:1053CC0000000000000000000000000000000000D1
:1053DC0000000000000000000000000000000000C1
:1053EC0000000000000000000000000000000000B1
:1053FC0000000000000000000000000000000000A1
:10540C000000000000000000000000000000000090
:10541C000000000000000000000000000000000080
:10542C000000000000000000000000000000000070
:10543C000000000000000000000000000000000060
:10544C00000000000000000000000000000201004D
:10545C000000000000000000000000000000000040
:10546C0000000000010000000A040800FFFFFFFF1D
:10547C001201000200000040C01686040001010267
:10548C00030118035400650065006E007300790079
:10549C006400750069006E006F000902490002018A
:1054AC0000C03209040000020300000009211101B0
:1054BC000001221C000705830340000107050403BB
:1054CC004000010904010002030000000921110140
:1054DC00000122210007058103400001070502039A
:1054EC0020000206C9FF0904A15C7508150026FFFF
:1054FC000095400975810295200976910295040961
:10550C0076B102C006ABFF0A0002A10175081500B6
:10551C0026FF00954009018102954009029102C0C5
:10552C0026035400650065006E007300790064006A
:10553C00750069006E006F0020005200610077005A
:10554C00480049004400040309040C030000000057
:10555C00000000000000000000000000000000003F
:00000001FF
