:1000000000800020BD010000291B0000F51A00003F
:10001000F51A0000F51A0000F51A0000F51A0000A4
:10002000F51A0000F51A0000F51A0000291B00005F
:10003000291B0000F51A0000291B0000E51A00002A
:10004000291B0000291B0000291B0000291B0000A0
:10005000291B0000291B0000291B0000291B000090
:10006000291B0000291B0000291B0000291B000080
:10007000291B0000291B0000291B0000291B000070
:10008000291B0000291B0000291B0000291B000060
:10009000291B0000291B0000291B0000291B000050
:1000A000A90E0000B50E0000291B0000291B00004E
:1000B000291B0000291B0000291B0000291B000030
:1000C000291B0000291B0000291B0000291B000020
:1000D000291B0000291B0000291B0000291B000010
:1000E000291B0000291B0000291B0000291B000000
:1000F000291B0000AD320000291B00004D37000015
:10010000291B0000193B0000291B0000291B0000CF
:10011000291B0000291B0000291B0000291B0000CF
:10012000291B0000291B0000291B0000291B0000BF
:10013000291B0000291B0000291B0000291B0000AF
:10014000291B0000291B0000291B0000291B00009F
:10015000291B0000291B0000291B0000291B00008F
:10016000291B00005D240000291B0000291B000042
:10017000291B0000291B0000291B0000291B00006F
:10018000291B0000291B0000291B0000291B00005F
:10019000291B0000291B0000291B0000291B00004F
:1001A000291B0000291B0000291B0000291B00003F
:1001B000291B0000291B0000291B0000564B4CF294
:1001C000205210B51A804DF628121A8000BF00BFC9
:1001D00001F0AEFC514B4FF010621A60504A9A6029
:1001E000504ADA60A3F53043203B1A6812F480725B
:1001F00004D14D490A604FF4A8521A604B4B1A784B
:10020000110703D51A7842F008021A70484B2A22C7
:100210001A700023474A48499818884204D247492F
:10022000595899500433F5E7454A464B9A424FF0E6
:10023000000302D242F8043BF7E74349434A5958C6
:1002400099500433B3F5DE7FF7D1414B802103F899
:10025000011B40498B42F9D13F4B1A603F4B0A22A8
:100260001A70A3F5805324225A70A0221A709A792A
:100270009207FCD59A79D406FCD4394B9A7902F0CE
:100280000C02082AF9D103221A7140225A719A7974
:100290009006FCD5324B9A795106FBD5314A32494A
:1002A00011600221516020221A702D4B9B7903F0BE
:1002B0000C030C2BF9D12D4B2D4A1A602D4B2E4AD5
:1002C0001A6000225A60072243F8042C2B4AC3F814
:1002D0000C2D62B601F0AAFF134B1B68DA0705D597
:1002E000274801F0CDFD274B274A1A60274B1B7882
:1002F0005B0609D5234C244A2368934204D1204845
:1003000001F0BEFD0023236004F004FC01F016FCA4
:1003100002F0A4FDFEE700BF0E200540308004403F
:10032000823F04000100002B14D0034002D007409C
:1003300000E007406087FF1F1C8DFF1FDC4E0000A0
:100340001C8DFF1F1893FF1F000000000082FF1F7D
:1003500000E400E05FE400E008ED00E0005006404B
:100360000040064044800440000003010480044033
:10037000C010050014E000E0FF760100000020201E
:10038000CCC91F561CE00340A5C3945A00F0074097
:10039000FFFFFFFFFFFFFFFFFFFFFFFFFFFFFFFF6D
:1003A000FFFFFFFFFFFFFFFFFFFFFFFFFFFFFFFF5D
:1003B000FFFFFFFFFFFFFFFFFFFFFFFFFFFFFFFF4D
:1003C000FFFFFFFFFFFFFFFFFFFFFFFFFFFFFFFF3D
:1003D000FFFFFFFFFFFFFFFFFFFFFFFFFFFFFFFF2D
:1003E000FFFFFFFFFFFFFFFFFFFFFFFFFFFFFFFF1D
:1003F000FFFFFFFFFFFFFFFFFFFFFFFFFFFFFFFF0D
:10040000FFFFFFFFFFFFFFFFFFFFFFFFFEFFFFFFFD
:1004100010B5054C237833B9044B13B10448AFF33E
:1004200000800123237010BD1C8DFF1F0000000001
:10043000DC4E000008B5064B1BB106480649AFF379
:1004400000800648036813B1054B03B1984708BD07
:1004500000000000DC4E0000208DFF1F1C8DFF1FE0
:10046000000000002DE9F84304460E461546994663
:1004700004F5A07800F03AFE204B23602146324676
:1004800004F5B077404600F081F804F5C0762146C7
:100490002A46384600F07AF821464A46304600F0AF
:1004A00075F8C646BEE80F0004F5D0750FC59EE886
:1004B0000F0085E80F000FCF04F5E0750FC597E832
:1004C0000F0085E80F000FCE04F5F0750FC596E814
:1004D0000F0004F5007685E80F0021469DF82020E6
:1004E000304600F053F80FCE04F508750FC596E8B6
:1004F0000F0085E80F002046BDE8F883784B000028
:10050000164B70B50446036000F5087600F51075CB
:10051000B54204D0203D284600F086F8F8E704F5FF
:100520000075284600F080F804F5D076B54204D076
:10053000203D284600F078F8F8E704F5C07000F098
:1005400073F804F5B07000F06FF804F5A07000F0D7
:100550006BF8204600F0E6FE204670BD784B0000A8
:1005600038B5044604F5D07500F022FF284600F0A7
:10057000B4F804F5E07000F0B0F804F5F07000F0A5
:10058000ACF82846BDE8384000F0A7B8022A70B59C
:10059000027003D0531F5D425D4100E001252C2411
:1005A000C4740D24532304752D2403744475272328
:1005B00008242E264374C4750023C476382483741B
:1005C00083750676437631260477437714B2322357
:1005D00083774570C160867601EB84035DB15D6E03
:1005E0002D7885705D6E6D78C5705D6EAD78057126
:1005F0005B6EDB780AE01D692D7885701D696D786A
:10060000C5705D6E2D7805715B6E5B7801EB8404BF
:100610004371636B1B788371636B11445B78C371A7
:1006200091F87F30037270BD704710B5447843185D
:100630003CB9012905D898781146BDE8104001F071
:10064000DFBC72B6C068997800F59270120100F0B4
:100650009DFC62B610BD08B50144887901F0B8F977
:1006600080B208BD10B5C368017A044601F00101EB
:1006700093F87C0001F088FCE368217A93F87D0010
:10068000C1F3400101F080FCE368217A93F87E0019
:10069000C1F38001BDE8104001F076BC70B504469E
:1006A0000D461646FFF7DEFF72B6E068217C883003
:1006B00000F04EF9E0682946883000F041F8E06823
:1006C0003146883000F03CF8E06800214FF47A723F
:1006D000883000F021FA62B670BD10B50446417C46
:1006E000827CFFF7DBFF2046E17C227DFFF7D6FF0F
:1006F0002046E17C227DFFF7D1FFA37DE27D617D75
:100700001A432046FFF7CAFF2046217E627EFFF78C
:10071000C5FF2046A17EE27EFFF7C0FF2046217F75
:10072000627FFFF7BBFF0520BDE8104001F06ABD06
:100730000369D3F83801D3F83431C01A70477047D1
:100740000369D3F84422B2F5817F09D8D3F8442253
:10075000501CC3F844021344012083F83C11704735
:10076000012303710020704730B50469D4F8443286
:10077000B3F5817F1DD8D4F84432D4F84452C3F580
:10078000817301332C449A4204F59E7402D90122EC
:1007900002711A460023934203D0CD5CE554013325
:1007A000F9E70269D2F844121944C2F84412184613
:1007B00030BD01230371002030BDFFFF10B50022C2
:1007C0004FF47A74027184600273054C0275054A15
:1007D00004604FF41874417304FB0121016110BDE2
:1007E000884B00006487FF1F014B0360704700BF08
:1007F000884B0000F0B59DF814409DF818509DF806
:10080000206029B94C4FD7F800C04CF0400C06E0EE
:10081000012906D1484FD7F800C04CF0800CC7F82A
:1008200000C0002780F84B7280F84822476932B92F
:1008300020233B7003681A70C3691A7015E0002CFE
:100840000CBF202228223A70076801D0A34201D2AF
:100850005A0000E06200D2B23A70C26924B1A342E9
:1008600034BF64005C00E4B214709DF81C3040F2A8
:100870000362002B40F2646440F2032308BF4FF48C
:10088000197308BF224671B9012D05D12B4A80F892
:1008900049521360536018E0294A80F849121360E6
:1008A00042F8043C11E001290FD1032D06D1254B5C
:1008B00080F849521A6043F8042C06E0022280F8BE
:1008C0004922214A13600432136043680A2E1BD860
:1008D000DFE806F01A06080A0C0E101214161800AB
:1008E0001F2212E01D2210E085220EE014220CE0EF
:1008F00045220AE00D2208E00B2206E0092204E06E
:10090000022202E0002200E027221A7083690422FA
:100910001A7090F8482283680AB9802200E0C02249
:100920001A7011B94FF0807203E0012903D14FF022
:100930000072064B1A60F0BD3480044000A00440F1
:100940000CA0044004D0044028B0044000E100E0C2
:100950000369490083F83C1103690122C3F844226A
:100960000022027183F84B2270472DE9F041D0F844
:10097000445204460F461646002D36D0C368122254
:100980001A7083681A7802F0200202F0FF051AB18B
:10099000B4221A70002513E001F016FC8046E368CB
:1009A0001B789B0606D5F6B101F00EFCC8EB0000E3
:1009B000B04218D3002384F84832A368B0221A70DA
:1009C000012384F84B320023C4F84032A36884F832
:1009D0004A72F0221A70D4F840222369144494F821
:1009E0003C211A7001E00125D9E72846BDE8F081D5
:1009F0002DE9F041069D04460E461F46002A34D0DC
:100A0000C0F85022C3680022C0F83421C0F8382151
:100A100012221A7082681378990601D5B42313E064
:100A200001F0D2FB8046E3681B789B0607D5002DBA
:100A3000F9D001F0C9FBC8EB0000A842F3D30023B2
:100A4000A26884F84832B0231370022384F84B3232
:100A5000A36884F84A72F0221A70760046F0010604
:100A60002369F6B21E70BDE8F081BDE8F08103692C
:100A700093F84B32043B032B07D8DFE803F0040262
:100A80000B0402207047042070470079003018BF23
:100A9000012070470320704790F84B326BB190F8FB
:100AA0004B32052B09D090F84B32062B05D090F82D
:100AB0004B02C31F5842584170470120704770B520
:100AC00004460D4601F080FB06462046FFF7E4FF92
:100AD00030B9002DF9D001F077FB801BA842F4D388
:100AE00094F84B32012B13D094F84B32022B0FD0D9
:100AF00094F84B32032B0BD04FF4A073013B7FF4DF
:100B0000FDAF94F84B02D0F1010038BF002070BD5A
:100B1000042384F84B32EFE738B5044615460069E4
:100B20003222FFF722FF294620752069FFF7C7FF11
:100B30002046BDE83840FFF79ABF37B504460AB9EA
:100B400000200BE032250095FFF752FF2046069962
:100B5000FFF7B5FF0028F3D0D4F8380103B030BD5B
:100B6000D0F83421D0F838319A4208D2D0F8343154
:100B70005A1CC0F83421184490F8300070474FF0E8
:100B8000FF3070470069FFF7EBBFD0F83421D0F891
:100B900038319A423DBFD0F83431C01890F8300057
:100BA0004FF0FF3070470069FFF7EFBF38B5C168FD
:100BB00083680D781A78D2B204469006EDB26ED5ED
:100BC000D00648D594F84B22012A1BD115F0010517
:100BD000D4F8402205D02AB3062284F84B22802282
:100BE000D8E00132C4F84022D4F844128A4202D339
:100BF00084F84B5229E0D4F840222369224492F829
:100C00003C21C7E094F84B22022A1AD1E90607D505
:100C1000072284F84B2280221A70E3681222EDE04A
:100C2000EA0701D50522D8E7032284F84B22D4F83D
:100C30005022012A0CBFE822E0221A7023691B7897
:100C4000DAE094F84B22042AC9D194F84A22012A06
:100C5000C5D0B0229EE0D4F83811D4F85022023129
:100C6000914200F0CD8094F84B22042A04D194F8EC
:100C70005522002A00F0C480D4F83821D4F850322C
:100C800001329A4280F0BF8094F84B32042B40F03E
:100C9000E48094F85532002B40F0B580DDE015F08B
:100CA000100F05F0400304D010200870002B00F056
:100CB000A38003F0FF01002B52D094F84B32092B94
:100CC00004D1D4F85832002B40F0E28005F004053E
:100CD00005F0FF03EDB1082384F84B320023C4F87C
:100CE0004432D4F85C3203B19847D4F844320BB99B
:100CF00084F83C31A368D0221A7023691A7852080C
:100D000084F84C2294F83C211A700123C4F8403234
:100D100072E094F8492284F854320AB9122002E0B1
:100D2000012A02D111205E4903E0022A03D15D4964
:100D30001E20032203E0032A03D15A491F2001F099
:100D400041F8092384F84B320023C4F83831A368F2
:100D5000C0221A7023691B785B0884F84C324BE080
:100D600002F0100202F0FF03F2B115F0010513D1F9
:100D7000D4F84022D4F844329A4207D2D4F8403210
:100D80005A1C2344C4F8402293F83C5123691D7037
:100D9000A368D0221A702FE0A368C0221A702369BA
:100DA0001B7884F84B1227E094F8492284F85432D7
:100DB0000AB9122002E0012A02D11120384903E0C9
:100DC000022A03D137491E20032203E0032A03D15C
:100DD00034491F2000F0F6FF23691A78D4F838311F
:100DE000B3F5817FD2B207D8D4F83831591C2344E7
:100DF000C4F8381183F83020E36802221A7038BD35
:100E0000E8221A7038E794F84B220023042A84F869
:100E1000553201D084F84B32A368B0221A7023698E
:100E20001A78D4F83831B3F5817FD2B207D8D4F824
:100E30003831591C2344C4F8381183F8302094F811
:100E40004A32012B06D12023013B7FF4FDAFA3687A
:100E500080221A7094F84B320EE023691A78D4F885
:100E60003831B3F5817F07D8D4F83831591C234481
:100E7000C4F8381183F8302094F84B32042BBBD1DE
:100E800094F85532002BB7D1012384F85532B3E7DB
:100E90000022C4F83421D4F83801984716E700BF7F
:100EA000550F0000610F000001480021FFF77EBED2
:100EB0006487FF1F01480121FFF778BEC489FF1F27
:100EC00010B5C3681B7803F02003044603F0FF024B
:100ED000EBB990F8493280F84B220BB912200AE0A6
:100EE000012B01D1112006E0022B01D11E2002E0CE
:100EF000032B02D11F2000F0ABFFD4F858323BB3D4
:100F00000022C4F83421D4F83801984710BD90F875
:100F100054320133DBB2012B80F8543204D890F8FC
:100F20004832012B00D110BD94F849320BB9122080
:100F30000AE0012B08BF112006D0022B08BF1E209B
:100F400002D0032B04D11F20BDE8104000F080BF69
:100F500010BDFFFF01480021FFF7B2BF6487FF1FEC
:100F600001480121FFF7ACBFC489FF1F08B5036822
:100F7000C9B21B68984708BD38B504460D46043011
:100F80000121FFF71BFC2570204638BD034670B5D4
:100F9000041D0E46204619781546FFF7D9FCB11CF2
:100FA00020468900FFF7E2FF29462046FFF7DEFFD3
:100FB000290A2046FFF7DAFF204601216422BDE816
:100FC0007040FFF7A9BD73B50446051D0E462846BF
:100FD0002178FFF7BDFC31462846FFF7B1FB2846D4
:100FE00001216422FFF798FD0122642321780093F8
:100FF00060691346FFF7A1FD6069FFF7B1FDC0B25C
:1010000002B070BD70B50346041D0D462046197828
:101010001646FFF79DFC29462046FFF791FB314617
:101020002046FFF78DFB204601216422BDE8704079
:10103000FFF772BD00210A46FFF7E4BF1FB500228B
:101040000223417C02928DE80C00032303930446A3
:1010500013464069FFF7CEFB204604B0BDE81040C0
:10106000FFF7E8BFF8B5064608461E4903F056FBF1
:1010700001461D4803F006FC4FF07E5103F044FA90
:101080004FF07C5103F042FA03F03EF902F048FFC2
:1010900004460D4630460021FFF795FF00F06F0231
:1010A000074642F0100230460021FFF7ABFF294609
:1010B000204603F005FAFE21C2B23046FFF7A2FF38
:1010C0003A4630460021FFF79DFF052001F09AF8CF
:1010D00067F05E0230460021D2B2BDE8F840FFF76B
:1010E00091BF00BF6666663F20BCBE458A4BF0B527
:1010F000036007234371894B1A460D210446017191
:10110000861D32F8020BDF881288228104F10A0260
:10111000A261E26104F10E0262621A8922855A8993
:1011200062859A89A285DA89E080E28598881A8AA0
:10113000608104F1080504F10C00A781266104F127
:10114000280C04F12A0E04F12C0704F12E06228645
:101150005A8A656120626286C4F834C0C4F838E0F7
:10116000E7632664A4F85B205A8B84F85210A4F835
:101170005D20998AA4F8551004F15F02D3F8161087
:10118000A2671A46C4F8571004F15D0104F1320059
:10119000616732F8201FA0640920927884F84E001D
:1011A0000A20D3F81CC084F84F0084F87E200B205E
:1011B00053F8232F84F8500004F130050C2004F17B
:1011C0005707012604F1550E9B88656484F8510089
:1011D000002504F15B00C4F85FC0E76604F1530C1E
:1011E0004027C4F864C0C4F868E0C4F87F208DB01C
:1011F0002067A4F87C1084F84C50294684F84D6090
:1012000084F8535084F8546004F18800A4F88330C3
:1012100084F8857084F88670FFF7D0FA394684F830
:10122000205184F8215184F8225104F59270FFF77F
:10123000A3FE2079314600F0C7FE6079314600F008
:10124000C3FE0026631901211B69985D013600F079
:10125000BBFE042EF6D10435182DF2D10026002550
:10126000A31900215B6B585D013500F0ADFE042D24
:10127000F6D10436182EF2D10C2000F055FB2020B8
:1012800000F07CFB082000F00BFE0020244900F059
:1012900013FE0120224900F00FFE0220204900F039
:1012A0000BFE402105A8FFF767FE9DF8143084F877
:1012B00024319DF81C3084F82C31089BC4F830315F
:1012C0009DF8243084F834319DF8253084F8353188
:1012D0000A9BC4F838319DF82C3084F83C3106A8BC
:1012E000FFF782FA00256319012193F87C0001358C
:1012F00000F06AFE032DF6D10022D4F8980094F88D
:10130000951000920192029203951346FFF772FA2C
:1013100020460DB0F0BD00BFA84B0000B04B000050
:101320000000C84410B5064B0360044600F59470F5
:10133000FFF75AFA04F18800FFF756FA204610BD6D
:10134000A84B000038B50D4672B600F592742046E1
:10135000FFF774FE284603F089F901462046FFF79F
:1013600081FE62B638BD08B572B60A21A03001F020
:1013700013FC62B608BD38B5044672B60021E030F1
:1013800001F0DCFB62B610F0FF0010D094F886305C
:10139000226894F8E01055682344204693F8DF2033
:1013A00093F8DE30A8472046FFF7DDFF012038BD67
:1013B00038B54FF47A710546FFF7C4FF6524284617
:1013C000FFF7D9FF08B1013CF9D138BD10B590F84D
:1013D000E14080F82041012C1FD002D3022C2AD0FA
:1013E00010BD90F8E23090F8E420003318BF0123DC
:1013F00080F8403290F8E33003EB0223A0F8423249
:1014000090F8EA3080F8443290F8EB3080F82131DF
:1014100090F8FE3080F8603210BD90F8E230002B7A
:1014200049D02146407900F0AFFD21460D20BDE8AE
:10143000104000F0A9BD90F8E23080F8483290F8F2
:10144000E33080F8493290F8E43080F84A3290F87E
:10145000E53080F84B3290F8EA3080F84E3290F860
:10146000EB3080F84F3290F8EC3080F8503290F842
:10147000ED3080F8513290F8F23080F8543290F824
:10148000F33080F8553290F8F43080F8563290F806
:10149000F53080F8573290F8FA3080F85C3290F8E6
:1014A000FB3080F85D3290F8FC3080F85E3290F8C6
:1014B000FD3080F85F3210BD90F8853080F8A010C4
:1014C000034483F89F2090F8213180F8A13013B1B4
:1014D000012B24D07047B0F8463280F8A2301B129E
:1014E00080F8A330B0F84C3280F8AA301B1280F894
:1014F000AB30B0F8523280F8B2301B1280F8B33003
:10150000B0F8583280F8BA301B1280F8BB30B0F80F
:101510005A3280F8BC301B1280F8BD30704700236F
:10152000013390F8E22080F8A2203D2B00F1010069
:10153000F6D1704737B59DF8185000950446FEF770
:1015400091FF154B23604FF47A720023204684F8F4
:101550004032A4F8422284F84432A4F84632A4F877
:101560004832A4F84A32A4F84C32A4F84E32A4F817
:101570005032A4F85232A4F85432A4F85632A4F8E7
:101580005832A4F85A32A4F85C32A4F85E3284F8D7
:10159000603203B030BD00BFE84B000010B5034B14
:1015A00003600446FEF7ACFF204610BDE84B000088
:1015B000704770B506460025002406F5D070E1B2EC
:1015C000284400220134FFF730F8042CF5D12035EF
:1015D000602DF1D170BDF8B50746002407F5D0762F
:1015E000264430460021FFF736F8B0F5966F4FF0ED
:1015F00000050BD9E9B23046FF220135FFF715F897
:10160000042DF7D12034602CE8D108E0E9B230464F
:1016100000220135FFF709F8042DF7D1F2E707F5AD
:10162000087528460021FFF716F8B0F5966F4FF0C1
:10163000000408D9E1B22846FF220134FEF7F5FF85
:10164000042CF7D1F8BDE1B2284600220134FEF7A0
:10165000ECFF042CF7D1F8BD90F84022124B10B5E6
:10166000CAB11A78114C32B901211970104B0079A6
:101670001B68236012E0096822688A1AB0F84212D7
:101680008A4202D900221A7010BDB2EB510F09D95B
:101690000079002102E000791A701146BDE810407F
:1016A00000F072BC10BD00BF388DFF1F3C8DFF1FC6
:1016B0003490FF1F72B6024B186862B6704700BFC5
:1016C0003490FF1F10B5074C2046FEF749FF00235A
:1016D0000E2084F8443200F07BF9BDE8104001F0A0
:1016E000C5BB00BF408DFF1F37B5FFF7E3FF02AC5E
:1016F000074D44F8040D2846FFF75AFF28462146B7
:10170000FFF769FF28462146FFF7A6FF03B030BD6B
:10171000408DFF1F0148FFF74CBF00BF408DFF1FEA
:1017200013B5084C01230093204600210222052313
:10173000FFF700FF0449054A204602B0BDE810400B
:1017400003F0D2B9408DFF1F9D1500006087FF1F79
:1017500038B50C480B4D0C4CFFF70DFE20B1284658
:10176000FFF734FE0023238023880133238095F87C
:1017700044321BB9BDE83840FFF7B6BFBDE838407A
:10178000FFF7C8BF408DFF1FA48FFF1FF0B5304B80
:101790001B681B06FBD42F4B1B6813F08002F6D18D
:1017A00072B62D4B1978002950D02C4908684F6823
:1017B0008E68CD680C693844143130440968284477
:1017C00020440844C0F34E00254940F4004008601E
:1017D000C86A0F6B4E6B8D6BCC6B38444031304414
:1017E0000968284420440844C0F34E001D4940F4D1
:1017F0000040086001F10811143151F8140C51F83F
:10180000107C51F80C6C51F8085C51F8044C0968D4
:1018100038443044284420440844C0F34E00124960
:1018200040F400400860C86A0F6B4E6B8D6BCC6B48
:101830003844403130440968284420440844C0F307
:101840004E000A4940F4004008601A7062B6F0BDCC
:1018500024B0034024B00B40A78FFF1F38B00340D3
:101860002CB0034030B003402CB00B4030B00B40E4
:1018700010B5204B2048214960221A70E1225A708D
:101880001F4B204A1C78204B082C01D1012402E078
:101890000A2C03D139240460132005E00C2C0CBF62
:1018A00035243D2404601220086014601860174B32
:1018B00017491B78174A03B101230B601360164BBD
:1018C000164A1978164B012901D880210BE004290A
:1018D00001D8842107E0082901D8852103E01029D7
:1018E00094BF86218721116019600E4B01221A7066
:1018F00010BD00BF0040074008B003400CB00340DB
:10190000248CFF1F08B00B400CB00B40AA8FFF1FA8
:1019100020B0034020B00B40258CFF1F24B00340B3
:1019200024B00B40A78FFF1F0C2804D9102828BF14
:101930001020102307E00A2804D8092834BF082300
:101940000A2300E00C23094AD9B2081A1070084A89
:101950001078834208D0074B11701B7813B1064BE7
:1019600000221A60FFF784BF704700BFA68FFF1FD9
:10197000248CFF1FA78FFF1F24B0034010B5114B0D
:101980001B7804460BB1FFF701FF012C0E4A01D86A
:10199000002302E0042C02D8042313600EE0082C7C
:1019A00003D805231360082308E0102C03D806236E
:1019B0001360102302E0072313602023034A1370EF
:1019C00010BD00BFA78FFF1F24B00340258CFF1F51
:1019D0000D2838B50FD9172801D80E380AE0A0F124
:1019E0001A03052B01D8093804E0A0F12203062BC5
:1019F00047D81838C0B2244B1C5C244B1B780BB161
:101A0000FFF7C4FE210614D472B6214B214D1C6091
:101A100001232B7062B672B61D4B1B681A0601D5E6
:101A20001D4B1FE02B78002BEFD062B601F024FA9B
:101A3000F1E772B6194B1A4D1A6814F0400F14BF33
:101A400022F0100242F010021A60164B04F03F021E
:101A50001A6001232B7062B672B6124B1B681B060C
:101A600008D5114B186800232B7062B60F4B1B78FA
:101A7000184138BD2B78002BDCD062B601F0FCF9A0
:101A8000EAE7002038BD00BFF04B0000A78FFF1F22
:101A900000B00340A98FFF1F10B003400CB00B40F3
:101AA000A88FFF1F00B00B4010B00B40A68FFF1F88
:101AB000084B1A6842F480521A60074B1A78074B99
:101AC0000AB1802200E0C0221A70054B80F30C009E
:101AD000188070472C800440AA8FFF1F21C00C4043
:101AE00000C00C40024B1A6801321A60704700BFF8
:101AF0003490FF1F08B50B4C2368580301D500F044
:101B0000ADFC2368590501D501F0D0FB23681A0507
:101B100001D501F01BFE2368DB04ECD501F0FCFFCE
:101B2000E9E700BF3480044008B5FFF7E3FFFFFF9B
:101B3000014B10221A807047002005407047FEE7D5
:101B4000EFF313839BB9EFF3108098B9EFF305839C
:101B500023B10F2B04D9084A985C01E04FF4807040
:101B6000EFF311833BB1834238BF184670474FF003
:101B7000FF30704718467047F0E300E01F4B10B588
:101B80001C681C60E00304D51D4B1A680AB11B6871
:101B90009847A10304D51A4B5A680AB15B68984765
:101BA000E20704D5164B1A6C0AB11B6C9847A307C1
:101BB00004D5134B5A6C0AB15B6C9847200704D5C7
:101BC0000F4B9A6C0AB19B6C9847610704D50C4B7C
:101BD000DA6C0AB1DB6C9847220304D5084B5A6EC5
:101BE0000AB15B6E9847630306D5054BD3F8802096
:101BF00012B1D3F88030984710BD00BFA0A00440B8
:101C0000AC8FFF1F2C4B10B51C681C60200704D53F
:101C10002A4B5A6A0AB15B6A9847E10604D5274BFA
:101C20009A6A0AB19B6A9847620604D5234BDA6A1E
:101C30000AB1DB6A9847230604D5204B1A6B0AB118
:101C40001B6B9847A00604D51C4B5A6B0AB15B6B03
:101C50009847E10704D5194BDA6B0AB1DB6B98475B
:101C6000A20704D5154B9A6D0AB19B6D984763077F
:101C700004D5124BDA6D0AB1DB6D9847A00504D587
:101C80000E4BDA6E0AB1DB6E9847E10504D50B4BBB
:101C90001A6F0AB11B6F9847620504D5074B5A6F3C
:101CA0000AB15B6F9847230504D5044B9A6F0AB1BC
:101CB0009B6F984710BD00BFA0B00440AC8FFF1FC2
:101CC0001E4B10B51C681C60E00704D51C4B9A68BD
:101CD0000AB19B689847210604D5194B5A690AB185
:101CE0005B699847E20604D5154B9A690AB19B696E
:101CF0009847630704D5124BDA690AB1DB69984744
:101D0000200704D50E4B1A6A0AB11B6A9847A1072F
:101D100004D50B4B9A6B0AB19B6B9847A20604D56E
:101D2000074B1A6D0AB11B6D9847630604D5044B27
:101D30005A6D0AB15B6D984710BD00BFA0C004404A
:101D4000AC8FFF1F114B10B51C681C60E00404D55C
:101D50000F4BDA680AB1DB689847A10404D50C4B35
:101D60001A690AB11B699847A20604D5084B1A6E76
:101D70000AB11B6E9847E30606D5054BD3F88420BD
:101D800012B1D3F88430984710BD00BFA090044032
:101D9000AC8FFF1F094B10B51C681C60A20704D54F
:101DA000074B9A6E0AB19B6E9847E30704D5044B24
:101DB000DA6F0AB1DB6F984710BD00BFA0D00440B6
:101DC000AC8FFF1F212830B531D8042A2FD8DFE887
:101DD00002F00709050B03000B2306E00A2304E0C9
:101DE000082302E00C2300E00923114A114D02EB05
:101DF000C0025468104AC2F89C51104DC2F8A0515C
:101E00000F4DC2F8A4510F4DC2F8A8510E4DC2F8A3
:101E1000AC5172B622680D4D22F47022226042F05D
:101E2000807242EA034345F82010236062B630BD59
:101E3000084C0000451D00000082FF1F7D1B0000B4
:101E4000051C0000C11C0000951D0000AC8FFF1F89
:101E5000094B03EBC0035A6872B6136823F087730B
:101E600023F4803343F080731360044B002243F863
:101E7000202062B6704700BF084C0000AC8FFF1FE7
:101E8000044B054900221A600A60044A10601022BF
:101E90001A60704714D0034004D0034000D00340C0
:101EA00018B1102828BF102000E00120014B187045
:101EB000704700BF268CFF1FF8B505460E4600246C
:101EC000274F47FA04F002F0D5FB4FF05E5102F0C5
:101ED00025FC0146304602F0D3FD10B90134072C31
:101EE000EED147FA04F002F0C5FB314602F0CAFC1D
:101EF0004FF07C5102F008FB02F0D6FD4FF6FF7365
:101F0000984228BF1846EB1E012B06D8154B1649E0
:101F100000221A600A60154A1BE0A5F10903012B93
:101F200006D9A5F11403032B02D96B1F012B06D888
:101F30000F4B104900221A600A600F4A09E0202D59
:101F400001D0192D0BD10D4B0D4900221A600A60EA
:101F50000C4A04F0070444F0080410601C60F8BD4B
:101F6000006CDC02009003400490034008900340A2
:101F700000800340048003400880034000800B4041
:101F800004800B4008800B40212810B518D80D4A5A
:101F900052F8303093F880423CB1012211B183F8FD
:101FA000802010BD83F8002110BD02EBC000436803
:101FB0001A6811B142F0030201E022F002021A6035
:101FC00010BD00BF084C0000212816D80B4A02EBB8
:101FD000C00301295B6852F8302004D182F88012D6
:101FE0004FF4A27208E0002082F8800211B94FF489
:101FF000807201E040F203121A607047084C000042
:10200000282838B5604A04460B4611D112780B2AAD
:1020100004D8C2F10C0201FA02F304E00C2A1CBF3E
:102020000C3A41FA02F31846BDE83840FFF740BDCC
:1020300011780125002B05FA01F2D8BF002102DD3D
:10204000934205D32946FFF79FFF2046294697E094
:102050000338C2B2012A01D84C4A06E0202C01D034
:10206000192C01D14A4A00E04A4A126802FB0332A5
:10207000CA401D287BD8DFE800F0575F4E337A7ADC
:10208000212A7A7A7A7A7A7A7A7A7A3C450F187A99
:10209000707A7A7A7A7A7A673F4B1A6003F59733C7
:1020A00040F2444203F5FA735FE03C4B1A6003F5DB
:1020B000973340F2444203F5F87356E0384B1A6008
:1020C00003F5973340F2444203F5F6734DE0354B88
:1020D0001A6003F5973340F2444203F5F47344E089
:1020E000314B1A6003F59F3340F2444203F5F0731D
:1020F0003BE02E4B1A6003F59F3340F2444203F558
:10210000EE7332E02A4B1A6003F59F3340F24442EB
:1021100003F5EC7329E0274B1A6003F59F3340F277
:10212000444203F5EA7320E0234B1A6003F5803341
:102130004FF45172203318E0204B1A6003F58033BE
:102140004FF451721C3310E01D4B1A60A3F5DB23D2
:102150004FF45172A3F5F96307E01A4B1A60A3F527
:10216000DB234FF45172A3F2CC731A6038BD7F2B7E
:102170002046D4BF00210121FFF706FF20460121A0
:10218000BDE83840FFF720BF268CFF1F08900340B2
:1021900008800B40088003401080034018800340F3
:1021A0002080034028800340308003403880034073
:1021B0004080034048800340109003401890034043
:1021C00010800B4018800B4072B60B4B0B491A68FD
:1021D0000B4B1B68096862B6490102D5322A88BFD9
:1021E0000133C2F5BB326021FF32B2FBF1F24FF492
:1021F0007A7000FB0320704718E000E004ED00E077
:102200003490FF1F38B50446FFF7DEFF054664B182
:10221000FFF7DAFF401BB0F57A7F03D3013C04D00F
:1022200005F57A7500F028FEF2E738BD1F4B4FF434
:10223000000210B51A604FF080721A604FF0007201
:102240001A604FF080621A604FF000621A60184BFB
:10225000184A194C00204BF6FF711860596028236A
:1022600013609360136193611362936213639363CA
:102270000922226004F58054043420606160A36068
:10228000236144F8042C04F5FE2420600B4801600F
:102290000B490B608B600B4B1A60FFF7E9FA0420C7
:1022A000FFF7B0FFBDE8104000F0C8BB08E100E058
:1022B000048003400C8003400080034008800B40F2
:1022C0000C800B4000800B40F0B50C4B0C4C1A7886
:1022D00042F0020504EBC50682F001027060094875
:1022E0001A700678002E0CBF8827C82786F00106D2
:1022F00047EA0141067044F83510F0BDB490FF1F65
:102300000080FF1F3C91FF1F431E052B10B510D806
:1023100072B6094A52F8230048B1416842F82310C6
:10232000064A018832F81340611A22F8131062B687
:1023300010BD002010BD00BF9C90FF1F0C93FF1F1D
:10234000013805280AD872B6054B53F82030002012
:1023500013B101305B68FBE762B67047002070473D
:10236000F890FF1F10B572B60123174A1A4412F8ED
:10237000012C12071CD59900144A52F831402CB98F
:1023800002EB431308305860114B09E041F00101A2
:1023900052F8314064B902EBC103083058600D4B6C
:1023A00042F831300C4B1A78013A1A7062B610BDFF
:1023B0000133072BD9D162B6074B00221A70BDE852
:1023C000104000F099BB00BF184D00000080FF1FB7
:1023D00088004000C80040003291FF1F431E052BBB
:1023E00030B532D8194A400140F01000104472B69E
:1023F000174CE25C032A09D8DFE802F01602180540
:102400000830022213E00830042210E01148124A7A
:1024100050F8234014B940F8231002E052F823008A
:10242000416042F823100FE0032200E00522E2544D
:1024300010F0080F01F108030A8843600CBF8823DD
:10244000C82343EA0243036062B630BD0080FF1F29
:102450005490FF1FF890FF1F1091FF1F2DE9F84FB8
:10246000A74F3C78E4B214F0040F3D4619D0A54BB9
:102470001B78A3B1A44A117801F0FF0321B1013BFD
:10248000DBB2137003B900BEA04A117801F0FF035C
:1024900029B1013BDBB213700BB900F0C3FC04237C
:1024A0003B7004F0080303F0FF02002B00F05C8295
:1024B000974B984C1A78D2B215094FEA920840F01F
:1024C000D98154F8382004EBC803C2F38302013ADF
:1024D0005B680C2A00F2CB81DFE812F085018501F0
:1024E000C901C901C901C901C901C901A501C901C0
:1024F000C901C9010D00884D1A685B6887486B6087
:10250000874B44F8383001232A60DFF8408203709B
:1025100092B240F2816000218242C8F8001021612D
:10252000A16117D8B2F5D06F80F01681B2F5817F26
:1025300000F0C78006D8802A00F0B280822A00F01E
:10254000B38021E140F202339A4200F0C980B2F533
:10255000A06F14E0B2F5106F14D008D8B2F5086F70
:1025600040F01281674A6F4C1278227014E140F6F5
:1025700021139A4200F0348140F621239A4200F060
:10258000078101E15F4B634EAA781A7006F1C0091A
:10259000336A1B0603D5706A083800F0ADFA0836B6
:1025A0004E45F5D10026B146DFF8A4A156F80A0041
:1025B00028B1D0F804B000F09FFA5846F8E74AF87E
:1025C0000600594BDFF88CA1F05056F80A0028B1EC
:1025D000D0F804B000F090FA5846F8E7534B4AF8A8
:1025E0000600F050524B23F81900524B19F8032003
:1025F000023A032A08D8DFE802F0020402040022AB
:1026000000E0012203F8092009F10109B9F1060FE0
:1026100006F10406C8D1484B00221A7001269A46DA
:10262000464A474B3244334412F8012C9B0012F0C7
:10263000080F1A704FEA860925D000F03FFA38B12A
:1026400004EB4613083058603E4B44F8393006E03E
:102650009AF8003044F8390001338AF8003000F06D
:102660002DFA49F0010338B104EBC3020830506081
:102670002B4A44F8332006E044F833009AF800303F
:1026800001338AF8003049F00202013649F00309AB
:102690000023072E44F8323044F83930C0D178E0B6
:1026A000204C2170617076E0AA88062A6CD81D4CF7
:1026B000217061709100244A525C96076BD523709B
:1026C00069E0AA8802F07F03062B5DDC6B88002B93
:1026D0005AD191001C4A0A44117821F002010DE000
:1026E000AA8802F07F03062B4EDC6B88002B4BD1AF
:1026F0009100154A0A44117841F00201117048E036
:10270000802007403B91FF1FB590FF1F4C91FF1F9A
:10271000902007400080FF1F2891FF1F3C91FF1F62
:10272000C80040003391FF1F3C90FF1F1091FF1F16
:102730000C93FF1F5490FF1F3291FF1F184D000094
:1027400030C8011088004000C02007403890FF1FAB
:102750009C90FF1FF890FF1F6A88A9889E4B53F832
:10276000084CA3F10C007CB133F80C6C964209D1F3
:1027700033F80A6C8E4205D1120A032A0CBF237863
:10278000038909E00C33EAE7944B0F221A7027E023
:1027900000231C4600E00223EE88B34238BF1E46E9
:1027A000402E34BF3546402520462946FFF78CFD94
:1027B000761B2C4403D1402D12D1354603E0402E28
:1027C00034BF3546402520462946FFF77DFD761B60
:1027D0002C4401D1402D03D1814AC8F80040168015
:1027E0000122804B42E0804A80481168814216D124
:1027F00051687F4A914212D11A78A92A0FD15A788A
:10280000452A0CD19A78C22A09D1DB786B2B06D1E4
:10281000784B0020052201461A70FFF755FD764BD4
:1028200044F8383023E0754E3568B5B1DFF8B08133
:10283000B8F80090B9F1400F34BF4C464024284608
:102840002146FFF741FDC4EB09039BB2A8F8003015
:102850000BB9402C00D12B193360634B1A88B2F5A9
:10286000A06F04D100225A709A78654B1A70012229
:102870005C4B6CE004EBC806013D736802F0080293
:10288000A3F10800EDB202F0FF01002A36D000F0FB
:1028900033F95C485C4B50F82520EAB1516840F8A8
:1028A000251002F108017160595D03290BD8DFE89A
:1028B00001F002040608032104E0022102E00521E0
:1028C00000E00421595516F0080F12880CBF882328
:1028D000C82343EA024342E05A5D032A07D8DFE8EF
:1028E00002F040400204002206E0012204E016F05B
:1028F000080F0CBF022203225A5532E054F8382048
:10290000120C23F8082C22B3DFF82CE123F8061C64
:1029100043F8041C5EF825303C4913B94EF82500F5
:1029200002E051F825305860394B41F8250033F862
:1029300015100A4423F8152000F0C0F810B1083033
:10294000706006E0334B44F838001A7801321A7090
:1029500007E0294B304A16F0080F08BF134644F829
:10296000383008233B707BE5E0071FD51D492A4816
:102970002A4C02230B702A4B1A702A4B186098605D
:102980002948D8601A619A615C60144B0D20187058
:102990002648FF2303702B700274254A1370254BC1
:1029A0009F221A7001230B70BDE8F88F210604D511
:1029B0000A4B0D221A7080232B70A20705D51B4BE2
:1029C0001A78D2B21A7002232B70E30644BF102388
:1029D0002B70BDE8F88F00BF2C4D0000C0200740D1
:1029E0003091FF1F942007402891FF1F2109000309
:1029F00001000400B590FF1FC80040003890FF1F81
:102A000098200740F890FF1F5490FF1F3C90FF1F35
:102A10000C93FF1F3291FF1F880040005C90FF1F46
:102A2000B490FF1F0080FF1FB890FF1F8820074051
:102A30008C200740842007409C90FF1F08B501F0C0
:102A4000C1F800221A4B0021D15098180832C82A28
:102A50004160F7D1174A106840F48020106002F5F9
:102A600028326832C3F307201070C3F307401B0EEF
:102A700010751376FF2302F81C3C02F8143C02F890
:102A80008C3C012302F8083C82F8641002F8183CE0
:102A9000094B70226FF450711A700B444FF400729E
:102AA0001A6003F1C04303F5C82310221A7008BD51
:102AB0000080FF1F3480044049E400E072B60C4AF5
:102AC0001168B1FA81F30B2B02D962B6002070476E
:102AD0004FF00040D84021EA0001116062B605497C
:102AE00048225343C8180022CA504260704700BFB2
:102AF000288CFF1F0084FF1F0C4B4822C31AB3FB16
:102B0000F2F30B2B11D80A4A127822B1094A127833
:102B10000AB1FFF727BC72B6074A4FF0004121FA0D
:102B200003F311681943116062B670470084FF1FF8
:102B30003291FF1F3B91FF1F288CFF1FF8B5144BEC
:102B40001E6805460C461F46124B1B78D3B1042065
:102B5000FFF7DAFB38B93B689B1BA34216D8A4B138
:102B600000F08AF9F0E700F108032A4600F1480175
:102B700053F8044B42F8044B8B42F9D1FFF7BCFFEA
:102B80004020F8BD4FF0FF30F8BD2046F8BD00BF33
:102B90003490FF1F3B91FF1FF8B5184B1D6804468A
:102BA0000E461F46164B1B781BB30320FFF7C8FBCE
:102BB000032806D93B685B1BB3421DD800F05CF9C3
:102BC000F0E7FFF77BFF03460028F3D0204603F130
:102BD000080204F1400150F8044B42F8044B8842CB
:102BE000F9D140241C8003201946FFF7F7FB20464B
:102BF000F8BD4FF0FF30F8BD0020F8BD3490FF1F46
:102C00003B91FF1F38B5124B1B78EBB1114C236879
:102C10001BB90220FFF778FB206020680D4D98B1AA
:102C20004388C218147A5CB102880133934204D3FA
:102C3000FFF762FF00232B6000E04380204638BD91
:102C4000FFF75AFF2C60DEE74FF0FF3038BD00BFC2
:102C50003B91FF1F4891FF1F10B50D4B1B788BB1A7
:102C60000C4C23681BB90220FFF74EFB2060206844
:102C700040B1438803441C7A3CB9FFF73DFF054B44
:102C80001C60EAE74FF0FF3010BD204610BD00BFCA
:102C90003B91FF1F4891FF1F38B5104D2B6823B1A2
:102CA00028680024028843880FE00D4B1B781BB175
:102CB0000220FFF729FB28602C68002CF0D10BE0E4
:102CC000C1182144097A19B10134E1189142F7DBA6
:102CD00014B9FFF711FF2C60204638BD4891FF1F43
:102CE0003B91FF1F2DE9F843324D012307460C4667
:102CF0002B70002C5AD0304E3368B1465BBB44F287
:102D0000D9582E4B1B7803F0FF020BB92A7018E03C
:102D10000120FFF715FB052804D9B8F10108284A5E
:102D200009D10AE001232B70FFF7C8FEC9F80000A3
:102D30000028F2D00FE013783BB101231370002379
:102D40002B704FF0FF30BDE8F8832B7000F094F843
:102D500001232B70D5E73168194A48880023137086
:102D6000C0F14002944238BF224600F1080C1044E2
:102D70008C444880A41A934204D0F85C0CF80300F9
:102D80000133F8E71F444B883F2B0E4B02D8052236
:102D90001A70AEE740220A804FF00008012083F845
:102DA0000080FFF71BFBC6F80080A2E72C702046CE
:102DB000BDE8F8833D91FF1F4091FF1F3B91FF1F2E
:102DC0004491FF1F4C91FF1F07B502AB012103F88F
:102DD000010D1846FFF786FF03B05DF804FBFFFF07
:102DE00010B50D4B1B78B3B10C4B19681C4691B153
:102DF0004B8883B10A4A002010703F2B04DCCA18AC
:102E0000002010720133F8E740230B800120FFF708
:102E1000E5FA0023236010BD3B91FF1F4091FF1F87
:102E20004C91FF1F10B50B4B1B788BB90A4A1168E8
:102E30004B8814463F2B04DCCA1800201072013363
:102E4000F8E740230B800120FFF7C8FA0023236036
:102E500010BD00BF3D91FF1F4091FF1F08B5FEF759
:102E600031FCFEF775FC00F007F8FAE708B1014BFA
:102E7000186070475091FF1F10B50E4C2378BBB9F6
:102E800001232370FFF708FF08B101F038F800F0C4
:102E9000ADF908B100F030FF00F0F8FB08B100F028
:102EA0009DFF00F0EDFD08B101F00AF8002323704A
:102EB00010BD00BF5491FF1F10B50023B0FBF2F40A
:102EC00002FB1400092894BF30303730C0B2C85418
:102ED00020460CB10133F1E7CA18547022469A42D9
:102EE00006DA885CCC5C8C54C8540132013BF6E7AE
:102EF000084610BD194B1A6842F480621A60184ADD
:102F000000231370174A1370174A1370174A13706F
:102F1000174A1370174B40F213321A604FF4517274
:102F20005A60154BC0F344321A70C0F347125A70FE
:102F30000221042200F01F0098729A70D9745A7509
:102F400088221A743C22DA700C4B40226FF44A71CA
:102F50001A700B444FF400521A60704734800440DA
:102F6000D791FF1F5691FF1FE091FF1FD891FF1FC0
:102F70005591FF1F40A0044000A006402DE400E052
:102F8000134A937800F0030103F0EC030B4341076D
:102F900048BF43F01003937000F00F03042B0C495B
:102FA00003D18B7943F040038B715379C20603F050
:102FB000EF03074A48BF43F010035371937981062A
:102FC00003F0EF0348BF43F010039371704700BF55
:102FD00000A0064008B50E4B1B685B0500D408BD79
:102FE0000C4B1A7802F0FF0312B1FFF745FFF7E729
:102FF000094A4FF400511160084A0949D37040F260
:1030000003120A604A60074A1370074A137008BD2A
:10301000348004405591FF1F84E100E000A0064089
:1030200040A00440D791FF1F5691FF1F38B50446BA
:10303000094B1B7803F0FF05002BF9D12046012135
:10304000FEF7C2FF20462946FEF79EFF034B53F8CA
:103050003420034B1A6038BD5591FF1F084C000007
:10306000DC91FF1FF8B51D4B1B685A05064633D58A
:103070001B4B1B680BB101221A701A4B1C780134D0
:10308000402C1F4628BF0024174D2B78A34218D18F
:10309000FEF756FD40280FDC144A13791B06F3D5C2
:1030A0002B7813490133402B28BF0023C95CDBB2C6
:1030B000C9B2D1712B70E7E7FF28E5DDFFF7DCFE31
:1030C000E2E70B4BF6B21E550A4B01221A70074B72
:1030D000E4B2BC223C70DA70F8BD00BF348004401A
:1030E000DC91FF1FE091FF1FD891FF1F00A0064059
:1030F0005791FF1F5591FF1F274B1B685A052DE95C
:10310000F04707468A4644D5244B1B680BB1012281
:103110001A703D4607EB0A039D4237D2DFF89080D4
:103120001F4E98F8004096F800900134402C28BFBC
:1031300000245FFA89F9A1451DD11A4BBC22DA702F
:10314000FEF7FEFC40280FDC164A13791B060FD54C
:10315000337815490133402B28BF0023C95CDBB20B
:10316000C9B2D171337003E0FF2801DDFFF784FE9F
:1031700033784B45E4D00C4B15F8012B1A550B4B0B
:103180000122E4B21A7088F80040C3E7054BBC2264
:10319000DA70BDE8F08700BF34800440DC91FF1F87
:1031A000D891FF1F00A006405791FF1F5591FF1FA8
:1031B000E091FF1F08B5034B1B7813B1FFF75CFECE
:1031C000F9E708BD5591FF1F064A074B1B78107899
:1031D000DBB2C0B283422CBF3F3000F1FF30C01AD7
:1031E000704700BFD891FF1FE091FF1F054B187873
:1031F000054B1B78C0B2DBB2984238BF4030C01AD2
:10320000704700BFD791FF1F5691FF1F094B0A4A15
:1032100019781378DBB2994208D00133402B28BFCC
:1032200000230649C85CDBB2137070474FF0FF30D3
:10323000704700BFD791FF1F5691FF1F9791FF1F47
:10324000084B1A78084B1B78DBB29A4207D001333F
:10325000402B28BF0023054AD05CC0B270474FF016
:10326000FF307047D791FF1F5691FF1F9791FF1FA7
:103270000A4B1B685B050FD5094BDA7802F0CB02CD
:10328000DA7040225A74DA7842F03402DA70054B70
:103290001A78054BD2B21A70704700BF34800440D0
:1032A00000A006405691FF1FD791FF1F30B5304B4D
:1032B0001A7912F0300F23D072B69A7D02F0FF0116
:1032C00022B9DA7940225A7462B619E062B6294B03
:1032D00029481A780478D2B2E4B21846244BDD7932
:1032E000531C402B28BF0023A342EDB202D0234A37
:1032F000D5541A464B1E13F0FF01EFD1D2B2027023
:103300001B4BD978C9B20C0620D51B7918061DD5E0
:103310001B4B1C4A1D781378EDB2DBB21046AB4252
:103320000CD0134A0133402B1479174C28BF0023CB
:10333000E45CE4B2D471127D072AF0D9DBB20370E9
:103340000B4B1A79120644BF7C22DA704B060ED55D
:10335000074B1A7912F0400F194608D00B4B002288
:103360001A700B4B1B6803B11A703C23CB7030BD35
:1033700000A00640D791FF1F5691FF1F9791FF1F96
:10338000E091FF1FD891FF1F5791FF1F5591FF1F1D
:10339000DC91FF1F194B1A6842F400621A60184A48
:1033A00000231370174A1370174A1370174A1370CB
:1033B000174A1370174B40F213321A604FF45172D0
:1033C0005A60154BC0F344321A70C0F347125A705A
:1033D00000F01F000422022198729A70D9745A7565
:1033E00088221A743C22DA700C4B40221A70A3F225
:1033F0002B334FF400421A60704700BF3480044002
:103400004B92FF1FE291FF1F5492FF1F4C92FF1F30
:10341000E191FF1F0CB0044000B006402FE400E033
:10342000134A937800F0030103F0EC030B434107C8
:1034300048BF43F01003937000F00F03042B0C49B6
:1034400003D18B7943F040038B715379C20603F0AB
:10345000EF03074A48BF43F0100353719379810685
:1034600003F0EF0348BF43F010039371704700BFB0
:1034700000B0064008B50E4B1B681B0500D408BD04
:103480000C4B1A7802F0FF0312B1FFF7F5FCF7E7D7
:10349000094A4FF400411160084A0949D37040F2CB
:1034A00003120A604A60074A1370074A137008BD86
:1034B00034800440E191FF1F84E100E000B0064049
:1034C0000CB004404B92FF1FE291FF1F38B5044639
:1034D000094B1B7803F0FF05002BF9D12046012191
:1034E000FEF772FD20462946FEF74EFD034B53F8CA
:1034F0003420034B1A6038BDE191FF1F084C0000D7
:103500005092FF1FF8B51D4B1B681A05064633D5B0
:103510001B4B1B680BB101221A701A4B1C7801342B
:10352000282C1F4628BF0024174D2B78A34218D102
:10353000FEF706FB40280FDC144A13791B06F3D56F
:103540002B7813490133282B28BF0023C95CDBB239
:10355000C9B2D1712B70E7E7FF28E5DDFFF78CFCDE
:10356000E2E70B4BF6B21E550A4B01221A70074BCD
:10357000E4B2BC223C70DA70F8BD00BF3480044075
:103580005092FF1F5492FF1F4C92FF1F00B0064045
:10359000E391FF1FE191FF1F274B1B681A052DE9DF
:1035A000F04707468A4644D5244B1B680BB10122DD
:1035B0001A703D4607EB0A039D4237D2DFF8908030
:1035C0001F4E98F8004096F800900134282C28BF30
:1035D00000245FFA89F9A1451DD11A4BBC22DA708B
:1035E000FEF7AEFA40280FDC164A13791B060FD5FA
:1035F000337815490133282B28BF0023C95CDBB27F
:10360000C9B2D171337003E0FF2801DDFFF734FC4C
:1036100033784B45E4D00C4B15F8012B1A550B4B66
:103620000122E4B21A7088F80040C3E7054BBC22BF
:10363000DA70BDE8F08700BF348004405092FF1F6D
:103640004C92FF1F00B00640E391FF1FE191FF1F66
:103650005492FF1F08B5034B1B7813B1FFF70CFC06
:10366000F9E708BDE191FF1F064A074B1B78107868
:10367000DBB2C0B283422CBF273000F1FF30C01A4A
:10368000704700BF4C92FF1F5492FF1F054B1878E4
:10369000054B1B78C0B2DBB2984238BF4030C01A2D
:1036A000704700BF4B92FF1FE291FF1F094B0A4A70
:1036B00019781378DBB2994208D00133402B28BF28
:1036C00000230649C85CDBB2137070474FF0FF302F
:1036D000704700BF4B92FF1FE291FF1F0B92FF1F2D
:1036E000084B1A78084B1B78DBB29A4207D001339B
:1036F000402B28BF0023054AD05CC0B270474FF072
:10370000FF3070474B92FF1FE291FF1F0B92FF1F8C
:103710000A4B1B681B050FD5094BDA7802F0CB0268
:10372000DA7040225A74DA7842F03402DA70054BCB
:103730001A78054BD2B21A70704700BF348004402B
:1037400000B00640E291FF1F4B92FF1F30B5304B97
:103750001A7912F0300F23D072B69A7D02F0FF0171
:1037600022B9DA7940225A7462B619E062B6294B5E
:1037700029481A780478D2B2E4B21846244BDD798D
:10378000531C402B28BF0023A342EDB202D0234A92
:10379000D5541A464B1E13F0FF01EFD1D2B202707E
:1037A0001B4BD978C9B20C0620D51B7918061DD53C
:1037B0001B4B1C4A1D781378EDB2DBB21046AB42AE
:1037C0000CD0134A0133282B1479174C28BF00233F
:1037D000E45CE4B2D471127D072AF0D9DBB2037045
:1037E0000B4B1A79120644BF7C22DA704B060ED5B9
:1037F000074B1A7912F0400F194608D00B4B0022E4
:103800001A700B4B1B6803B11A703C23CB7030BD90
:1038100000B006404B92FF1FE291FF1F0B92FF1F6B
:103820005492FF1F4C92FF1FE391FF1FE191FF1F76
:103830005092FF1F174B1A6842F480521A60164AC2
:1038400000231370154A1370154A1370154A13702C
:10385000154A1370154A40F2133111604FF451713B
:103860005160134AC0F344311170C0F3471100F0A6
:103870001F0051709072937013742C23D3700D4BF2
:1038800040226FF44B711A700B444FF400321A60EF
:10389000704700BF34800440BF92FF1F5692FF1F45
:1038A000C892FF1FC092FF1F5592FF1F08C004401F
:1038B00000C0064031E400E0134A937800F00301B1
:1038C00003F0EC030B43410748BF43F01003937030
:1038D00000F00F03042B0C4903D18B7943F0400314
:1038E0008B715379C20603F0EF03074A48BF43F0D8
:1038F000100353719379810603F0EF0348BF43F03F
:1039000010039371704700BF00C0064008B50E4B0E
:103910001B68DB0400D408BD0C4B1A7802F0FF03CF
:1039200012B1FFF7A9FAF7E7094A4FF40031116025
:10393000084A0949D37040F203120A604A60074AF4
:103940001370074A137008BD348004405592FF1F5E
:1039500084E100E000C0064008C00440BF92FF1FA1
:103960005692FF1F38B50446094B1B7803F0FF053C
:10397000002BF9D120460121FEF726FB20462946DF
:10398000FEF702FB034B53F83420034B1A6038BD9B
:103990005592FF1F084C0000C492FF1FF8B51D4B45
:1039A0001B68DA04064633D51B4B1B680BB101229A
:1039B0001A701A4B1C780134282C1F4628BF00248B
:1039C000174D2B78A34218D1FEF7BAF840280FDC28
:1039D000144A13791B06F3D52B7813490133282B8E
:1039E00028BF0023C95CDBB2C9B2D1712B70E7E7F5
:1039F000FF28E5DDFFF740FAE2E70B4BF6B21E5574
:103A00000A4B01221A70074BE4B2AC223C70DA7008
:103A1000F8BD00BF34800440C492FF1FC892FF1F4E
:103A2000C092FF1F00C006405792FF1F5592FF1F14
:103A300038B504464518AC4204D014F8010BFFF722
:103A4000ADFFF8E738BDFFFF08B5034B1B7813B196
:103A5000FFF712FAF9E708BD5592FF1F064A074B18
:103A60001B781078DBB2C0B283422CBF273000F144
:103A7000FF30C01A704700BFC092FF1FC892FF1FDF
:103A8000054B1878054B1B78C0B2DBB2984238BFA3
:103A90004030C01A704700BFBF92FF1F5692FF1FF1
:103AA000094B0A4A19781378DBB2994208D00133DE
:103AB000402B28BF00230649C85CDBB21370704757
:103AC0004FF0FF30704700BFBF92FF1F5692FF1F9D
:103AD0007F92FF1F084B1A78084B1B78DBB29A4283
:103AE00007D00133402B28BF0023054AD05CC0B269
:103AF00070474FF0FF307047BF92FF1F5692FF1F75
:103B00007F92FF1F024B1A78024BD2B21A70704795
:103B10005692FF1FBF92FF1F10B5214B1A799206D4
:103B20000FD5204AD87913781F490133402B0978E3
:103B300028BF00238B42C0B203D01C49C854DBB25B
:103B40001370174AD178C9B20C0616D51379180626
:103B500013D5174B17481C780378DBB29C4202D16F
:103B60006C23D37009E00133282B28BF0023124CAB
:103B7000E45CDBB2E4B2D47103704B060ED5084BA3
:103B80001A7912F0400F194608D00C4B00221A7017
:103B90000B4B1B6803B11A702C23CB7010BD00BFF8
:103BA00000C00640BF92FF1F5692FF1F7F92FF1F6B
:103BB000C892FF1FC092FF1F5792FF1F5592FF1F11
:103BC000C492FF1F1FB572B6154B70221A70154AAA
:103BD000412111700F2102F8011C80221A701A78FD
:103BE0001206FCD5104B186862B6104B984298BF6D
:103BF0000A2301AC98BF584321460A22FFF75CF91B
:103C00000023E15C0A4A29B102EB430001330A2B8D
:103C10004180F6D101335B00137004B010BD00BFCA
:103C20000000024007000240080002407F96980012
:103C3000068DFF1F08B50368C9B21B68984708BD09
:103C400008B50368C9B21B68984708BD08B5036882
:103C5000C9B21B68984708BD08B50368C9B21B689C
:103C6000984708BD4B0803F1376000F5D830B0FB2A
:103C7000F1F0FFF73FB910B54B0803F1376000F5DD
:103C8000D8301446B0FBF1F0FFF734F92046BDE818
:103C90001040FFF775B9FFF79DB90846FFF7C6B9A1
:103CA000FFF7A4BAFFF7CCBAFFF7B0BAFFF782BAB2
:103CB000FFF7DEBAFFF788BA08B50846FFF7D2F972
:103CC000012008BD08B50846FFF7CCF9012008BD62
:103CD00010B5084614461146FFF70EFA204610BDEF
:103CE00038B508460D4600F03BFF044621462846FD
:103CF000FFF702FA204638BD7047FFFF044B002251
:103D00001A714FF47A711A73024A99601A607047F7
:103D1000CC92FF1FB04D000008B50368C9B21B6804
:103D2000984708BD08B50368C9B21B68984708BD25
:103D300008B50368C9B21B68984708BD08B5036891
:103D4000C9B21B68984708BD4B0803F1376000F5FE
:103D5000D830B0FBF1F0FFF71DBB10B54B0803F1F5
:103D6000376000F5D8301446B0FBF1F0FFF712FBD6
:103D70002046BDE81040FFF753BBFFF77BBB08466A
:103D8000FFF7A4BBFFF782BCFFF7AABCFFF78EBC0E
:103D9000FFF760BCFFF7BCBCFFF766BC08B5084680
:103DA000FFF7B0FB012008BD08B50846FFF7AAFBE6
:103DB000012008BD10B5084614461146FFF7ECFB7C
:103DC000204610BD38B508460D4600F0C9FE044631
:103DD00021462846FFF7E0FB204638BD7047FFFF2D
:103DE000044B00221A714FF47A711A73024A9960D7
:103DF0001A607047DC92FF1F004E000008B5036890
:103E0000C9B21B68984708BD08B50368C9B21B68EA
:103E1000984708BD08B50368C9B21B68984708BD34
:103E200008B50368C9B21B68984708BD4B0803F181
:103E3000B76000F55840B0FBF1F0FFF7FBBC10B5E0
:103E40004B0803F1B76000F558401446B0FBF1F0A1
:103E5000FFF7F0FC2046BDE81040FFF72DBDFFF74F
:103E600055BD0846FFF77EBDFFF70ABEFFF732BE1D
:103E7000FFF716BEFFF7E8BDFFF744BEFFF7EEBD44
:103E800008B50846FFF78AFD012008BD08B50846B9
:103E9000FFF784FD012008BD10B508461446114601
:103EA000FFF7C6FD204610BD38B508460D4600F0A8
:103EB00057FE044621462846FFF7BAFD204638BD86
:103EC0007047FFFF044B00221A714FF47A711A7386
:103ED000024A99601A607047EC92FF1F504E000032
:103EE000FEF7DABEFEF78EBEFEF7B6BEFEF778BF6F
:103EF0000846FEF769BF08461146FEF7F3BE704755
:103F0000044B00221A714FF47A711A73024A9960B5
:103F10001A607047FC92FF1FA04E0000FFFFFFFFDA
:103F20002DE9F84FC1F30A57A7F2FF36132E0246C8
:103F30000B4604460D4689468A4680461CDC002E08
:103F400040DB3D4F374107EA010C5CEA000C18D01A
:103F500037A3D3E9002300F079F80022002300F012
:103F6000A5FA28B1002D42DB2AEA07094FF0000824
:103F700040464946BDE8F88F332E06DDB6F5806F22
:103F800031D010461946BDE8F88FA7F2134C4FF018
:103F9000FF3B2BFA0CFB1BEA000FF2D024A3D3E962
:103FA000002300F053F80022002300F07FFA0028DD
:103FB000DED0002D22DB28EA0B08D14640464946D8
:103FC000BDE8F88F1AA3D3E9002300F03FF80022E0
:103FD000002300F06BFA0028CAD0002D1CDB4FF044
:103FE0000008C146C4E700F031F8BDE8F88F4FF48F
:103FF000801A4AFA06F606EB050AB5E7142E14D025
:10400000C7F586670123033703FA07F717EB0408A0
:1040100028BF05EB030ACEE725F00042074B2243F9
:1040200018BF99464FF00008A2E705F1010AC2E760
:104030009C7500883CE4377EFFFF0F000000F0BF56
:1040400081F0004102E000BF83F0004330B54FEA49
:1040500041044FEA430594EA050F08BF90EA020FB6
:104060001FBF54EA000C55EA020C7FEA645C7FEA49
:10407000655C00F0E2804FEA5454D4EB5555B8BF6C
:104080006D420CDD2C4480EA020281EA030382EADD
:10409000000083EA010180EA020281EA0303362D6F
:1040A00088BF30BD11F0004F4FEA01314FF4801C42
:1040B0004CEA113102D0404261EB410113F0004F54
:1040C0004FEA03334CEA133302D0524263EB43030B
:1040D00094EA050F00F0A780A4F10104D5F1200EA9
:1040E0000DDB02FA0EFC22FA05F2801841F1000104
:1040F00003FA0EF2801843FA05F359410EE0A5F1D8
:1041000020050EF1200E012A03FA0EFC28BF4CF008
:10411000020C43FA05F3C01851EBE37101F00045BE
:1041200007D54FF0000EDCF1000C7EEB00006EEBCB
:104130000101B1F5801F1BD3B1F5001F0CD3490855
:104140005FEA30004FEA3C0C04F101044FEA4452AC
:1041500012F5800F80F09A80BCF1004F08BF5FEA33
:10416000500C50F1000041EB045141EA050130BD13
:104170005FEA4C0C404141EB010111F4801FA4F1B6
:104180000104E9D191F0000F04BF01460020B1FA0B
:1041900081F308BF2033A3F10B03B3F120020CDA43
:1041A0000C3208DD02F1140CC2F10C0201FA0CF021
:1041B00021FA02F10CE002F11402D8BFC2F1200C86
:1041C00001FA02F120FA0CFCDCBF41EA0C0190403C
:1041D000E41AA2BF01EB0451294330BD6FEA040485
:1041E0001F3C1CDA0C340EDC04F11404C4F1200270
:1041F00020FA04F001FA02F340EA030021FA04F382
:1042000045EA030130BDC4F10C04C4F1200220FAD8
:1042100002F001FA04F340EA0300294630BD21FA16
:1042200004F0294630BD94F0000F83F4801306BFDC
:1042300081F480110134013D4EE77FEA645C18BFD0
:104240007FEA655C29D094EA050F08BF90EA020F67
:1042500005D054EA000C04BF1946104630BD91EA5F
:10426000030F1EBF0021002030BD5FEA545C05D162
:104270004000494128BF41F0004130BD14F58004A1
:104280003CBF01F5801130BD01F0004545F0FE4115
:1042900041F470014FF0000030BD7FEA645C1ABF4A
:1042A000194610467FEA655C1CBF0B46024650EA81
:1042B000013406BF52EA033591EA030F41F40021AD
:1042C00030BD00BF90F0000F04BF0021704730B533
:1042D0004FF4806404F132044FF000054FF0000108
:1042E00050E700BF90F0000F04BF0021704730B5C9
:1042F0004FF4806404F1320410F0004548BF40429E
:104300004FF000013EE700BF42004FEAE2014FEAF2
:1043100031014FEA02701FBF12F07F4393F07F4FCD
:1043200081F06051704792F0000F14BF93F07F4FFF
:10433000704730B54FF4607401F0004521F0004142
:1043400020E700BF50EA010208BF704730B54FF0C8
:1043500000050AE050EA010208BF704730B511F0CD
:10436000004502D5404261EB41014FF4806404F105
:1043700032045FEA915C3FF4DCAE4FF003025FEA87
:10438000DC0C18BF03325FEADC0C18BF033202EB0F
:10439000DC02C2F1200300FA03FC20FA02F001FA69
:1043A00003FE40EA0E0021FA02F11444C1E600BF08
:1043B0004FF0FF3C06E000BF4FF0010C02E000BFF1
:1043C0004FF0010C4DF804CD4FEA410C7FEA6C5CD4
:1043D0004FEA430C18BF7FEA6C5C1BD001B050EA77
:1043E000410C0CBF52EA430C91EA030F02BF90EA62
:1043F000020F0020704710F1000F91EA030F58BF21
:10440000994208BF90422CBFD8176FEAE37040F082
:10441000010070474FEA410C7FEA6C5C02D150EA20
:10442000013C07D14FEA430C7FEA6C5CD6D152EADB
:10443000033CD3D05DF8040B704700BF84461046A0
:1044400062468C461946634600E000BF01B5FFF79F
:10445000B7FF002848BF10F1000F01BD4DF808ED6F
:10446000FFF7F4FF0CBF012000205DF808FB00BF40
:104470004DF808EDFFF7EAFF34BF012000205DF89A
:1044800008FB00BF4DF808EDFFF7E0FF94BF0120E7
:1044900000205DF808FB00BF4DF808EDFFF7CEFFE8
:1044A00094BF012000205DF808FB00BF4DF808ED27
:1044B000FFF7C4FF34BF012000205DF808FB00BFF8
:1044C0004A0011D212F5001211D20DD56FF4787393
:1044D000B3EB62520ED44FEAC12343F0004343EAE8
:1044E000505323FA02F070474FF00000704750EA33
:1044F000013002D14FF0FF3070474FF0000070479D
:1045000080F0004002E000BF81F0004142001FBF88
:104510005FEA410392EA030F7FEA226C7FEA236C91
:104520006AD04FEA1262D2EB1363C1BFD218414086
:1045300048404140B8BF5B42192B88BF704710F01C
:10454000004F40F4000020F07F4018BF404211F0BF
:10455000004F41F4000121F07F4118BF494292EA27
:10456000030F3FD0A2F1010241FA03FC10EB0C0053
:10457000C3F1200301FA03F100F0004302D54942E0
:1045800060EB4000B0F5000F13D3B0F1807F06D38D
:1045900040084FEA310102F10102FE2A51D2B1F185
:1045A000004F40EBC25008BF20F0010040EA03007A
:1045B0007047490040EB000010F4000FA2F1010227
:1045C000EDD1B0FA80FCACF1080CB2EB0C0200FAB1
:1045D0000CF0AABF00EBC25052421843BCBFD040FF
:1045E0001843704792F0000F81F4000106BF80F479
:1045F00000000132013BB5E74FEA41037FEA226C3C
:1046000018BF7FEA236C21D092EA030F04D092F006
:10461000000F08BF0846704790EA010F1CBF00203A
:10462000704712F07F4F04D1400028BF40F0004097
:10463000704712F100723CBF00F50000704700F0B7
:10464000004343F0FE4040F4000070477FEA2262DE
:1046500016BF08467FEA23630146420206BF5FEAAF
:10466000412390EA010F40F4800070474FF00003AF
:1046700004E000BF10F0004348BF40425FEA000C76
:1046800008BF704743F0964301464FF000001CE01E
:1046900050EA010208BF70474FF000030AE000BF74
:1046A00050EA010208BF704711F0004302D54042B2
:1046B00061EB41015FEA010C02BF84460146002024
:1046C00043F0B64308BFA3F18053A3F50003BCFA3F
:1046D0008CF2083AA3EBC25310DB01FA02FC6344EC
:1046E00000FA02FCC2F12002BCF1004F20FA02F2F3
:1046F00043EB020008BF20F00100704702F12002E6
:1047000001FA02FCC2F1200250EA4C0021FA02F246
:1047100043EB020008BF20EADC7070474FF0FF0C4B
:104720001CEAD0521EBF1CEAD15392EA0C0F93EA46
:104730000C0F6FD01A4480EA010C400218BF5FEAE8
:1047400041211ED04FF0006343EA501043EA51115B
:10475000A0FB01310CF00040B1F5000F3EBF490055
:1047600041EAD3715B0040EA010062F17F02FD2A59
:104770001DD8B3F1004F40EBC25008BF20F001003C
:10478000704790F0000F0CF0004C08BF49024CEA53
:10479000502040EA51207F3AC2BFD2F1FF0340EAE5
:1047A000C250704740F400004FF00003013A5DDC56
:1047B00012F1190FDCBF00F000407047C2F1000297
:1047C000410021FA02F1C2F1200200FA02FC5FEA84
:1047D000310040F1000053EA4C0308BF20EADC70CE
:1047E000704792F0000F00F0004C02BF400010F440
:1047F000000F013AF9D040EA0C0093F0000F01F0ED
:10480000004C02BF490011F4000F013BF9D041EA0E
:104810000C018FE70CEAD15392EA0C0F18BF93EA10
:104820000C0F0AD030F0004C18BF31F0004CD8D13A
:1048300080EA010000F00040704790F0000F17BFC1
:1048400090F0004F084691F0000F91F0004F14D007
:1048500092EA0C0F01D142020FD193EA0C0F03D15F
:104860004B0218BF084608D180EA010000F0004062
:1048700040F0FE4040F40000704740F0FE4040F43D
:10488000400070474FF0FF0C1CEAD0521EBF1CEADC
:10489000D15392EA0C0F93EA0C0F69D0A2EB0302FA
:1048A00080EA010C49024FEA402037D04FF0805394
:1048B00043EA111143EA10130CF000408B4238BF59
:1048C0005B0042F17D024FF4000C8B4224BF5B1A67
:1048D00040EA0C00B3EB510F24BFA3EB510340EAB5
:1048E0005C00B3EB910F24BFA3EB910340EA9C0063
:1048F000B3EBD10F24BFA3EBD10340EADC001B01D3
:1049000018BF5FEA1C1CE0D1FD2A3FF650AF8B4276
:1049100040EBC25008BF20F0010070470CF0004C83
:104920004CEA50207F32C2BFD2F1FF0340EAC250AE
:10493000704740F400004FF00003013A37E792F06F
:10494000000F00F0004C02BF400010F4000F013ACD
:10495000F9D040EA0C0093F0000F01F0004C02BFC8
:10496000490011F4000F013BF9D041EA0C0195E731
:104970000CEAD15392EA0C0F08D142027FF47DAFCA
:1049800093EA0C0F7FF470AF084676E793EA0C0FBA
:1049900004D14B023FF44CAF08466EE730F0004CB8
:1049A00018BF31F0004CCAD130F000427FF45CAF48
:1049B00031F000437FF43CAF5FE700BF4FF0FF3CB6
:1049C00006E000BF4FF0010C02E000BF4FF0010C09
:1049D0004DF804CD4FEA40024FEA41037FEA226CD2
:1049E00018BF7FEA236C11D001B052EA530C18BFF4
:1049F00090EA010F58BFB2EB030088BFC81738BF59
:104A00006FEAE17018BF40F0010070477FEA226C46
:104A100002D15FEA402C05D17FEA236CE4D15FEA42
:104A2000412CE1D05DF8040B704700BF8446084676
:104A30006146FFE70FB5FFF7C9FF002848BF10F137
:104A4000000F0FBD4DF808EDFFF7F4FF0CBF01207C
:104A500000205DF808FB00BF4DF808EDFFF7EAFF06
:104A600034BF012000205DF808FB00BF4DF808EDC1
:104A7000FFF7E0FF94BF012000205DF808FB00BFB6
:104A80004DF808EDFFF7D2FF94BF012000205DF83C
:104A900008FB00BF4DF808EDFFF7C8FF34BF012049
:104AA00000205DF808FB00BF42000ED2B2F1FE4FBD
:104AB0000BD34FF09E03B3EB126209D44FEA0023ED
:104AC00043F0004323FA02F070474FF000007047B4
:104AD00012F1610F01D1420202D14FF0FF30704755
:104AE0004FF00000704700BF03460846194600F02B
:104AF00001B8FFFF70B5064C06460D4613462CB1B3
:104B000031462A460220AFF3008070BD204670BDBA
:104B10000000000070B50E4B0E4DED1AAD100024D4
:104B20001E46AC4204D056F8242090470134F8E7E2
:104B300000F0C2F9084D094BED1AAD1000241E46D5
:104B4000AC4204D056F8242090470134F8E770BDF9
:104B5000C44E0000C44E0000DC4E0000C44E0000F5
:104B6000034613F8012B002AFBD1181A01387047AD
:104B700000000000000000003F1B00003F1B000081
:104B8000000000000000000041070000690700006D
:104B900031070000850B0000A70B00003F07000055
:104BA00000000000000000003F1B00003F1B000051
:104BB00003040605141519202325241A1B1C161797
:104BC00010110E0F0203040506070C0D08090A0B4D
:104BD000021821040607020100FFFFFFFFFFFFFF8D
:104BE0000000000000000000CD130000B914000018
:104BF000050E08090D0C06070F04001303931A9203
:104C000017C585848687C4FF4008FE4340A0044042
:104C10004408FE4344A004400018FE4300C0044082
:104C20003000FE43309004403400FE433490044092
:104C30001C18FE431CC004401018FE4310C0044062
:104C40000818FE4308C004400C18FE430CC0044082
:104C50000C10FE430CB004401010FE4310B0044092
:104C60001810FE4318B004401C10FE431CB0044052
:104C70001410FE4314B004400418FE4304C0044062
:104C80000010FE4300B004400008FE4300A00440B2
:104C90000408FE4304A004400C08FE430CA004409A
:104CA0000808FE4308A004401418FE4314C0044042
:104CB0001818FE4318C004400410FE4304B004401A
:104CC0000810FE4308B004401400FE431490044052
:104CD0004C08FE434CA004400420FE4304D0044092
:104CE0002410FE4324B004402010FE4320B00440B2
:104CF0002810FE4328B004402C10FE432CB0044082
:104D00000020FE4300D004404808FE4348A0044071
:104D10001000FE4310900440151915190000FFFF04
:104D2000000100002C8CFF1F120000000002000098
:104D3000568CFF1F49000000002201009F8CFF1FBE
:104D40002100000000210100888CFF1F09000000E5
:104D500000220000C08CFF1F1C000000002100008A
:104D6000688CFF1F0900000000030000028DFF1F78
:104D700000000000010309043E8CFF1F000000003A
:104D800002030904DC8CFF1F000000000303090478
:104D9000068DFF1F00000000000000000000000062
:104DA00000000000FFFFFFFF000000000000000007
:104DB000B93C0000D13C0000A13C0000A93C00002F
:104DC000A53C0000AD3C0000653C0000773C0000C5
:104DD000973C00009B3C0000B13C0000B53C00004B
:104DE000353C0000413C00004D3C0000593C0000B7
:104DF000E13C0000C53C0000000000000000000095
:104E00009D3D0000B53D0000853D00008D3D00004A
:104E1000893D0000913D0000493D00005B3D0000E0
:104E20007B3D00007F3D0000953D0000993D000066
:104E3000193D0000253D0000313D00003D3D0000D2
:104E4000C53D0000A93D000000000000000000007A
:104E5000813E0000993E0000693E0000713E000066
:104E60006D3E0000753E00002D3E00003F3E0000FC
:104E70005F3E0000633E0000793E00007D3E000082
:104E8000FD3D0000093E0000153E0000213E0000EF
:104E9000A93E00008D3E0000000000000000000060
:104EA000F13E0000F73E0000E13E0000E53E00005C
:104EB000E93E0000ED3E0000F8B500BFF8BC08BCBC
:104EC0009E4670473504000021170000FD3C00009D
:0C4ED000E13D0000C53E0000013F000075
:104EDC0000000000006006400160064002600640D1
:104EEC00036006400460064005600640066006400C
:104EFC000760064008600640096006400A600640EC
:104F0C000B600640000000000000000000000000E4
:104F1C000000000000000000000000000000000085
:104F2C000000000000000000000000000000000075
:104F3C000000000000000000000000000000000065
:104F4C000000000000000000000000000000000055
:104F5C000000000000000000000000000000000045
:104F6C000000000000000000000000000000000035
:104F7C000000000000000000000000000000000025
:104F8C000000000000000000000000000000000015
:104F9C000000000000000000000000000000000005
:104FAC0000000000000000000000000000000000F5
:104FBC0000000000000000000000000000000000E5
:104FCC0000000000000000000000000000000000D5
:104FDC0000000000000000000000000000000000C5
:104FEC0000000000000000000000000000000000B5
:104FFC0000000000000000000000000000000000A5
:10500C000000000000000000000000000000000094
:10501C000000000000000000000000000000000084
:10502C000000000000000000000000000000000074
:10503C000000000000000000000000000000000064
:10504C000000000000000000000000000000000054
:10505C000000000000000000000000000000000044
:10506C000000000000000000000000000000000034
:10507C000000000000000000000000000000000024
:10508C000000000000000000000000000000000014
:10509C000000000000000000000000000000000004
:1050AC0000000000000000000000000000000000F4
:1050BC0000000000000000000000000000000000E4
:1050CC0000000000000000000000000000000000D4
:1050DC0000000000000000000000000000000000C4
:1050EC0000000000000000000000000000000000B4
:1050FC0000000000000000000000000000000000A4
:10510C000000000000000000000000000000000093
:10511C000000000000000000000000000000010082
:10512C000000000000000000000000000000000073
:10513C00000000000070064001700640027006403E
:10514C000370064004700640057006400670064069
:10515C000770064008700640097006400A70064049
:10516C000B70064000000000000000000000000072
:10517C000000000000000000000000000000000023
:10518C000000000000000000000000000000000013
:10519C000000000000000000000000000000000003
:1051AC0000000000000000000000000000000000F3
:1051BC0000000000000000000000000000000000E3
:1051CC0000000000000000000000000000000000D3
:1051DC0000000000000000000000000000000000C3
:1051EC0000000000000000000000000000000000B3
:1051FC0000000000000000000000000000000000A3
:10520C000000000000000000000000000000000092
:10521C000000000000000000000000000000000082
:10522C000000000000000000000000000000000072
:10523C000000000000000000000000000000000062
:10524C000000000000000000000000000000000052
:10525C000000000000000000000000000000000042
:10526C000000000000000000000000000000000032
:10527C000000000000000000000000000000000022
:10528C000000000000000000000000000000000012
:10529C000000000000000000000000000000000002
:1052AC0000000000000000000000000000000000F2
:1052BC0000000000000000000000000000000000E2
:1052CC0000000000000000000000000000000000D2
:1052DC0000000000000000000000000000000000C2
:1052EC0000000000000000000000000000000000B2
:1052FC0000000000000000000000000000000000A2
:10530C000000000000000000000000000000000091
:10531C000000000000000000000000000000000081
:10532C000000000000000000000000000000000071
:10533C000000000000000000000000000000000061
:10534C000000000000000000000000000000000051
:10535C000000000000000000000000000000000041
:10536C000000000000000000000000000000000031
:10537C00000000000000000000000000000201001E
:10538C000000000000000000000000000000000011
:10539C00000000000A040800FFFFFFFF12010002DA
:1053AC0000000040C016860400010102030118032E
:1053BC005400650065006E00730079006400750090
:1053CC0069006E006F0009024900020100C0320939
:1053DC000400000203000000092111010001221C3D
:1053EC000007058303400001070504034000010981
:1053FC000401000203000000092111010001222117
:10540C000007058103400001070502032000020686
:10541C00C9FF0904A15C7508150026FF0095400919
:10542C0075810295200976910295040976B102C026
:10543C0006ABFF0A0002A1017508150026FF0095B6
:10544C004009018102954009029102C026035400D3
:10545C00650065006E0073007900640075006900DA
:10546C006E006F0020005200610077004800490078
:10547C004400040309040C030000000000000000B9
:0C548C0000000000000000000000000014
:00000001FF
